:100026009004CE74FFF0E49004CDF07B017A04795D
:06003600CD7F0102187EDF
:102933009004CD7440F0A37401F0A312040C0000C2
:1029430025809004D47401F0E4A3F0A304F0E4A37D
:10295300F0A3F0A3F07B017A0479CD7F011208ACD8
:102963009004CD7440F09004CF12040C0000258035
:10297300E49004D4F09004D604F0E4A3F0A3F07B35
:0A298300017A0479CD7F020208AC4E
:0E2E0C00120026122933122D66D2AF02298D34
:102DCF00EFB40A0675990D3099FD8F993099FD2250
:03001E006F6B0005
:102C5E006028052600010203040506072B7E1516C3
:102C6E0028AED2A6ABF7158809CF4F3C0001020360
:0C2C7E000405060708090A0B0C0D0E0FD8
:10298D00E4900001F07B017A01790F9004D2F0A35D
:10299D007430F0E4FFFE122BA27F067E00122C2075
:1029AD00900001E01460151460141460211460236C
:1029BD00240470EC12209112004680E4800312274B
:1029CD002D7BFF7A00791E7D02122CC680D2122338
:0A29DD003180CDE4900001F080C6C7
:102D20009004C9EEF0A3EFF0122E34900520EEF0DF
:102D3000A3EFF09004C9E0FFA3E090051ECFF0A33D
:032D4000EFF0228F
:102D43009004CBEEF0A3EFF0122E34900524EEF0B6
:102D5300A3EFF09004CBE0FFA3E0900522CFF0A314
:032D6300EFF0226C
:10209100900007E0D39400500302218D122E34905A
:1020A1000520E0FCA3E0FDC3EF9DFFEE9CFEC39085
:1020B100051FE09F90051EE09E400302218D9004C4
:1020C100E87401F0A37405F0A3743EF0A37401F069
:1020D100A37400F0A37410F0900007E0149004EED4
:1020E100F0A37401F0A37403F0A3740DF07B017AE3
:1020F10005792E121D3A9004E3EEF0A3EFF078CFAC
:102101007C047D017B017A0579267E007F0812011E
:10211100369004E3E0FCA3E0FDEC9004D7F0EDA3DE
:10212100F09004EA7401F0A37403F0A3740DF0902D
:1021310004E3E0FFA3E09004EDCFF0A3EFF07B0117
:102141007A0479CD7D0C7C001222679004E1EEF0D7
:10215100A3EFF07B017A0479CD7D0C122CF37B0186
:102161007A03790D9004E3A3E0FD122CF39004E1CE
:10217100E0FF122DFD9004E1A3E0FF122DFD7FE7AA
:0C218100122DFDE4900007F0900006F025
:01218D00222F
:1000460090000EE0D39400400B122E349004CDEEB7
:04005600F0A3EFF034
:01005A002283
:10272D0078267C057D017B017A0079117E007F087A
:10273D00120136782E7C057D017B017A0079197E98
:10274D00007F10120136783E7C057D017B017A00F9
:10275D0079297E007F10120136E4FFFE122D897F4C
:10276D00067E00122C207B017A007911900006E084
:10277D00FF9004D2E4F0A3EFF0E4FFFE122BE17F13
:10278D00067E00122C207BFF7A00791E7D02022C22
:01279D00C675
:08279E009005C2EEF0A3EFF07C
:1027A60090051DE0700F122E3490051BEEF0A3EF7E
:1027B600F0A37401F0122E3490051BE0FCA3E0FD9B
:1027C600C3EF9DFFEE9CFEC39005C3E09F9005C23C
:1027D600E09E5032E490051DF02091033092067E73
:1027E600007F0180047E007F00EF64014E700CD2F2
:1027F600937F107E27122C20C29322D2947FD07E04
:0628060007122C20C29411
:01280C0022A9
:10233100900007E0D39400405690000EE07050905A
:102341000007E014F07048900006E0D39400403A92
:10235100E49004CDF0A3F0900006E0FF9004CDE0FE
:10236100FCA3E0FDC39FEC9400501F74102DF58277
:10237100E43400F583E0FF122DFD9004CEE004F07B
:1023810070D59004CDE004F080CDE4900006F0908B
:10239100000EE0D394004056900007E0705090008A
:1023A1000EE014F0704890000DE0D39400403AE440
:1023B1009004CDF0A3F090000DE0FF9004CDE0FC7F
:1023C100A3E0FDC39FEC9400501F740F2DF582E430
:1023D1003401F583E0FF122DEE9004CEE004F0709D
:0E23E100D59004CDE004F080CDE490000DF026
:0123EF0022CB
:07000300252E3278000A00EF
:0B2AD1009005BEEBF0A3EAF0A3E9F0D3
:102ADC00E4A3F09005C1E0FFC3941050289005BE0C
:102AEC00E0FBA3E0FAA3E0F98F8275830012017575
:102AFC00900551F07BFF7A007903120C929005C17E
:0E2B0C00E004F080CE7BFF7A007908020C9284
:0B218E00900589EBF0A3EAF0A3E9F054
:10219900900595E4F0A37403F0900595E0C4F85414
:1021A900F0C868FFA3E0C4540F48A3CFF0A3EFF031
:1021B900E4A3F07403540FA3F07D037C0090059809
:1021C900E02401FF900597E03400FEEFC4F8540FB6
:1021D900C868FFEEC454F048FEC3ED9FEC9E502042
:1021E900900599A3E0FF90058FE0FBA3E0FAA3E037
:1021F900F98D828C83EF1201B40DBD00010C80BDF5
:1022090090058FE0F9A3E0FAA3E0900579C9F0A35E
:10221900EAF0A3E9F0A312040C000000409005893C
:10222900E0F9A3E0FAA3E0900580C9F0A3EAF0A3DE
:10223900E9F090058CE0F9A3E0FAA3E0900583C9E1
:10224900F0A3EAF0A3E9F0900592E0FBA3E0FAA37A
:0D225900E0F9121BDD900595E0FEA3E0FF0B
:012266002255
:0B1D3A009004E5EBF0A3EAF0A3E9F051
:101D45009004EEE0FFC4540FFD9004F4E4F0A3ED1D
:101D5500F0EF540FFF7E00A3EEF0A3EFF0605C9070
:101D650004EEE0FF9004F2EEF0A3EFF09004EEE055
:101D75002410FFE433FE9004F6E0FAA3E0FBC3EF82
:101D85009BFFEE9AFE9004F2E0FCA3E0FDC39FECFE
:101D95009E5028C374109BFF9004EBE0FBA3E0FA70
:101DA500A3E0F98D828C83EF1201B49004F3E00473
:101DB500F070B99004F2E004F080B19004EBE0F922
:101DC500A3E0FAA3E09004FBC9F0A3EAF0A3E9F0CD
:101DD5009004F5E02401FF9004F4E03400FEEFC424
:101DE500F8540FC868FFEEC454F048FEE4FCFD90BB
:101DF50004FE1204009004E5E0F9A3E0FAA3E090E4
:101E05000502C9F0A3EAF0A3E9F09004E8E0F9A31C
:101E1500E0FAA3E0900505C9F0A3EAF0A3E9F09084
:101E250004EFE0FBA3E0FAA3E0F9121E679004EFCC
:101E3500E0FBA3E0FAA3E0F99004F4A3E004C454A2
:101E4500F0FD122CC69004F5E02401FF9004F4E0A7
:101E55003400FEEFC4F8540FC868FFEEC454F048D0
:011E6500FE7E
:011E66002259
:100F8C00637C777BF26B6FC53001672BFED7AB763A
:100F9C00CA82C97DFA5947F0ADD4A2AF9CA472C0E5
:100FAC00B7FD9326363FF7CC34A5E5F171D8311552
:100FBC0004C723C31896059A071280E2EB27B27573
:100FCC0009832C1A1B6E5AA0523BD6B329E32F84EB
:100FDC0053D100ED20FCB15B6ACBBE394A4C58CFE3
:100FEC00D0EFAAFB434D338545F9027F503C9FA8B7
:100FFC0051A3408F929D38F5BCB6DA2110FFF3D285
:10100C00CD0C13EC5F974417C4A77E3D645D197338
:10101C0060814FDC222A908846EEB814DE5E0BDB32
:10102C00E0323A0A4906245CC2D3AC629195E47969
:10103C00E7C8376D8DD54EA96C56F4EA657AAE08C3
:10104C00BA78252E1CA6B4C6E8DD741F4BBD8B8A5E
:10105C00703EB5664803F60E613557B986C11D9EC4
:10106C00E1F8981169D98E949B1E87E9CE5528DF3B
:10107C008CA1890DBFE6426841992D0FB054BB1667
:10108C0052096AD53036A538BF40A39E81F3D7FBF1
:10109C007CE339829B2FFF87348E4344C4DEE9CB3B
:1010AC00547B9432A6C2233DEE4C950B42FAC34EB0
:1010BC00082EA16628D924B2765BA2496D8BD12566
:1010CC0072F8F66486689816D4A45CCC5D65B6920A
:1010DC006C704850FDEDB9DA5E154657A78D9D84AE
:1010EC0090D8AB008CBCD30AF7E45805B8B34506CE
:1010FC00D02C1E8FCA3F0F02C1AFBD0301138A6BE8
:10110C003A9111414F67DCEA97F2CFCEF0B4E67317
:10111C0096AC7422E7AD3585E2F937E81C75DF6EC5
:10112C0047F11A711D29C5896FB7620EAA18BE1B2B
:10113C00FC563E4BC6D279209ADBC0FE78CD5AF4D1
:10114C001FDDA8338807C731B11210592780EC5F17
:10115C0060517FA919B54A0D2DE57A9F93C99CEF73
:10116C00A0E03B4DAE2AF5B0C8EBBB3C8353996174
:10117C00172B047EBA77D626E169146355210C7DB2
:10118C008D01020408102040801B366CD8AB4D9AA0
:10119C002F5EBC63C697356AD4B37DFAEFC591391F
:1011AC0072E4D3BD61C29F254A943366CC831D3A49
:1011BC0074E8CB8D01020408102040801B366CD8DB
:1011CC00AB4D9A2F5EBC63C697356AD4B37DFAEFEC
:1011DC00C5913972E4D3BD61C29F254A943366CC64
:1011EC00831D3A74E8CB8D01020408102040801B4B
:1011FC00366CD8AB4D9A2F5EBC63C697356AD4B3A8
:10120C007DFAEFC5913972E4D3BD61C29F254A9432
:10121C003366CC831D3A74E8CB8D01020408102090
:10122C0040801B366CD8AB4D9A2F5EBC63C697358D
:10123C006AD4B37DFAEFC5913972E4D3BD61C29F14
:10124C00254A943366CC831D3A74E8CB8D01020495
:10125C0008102040801B366CD8AB4D9A2F5EBC63B7
:10126C00C697356AD4B37DFAEFC5913972E4D3BD14
:0F127C0061C29F254A943366CC831D3A74E8CB38
:052E2800EFF0A3E0FF44
:072E2D00EF900F8C93FF22D0
:07003C00EF90108C93FF22EE
:1004F100E0F9A3E0FAA3E0C9900413F0A3EAF0A3A2
:02050100E9F01F
:1005030090050B12040C00000000E47F04FEFDFCC8
:1005130090050BE0F8A3E0F9A3E0FAA3E0FBC31214
:1005230003AC400302064AE47F04FEFDFC90050B86
:10053300E0F8A3A3A3E012028F900413E0FBA3E06F
:10054300FAA3E0F98F828E83120175FD90050BA348
:10055300A3E0FAA3E090041675F00412043DEA2523
:10056300E025E02583F583EDF0EF2401FFE43EFE73
:10057300900413E0FBA3E0FAA3E0F98F828E8312C9
:100583000175FF90050BA3A3E0FAA3E09004177590
:10059300F00412043DEA25E025E02583F583EFF01E
:1005A300E47F04FEFDFC90050BE0F8A3E0F9A3E073
:1005B300FAA3E0FB12028FEF2402FDE43EFC900459
:1005C30013E0FBA3E0FAA3E0F98D828C831201759B
:1005D300FD90050BA3A3E0FAA3E090041875F004C3
:1005E30012043DEA25E025E02583F583EDF0EF24B1
:1005F30003FFE43EFE900413E0FBA3E0FAA3E0F95B
:100603008F828E83120175FF90050BA3A3E0FAA3DB
:10061300E090041975F00412043DEA25E025E02575
:1006230083F583EFF090050BE0FCA3E0FDA3E0FE70
:10063300A3E02401FFE43EFEE43DFDE43CFC900521
:100643000B12040002050DE47F2CFEFDFC90050B4C
:10065300E0F8A3E0F9A3E0FAA3E0FBC31203AC4084
:10066300030208AB90050F12040C00000000E47FA6
:1006730004FEFDFC90050FE0F8A3E0F9A3E0FAA364
:10068300E0FBC31203AC505AE47F04FEFDFC90056B
:100693000BE0F8A3E0F9A3E0FAA3E0FB12028FABAF
:1006A3000790050FA3A3A3E0FF2B2412F582E434E4
:1006B30004F583E0FE74172FF582E43405F583EE29
:1006C300F090050FE0FCA3E0FDA3E0FEA3E024010E
:1006D300FFE43EFEE43DFDE43CFC90050F12040004
:1006E300808C90050BA3A3A3E05403FFE4FEFDFC61
:1006F300FBFAF9F8C31203AC6003020781900517F4
:10070300E0FFE4FCFDFE900513120400900518E0E1
:10071300900517F0900519E0900518F090051AE080
:10072300900519F0900513A3A3A3E090051AF09088
:100733000517E0FF122E2D900517122E289005188D
:10074300122E28900519122E2890051AEFF0900505
:1007530017E0FFC007E47B04F890050BE0FCA3E07F
:10076300FDA3E0FEA3E0FF12031A748C2FF582743D
:10077300113EF583E493FED0E06E900517F09005EB
:100783000BA3A3E0FEA3E090040675F00412043D5E
:10079300EE25E025E02583F583E0FF900517E0FED5
:1007A300EF6EFF90050BA3A3E0FAA3E09004167588
:1007B300F00412043DEA25E025E02583F583EFF0FC
:1007C30090050BA3A3E0FEA3E090040775F00412C9
:1007D300043DEE25E025E02583F583E0FF90051831
:1007E300E0FEEF6EFF90050BA3A3E0FAA3E09004F5
:1007F3001775F00412043DEA25E025E02583F5830F
:10080300EFF090050BA3A3E0FEA3E090040875F0BE
:100813000412043DEE25E025E02583F583E0FF90F7
:100823000519E0FEEF6EFF90050BA3A3E0FAA3E02A
:1008330090041875F00412043DEA25E025E02583B1
:10084300F583EFF090050BA3A3E0FEA3E09004096A
:1008530075F00412043DEE25E025E02583F583E0E1
:10086300FF90051AE0FEEF6EFF90050BA3A3E0FADD
:10087300A3E090041975F00412043DEA25E025E095
:100883002583F583EFF090050BE0FCA3E0FDA3E0E7
:10089300FEA3E02401FFE43EFEE43DFDE43CFC90C6
:0808A300050B12040002064AD5
:0108AB00222A
:05280D0090050CEFF046
:10281200E4A3F0E490050EF090050DE075F004A439
:10282200FF900410E0FBA3E0FAA3E02FF9EA35F0F1
:10283200FA90050EE0FF7C0029F9EC3AFA12015CED
:10284200FE90050DE025E025E0FD90050CE0C45466
:10285200F02DFDEF2D2416F582E43404F583E06EAD
:102862001201A290050EE004F0E0B404AB90050D55
:07287200E004F0E0B4049C57
:01287900223C
:1025C200E490050CF0E490050DF090050DE0FFC3DA
:1025D2009404505AEF75F004A4FF900410E0FBA39A
:1025E200E0FAA3E02FF9EA35F0FA90050CE07E005C
:1025F20029F9EE3AFA12015CFF122E2DAD07900571
:102602000DE075F004A4FF900410E0FBA3E0FAA330
:10261200E02FF9EA35F0FA90050CE07E0029F9EE98
:102622003AFAED1201A290050DE004F0809C9005AB
:0A2632000CE004F0E0C39404408BB8
:01263C00227B
:1023F000900410E0FBA3E0FAA3E0F99000011201C1
:1024000075FF9000051201759000011201B4900053
:10241000091201759000051201B490000D120175AA
:102420009000091201B490000DEF1201B490000267
:10243000120175FF90000A1201759000021201B49A
:1024400090000AEF1201B4900006120175FF90008F
:102450000E1201759000061201B490000EEF1201E9
:10246000B4900003120175FF90000F1201759000E7
:10247000031201B490000B12017590000F1201B409
:1024800090000712017590000B1201B4900007EF45
:032490000201B492
:102C9300FDE0FF122CB4122CB4122CB4AC07E0FFED
:102CA300122CB4E06F6C6DA3FDE0FF122CB4122C58
:012CB300B46C
:102CB400EFC4131313540175F01BA4FEEF25E06E4B
:022CC400FF22ED
:10168500E490050CF0900410E0FBA3E0FAA3E0F968
:1016950090050CE0FF75F004A4F58285F083120136
:1016A5007590050FF0EF75F004A4FFE92FF9EA3501
:1016B500F0FA900001120175FF900410A3E0FAA35F
:1016C500E0F990050CE0FE75F004A4F58285F08341
:1016D5001201756FFDEE75F004A4FFE92FF9EA35E7
:1016E500F0FA9000021201756DFF9000031201756A
:1016F5006F90050DF0900001120175FF900410A385
:10170500E0FAA3E0F990050CE075F004A4F58285F4
:10171500F0831201756FFF90050EF0122CB4EFF0F7
:10172500900410E0FBA3E0FAA3E0F990050CE0FEBD
:1017350075F004A4F582E92582F9EA35F0FA12017B
:101745005CFD90050DE06F6D1201A2EE75F004A42D
:10175500FF900410E0FBA3E0FAA3E02FF9EA35F0CF
:10176500FA900002120175FF9000011201756FFFDA
:1017750090050EF0122CB4EFF090050CE075F00416
:10178500A4FF900410E0FBA3E0FAA3E02FF9EA35EB
:10179500F0FAE92401F9E43AFA12015CFF90050D2B
:1017A500E0FEA3E06E6F1201A290050CE075F00457
:1017B500A4FF900410E0FBA3E0FAA3E02FF9EA35BB
:1017C500F0FA900003120175FF9000021201756F87
:1017D500FF90050EF0122CB4EFF090050CE075F0BB
:1017E50004A4FF900410E0FBA3E0FAA3E02FF9EABC
:1017F50035F0FAE92402F9E43AFA12015CFF9005A2
:101805000DE0FEA3E06E6F1201A290050CE075F0ED
:1018150004A4FF900410E0FBA3E0FAA3E02FF9EA8B
:1018250035F0FA900003120175FF90050FE06FFF88
:1018350090050EF0122CB4EFF090050CE075F00455
:10184500A4FF900410E0FBA3E0FAA3E02FF9EA352A
:10185500F0FAE92403F9E43AFA12015CFF90050D68
:10186500E0FEA3E06E6F1201A290050CE004F0E02B
:08187500C39404500302168A1B
:01187D002248
:10148B00E49005B8F0A3F09005B8E0FEA3E0FFC32D
:10149B009404EE648094804003021684EF7802C3B8
:1014AB0033CE33CED8F9FF900410E0FBA3E0FAA3C0
:1014BB00E0F98F828E831201759005BAF0E92FF94E
:1014CB00EA3EFA9000011201759005BBF090000204
:1014DB001201759005BCF09000031201759005BDCB
:1014EB00F09005BAE0FF122CB4122CB4AD07E0FF5C
:1014FB00122CB4EF6D122CABEF6DA3122C93AC0727
:10150B00E0FF122CB4122CA3E06F6DFD9005B8E038
:10151B00FEA3E07802C333CE33CED8F9FF9004108C
:10152B00E0FBA3E0FAA3E0F98F828E83ED1201B406
:10153B009005BBE0FF122CB4122CB4AD07E0FF12E8
:10154B002CB4EF6D122CABEF6D9005BA122CABE0F7
:10155B006F6D9005BC122C93AC07E0FF122CB412EC
:10156B002CB4E06F6C6DFD9005B8E0FEA3E0780243
:10157B00C333CE33CED8F9FF900410E0FBA3E0FACF
:10158B00A3E02FF9EA3EFA900001ED1201B49005A9
:10159B00BA122CACAD07E0FF122CB4122CB4E06FD6
:1015AB00122CA9E06F6DFDA3E0FF122CB4122CB42A
:1015BB00AC07E0FF122CB4EF6CFC122CACEF122C2E
:1015CB00A8AC07E0FF122CB4E06F6C6DFD9005B872
:1015DB00E0FEA3E07802C333CE33CED8F9FF9004FC
:1015EB0010E0FBA3E0FAA3E02FF9EA3EFA90000229
:1015FB00ED1201B49005BB122CACAD07E0FF122C21
:10160B00B4122CB4E06F6DFD9005BA122CACAC0784
:10161B00E0FF122CB4E06F6C6DFD9005BC122CAC8E
:10162B00E06F6DFDA3E0FF122CB4122CB4AC07E0FD
:10163B00FF122CB4EF6CFC122CACEF6C6DFD900513
:10164B00B8E0FEA3E07802C333CE33CED8F9FF90D7
:10165B000410E0FBA3E0FAA3E02FF9EA3EFA9000B6
:10166B0003ED1201B49005B9E004F060030214928B
:09167B009005B8E004F00214929D
:011684002243
:10263D00E49005C4F0E49005C5F09005C5E0FFC336
:10264D009404505AEF75F004A4FF900410E0FBA31E
:10265D00E0FAA3E02FF9EA35F0FA9005C4E07E0028
:10266D0029F9EE3AFA12015CFF12003CAD07900514
:10267D00C5E075F004A4FF900410E0FBA3E0FAA3FD
:10268D00E02FF9EA35F0FA9005C4E07E0029F9EE65
:10269D003AFAED1201A29005C5E004F0809C900578
:0A26AD00C4E004F0E0C39404408B85
:0126B7002200
:10249300900410E0FBA3E0FAA3E0F990000D120111
:1024A30075FF90000912017590000D1201B49000A0
:1024B300051201759000091201B490000112017513
:1024C3009000051201B4900001EF1201B4900002D4
:1024D300120175FF90000A1201759000021201B4F7
:1024E30090000AEF1201B4900006120175FF9000EC
:1024F3000E1201759000061201B490000EEF120146
:10250300B4900003120175FF90000712017590004B
:10251300031201B490000B1201759000071201B46D
:1025230090000F12017590000B1201B490000FEF91
:032533000201B4EE
:102A85009004F8E0F9A3E0FAA3E0900410C9F0A3DC
:052A9500EAF0A3E9F0E6
:102A9A00E490050BF0FF12280D90050B7401F0125B
:102AAA0025C21223F012168590050BE0FF12280D9D
:102ABA0090050BE004F0E0C3940A40E31225C21229
:072ACA0023F07F0A02280D32
:102A3800900576E0F9A3E0FAA3E0900410C9F0A3AA
:052A4800EAF0A3E9F033
:102A4D00E49005C6F07F0A12280D9005C67409F0B2
:102A5D0012249312263D9005C6E0FF12280D121484
:102A6D008B9005C6E014F0E0D3940050E31224934C
:082A7D0012263DE4FF02280DC2
:1028D8009004FBE0F9A3E0FAA3E090050EC9F0A389
:1028E800EAF0A3E9F09004F8E0FBA3E0FAA3E0F92A
:0B28F80090050BEBF0A3EAF0A3E9F061
:10290300E4FF90050EE0FBA3E0FAA3E0F98F8275E4
:102913008300120175FE90050BE0FBA3E0FAA3E030
:0F292300F98F82758300EE1201B40FEFB410D359
:012932002282
:102B1A009005A6EBF0A3EAF0A3E9F09005A6E0F988
:102B2A00A3E0FAA3E090050EC9F0A3EAF0A3E9F046
:102B3A009005AC1228F09005ACE0F9A3E0FAA3E006
:102B4A00900410C9F0A3EAF0A3E9F09005A91204D1
:042B5A00F1022A9AC0
:102B5E009005AFEBF0A3EAF0A3E9F09005AFE0F932
:102B6E00A3E0FAA3E090050EC9F0A3EAF0A3E9F002
:102B7E009005B51228F09005B5E0F9A3E0FAA3E0B0
:102B8E00900410C9F0A3EAF0A3E9F09005B2120484
:042B9E00F1022A4DC9
:0829E700E0FBA3E0FAA3E0F914
:0B29EF0090050BEBF0A3EAF0A3E9F069
:1029FA00E4FF90050BE0FBA3E0FAA3E02FF9E43A29
:102A0A00FAC003C002C00112015CFE9004C6E0FBDA
:102A1A00A3E0FAA3E0F98F827583001201756ED0E4
:0D2A2A0001D002D0031201A20FEFB410C5BD
:012A3700227C
:0B1E67009004F8EBF0A3EAF0A3E9F010
:101E72009004FEE0FCA3E0FDA3E0FEA3E0540FFF0C
:101E820090050AEFF0C002C0019004FBE0F9A3E064
:101E9200FAA3E090050EC9F0A3EAF0A3E9F0D0019D
:101EA200D0021228F89004F8E0F9A3E0FAA3E09037
:101EB2000410C9F0A3EAF0A3E9F0900502E0FBA345
:101EC200E0FAA3E0F94A6004EB1204F9900505E098
:101ED200FBA3E0FAA3E0F94A600B9004C6EBF0A37F
:101EE200EAF0A3E9F0E4900508F0A3F0900508E019
:101EF200FEA3E0FFE4FCFD9004FEE0F8A3E0F9A3FA
:101F0200E0FAA3E0FBD31203AC40469004FB122993
:101F1200E71228D8122A859004F8E0F9A3E0FAA380
:101F2200E09004C6C9F0A3EAF0A3E9F09004FCE44F
:101F320075F01012022B9004F9E475F01012022BC6
:101F4200900509E02410F0900508E03400F0021E2C
:101F5200EE90050AE060371228D890050AE0FFFDEE
:101F6200C374109DFDE49400FCC004C0059004F805
:101F7200E0FBA3E0FAA3E0F9EFFD7C00E92DF9EC28
:0E1F82003AFA7D00D007D006120449122A85D3
:011F9000222E
:0B1BDD00900576EBF0A3EAF0A3E9F01E
:101BE80090057CE0FCA3E0FDA3E0FEA3E0540FFF1A
:101BF800900588EFF0C002C001900579E0F9A3E0F4
:101C0800FAA3E090050EC9F0A3EAF0A3E9F0D00129
:101C1800D0021228F8900576E0F9A3E0FAA3E09044
:101C28000410C9F0A3EAF0A3E9F0900580E0FBA353
:101C3800E0FAA3E0F94A6007900413EB1204FC9061
:101C48000583E0FBA3E0FAA3E0F94A600B9004C621
:101C5800EBF0A3EAF0A3E9F0E4900586F0A3F09096
:101C68000586E0FEA3E0FFE4FCFD90057CE0F8A318
:101C7800E0F9A3E0FAA3E0FBD31203AC405E9005C1
:101C880079E0F9A3E0FAA3E090050EC9F0A3EAF021
:101C9800A3E9F09005761228F0122A3890057612FA
:101CA80029E7900579E0F9A3E0FAA3E09004C6C912
:101CB800F0A3EAF0A3E9F090057AE475F0101202B7
:101CC8002B900577E475F01012022B900587E0241D
:101CD80010F0900586E03400F0021C67900588E05B
:101CE800604F900579E0F9A3E0FAA3E090050EC9EA
:101CF800F0A3EAF0A3E9F09005761228F0900588A1
:101D0800E0FFFDC374109DFDE49400FCC004C00511
:101D1800900576E0FBA3E0FAA3E0F9EFFD7C00E98B
:101D28002DF9EC3AFA7D00D007D006120449122AA0
:011D38003872
:011D39002287
:10128B0000C1814001C0804101C0804100C181404B
:10129B0001C0804100C1814000C1814001C080413B
:1012AB0001C0804100C1814000C1814001C080412B
:1012BB0000C1814001C0804101C0804100C181401B
:1012CB0001C0804100C1814000C1814001C080410B
:1012DB0000C1814001C0804101C0804100C18140FB
:1012EB0000C1814001C0804101C0804100C18140EB
:1012FB0001C0804100C1814000C1814001C08041DB
:10130B0001C0804100C1814000C1814001C08041CA
:10131B0000C1814001C0804101C0804100C18140BA
:10132B0000C1814001C0804101C0804100C18140AA
:10133B0001C0804100C1814000C1814001C080419A
:10134B0000C1814001C0804101C0804100C181408A
:10135B0001C0804100C1814000C1814001C080417A
:10136B0001C0804100C1814000C1814001C080416A
:10137B0000C1814001C0804101C0804100C181405A
:10138B0000C0C101C30302C2C60607C705C5C4041A
:10139B00CC0C0DCD0FCFCE0E0ACACB0BC90908C88A
:1013AB00D81819D91BDBDA1A1EDEDF1FDD1D1CDC7A
:1013BB0014D4D515D71716D6D21213D311D1D010EA
:1013CB00F03031F133F3F23236F6F737F53534F4DA
:1013DB003CFCFD3DFF3F3EFEFA3A3BFB39F9F8384A
:1013EB0028E8E929EB2B2AEAEE2E2FEF2DEDEC2C3A
:1013FB00E42425E527E7E62622E2E323E12120E0AA
:10140B00A06061A163A3A26266A6A767A56564A499
:10141B006CACAD6DAF6F6EAEAA6A6BAB69A9A86809
:10142B0078B8B979BB7B7ABABE7E7FBF7DBDBC7CF9
:10143B00B47475B577B7B67672B2B373B17170B069
:10144B005090915193535292965657975595945459
:10145B009C5C5D9D5F9F9E5E5A9A9B5B99595898C9
:10146B00884849894B8B8A4A4E8E8F4F8D4D4C8CB9
:10147B004484854587474686824243834181804029
:1026B80090059BEBF0A3EAF0A3E9F0A3ECF0A3EDFF
:0126C800F021
:1026C900A374FFF0A3F090059E74FFF5F012024188
:1026D90045F0604590059BE0FBA3E475F00112020B
:1026E90041A9F0FA12015CFF9005A0E06FFFE4FC3C
:1026F900FDFE9005A21204009005A2A3A3A3E0FC8D
:1027090090128B93FE9005A1E06E9005A0F0EC90DD
:10271900138B939005A1F080AD9005A0E0FEA3E096
:03272900FDEDFFC4
:01272C00228A
:102267009004E5EBF0A3EAF0A3E9F0A3ECF0A3ED0B
:01227700F076
:102278009004EF74FFF0A3F09004E874FFF5F012F7
:10228800024145F060459004E5E0FBA3E475F001E8
:10229800120241A9F0FA12015CFF9004EFE06FFF0F
:1022A800E4FCFDFE9004F11204009004F1A3A3A342
:1022B800E0FC90128B93FE9004F0E06E9004EFF037
:1022C800EC90138B939004F0F080AD9004ED74FFC4
:1022D800F5F012024145F060459004EAE0FBA3E402
:1022E80075F001120241A9F0FA12015CFF9004EFA7
:1022F800E06FFFE4FCFDFE9004F11204009004F18D
:10230800A3A3A3E0FC90128B93FE9004F0E06E90E0
:1023180004EFF0EC90138B939004F0F080AD9004F0
:08232800EFE0FEA3E0FDEDFF74
:01233000228A
:042C8A00021D000027
:102D6600E49004CDF0A304F0A3F0A3F0E4A3F0A351
:102D760074DCF0A3E4F0A304F0FB7A0479CDE4FF5D
:032D8600021A42EC
:082E3400C28CAF1EAE1DD28C52
:012E3C002273
:082C20009004CDEEF0A3EFF0EB
:102C2800122E349004CFEEF0A3EFF0122E34AB073F
:102C3800AA069004CDE0FEA3E0FF7C007D0A120105
:102C4800D6A3E0FCA3E0FDC3EB9DFDEA9CFCC3ED2D
:052C58009FEC9E40D638
:012C5D002254
:0E2DDF0000007F2B7E067DCBDDFEDEFCDFFAE2
:012DED0022C3
:10187E00EFD3940540037F012212015CFED3940343
:10188E0040037F0222EF7041EE700B9000011201B7
:10189E0075F45293529412015CB4010B9000011234
:1018AE0001754293F4529412015CFEB4020A900048
:1018BE000112017542934294EEB4030D9000011291
:1018CE000175FEF45293EE4294EF640170431201DF
:1018DE005CFE700B900001120175F452915292EE63
:1018EE00B4010B9000011201754291F45292120153
:1018FE005CB4020A900001120175429142921201EB
:10190E005CB4030D900001120175FEF45291EE428B
:10191E0092EF6402704312015CFE700B9000011294
:10192E000175F452955296EEB4010B90000112011E
:10193E00754295F4529612015CB4020A900001129F
:10194E0001754295429612015CB4030D900001128E
:10195E000175FEF45295EE4296EF64037043120148
:10196E005CFE700B900001120175F452B152B2EE92
:10197E00B4010B90000112017542B1F452B2120182
:10198E005CB4020A90000112017542B142B212011A
:10199E005CB4030D900001120175FEF452B1EE42DB
:1019AE00B2EF6404704312015CFE700B90000112E2
:1019BE000175F452B352B4EEB4010B900001120152
:1019CE007542B3F452B412015CB4020A90000112D3
:1019DE00017542B342B412015CB4030D90000112C2
:1019EE000175FEF452B3EE42B4EF6405704312017A
:1019FE005CFF700B900001120175F452C952CAEFD0
:101A0E00B4010B90000112017542C9F452CA1201C1
:101A1E005CB4020A90000112017542C942CA120159
:101A2E005CB4030D900001120175FFF452C9EF4230
:041A3E00CA7F002239
:042C8E004100000001
:1008AC009004DBEBF0A3EAF0A3E9F09004DAEFF0AC
:1008BC0064016003020AC290000204F0E4A3F0A3F6
:1008CC00F0A3F0A3F0A3F0A3F0900001F09004DEED
:1008DC00F09004DEE0FFC394FF5014740E2FF582E9
:1008EC00E43402F583E4F09004DEE004F080E2E40A
:1008FC009004DEF09004DEE0FFC394FF50147410FB
:10090C002FF582E43400F583E4F09004DEE004F08B
:10091C0080E29004DBE0FBA3E0FAA3E0F912015CB7
:10092C00D394C040037F022290000A120175B401D7
:10093C0004D2BC8002C2BC12015CFFE598543F4F4C
:10094C00F598EF64C06008EF64406003020A3C90C5
:10095C0000021203D07F007E307D2A7C0012031A25
:10096C009004DF120400E4FFFE7D01FC9004DFE044
:10097C00F8A3E0F9A3E0FAA3E0FBC31203AC400335
:10098C007F02229004DFE0F8A3E0F9A3E0FAA3E0F1
:10099C00FBC3E49BFFE49AFE740199FDE498FC9080
:1009AC0004DF1204009004DBE0FBA3E0FAA3E0F9FF
:1009BC00900001120175FB64017038C28E538EFEDB
:1009CC005389BF5389CF438E409004DFE0FCA3E0F2
:1009DC00FDA3E0FEA3E0FF78081203BD8F8D900409
:1009EC00DFA3A3A3E0F58BC2AB5389BF538FFDD21A
:1009FC008E8076EB64027035538EEF438E01538EEE
:100A0C00F7438E049004DFE0FCA3E0FDA3E0FEA31B
:100A1C00E0FF78081203BD8FD69004DFA3A3A3E0F8
:100A2C00F5D753AFFB538EF7438E10803C7F0222D9
:100A3C009004DBE0FBA3E0FAA3E0F912015CFF7089
:100A4C0013900008120175B40105438E20801A53CF
:100A5C008EDF8015EFB48011900008120175B4017F
:100A6C0005438780800353877F9004DBE0FBA3E082
:100A7C00FAA3E0F9900009120175B40104D2AC801C
:100A8C0002C2AC900007120175B40104D29C800222
:100A9C00C29C90000B12017554C0FFE5A2543F4F4D
:100AAC00F5A290000C120175B40105439710800358
:100ABC005397EF7F00229004DAE064026003020C8B
:100ACC00249000097402F0E4A3F0A3F0A3F0A3F0C7
:100ADC00A3F0A3F09004DEF09004DEE0FFC394FFDB
:100AEC005014740D2FF582E43403F583E4F0900474
:100AFC00DEE004F080E2E49004DEF09004DEE0FF3F
:100B0C00C394FF5014740F2FF582E43401F583E481
:100B1C00F09004DEE004F080E29004DBE0FBA3E064
:100B2C00FAA3E0F912015CFF64C06008EF64406056
:100B3C0003020BE490000A120175B4010543B501E0
:100B4C00800353B5FE12015CB4C005439A80800348
:100B5C00539A7F9000021203D07F007E307D2A7C56
:100B6C000012031A9004DF120400E4FFFE7D01FC66
:100B7C009004DFE0F8A3E0F9A3E0FAA3E0FBC312D2
:100B8C0003AC40037F02229004DFE0F8A3E0F9A35A
:100B9C00E0FAA3E0FBC3E49BFFE49AFE740199FD29
:100BAC00E498FC9004DF120400538EEF538EF7434D
:100BBC008E049004DFE0FCA3E0FDA3E0FEA3E0FFC5
:100BCC0078081203BD8FD69004DFA3A3A3E0F5D75A
:100BDC0053AFFB438E1080037F02229004DBE0FBBB
:100BEC00A3E0FAA3E0F9900009120175B4010543E2
:100BFC00AF01800353AFFE900007120175B40105DD
:100C0C00439A108003539AEF90000B120175540114
:0A0C1C00FFE5BA54FE4FF5BA7F035E
:010C260022AB
:03002300021F9128
:101F9100C0E0C0F0C083C082C0D075D008209803D3
:0E1FA100022060C298900008E06003022060F9
:101FAF00AF99EF24AF604F24FE602D24FE60132401
:101FBF00FD602C24FE604C240D70659000007401B0
:101FCF008039900000E064017056900006E06401D3
:101FDF00704E90000104803E9000007402801C90AF
:101FEF000000E064027039900006E06401703190E7
:101FFF000001740280209000007404F0900006E449
:10200F00F0801D900000E0B40416900006E0B401CB
:10201F000F9000017404F0900000E4F0900006F0BF
:10202F00900001E070067FC8FE122D20900006E0A0
:10203F00C394FF4002E4F0900006E0FF04F0741038
:10204F002FF582E43400F583E599F09000077405CD
:01205F00F090
:10206000E599B4AF0690040DE004F090040DE0B4DF
:10207000050AE599B47F0575C760E4F0309907C299
:1020800099900005E4F0D0D0D082D083D0F0D0E099
:01209000321D
:0300430002287A16
:10287A00C0E0C0F0C083C082C0D075D010E59A30E5
:10288A00E034539AFE90000FE0702B7FC8FE122DA1
:10289A004390000DE0C394FF4002E4F090000DE085
:1028AA00FF04F0740F2FF582E43401F583E59BF001
:1028BA0090000E7405F0E59A30E108539AFD9000F5
:0E28CA000CE4F0D0D0D082D083D0F0D0E03239
:0F2DEE00900005E070FA9000057401F08F9922B3
:102DA90012015CFF600C122DEE740129F9E43AFA64
:032DB90080EE2287
:0B2CC6009004F8EBF0A3EAF0A3E9F0A3
:102CD100E4FEEEC39D501A9004F8E0FBA3E0FAA3D2
:102CE100E0F98E82758300120175FF122DEE0E80C0
:012CF100E101
:012CF20022BF
:0F2DFD0090000CE070FA90000C7401F08F9B2294
:102DBC0012015CFF600C122DFD740129F9E43AFA42
:032DCC0080EE2274
:0B2CF3009004E5EBF0A3EAF0A3E9F089
:102CFE00E4FEEEC39D501A9004E5E0FBA3E0FAA3B8
:102D0E00E0F98E82758300120175FF122DFD0E8083
:012D1E00E1D3
:012D1F002291
:03000B0002000EE2
:0D000E00C0E0051EE51E7002051DD0E032A9
:03001B0002000AD6
:01000A0032C3
:0300630002002177
:0100210032AC
:101A4200AD07EDD3940240037F0122ED6003021A39
:101A5200D6C28C900002120175B40104D2A9800290
:101A6200C2A9900001120175B40104D2B98002C268
:101A7200B912015CFED3940340037F0222E589542C
:101A8200FC4EF589900003120175FFB40103538ED9
:101A92007FEF7003438E80EFB40205438904800315
:101AA2005389FB900004120175B40105438F018034
:101AB20003538FFE900005120257E5F0F58C90005B
:101AC20005120257F58A900007120175B40102D27D
:101AD2008C7F0022ED64016003021B61C28E9000C4
:101AE20002120175B40104D2AB8002C2AB900001B4
:101AF200120175B40104D2BB8002C2BB12015CFEAA
:101B0200C3940340037F0222E58954CF4EF58990A6
:101B12000003120175FFB40103538EBFEF7003433C
:101B22008E40EFB4020543894080035389BF900081
:101B320004120175B40105438F028003538FFD9097
:101B42000005120257E5F0F58D900005120257F5D7
:101B52008B900007120175B40102D28E7F0022ED34
:101B620064027074538EEF900002120175B4010585
:101B720043AF04800353AFFB900003120175FED301
:101B8200940240037F0222EEB40103538EFB9000C5
:101B9200031201757003438E04900003120175B4A1
:101BA2000205438E088003538EF7900004120175DC
:101BB200B40105438F048003538FFB90000512028A
:101BC20057FDACF0ECF5D68DD7900007120175B435
:0B1BD2000103438E107F00227F0222DF
:0E2E1A00E4F5C7F5C5F5C675C3FF75C4FF2204
:102BA200AD07AC06C2AF75C78375C501ECF5C3AFFF
:102BB200058FC475C65A75C6A500E5C21201A20DDD
:102BC200BD00010C740129F9E43AFA9004D274FFB1
:0F2BD200F5F012022B45F070D3122E1AD2AF225B
:102D8900AD07AC06C2AFECF5C3AF058FC475C783F9
:102D990075C50375C65A75C6A500122E1AD2AF227B
:102BE100AD07AC06C2AF75C78375C502ECF5C3AFBF
:102BF100058FC412015CF5C275C65A75C6A5000DD4
:102C0100BD00010C740129F9E43AFA9004D274FF71
:0F2C1100F5F012022B45F070D3122E1AD2AF221B
:03000000022536A0
:0C253600787FE4F6D8FD75812102257D38
:10006600E709F608DFFA8046E709F208DFFA803E7C
:1000760088828C83E709F0A3DFFA8032E309F60869
:10008600DFFA8078E309F208DFFA807088828C83D1
:10009600E309F0A3DFFA806489828A83E0A3F60885
:1000A600DFFA805889828A83E0A3F208DFFA804C5F
:1000B60080D280FA80C680D4806980F28033801036
:1000C60080A680EA809A80A880DA80E280CA80339F
:1000D60089828A83ECFAE493A3C8C582C8CCC58317
:1000E600CCF0A3C8C582C8CCC583CCDFE9DEE780E7
:1000F6000D89828A83E493A3F608DFF9ECFAA9F066
:10010600EDFB2289828A83ECFAE0A3C8C582C8CCBB
:10011600C583CCF0A3C8C582C8CCC583CCDFEADED4
:10012600E880DB89828A83E493A3F208DFF980CC36
:1001360088F0EF60010E4E60C388F0ED2402B4042F
:100146000050B9F582EB2402B4040050AF232345D6
:0601560082239000B67345
:10015C00BB010689828A83E0225002E722BBFE02A1
:09016C00E32289828A83E49322D4
:10017500BB010CE58229F582E5833AF583E022503F
:1001850006E92582F8E622BBFE06E92582F8E22289
:0D019500E58229F582E5833AF583E49322A3
:1001A200BB010689828A83F0225002F722BBFE013C
:0201B200F32236
:1001B400F8BB010DE58229F582E5833AF583E8F081
:1001C400225006E92582C8F622BBFE05E92582C82D
:0201D400F22215
:1001D600BC000BBE0029EF8DF084FFADF022E4CC0D
:1001E600F875F008EF2FFFEE33FEEC33FCEE9DECD6
:1001F600984005FCEE9DFE0FD5F0E9E4CEFD22ED1C
:10020600F8F5F0EE8420D21CFEADF075F008EF2F65
:10021600FFED33FD4007985006D5F0F222C398FD56
:050226000FD5F0EA22F3
:10022B00C5F0F8A3E028F0C5F0F8E582158270025E
:06023B001583E038F022FB
:10024100A3F8E0C5F025F0F0E58215827002158370
:06025100E0C838F0E822CD
:10025700BB0110E58229F582E5833AF583E0F5F0E5
:10026700A3E0225009E92582F886F008E622BBFEC2
:100277000AE92582F8E2F5F008E222E5832AF58308
:08028700E993F5F0A3E99322CD
:10028F00E88FF0A4CC8BF0A42CFCE98EF0A42CFC0E
:10029F008AF0EDA42CFCEA8EF0A4CDA8F08BF0A48C
:1002AF002DCC3825F0FDE98FF0A42CCD35F0FCEBEB
:1002BF008EF0A4FEA9F0EB8FF0A4CFC5F02ECD39B0
:0F02CF00FEE43CFCEAA42DCE35F0FDE43CFC221D
:1002DE0075F008758200EF2FFFEE33FECD33CDCCD7
:1002EE0033CCC58233C5829BED9AEC99E58298405A
:1002FE000CF582EE9BFEED9AFDEC99FC0FD5F0D637
:10030E00E4CEFBE4CDFAE4CCF9A88222B800C1B960
:10031E000059BA002DEC8BF084CFCECDFCE5F0CB9E
:10032E00F97818EF2FFFEE33FEED33FDEC33FCEBD7
:10033E0033FB10D703994004EB99FB0FD8E5E4F992
:10034E00FA227818EF2FFFEE33FEED33FDEC33FC7F
:10035E00C933C910D7059BE99A4007EC9BFCE99A73
:10036E00F90FD8E0E4C9FAE4CCFB2275F010EF2FB8
:10037E00FFEE33FEED33FDCC33CCC833C810D707B8
:10038E009BEC9AE899400AED9BFDEC9AFCE899F8F3
:0E039E000FD5F0DAE4CDFBE4CCFAE4C8F92286
:1003AC00EB9FF5F0EA9E42F0E99D42F0E89C45F0A7
:0103BC00221E
:1003BD00E8600FECC313FCED13FDEE13FEEF13FF1E
:0303CD00D8F12242
:1003D000BB010DE58229F582E5833AF583020482AB
:1003E0005007E92582F8020475BBFE07E92582F86B
:1003F00002048EE58229F582E5833AF58302049BA7
:0C040000ECF0A3EDF0A3EEF0A3EFF0226F
:10040C00A8828583F0D083D0821204231204231295
:10041C000423120423E473E493A3C583C5F0C583BA
:10042C00C8C582C8F0A3C583C5F0C583C8C582C83A
:01043C00229D
:0C043D00A42582F582E5F03583F58322CA
:100C2700E5182451F582E43405F583E00518229090
:100C3700054E300703900551E475F0011204AB022D
:100C4700015C2000E97F2ED2008018EF540F24901A
:100C5700D43440D4FF30040BEF24BFB41A00500340
:100C67002461FFE51960021519051CE51C700205D2
:100C77001B30070E90054EE475F0011204ABEF022E
:100C870001A2022DCF7403D2078003E4C207F5182F
:100C970090054E1204C2E4F519F51BF51CE5196021
:100CA700077F20120C6A80F5751AFFC201C200C2C5
:100CB70002C203C205C206C208120C36FF700D300D
:100CC70007057F00120C7BAF1CAE1B22B4255FC249
:100CD700D5C204120C36FF24D0B40A00501A75F09E
:100CE7000A781930D50508B6FF0106C6A426F620EE
:100CF700D5047002D20380D924CFB41A00EF500470
:100D0700C2E5D204020E7CD20180C6D20080C0D2D6
:100D17000280BCD2D580BAD20580B47F20120C6A7B
:100D27002002077401B5190040F1120C27FF120CBD
:100D37006A020CA4D208D2068095120C27FB120C6B
:100D470027FA120C27F94A4B7006794D7A0F7BFF69
:100D570020022EE519602A7E008E8275830012011B
:100D67007560060EEE651A70F0C2D5EBC0E0EAC0FA
:100D7700E0E9C0E0EE120EC3D0E0F9D0E0FAD0E02F
:100D8700FB12015CFF60AAEBC0E0EAC0E0E9C0E04B
:100D9700120C6AD0E02401F9D0E03400FAD0E0FB6D
:100DA700E51A0460DCD51AD980877BFF7A0E79BFF4
:100DB700D202809C791080027908C206C208800896
:100DC700D2D5790A8004790AC2D5E51A047002F5EA
:100DD7001AE4FAFDFEFF120C27FC7B082001131210
:100DE7000C27FD7B1030000A120C27FE120C27FF80
:100DF7007B20EC3382D592D55013C3E43000069F95
:100E0700FFE49EFEE42001039DFDE49CFCE4CBF897
:100E1700C201EC700CCFCECDCCE824F8F870F3808B
:100E270017C3EF33FFEE33FEED33FDEC33FCEB334B
:100E3700FB994002FB0FD8E9EB300105F8D0E0C47D
:100E470048B201C0E00AEC4D4E4F78207B0070C2DB
:100E5700EAB51A0040BCC0E0120EC5D0F0D0E020C1
:100E67000104C4C0E0C4B201C0F0120C53D0F0D5E5
:100E7700F0EB020CA41204CB0D41530DBB580D121D
:100E87004C0D0E420DBF4F0DC7440DC7490D2743EB
:080E97000DCD550DB1460DB162
:100E9F00450DB1470F6D500D162D0D1A2E0D3D2B13
:100EAF000D1E230D3B200F562A0CD64800000D3582
:100EBF003F3F3F00790AA2D5200314300509B9102E
:100ECF00020404B9080104A2D5200602500104202F
:100EDF0002689202B519005034C0E07F2030031928
:100EEF007F30A20272067205500F120F1CC202C28F
:100EFF0006C205C2087F30800F300503E9C0E0123B
:100F0F000C6A300503D0E0F9D0E0B519CC300517E5
:100F1F007F30B9100C120C6A7F583004077F78802D
:100F2F0003B90803120C6A3002057F2D020C6A7F89
:100F3F00202008F87F2B2006F322920280CF286E04
:100F4F00756C6C2900D201120C273001F8C20178A0
:100F5F001930D50108F6020CD62D50434958120C02
:100F6F00272403B405004001E4900F6893120C5B33
:0D0F7F00743A120C5BD203751904020DBB0D
:10044900EF4E6012EF60010EEDBB010B89828A83CA
:10045900F0A3DFFCDEFA2289F05007F709DFFCA9D7
:0C046900F022BBFEFCF309DFFCA9F0222E
:10254200022E0CE493A3F8E493A34003F68001F275
:1025520008DFF48029E493A3F85407240CC8C3339A
:10256200C4540F4420C8834004F456800146F6DF69
:10257200E4800B0102040810204080902C5EE47E6F
:10258200019360BCA3FF543F30E509541FFEE4935E
:10259200A360010ECF54C025E060A840B8E493A325
:1025A200FAE493A3F8E493A3C8C582C8CAC583CA50
:1025B200F0A3C8C582C8CAC583CADFE9DEE780BE08
:012C92000041
:0D047500E6FB08E6F908E6FA08E6CBF822F7
:0C048200E0F8A3E0F9A3E0FAA3E0FB22FD
:0D048E00E2FB08E2F908E2FA08E2CBF822EE
:10049B00E493F8740193F9740293FA740393FB22B7
:1004AB00F8E0FBA3A3E0F925F0F0E58215827002DA
:0704BB001583E0FA38F0227E
:0904C200EBF0A3EAF0A3E9F0223B
:1004CB00D083D082F8E4937012740193700DA3A3C0
:1004DB0093F8740193F5828883E4737402936860D4
:0604EB00EFA3A3A380DFD4
:00000001FF
