:080046008F168B178A18891927
:10004E00E516640160030201FD752101F522F52319
:10005E00F524F525F526F527C200F51A7400251AA4
:10006E00F582E43401F583E4F0051AE51AB480EC68
:10007E00E4F51A7400251AF582E43400F583E4F0F1
:10008E00051AE51AB480ECAB17AA18A91912031CAD
:10009E00D394C040037F022290000A120335B401AC
:1000AE0004D2BC8002C2BC12031CFFE598543F4F21
:1000BE00F598EF64C06008EF644060030201819020
:1000CE0000021204547F007E307D2A7C0012039EB3
:1000DE008F1E8E1D8D1C8C1BE4FFFE7D01FCAB1E46
:1000EE00AA1DA91CA81BC312043040037F0222C301
:1000FE00E4951EF51EE4951DF51D7401951CF51C69
:10010E00E4951BF51BAB17AA18A919900001120351
:10011E0035FB6401702CC28E538EFE5389BF5389FA
:10012E00CF438E40AF1EAE1DAD1CAC1B7808120423
:10013E00418F8D851E8BC2AB5389BF538FFDD28EDF
:10014E008065EB64027029538EEF438E01538EF758
:10015E00438E04AF1EAE1DAD1CAC1B7808120441BD
:10016E008FD6851ED753AFFB538EF7438E10803735
:10017E007F0222AB17AA18A91912031CFF70139045
:10018E000008120335B40105438E20801A538EDF0A
:10019E008015EFB48011900008120335B4010543A9
:1001AE008780800353877FAB17AA18A9199000097F
:1001BE00120335B40104D2AC8002C2AC9000071217
:1001CE000335B40104D29C8002C29C90000B120332
:1001DE003554C0FFE5A2543F4FF5A290000C120318
:1001EE0035B4010543971080035397EF7F0022E546
:1001FE00166402600302031B752802F529F52AF521
:10020E002BF52CF52DF52EF51A7480251AF582E4B2
:10021E003401F583E4F0051AE51AB480ECE4F51A1E
:10022E007480251AF582E43400F583E4F0051AE5AE
:10023E001AB480ECAB17AA18A91912031CFF64C0DC
:10024E006008EF644060030202E090000A1203357A
:10025E00B4010543B501800353B5FE12031CB4C0AF
:10026E0005439A808003539A7F9000021204547FB4
:10027E00007E307D2A7C0012039E8F1E8E1D8D1CEB
:10028E008C1BE4FFFE7D01FCAB1EAA1DA91CA81B46
:10029E00C312043040037F0222C3E4951EF51EE410
:1002AE00951DF51D7401951CF51CE4951BF51B534E
:1002BE008EEF538EF7438E04AF1EAE1DAD1CAC1BDE
:1002CE0078081204418FD6851ED753AFFB438E108C
:1002DE0080037F0222AB17AA18A9199000091203F6
:1002EE0035B4010543AF01800353AFFE90000712F2
:1002FE000335B40105439A108003539AEF90000B17
:0D030E001203355401FFE5BA54FE4FF5BA55
:01031B0022BF
:0B003600C2992000FD7524018F992263
:1006AA007480252AF582E43401F583EFF0052AE502
:1006BA002AC394804003E4F52AE52B7006752B01C2
:0406CA00439A02222B
:100685008B168A178918AB16AA17A91812031C60AE
:10069500130518E5187002051714F912031CFF124B
:0506A500003680E22296
:1000030012031CFF600C1206AA740129F9E43AFAE0
:0300130080EE225A
:0300230002063E94
:10063E00C0E0C083C082C0D075D000C007309824FF
:10064E00C298E527701EE525C394804003752500EA
:10065E00AF25052574002FF582E43400F583E59966
:10066E00F0752605309905C299752400D007D0D0B3
:07067E00D082D083D0E032EE
:0300430002052A89
:10052A00C0E0C083C082C0D075D000C007E59A3051
:10053A00E025539AFEE52E701EE52CC394804003F5
:10054A00752C00AF2C052C74802FF582E43400F54D
:10055A0083E59BF0752D05E59A30E128539AFDE570
:10056A0029652A601C74802529F582E43401F58303
:10057A00E0F59B0529E529C3948040087529008088
:0F058A0003752B00D007D0D0D082D083D0E032C1
:1005F600535443313546324B3630533220554152EF
:10060600543120546573742050726772616D6D6544
:10061600210D0A00535443313546324B363053329E
:1006260020554152543220546573742050726772BB
:08063600616D6D65210D0A00E4
:10059900750940750A01E4750E80750D25F50CF590
:1005A9000B751001F511751201F513F514F515FB0D
:1005B9007A0079097F01120046750940E4750E80B9
:1005C900750D25F50CF50B751001751201F513F56F
:1005D90014FB7A0079097F021200467BFF7A0579BC
:0D05E900F61206857BFF7A06791A020003E0
:1004BA00120599D2AF7F01120026E526D394004097
:1004CA002BD52628E525D39400401EE4F508E50837
:1004DA00C39525501474002508F582E43400F58389
:1004EA00E0FF120036050880E5E4F525E52DD394F2
:1004FA000040C2D52DBFE52CD39400401EE4F50878
:10050A00E508C3952C501474802508F582E434005C
:10051A00F583E0FF1206AA050880E5E4F52C80952C
:0F0026007D527C03ED1D70011C144C70F7DFF14F
:0100350022A8
:03000000020016E5
:0C001600787FE4F6D8FD75812E0204BA54
:10031C00BB010689828A83E0225002E722BBFE02DF
:09032C00E32289828A83E4932212
:10033500BB010CE58229F582E5833AF583E022507D
:1003450006E92582F8E622BBFE06E92582F8E222C7
:0D035500E58229F582E5833AF583E49322E1
:1003620075F008758200EF2FFFEE33FECD33CDCC52
:1003720033CCC58233C5829BED9AEC99E5829840D5
:100382000CF582EE9BFEED9AFDEC99FC0FD5F0D6B2
:10039200E4CEFBE4CDFAE4CCF9A88222B800C1B9DC
:1003A2000059BA002DEC8BF084CFCECDFCE5F0CB1A
:1003B200F97818EF2FFFEE33FEED33FDEC33FCEB53
:1003C20033FB10D703994004EB99FB0FD8E5E4F90E
:1003D200FA227818EF2FFFEE33FEED33FDEC33FCFB
:1003E200C933C910D7059BE99A4007EC9BFCE99AEF
:1003F200F90FD8E0E4C9FAE4CCFB2275F010EF2F34
:10040200FFEE33FEED33FDCC33CCC833C810D70733
:100412009BEC9AE899400AED9BFDEC9AFCE899F86E
:0E0422000FD5F0DAE4CDFBE4CCFAE4C8F92201
:10043000EB9FF5F0EA9E42F0E99D42F0E89C45F022
:010440002299
:10044100E8600FECC313FCED13FDEE13FEEF13FF99
:03045100D8F122BD
:10045400BB010DE58229F582E5833AF58302049117
:100464005007E92582F8020484BBFE07E92582F8D7
:1004740002049DE58229F582E5833AF5830204AA04
:0D048400E6FB08E6F908E6FA08E6CBF822E8
:0C049100E0F8A3E0F9A3E0FAA3E0FB22EE
:0D049D00E2FB08E2F908E2FA08E2CBF822DF
:1004AA00E493F8740193F9740293FA740393FB22A8
:00000001FF
