:081894004104380002080000C5
:01004100229C
:05001E00D292D2832202
:10136700E49003C8F0A3F012004112001E75C127D4
:1013770012005A9003C8E0FCA3E0FDC3EF9DFDEE09
:101387009CFCD3ED94C8EC940040E50509E5097091
:10139700020508D3945AE50894004005E4F508F5DA
:1013A70009D3E509942DE50894005011E509940F38
:1013B700E50894004003439A10D2928009539AEFAC
:1013C700C292D296D296D29643C1107B017A037904
:1013D700CA1218E2EF4E7010FE7F0C7DFF7B017A78
:1013E7000379CA12045D806400539AEF009003CA20
:1013F700E0FFA3E090039FCFF0A3EFF09003CCE0D2
:10140700FFA3E090039BCFF0A3EFF09003CEE0FFA4
:10141700A3E09003A1CFF0A3EFF09003D0E0FFA3E8
:10142700E090039DCFF0A3EFF09003D2E0FFA3E09D
:10143700900294CFF0A3EFF09003D4E0FFA3E090E5
:101447000285CFF0A3EFF000439A100012005A90E4
:0A14570003C8EEF0A3EFF0021377D4
:101B7B0090045CEEF0A3EFF012005A900432EEF0FA
:101B8B00A3EFF090045CE0FFA3E0900430CFF0A350
:031B9B00EFF02246
:101B9E0090045EEEF0A3EFF012005A900436EEF0D1
:101BAE00A3EFF090045EE0FFA3E0900434CFF0A327
:031BBE00EFF02223
:101A8C009003E7E0D39400402812005A900432E00F
:101A9C00FCA3E0FDC3EF9DFFEE9CFEC3900431E080
:101AAC009F900430E09E5009E49003E7F09003E629
:011ABC00F039
:011ABD002206
:101ABE009003EEE0D39400402812005A900436E0D2
:101ACE00FCA3E0FDC3EF9DFFEE9CFEC3900435E04A
:101ADE009F900434E09E5009E49003EEF09003EDE5
:011AEE00F007
:011AEF0022D4
:101A56009003C974FFF0E49003C8F07B017A037920
:101A6600C8FF120C7D7B017A0379C87F01120C7DB9
:101A76007B017A0379C87F02120C7D7B017A037998
:061A8600C87F03020C7D85
:1017EA009003C87440F0A37401F0A31203BD000073
:1017FA0009609003CF7401F0E4A3F0A304F0E4A31A
:10180A00F0A3F0A3F07B017A0379C87F011206A343
:10181A009003C87440F09003CA1203BD00002580EB
:10182A009003CF7401F09003D1F0E4A3F0A3F07B0E
:0A183A00017A0379C87F020206A3B9
:0C1C4400121A561217EA121BC1D2AF226E
:06003B00121C44021367D1
:101C1700EFB40A0675990D3099FD8F993099FD2219
:04189C00020A00003C
:101BC100E49003C8F0A3F0A304F0A3F0E4A3F0A30E
:101BD10074DCF0A3E4F0A304F0FB7A0379C8E4FF1A
:031BE100020E41B0
:08005A00C28CAE0AAF0BD28C80
:01006200227B
:101710009003FEEBF0A3EAF0A3E9F09003FEE0FBF8
:10172000A3E0FAA3E0F912015C60509003FBE0F93A
:10173000A3E0FAA3E0900401C9F0A3EAF0A3E9F062
:10174000900401E0FBA3E0FAA3E0F912015CFF6062
:101750001E9003FEE0FBA3E0FAA3E0F912015CB5E2
:10176000070122900402E475F00112022B80D1904F
:1017700003FFE475F00112022B80A07B007A007950
:011780000068
:011781002245
:0B15F100900404EBF0A3EAF0A3E9F083
:1015FC001203EE90040AEBF0A3EAF0A3E9F0AE02BA
:10160C004E7004FBFAF922900407E0F9A3E0FAA368
:10161C00E09003FBC9F0A3EAF0A3E9F090040AE020
:10162C00FBA3E0FAA3E0F912171090040DEBF0A362
:10163C00EAF0A3E9F04A4B601490040DE0FBA3E43C
:10164C0075F001120241A9F0FAE41201A290040D06
:10165C00E0FBA3E0FAA3E0F9C003C002C0019004D0
:10166C0004E0FBA3E0FAA3E0F912040E90040AE0F4
:07167C00FBA3E0FAA3E0F973
:011683002244
:0B153B00900439EBF0A3EAF0A3E9F004
:10154600A3EBF0A3EAF0A3E9F0900439E0F9A3E0F5
:10155600FAA3E090043FC9F0A3EAF0A3E9F09004EF
:101566003CE0FBA3E0FAA3E0F912015CFF64206013
:1015760004EFB4090C90043DE475F00112022B80CF
:10158600DD90043CE0FBA3E475F001120241A9F0F2
:10159600FA12015CFF90043FE0FBA3E475F0011230
:1015A6000241A9F0FAEF1201A270D690044074FF2E
:1015B60075F0FE801E90043FE0FBA3E0FAA3E0F97D
:1015C60012015CFF64206004EFB4090C90044074BF
:1015D600FFF5F012022B80DD900001E41201B490B9
:0A15E6000439E0FBA3E0FAA3E0F9EA
:0115F00022D8
:0B146100900410EBF0A3EAF0A3E9F008
:10146C00A3EBF0A3EAF0A3E9F0900410E0F9A3E0F9
:10147C00FAA3E0900416C9F0A3EAF0A3E9F09004F3
:10148C0010E0F9A3A3E0900419C9F0A3EAF0A3E9D2
:10149C00F0900413E0FBA3E0FAA3E0F912015CFF67
:1014AC0064206004EFB4090C900414E475F001128C
:1014BC00022B80DD900413E0FBA3E0FAA3E0F91209
:1014CC00015CFF900416E0FBA3E0FAA3E0F9EF1235
:1014DC0001A26040900416E0FBA3E0FAA3E0F9122D
:1014EC00015CFF64206017EF64096012E92401F9C4
:1014FC00E43AFA900419EBF0A3EAF0A3E9F09004B3
:10150C0017E475F00112022B900414E475F001122B
:10151C00022B80A0900419E0FBA3E0FAA3E0F9E40D
:0E152C001201A2900410E0FBA3E0FAA3E0F984
:01153A00228E
:0B12670090041CEBF0A3EAF0A3E9F0F8
:10127200E4900422F0A3F0120026EF24FFFFEE34E4
:10128200FF900424F0A3EFF090041CE0FBA3E0FA2B
:10129200A3E0F9900422E0FEA3E0F5828E8312011E
:1012A20075FF64206004EFB40910900423E004F099
:1012B20070D6900422E004F080CE90041CE0FBA3E0
:1012C200E0FAA3E0F9900424E0FEA3E0F5828E8325
:1012D200120175FF64206004EFB40910900425E048
:1012E20024FFF0900424E034FFF080CE90041CE050
:1012F200FBA3E0FAA3E0F9900422E0FEA3E0FFE9F9
:101302002FF9EA3EFA900429EBF0A3EAF0A3E9F000
:10131200C3900425E09FFF900424E09ECF2401CFD8
:10132200340090042CF0A3EFF090041FE0FBA3E044
:10133200FAA3E0F9121782900422E0FEA3E0FFC3B1
:10134200900425E09FFF900424E09ECF2401CF3437
:1013520000FE90041FE0FBA3E0FAA3E0F98F828E67
:0513620083E40201B468
:1018A000420294FFFF420285FFFF42039FFFFF4277
:1018B00003A1FFFF42039BFFFF42039DFFFF420383
:1018C00099000041029300410296004203970000F4
:0418D000410284004D
:1019E400900450EBF0A3EAF0A3E9F0A3ECF0A3ED2C
:1019F400F090045374FFF5F012024145F060199021
:101A04000450E0FBA3E475F001120241A9F0FA12BC
:091A1400015CFF12004680D9229A
:1018E2009003D6EBF0A3EAF0A3E9F0900296E06051
:1018F200310000539AEF0000E4F09003D6E0FBA31E
:10190200E0FAA3E0F8AC02AD037B017A0279877EAC
:10191200007F0C1201360000439A1000007E007F07
:061922000122E4FEFF2299
:10184400900287EEF0A3EFF0AF05900289ECF0A3CD
:10185400EFF0AF0390028BEAF0A3EFF09003C2E045
:10186400FFA3E090028DCFF0A3EFF09003C4E0FF5C
:10187400A3E090028FCFF0A3EFF09003C6E0FFA3A4
:10188400E0900291CFF0A3EFF09002967401F02261
:10113C00E49003B7F0900284C3748094814002E47D
:10114C00F0900284E02497F582E43402F583EFF00A
:10115C00900284021239900284E0C394205003025E
:10116C00123FC2969003B7E0FF2497F582E4340255
:10117C00F583E06442600302123074982FF582E428
:0C118C003402F583E0644D600302123071
:101198009003B8F09003B7E02497F9E43402FA7B9F
:1011A800019003B9EBF0A3EAF0A3E9F0900006126E
:1011B8000257FFAEF0900008120257FDACF0900005
:1011C8000C120257FBAAF0C002C0039003B9E0FB5F
:1011D800A3E0FAA3E0F990000E120257FB9003C2B5
:1011E800E5F0F0A3EBF09003B9E0FB9000181202D1
:1011F80057FB9003C4E5F0F0A3EBF09003B9E0FBD4
:1012080090001A120257FB9003C6E5F0F0A3EBF02A
:10121800D003D002121844900284E024E0F0900336
:08122800B7E02420F00211627E
:10123000900284E014F09003B7E004F00211629091
:1012400003B7E0FF6020900284E0F58275830074AC
:10125000972FF9E43402FA7B0178977C027D017EB6
:0612600000AF821206033C
:011266002265
:0D18D400410203004102020042000000003A
:01004200229B
:101A1D009003B2EBF0A3EAF0A3E9F0A3ECF0A3ED91
:101A2D00F09003B574FFF5F012024145F060199086
:101A3D0003B2E0FBA3E475F001120241A9F0FA1222
:091A4D00015CFF12000380D922A4
:0B0A1E009003AAEBF0A3EAF0A3E9F0BC
:100A2900A37401F0A37402F0A37404F09003AAE084
:100A3900FBA3E0FAA3E0F9900003120175FF90030C
:100A4900ADE0FBA3E0FAA3E0F974C31201A290039D
:100A5900ADE0FBA3E0FAA3E0F9900002743C1201B7
:100A6900B49003AAE0FBA3E0FAA3E0F99000031213
:100A79000175FE9003ADE0FBA3E0FAA3E0F9900055
:100A890003EE1201B490000174011201B4EF24FEC7
:100A99007003020B60046003020C7C9003ADE0FB61
:100AA900A3E0FAA3E0F990000474091201B49000DC
:100AB90005E41201B4900294E0FEA3E0900006124E
:100AC90001B4EE9000071201B490000874011201FC
:100AD900B4900285E0FEA3E09000091201B4EE9003
:100AE900000A1201B490000B74021201B49003A120
:100AF900E0FEA3E090000C1201B4EE90000D12018B
:100B0900B4E49003B0F0A3F09003B1E0FFC39409FB
:100B190050289003ADE0FBA3E0FAA3E02405F9E433
:100B29003AFA7E00E92FF9EE3AFA12015CFF9003D6
:100B3900B0E02FF0A3E004F080CE9003B0E0FF9086
:100B490003ADE0FBA3E0FAA3E0F990000EEF120178
:100B5900B490000F020C559003ADE0FBA3E0FAA39B
:100B6900E0F9900004740F1201B4900005E4120139
:100B7900B4900294E0FEA3E09000061201B4EE9056
:100B890000071201B490000874011201B4900285A3
:100B9900E0FEA3E09000091201B4EE90000A1201F0
:100BA900B490000B74021201B490039FE0FEA3E01D
:100BB90090000C1201B4EE90000D1201B490039B49
:100BC900E0FEA3E090000E1201B4EE90000F1201B6
:100BD900B49003A1E0FEA3E09000101201B4EE90DE
:100BE90000111201B490039DE0FEA3E090001212DF
:100BF90001B4EE9000131201B4E49003B0F0A3F035
:100C09009003B1E0FFC3940F50289003ADE0FBA31C
:100C1900E0FAA3E02405F9E43AFA7E00E92FF9EEB7
:100C29003AFA12015CFF9003B0E02FF0A3E004F060
:100C390080CE9003B0E0FF9003ADE0FBA3E0FAA300
:100C4900E0F9900014EF1201B490001574E7120155
:100C5900B49003ADE0FBA3E0FAA3E0F9900004121D
:100C690001752407FDE433FC7B017A027904121A29
:030C79001DD297F2
:010C7C002255
:100FDC00E49003A3F0A3F0C3900000E0940240045B
:100FEC00E4F0A3F0900000E0FCA3E02402F582748E
:100FFC00003CF583EFF0900001E004F070069000E7
:10100C0000E004F0900000E0FEA3E0FFC39407EEC4
:10101C009400500302110E9003A3E0FCA3E0240201
:10102C00F974003CFA7B01A3EBF0A3EAF0A3E9F01E
:10103C0012015C64C360030210EC9003A5E0FBA3F7
:10104C00E0FAA3E0F9900002120175643C6003021F
:10105C0010EC900001120175640160030210EC9019
:10106C000004120175FDD394C850757C00ED240763
:10107C00FBEC33FAC3EF9BEE9A500302113B900347
:10108C00A4E02DFF9003A3E03CFE74082FF58274BE
:09109C00003EF583E064E77047B3
:1010A5009003A9F0C2979003A5E0FBA3E0FAA3E0A3
:1010B500F9120A1E9003A5E0FBA3E0FAA3E0F9905C
:1010C50000041201752407FFE433FEC3900001E01C
:1010D5009FF0900000E09EF09003A4E02FF09003B5
:0710E500A3E03EF002101031
:1010EC00900001E024FFF0900000E034FFF090034A
:1010FC00A4E004F060030210109003A3E004F002DB
:10110C0010109003A3E0FEA3E0FF4E6022900000BD
:10111C00E0F8A3E0F582888374022FF974003EFA9C
:0F112C007B0178027C007D01AE83AF8212060347
:01113B002291
:0819A600900455EEF0A3EFF0F0
:1019AE0012005A900457EEF0A3EFF012005AAB0754
:1019BE00AA06900455E0FEA3E0FF7C007D0A12010A
:1019CE00D6A3E0FCA3E0FDC3EB9DFDEA9CFCC3EDBA
:0519DE009FEC9E40D6C5
:0119E30022E1
:0E1C270000007F2B7E067DCBDDFEDEFCDFFAAB
:011C3500228C
:100C7D00EFD3940540037F012212015CFED3940350
:100C8D0040037F0222EF7041EE700B9000011201C4
:100C9D0075F45293529412015CB4010B9000011241
:100CAD0001754293F4529412015CFEB4020A900055
:100CBD000112017542934294EEB4030D900001129E
:100CCD000175FEF45293EE4294EF640170431201EC
:100CDD005CFE700B900001120175F452915292EE70
:100CED00B4010B9000011201754291F45292120160
:100CFD005CB4020A900001120175429142921201F8
:100D0D005CB4030D900001120175FEF45291EE4298
:100D1D0092EF6402704312015CFE700B90000112A1
:100D2D000175F452955296EEB4010B90000112012B
:100D3D00754295F4529612015CB4020A90000112AC
:100D4D0001754295429612015CB4030D900001129B
:100D5D000175FEF45295EE4296EF64037043120155
:100D6D005CFE700B900001120175F452B152B2EE9F
:100D7D00B4010B90000112017542B1F452B212018F
:100D8D005CB4020A90000112017542B142B2120127
:100D9D005CB4030D900001120175FEF452B1EE42E8
:100DAD00B2EF6404704312015CFE700B90000112EF
:100DBD000175F452B352B4EEB4010B90000112015F
:100DCD007542B3F452B412015CB4020A90000112E0
:100DDD00017542B342B412015CB4030D90000112CF
:100DED000175FEF452B3EE42B4EF64057043120187
:100DFD005CFF700B900001120175F452C952CAEFDD
:100E0D00B4010B90000112017542C9F452CA1201CE
:100E1D005CB4020A90000112017542C942CA120166
:100E2D005CB4030D900001120175FFF452C9EF423D
:040E3D00CA7F002246
:1006A3009003D6EBF0A3EAF0A3E9F09003D5EFF0C3
:1006B300640160030208B99003E204F0E4A3F0A329
:1006C300F0A3F0A3F0A3F0A3F09003DFF09003D91D
:1006D300F09003D9E0FFC39401501474F22FF58214
:1006E300E43403F583E4F09003D9E004F080E2E41A
:1006F3009003D9F09003D9E0FFC39401501474F030
:100703002FF582E43403F583E4F09003D9E004F099
:1007130080E29003D6E0FBA3E0FAA3E0F912015CC8
:10072300D394C040037F022290000A120175B401E2
:1007330004D2BC8002C2BC12015CFFE598543F4F57
:10074300F598EF64C06008EF6440600302083390DB
:1007530000021203817F007E307D2A7C001202CBCF
:100763009003DA1203B1E4FFFE7D01FC9003DAE0AB
:10077300F8A3E0F9A3E0FAA3E0FBC312035D40038F
:100783007F02229003DAE0F8A3E0F9A3E0FAA3E002
:10079300FBC3E49BFFE49AFE740199FDE498FC908B
:1007A30003DA1203B19003D6E0FBA3E0FAA3E0F966
:1007B300900001120175FB64017038C28E538EFEE6
:1007C3005389BF5389CF438E409003DAE0FCA3E003
:1007D300FDA3E0FEA3E0FF780812036E8F8D900364
:1007E300DAA3A3A3E0F58BC2AB5389BF538FFDD22A
:1007F3008E8076EB64027035538EEF438E01538EF9
:10080300F7438E049003DAE0FCA3E0FDA3E0FEA32C
:10081300E0FF780812036E8FD69003DAA3A3A3E058
:10082300F5D753AFFB538EF7438E10803C7F0222E4
:100833009003D6E0FBA3E0FAA3E0F912015CFF709A
:1008430013900008120175B40105438E20801A53DA
:100853008EDF8015EFB48011900008120175B4018A
:1008630005438780800353877F9003D6E0FBA3E093
:10087300FAA3E0F9900009120175B40104D2AC8027
:1008830002C2AC900007120175B40104D29C80022D
:10089300C29C90000B12017554C0FFE5A2543F4F58
:1008A300F5A290000C120175B40105439710800363
:1008B3005397EF7F00229003D5E064026003020A9E
:1008C3001B9003E97402F0E4A3F0A3F0A3F0A3F0F8
:1008D300A3F0A3F09003D9F09003D9E0FFC39401F0
:1008E300501474F32FF582E43403F583E4F090039A
:1008F300D9E004F080E2E49003D9F09003D9E0FF5B
:10090300C39401501474F12FF582E43403F583E4A6
:10091300F09003D9E004F080E29003D6E0FBA3E07B
:10092300FAA3E0F912015CFF64C06008EF64406061
:10093300030209DB90000A120175B4010543B501F6
:10094300800353B5FE12015CB4C005439A80800353
:10095300539A7F9000021203817F007E307D2A7CB0
:10096300001202CB9003DA1203B1E4FFFE7D01FC17
:100973009003DAE0F8A3E0F9A3E0FAA3E0FBC312E3
:10098300035D40037F02229003DAE0F8A3E0F9A3BA
:10099300E0FAA3E0FBC3E49BFFE49AFE740199FD34
:1009A300E498FC9003DA1203B1538EEF538EF743AE
:1009B3008E049003DAE0FCA3E0FDA3E0FEA3E0FFD6
:1009C300780812036E8FD69003DAA3A3A3E0F5D7BA
:1009D30053AFFB438E1080037F02229003D6E0FBCC
:1009E300A3E0FAA3E0F9900009120175B4010543ED
:1009F300AF01800353AFFE900007120175B40105E8
:100A0300439A108003539AEF90000B12017554011F
:0A0A1300FFE5BA54FE4FF5BA7F0369
:010A1D0022B6
:03002300021B4F6E
:0D1B4F00C0E0C0F0C083C082C0D075D010CF
:101B5C00309807C298AF99120FDC309907C2999050
:041B6C0003E5E4F0B9
:0B1B7000D0D0D082D083D0F0D0E03283
:03004300021AF0AE
:101AF000C0E0C0F0C083C082C0D075D018E59A3075
:101B0000E008539AFEAF9B12113CE59A30E108536E
:101B10009AFD9003ECE4F0D0D0D082D083D0F0D006
:021B2000E032B1
:080003008F993099FDC299228A
:100046008F9BE59A20E1047F0180027F00EF70F22A
:04005600539AFD229A
:101C040012015CFF600C120046740129F9E43AFAEF
:031C140080EE223D
:0B1B2200900459EBF0A3EAF0A3E9F0F7
:101B2D00E4FEEEC39D501A900459E0FBA3E0FAA326
:101B3D00E0F98E82758300120175FF1200460E804A
:011B4D00E1B6
:011B4E002274
:03000B0002000EE2
:0D000E00C0E0050BE50B7002050AD0E032E2
:03001B00021C5074
:011C50003261
:03006300021C512B
:011C51003260
:100E4100AD07EDD3940240037F0122ED6003020E52
:100E5100D5C28C900002120175B40104D2A980029E
:100E6100C2A9900001120175B40104D2B98002C275
:100E7100B912015CFED3940340037F0222E5895439
:100E8100FC4EF589900003120175FFB40103538EE6
:100E91007FEF7003438E80EFB40205438904800322
:100EA1005389FB900004120175B40105438F018041
:100EB10003538FFE900005120257E5F0F58C900068
:100EC10005120257F58A900007120175B40102D28A
:100ED1008C7F0022ED64016003020F60C28E9000DE
:100EE10002120175B40104D2AB8002C2AB900001C1
:100EF100120175B40104D2BB8002C2BB12015CFEB7
:100F0100C3940340037F0222E58954CF4EF58990B3
:100F11000003120175FFB40103538EBFEF70034349
:100F21008E40EFB4020543894080035389BF90008E
:100F310004120175B40105438F028003538FFD90A4
:100F41000005120257E5F0F58D900005120257F5E4
:100F51008B900007120175B40102D28E7F0022ED41
:100F610064027074538EEF900002120175B4010592
:100F710043AF04800353AFFB900003120175FED30E
:100F8100940240037F0222EEB40103538EFB9000D2
:100F9100031201757003438E04900003120175B4AE
:100FA1000205438E088003538EF7900004120175E9
:100FB100B40105438F048003538FFB900005120297
:100FC10057FDACF0ECF5D68DD7900007120175B442
:0B0FD1000103438E107F00227F0222EC
:0E1C3600E4F5C7F5C5F5C675C3FF75C4FF22FA
:10192800AD07AC06C2AF75C78375C501ECF5C3AF8B
:10193800058FC475C65A75C6A500E5C21201A20D69
:10194800BD00010C740129F9E43AFA90044774FFC8
:0F195800F5F012022B45F070D3121C36D2AF22DD
:101BE400AD07AC06C2AFECF5C3AF058FC475C783B0
:101BF40075C50375C65A75C6A500121C36D2AF2228
:10196700AD07AC06C2AF75C78375C502ECF5C3AF4B
:10197700058FC412015CF5C275C65A75C6A5000D60
:10198700BD00010C740129F9E43AFA90044E74FF82
:0F199700F5F012022B45F070D3121C36D2AF229E
:0300000002168461
:0C168400787FE4F6D8FD75811F0216CBBC
:10006600E709F608DFFA8046E709F208DFFA803E7C
:1000760088828C83E709F0A3DFFA8032E309F60869
:10008600DFFA8078E309F208DFFA807088828C83D1
:10009600E309F0A3DFFA806489828A83E0A3F60885
:1000A600DFFA805889828A83E0A3F208DFFA804C5F
:1000B60080D280FA80C680D4806980F28033801036
:1000C60080A680EA809A80A880DA80E280CA80339F
:1000D60089828A83ECFAE493A3C8C582C8CCC58317
:1000E600CCF0A3C8C582C8CCC583CCDFE9DEE780E7
:1000F6000D89828A83E493A3F608DFF9ECFAA9F066
:10010600EDFB2289828A83ECFAE0A3C8C582C8CCBB
:10011600C583CCF0A3C8C582C8CCC583CCDFEADED4
:10012600E880DB89828A83E493A3F208DFF980CC36
:1001360088F0EF60010E4E60C388F0ED2402B4042F
:100146000050B9F582EB2402B4040050AF232345D6
:0601560082239000B67345
:10015C00BB010689828A83E0225002E722BBFE02A1
:09016C00E32289828A83E49322D4
:10017500BB010CE58229F582E5833AF583E022503F
:1001850006E92582F8E622BBFE06E92582F8E22289
:0D019500E58229F582E5833AF583E49322A3
:1001A200BB010689828A83F0225002F722BBFE013C
:0201B200F32236
:1001B400F8BB010DE58229F582E5833AF583E8F081
:1001C400225006E92582C8F622BBFE05E92582C82D
:0201D400F22215
:1001D600BC000BBE0029EF8DF084FFADF022E4CC0D
:1001E600F875F008EF2FFFEE33FEEC33FCEE9DECD6
:1001F600984005FCEE9DFE0FD5F0E9E4CEFD22ED1C
:10020600F8F5F0EE8420D21CFEADF075F008EF2F65
:10021600FFED33FD4007985006D5F0F222C398FD56
:050226000FD5F0EA22F3
:10022B00C5F0F8A3E028F0C5F0F8E582158270025E
:06023B001583E038F022FB
:10024100A3F8E0C5F025F0F0E58215827002158370
:06025100E0C838F0E822CD
:10025700BB0110E58229F582E5833AF583E0F5F0E5
:10026700A3E0225009E92582F886F008E622BBFEC2
:100277000AE92582F8E2F5F008E222E5832AF58308
:08028700E993F5F0A3E99322CD
:10028F0075F008758200EF2FFFEE33FECD33CDCC26
:10029F0033CCC58233C5829BED9AEC99E5829840A9
:1002AF000CF582EE9BFEED9AFDEC99FC0FD5F0D686
:1002BF00E4CEFBE4CDFAE4CCF9A88222B800C1B9B0
:1002CF000059BA002DEC8BF084CFCECDFCE5F0CBEE
:1002DF00F97818EF2FFFEE33FEED33FDEC33FCEB27
:1002EF0033FB10D703994004EB99FB0FD8E5E4F9E2
:1002FF00FA227818EF2FFFEE33FEED33FDEC33FCCF
:10030F00C933C910D7059BE99A4007EC9BFCE99AC2
:10031F00F90FD8E0E4C9FAE4CCFB2275F010EF2F07
:10032F00FFEE33FEED33FDCC33CCC833C810D70707
:10033F009BEC9AE899400AED9BFDEC9AFCE899F842
:0E034F000FD5F0DAE4CDFBE4CCFAE4C8F922D5
:10035D00EB9FF5F0EA9E42F0E99D42F0E89C45F0F6
:01036D00226D
:10036E00E8600FECC313FCED13FDEE13FEEF13FF6D
:03037E00D8F12291
:10038100BB010DE58229F582E5833AF58302063842
:100391005007E92582F802062BBBFE07E92582F802
:1003A100020644E58229F582E5833AF58302065186
:0C03B100ECF0A3EDF0A3EEF0A3EFF022BF
:1003BD00A8828583F0D083D0821203D41203D41285
:1003CD0003D41203D4E473E493A3C583C5F0C583AA
:1003DD00C8C582C8F0A3C583C5F0C583C8C582C88A
:0103ED0022ED
:1003EE00BB010789828A830206735005E9F802066B
:1003FE0061BBFE05E9F802068589828A83020697AB
:10040E00BB011A89828A83D0F0D0E0F8D0E0F9D00F
:10041E00E0FAD0E0FBE8C0E0C0F002067C5016E93E
:10042E00F8D083D082D0E0F9D0E0FAD0E0FBC082E1
:10043E00C08302066ABBFE16E9F8D083D082D0E0F4
:0F044E00F9D0E0FAD0E0FBC082C08302068E2214
:10178200900426EBF0A3EAF0A3E9F0E490042EF033
:10179200A3F090042C74FFF5F012024145F0603C76
:1017A200900429E0FBA3E0FAA3E0F912015CFF90A8
:1017B2000426E0FBA3E0FAA3E0F990042EE475F01E
:1017C2000112024185F082F583EF1201B4EF60C28B
:1017D20090042AE475F00112022B80B6900426E0F0
:0817E200FBA3E0FAA3E0F922E9
:10002600E4FFFE12015C600C0FEF70010E09E9702F
:05003600F20A80EF2238
:10045D00EF4E6012EF60010EEDBB010B89828A83B6
:10046D00F0A3DFFCDEFA2289F05007F709DFFCA9C3
:0C047D00F022BBFEFCF309DFFCA9F0221A
:10048900E709F608DFFA807BE9D39850F3E92FF9F9
:10049900E82FF819E718F6DFFA8068E709F208DFAC
:1004A900FA806080E388828C83E709F0A3DFFA8011
:1004B90052E309F608DFFA804AE9D398500EE92F8A
:1004C900F9E82FF819E318F2DFFA8037E309F2089F
:1004D900DFFA802F88828C83E309F0A3DFFA802377
:1004E90089828A83E0A3F608DFFA801789828A83E2
:1004F900E493A3F208DFF9800A89828A83E0A3F2F0
:1005090008DFFA02059B80B180F980A580C680DCEE
:1005190080F180738010808380E98087808780D90B
:1005290080E180BC8073D3E998EA9C5039E92FF5C2
:1005390082EA3BF583E82FF8EC3BFC0582D5820281
:1005490015831582E493C8C582C8CCC583CC0582BE
:10055900D5820215831582F0C8C582C8CCC583CC63
:10056900DFD9DED7802E89828A83ECFAE493A3C887
:10057900C582C8CCC583CCF0A3C8C582C8CCC58305
:10058900CCDFE9DEE7800D89828A83E493A3F6084C
:10059900DFF9ECFAA9F0EDFB22D3E998EA9C50388F
:1005A900E92FF582EA3BF583E82FF8EC3BFC05825D
:1005B900D5820215831582E0C8C582C8CCC583CC13
:1005C9000582D5820215831582F0C8C582C8CCC5BB
:1005D90083CCDFDADED880BC89828A83ECFAE0A397
:1005E900C8C582C8CCC583CCF0A3C8C582C8CCC550
:1005F90083CCDFEADEE8809C809888F08E83EF6008
:10060900010E4E608DED2402B404005085F582EB95
:100619002402B4040050E123234582AB83239005CF
:020629000F734D
:1016900002003BE493A3F8E493A34003F68001F235
:1016A00008DFF48029E493A3F85407240CC8C3335B
:1016B000C4540F4420C8834004F456800146F6DF2A
:1016C000E4800B0102040810204080901894E47E0E
:1016D000019360BCA3FF543F30E509541FFEE4931F
:1016E000A360010ECF54C025E060A840B8E493A3E6
:1016F000FAE493A3F8E493A3C8C582C8CAC583CA11
:10170000F0A3C8C582C8CAC583CADFE9DEE780BEC8
:0118E1000006
:0D062B00E6FB08E6F908E6FA08E6CBF8223F
:0C063800E0F8A3E0F9A3E0FAA3E0FB2245
:0D064400E2FB08E2F908E2FA08E2CBF82236
:10065100E493F8740193F9740293FA740393FB22FF
:09066100E6FB08E6FA08E6F922BE
:09066A00EBF608EAF608E9F622B5
:09067300E0FBA3E0FAA3E0F92288
:09067C00EBF0A3EAF0A3E9F0227F
:09068500E2FB08E2FA08E2F922A6
:09068E00EBF208EAF208E9F2229D
:0C069700E493FB740193FA740293F922BF
:00000001FF
