:104550009003B374FFF0E49003B2F07B017A037927
:10456000B2FF1228D77B017A0379B27F011228D7D4
:104570007B017A0379B27F011228D77B017A037914
:06458000B27F030228D700
:1046AA0090051C7407F0A37420F0A37401F0E4A32E
:1046BA00F0A3F0A3F07B017A05791C1241597F011E
:0346CA000247CCD8
:1040FF009003B27440F0A37401F0A3120CE200001D
:10410F0009609003B97401F0E4A3F0A304F0E4A3F1
:10411F00F0A3F0A3F07B017A0379B27F011213FCB5
:10412F009003B27440F09003B4120CE200002580AB
:10413F009003B97401F09003BBF0E4A3F0A3F07BFC
:0A414F00017A0379B27F020213FC2B
:0C47B4001245501240FF124713D2AF22F2
:0647DF001247B40233751D
:10476900EFB40A0675990D3099FD8F993099FD229C
:0500260031323334000B
:043468004104E20039
:01000A0022D3
:05001E00D292D2832202
:10337500E49003B7F0A3F012000A12001E7BFF7A57
:103385000079267D041246501200599003B7E0FCDF
:10339500A3E0FDC3EF9DFFEE9CFED3EF94F4EE9406
:1033A50001500302344DD2807B017A0379B9124270
:1033B500DFE4FCFD9003B2120CD6E4FFFEFDFC90A9
:1033C50003B2E0F8A3E0F9A3E0FAA3E0FBC3120C13
:1033D500827010FE7F0C7DFF7B017A0379B9120D97
:1033E500BE805A9003B9E0FFA3E0900352CFF0A34B
:1033F500EFF09003BBE0FFA3E090034ECFF0A3EF07
:10340500F09003BDE0FFA3E0900354CFF0A3EFF0ED
:103415009003BFE0FFA3E0900350CFF0A3EFF0903F
:1034250003C1E0FFA3E0900347CFF0A3EFF09003C3
:10343500C3E0FFA3E0900338CFF0A3EFF0120059EB
:103445009003B7EEF0A3EFF09004E2E064016003AF
:1034550002338DF0D2811220C17F057E0012442BEC
:0334650002338DA2
:1046CD0090054AEEF0A3EFF01200599004DCEEF0E5
:1046DD00A3EFF090054AE0FFA3E09004DACFF0A33A
:0346ED00EFF022C9
:1046F00090054CEEF0A3EFF01200599004E0EEF0BC
:10470000A3EFF090054CE0FFA3E09004DECFF0A310
:03471000EFF022A5
:1045EC00900400E0D3940040281200599004DCE0C1
:1045FC00FCA3E0FDC3EF9DFFEE9CFEC39004DBE04B
:10460C009F9004DAE09E5009E4900400F09003FFC0
:01461C00F0AD
:01461D00227A
:10461E00900407E0D3940040281200599004E0E083
:10462E00FCA3E0FDC3EF9DFFEE9CFEC39004DFE014
:10463E009F9004DEE09E5009E4900407F09004067B
:01464E00F07B
:01464F002248
:07000300252E3278000A00EF
:0B429600900533EBF0A3EAF0A3E9F081
:1042A100E4A3F0900536E0FFC39410502890053345
:1042B100E0FBA3E0FAA3E0F98F82758300120A4BB9
:1042C1009003D2F07BFF7A0079031217E290053652
:0E42D100E004F080CE7BFF7A0079080217E24D
:0B36220090044AEBF0A3EAF0A3E9F0EB
:10362D00900456E4F0A37403F0900456E0C4F854EB
:10363D00F0C868FFA3E0C4540F48A3CFF0A3EFF088
:10364D00E4A3F07403540FA3F07D037C00900459A0
:10365D00E02401FF900458E03400FEEFC4F8540F4D
:10366D00C868FFEEC454F048FEC3ED9FEC9E502099
:10367D0090045AA3E0FF900450E0FBA3E0FAA3E00E
:10368D00F98D828C83EF120A8A0DBD00010C80BD6D
:10369D00900450E0F9A3E0FAA3E090043AC9F0A336
:1036AD00EAF0A3E9F0A3120CE20000004090044AF6
:1036BD00E0F9A3E0FAA3E0900441C9F0A3EAF0A376
:1036CD00E9F090044DE0F9A3E0FAA3E0900444C9B9
:1036DD00F0A3EAF0A3E9F0900453E0FBA3E0FAA312
:0D36ED00E0F9122D97900456E0FEA3E0FFD7
:0136FA0022AD
:0B2EF400900411EBF0A3EAF0A3E9F05A
:102EFF0090041AE0FFC4540FFD900420E4F0A3EDFA
:102F0F00F0EF540FFF7E00A3EEF0A3EFF0605C90A4
:102F1F00041AE0FF90041EEEF0A3EFF090041AE005
:102F2F002410FFE433FE900422E0FAA3E0FBC3EF8A
:102F3F009BFFEE9AFE90041EE0FCA3E0FDC39FEC06
:102F4F009E5028C374109BFF900417E0FBA3E0FA78
:102F5F00A3E0F98D828C83EF120A8A90041FE0049C
:102F6F00F070B990041EE004F080B1900417E0F9FE
:102F7F00A3E0FAA3E0900427C9F0A3EAF0A3E9F0D5
:102F8F00900421E02401FF900420E03400FEEFC400
:102F9F00F8540FC868FFEEC454F048FEE4FCFD90EF
:102FAF00042A120CD6900411E0F9A3E0FAA3E090E2
:102FBF00042EC9F0A3EAF0A3E9F0900414E0F9A3FA
:102FCF00E0FAA3E0900431C9F0A3EAF0A3E9F0908E
:102FDF00041BE0FBA3E0FAA3E0F912302190041BDD
:102FEF00E0FBA3E0FAA3E0F9900420A3E004C454AB
:102FFF00F0FD124650900421E02401FF900420E0E0
:10300F003400FEEFC4F8540FC868FFEEC454F04804
:01301F00FEB2
:01302000228D
:101ADC00637C777BF26B6FC53001672BFED7AB76DF
:101AEC00CA82C97DFA5947F0ADD4A2AF9CA472C08A
:101AFC00B7FD9326363FF7CC34A5E5F171D83115F7
:101B0C0004C723C31896059A071280E2EB27B27517
:101B1C0009832C1A1B6E5AA0523BD6B329E32F848F
:101B2C0053D100ED20FCB15B6ACBBE394A4C58CF87
:101B3C00D0EFAAFB434D338545F9027F503C9FA85B
:101B4C0051A3408F929D38F5BCB6DA2110FFF3D229
:101B5C00CD0C13EC5F974417C4A77E3D645D1973DD
:101B6C0060814FDC222A908846EEB814DE5E0BDBD7
:101B7C00E0323A0A4906245CC2D3AC629195E4790E
:101B8C00E7C8376D8DD54EA96C56F4EA657AAE0868
:101B9C00BA78252E1CA6B4C6E8DD741F4BBD8B8A03
:101BAC00703EB5664803F60E613557B986C11D9E69
:101BBC00E1F8981169D98E949B1E87E9CE5528DFE0
:101BCC008CA1890DBFE6426841992D0FB054BB160C
:101BDC0052096AD53036A538BF40A39E81F3D7FB96
:101BEC007CE339829B2FFF87348E4344C4DEE9CBE0
:101BFC00547B9432A6C2233DEE4C950B42FAC34E55
:101C0C00082EA16628D924B2765BA2496D8BD1250A
:101C1C0072F8F66486689816D4A45CCC5D65B692AE
:101C2C006C704850FDEDB9DA5E154657A78D9D8452
:101C3C0090D8AB008CBCD30AF7E45805B8B3450672
:101C4C00D02C1E8FCA3F0F02C1AFBD0301138A6B8C
:101C5C003A9111414F67DCEA97F2CFCEF0B4E673BC
:101C6C0096AC7422E7AD3585E2F937E81C75DF6E6A
:101C7C0047F11A711D29C5896FB7620EAA18BE1BD0
:101C8C00FC563E4BC6D279209ADBC0FE78CD5AF476
:101C9C001FDDA8338807C731B11210592780EC5FBC
:101CAC0060517FA919B54A0D2DE57A9F93C99CEF18
:101CBC00A0E03B4DAE2AF5B0C8EBBB3C8353996119
:101CCC00172B047EBA77D626E169146355210C7D57
:101CDC008D01020408102040801B366CD8AB4D9A45
:101CEC002F5EBC63C697356AD4B37DFAEFC59139C4
:101CFC0072E4D3BD61C29F254A943366CC831D3AEE
:101D0C0074E8CB8D01020408102040801B366CD87F
:101D1C00AB4D9A2F5EBC63C697356AD4B37DFAEF90
:101D2C00C5913972E4D3BD61C29F254A943366CC08
:101D3C00831D3A74E8CB8D01020408102040801BEF
:101D4C00366CD8AB4D9A2F5EBC63C697356AD4B34C
:101D5C007DFAEFC5913972E4D3BD61C29F254A94D7
:101D6C003366CC831D3A74E8CB8D01020408102035
:101D7C0040801B366CD8AB4D9A2F5EBC63C6973532
:101D8C006AD4B37DFAEFC5913972E4D3BD61C29FB9
:101D9C00254A943366CC831D3A74E8CB8D0102043A
:101DAC0008102040801B366CD8AB4D9A2F5EBC635C
:101DBC00C697356AD4B37DFAEFC5913972E4D3BDB9
:0F1DCC0061C29F254A943366CC831D3A74E8CBDD
:0547C000EFF0A3E0FF93
:0747C500EF901ADC93FF22C4
:0747D800EF901BDC93FF22B0
:10104100E0F9A3E0FAA3E0C9900201F0A3EAF0A35A
:02105100E9F0C4
:1010530090045C120CE200000000E47F04FEFDFC3F
:1010630090045CE0F8A3E0F9A3E0FAA3E0FBC31269
:101073000C82400302119AE47F04FEFDFC90045CA1
:10108300E0F8A3A3A3E0120B65900201E0FBA3E049
:10109300FAA3E0F98F828E83120A4BFD90045CA3BE
:1010A300A3E0FAA3E090020475F004120D13EA25FD
:1010B300E025E02583F583EDF0EF2401FFE43EFE18
:1010C300900201E0FBA3E0FAA3E0F98F828E831282
:1010D3000A4BFF90045CA3A3E0FAA3E0900205751A
:1010E300F004120D13EA25E025E02583F583EFF0E4
:1010F300E47F04FEFDFC90045CE0F8A3E0F9A3E0C8
:10110300FAA3E0FB120B65EF2402FDE43EFC900220
:1011130001E0FBA3E0FAA3E0F98D828C83120A4B72
:10112300FD90045CA3A3E0FAA3E090020675F0042B
:10113300120D13EA25E025E02583F583EDF0EF2476
:1011430003FFE43EFE900201E0FBA3E0FAA3E0F913
:101153008F828E83120A4BFF90045CA3A3E0FAA351
:10116300E090020775F004120D13EA25E025E0254F
:1011730083F583EFF090045CE0FCA3E0FDA3E0FEC5
:10118300A3E02401FFE43EFEE43DFDE43CFC9004C7
:101193005C120CD602105DE47F2CFEFDFC90045C17
:1011A300E0F8A3E0F9A3E0FAA3E0FBC3120C82404A
:1011B300030213FB900460120CE200000000E47FC2
:1011C30004FEFDFC900460E0F8A3E0F9A3E0FAA3B9
:1011D300E0FBC3120C82505AE47F04FEFDFC900432
:1011E3005CE0F8A3E0F9A3E0FAA3E0FB120B65AB24
:1011F30007900460A3A3A3E0FF2B2400F582E4344B
:1012030002F583E0FE74682FF582E43404F583EE7F
:10121300F0900460E0FCA3E0FDA3E0FEA3E0240162
:10122300FFE43EFEE43DFDE43CFC900460120CD67A
:10123300808C90045CA3A3A3E05403FFE4FEFDFCB5
:10124300FBFAF9F8C3120C8260030212D19004680E
:10125300E0FFE4FCFDFE900464120CD6900469E008
:10126300900468F090046AE0900469F090046BE0E5
:1012730090046AF0900464A3A3A3E090046BF0903D
:101283000468E0FF1247C59004681247C0900469E0
:101293001247C090046A1247C090046BEFF09004A9
:1012A30068E0FFC007E47B04F890045CE0FCA3E083
:1012B300FDA3E0FEA3E0FF120BF074DC2FF58274B4
:1012C3001C3EF583E493FED0E06E900468F0900436
:1012D3005CA3A3E0FEA3E09001F475F004120D13E8
:1012E300EE25E025E02583F583E0FF900468E0FE2A
:1012F300EF6EFF90045CA3A3E0FAA3E090020475F1
:10130300F004120D13EA25E025E02583F583EFF0C1
:1013130090045CA3A3E0FEA3E09001F575F0041232
:101323000D13EE25E025E02583F583E0FF900469A6
:10133300E0FEEF6EFF90045CA3A3E0FAA3E090024B
:101343000575F004120D13EA25E025E02583F583E6
:10135300EFF090045CA3A3E0FEA3E09001F675F028
:1013630004120D13EE25E025E02583F583E0FF90BD
:10137300046AE0FEEF6EFF90045CA3A3E0FAA3E02F
:1013830090020675F004120D13EA25E025E025838B
:10139300F583EFF090045CA3A3E0FEA3E09001F7D4
:1013A30075F004120D13EE25E025E02583F583E0A7
:1013B300FF90046BE0FEEF6EFF90045CA3A3E0FAE2
:1013C300A3E090020775F004120D13EA25E025E06F
:1013D3002583F583EFF090045CE0FCA3E0FDA3E03C
:1013E300FEA3E02401FFE43EFEE43DFDE43CFC906B
:0813F300045C120CD602119AF1
:0113FB0022CF
:053E480090053BEFF0C6
:103E4D00E4A3F0E490053DF090053CE075F004A48A
:103E5D00FF9001FEE0FBA3E0FAA3E02FF9EA35F0B5
:103E6D00FA90053DE0FF7C0029F9EC3AFA120A328E
:103E7D00FE90053CE025E025E0FD90053BE0C454B7
:103E8D00F02DFDEF2D2404F582E43402F583E06E70
:103E9D00120A7890053DE004F0E0B404AB90053CC7
:073EAD00E004F0E0B4049C06
:013EB40022EB
:103C6B00E490054EF0E490054FF090054FE0FFC354
:103C7B009404505AEF75F004A4FF9001FEE0FBA3EF
:103C8B00E0FAA3E02FF9EA35F0FA90054EE07E005A
:103C9B0029F9EE3AFA120A32FF1247C5AD07900521
:103CAB004FE075F004A4FF9001FEE0FBA3E0FAA344
:103CBB00E02FF9EA35F0FA90054EE07E0029F9EE97
:103CCB003AFAED120A7890054FE004F0809C9005CB
:0A3CDB004EE004F0E0C39404408BB7
:013CE50022BC
:103A06009001FEE0FBA3E0FAA3E0F9900001120AA0
:103A16004BFF900005120A4B900001120A8A900093
:103A260009120A4B900005120A8A90000D120A4BE1
:103A3600900009120A8A90000DEF120A8A9000027D
:103A4600120A4BFF90000A120A4B900002120A8AD1
:103A560090000AEF120A8A900006120A4BFF9000A5
:103A66000E120A4B900006120A8A90000EEF120AF6
:103A76008A900003120A4BFF90000F120A4B900027
:103A860003120A8A90000B120A4B90000F120A8A40
:103A9600900007120A4B90000B120A8A900007EF5B
:033AA600020A8A87
:10458600FDE0FF1245A71245A71245A7AC07E0FFBD
:104596001245A7E06F6C6DA3FDE0FF1245A712451B
:0145A600A76D
:1045A700EFC4131313540175F01BA4FEEF25E06E3F
:0245B700FF22E1
:1026DE00E4900537F09001FEE0FBA3E0FAA3E0F9E9
:1026EE00900537E0FF75F004A4F58285F083120A99
:1026FE004B90053AF0EF75F004A4FFE92FF9EA3597
:10270E00F0FA900001120A4BFF9001FEA3E0FAA32B
:10271E00E0F9900537E0FE75F004A4F58285F083AC
:10272E00120A4B6FFDEE75F004A4FFE92FF9EA359E
:10273E00F0FA900002120A4B6DFF900003120A4B42
:10274E006F900538F0900001120A4BFF9001FEA326
:10275E00E0FAA3E0F9900537E075F004A4F5828560
:10276E00F083120A4B6FFF900539F01245A7EFF078
:10277E009001FEE0FBA3E0FAA3E0F9900537E0FE3E
:10278E0075F004A4F582E92582F9EA35F0FA120A09
:10279E0032FD900538E06F6D120A78EE75F004A4E4
:1027AE00FF9001FEE0FBA3E0FAA3E02FF9EA35F07B
:1027BE00FA900002120A4BFF900001120A4B6FFFB3
:1027CE00900539F01245A7EFF0900537E075F0044B
:1027DE00A4FF9001FEE0FBA3E0FAA3E02FF9EA3597
:1027EE00F0FAE92401F9E43AFA120A32FF900538B8
:1027FE00E0FEA3E06E6F120A78900537E075F004E4
:10280E00A4FF9001FEE0FBA3E0FAA3E02FF9EA3566
:10281E00F0FA900003120A4BFF900002120A4B6F5F
:10282E00FF900539F01245A7EFF0900537E075F0EF
:10283E0004A4FF9001FEE0FBA3E0FAA3E02FF9EA67
:10284E0035F0FAE92402F9E43AFA120A32FF900559
:10285E0038E0FEA3E06E6F120A78900537E075F04F
:10286E0004A4FF9001FEE0FBA3E0FAA3E02FF9EA37
:10287E0035F0FA900003120A4BFF90053AE06FFF15
:10288E00900539F01245A7EFF0900537E075F0048A
:10289E00A4FF9001FEE0FBA3E0FAA3E02FF9EA35D6
:1028AE00F0FAE92403F9E43AFA120A32FF900538F5
:1028BE00E0FEA3E06E6F120A78900537E004F0E0B8
:0828CE00C3940450030226E349
:0128D60022DF
:1024E400E4900522F0A3F0900522E0FEA3E0FFC3F0
:1024F4009404EE6480948040030226DDEF7802C3E6
:1025040033CE33CED8F9FF9001FEE0FBA3E0FAA36B
:10251400E0F98F828E83120A4B900524F0E92FF99B
:10252400EA3EFA900001120A4B900525F090000251
:10253400120A4B900526F0900003120A4B900527CF
:10254400F0900524E0FF1245A71245A7AD07E0FF70
:102554001245A7EF6D12459EEF6DA3124586AC0799
:10256400E0FF1245A7124596E06F6DFD900522E04D
:10257400FEA3E07802C333CE33CED8F9FF9001FE38
:10258400E0FBA3E0FAA3E0F98F828E83ED120A8ABE
:10259400900525E0FF1245A71245A7AD07E0FF12FD
:1025A40045A7EF6D12459EEF6D90052412459EE000
:1025B4006F6D900526124586AC07E0FF1245A71201
:1025C40045A7E06F6C6DFD900522E0FEA3E0780264
:1025D400C333CE33CED8F9FF9001FEE0FBA3E0FA7B
:1025E400A3E02FF9EA3EFA900001ED120A8A900561
:1025F4002412459FAD07E0FF1245A71245A7E06FDF
:1026040012459CE06F6DFDA3E0FF1245A71245A79C
:10261400AC07E0FF1245A7EF6CFC12459FEF124593
:102624009BAC07E0FF1245A7E06F6C6DFD9005229F
:10263400E0FEA3E07802C333CE33CED8F9FF900195
:10264400FEE0FBA3E0FAA3E02FF9EA3EFA900002D1
:10265400ED120A8A90052512459FAD07E0FF124549
:10266400A71245A7E06F6DFD90052412459FAC07A6
:10267400E0FF1245A7E06F6C6DFD90052612459FA3
:10268400E06F6DFDA3E0FF1245A71245A7AC07E07C
:10269400FF1245A7EF6CFC12459FEF6C6DFD900592
:1026A40022E0FEA3E07802C333CE33CED8F9FF9004
:1026B40001FEE0FBA3E0FAA3E02FF9EA3EFA900062
:1026C40003ED120A8A900523E004F060030224EB70
:0926D400900522E004F00224EB61
:0126DD0022DA
:103CE600E4900550F0E4900551F0900551E0FFC3D3
:103CF6009404505AEF75F004A4FF9001FEE0FBA374
:103D0600E0FAA3E02FF9EA35F0FA900550E07E00DC
:103D160029F9EE3AFA120A32FF1247D8AD07900592
:103D260051E075F004A4FF9001FEE0FBA3E0FAA3C6
:103D3600E02FF9EA35F0FA900550E07E0029F9EE19
:103D46003AFAED120A78900551E004F0809C90054D
:0A3D560050E004F0E0C39404408B39
:013D60002240
:103AA9009001FEE0FBA3E0FAA3E0F990000D120AF1
:103AB9004BFF900009120A4B90000D120A8A9000E0
:103AC90005120A4B900009120A8A900001120A4B4A
:103AD900900005120A8A900001EF120A8A900002EA
:103AE900120A4BFF90000A120A4B900002120A8A2E
:103AF90090000AEF120A8A900006120A4BFF900002
:103B09000E120A4B900006120A8A90000EEF120A52
:103B19008A900003120A4BFF900007120A4B90008B
:103B290003120A8A90000B120A4B900007120A8AA4
:103B390090000F120A4B90000B120A8A90000FEFA7
:033B4900020A8AE3
:10424A00900424E0F9A3E0FAA3E09001FEC9F0A3E8
:05425A00EAF0A3E9F009
:10425F00E4900552F0FF123E489005527401F0129F
:10426F003C6B123A061226DE900552E0FF123E48D2
:10427F00900552E004F0E0C3940A40E3123C6B1245
:07428F003A067F0A023E48D7
:1041FD00900437E0F9A3E0FAA3E09001FEC9F0A323
:05420D00EAF0A3E9F056
:10421200E4900553F07F0A123E489005537409F06A
:10422200123AA9123CE6900553E0FF123E481224CE
:10423200E4900553E014F0E0D3940050E3123AA95D
:08424200123CE6E4FF023E48D5
:1040A400900427E0F9A3E0FAA3E090052BC9F0A35C
:1040B400EAF0A3E9F0900424E0FBA3E0FAA3E0F91A
:0B40C400900528EBF0A3EAF0A3E9F060
:1040CF00E4FF90052BE0FBA3E0FAA3E0F98F8275E4
:1040DF008300120A4BFE900528E0FBA3E0FAA3E051
:0F40EF00F98F82758300EE120A8A0FEFB410D397
:0140FE00229F
:104325009004E3EBF0A3EAF0A3E9F09004E3E0F9ED
:10433500A3E0FAA3E090052BC9F0A3EAF0A3E9F006
:104345009004E91240BC9004E9E0F9A3E0FAA3E087
:104355009001FEC9F0A3EAF0A3E9F09004E612107B
:044365004102425F70
:104369009004ECEBF0A3EAF0A3E9F09004ECE0F997
:10437900A3E0FAA3E090052BC9F0A3EAF0A3E9F0C2
:104389009004F21240BC9004F2E0F9A3E0FAA3E031
:104399009001FEC9F0A3EAF0A3E9F09004EF12102E
:0443A9004102421279
:0841AC00E0FBA3E0FAA3E0F937
:0B41B40090053EEBF0A3EAF0A3E9F059
:1041BF00E4FF90053EE0FBA3E0FAA3E02FF9E43A19
:1041CF00FAC003C002C001120A32FE9002B4E0FB33
:1041DF00A3E0FAA3E0F98F82758300120A4B6ED029
:0D41EF0001D002D003120A780FEFB410C502
:0141FC0022A0
:0B302100900424EBF0A3EAF0A3E9F018
:10302C0090042AE0FCA3E0FDA3E0FEA3E0540FFF14
:10303C00900436EFF0C002C001900427E0F9A3E041
:10304C00FAA3E090052BC9F0A3EAF0A3E9F0D001B4
:10305C00D0021240C4900424E0F9A3E0FAA3E0905B
:10306C0001FEC9F0A3EAF0A3E9F090042EE0FBA363
:10307C00E0FAA3E0F94A6004EB121049900431E045
:10308C00FBA3E0FAA3E0F94A600B9002B4EBF0A3C7
:10309C00EAF0A3E9F0E4900434F0A3F0900434E0F7
:1030AC00FEA3E0FFE4FCFD90042AE0F8A3E0F9A302
:1030BC00E0FAA3E0FBD3120C8240469004271241A5
:1030CC00AC1240A412424A900424E0F9A3E0FAA303
:1030DC00E09002B4C9F0A3EAF0A3E9F0900428E46C
:1030EC0075F010120B01900425E475F010120B0111
:1030FC00900435E02410F0900434E03400F00230F9
:10310C00A8900436E060371240A4900436E0FFFD2E
:10311C00C374109DFDE49400FCC004C0059004240D
:10312C00E0FBA3E0FAA3E0F9EFFD7C00E92DF9EC5C
:0E313C003AFA7D00D007D006120DBE12424AAC
:01314A002262
:0B2D9700900437EBF0A3EAF0A3E9F092
:102DA20090043DE0FCA3E0FDA3E0FEA3E0540FFF8E
:102DB200900449EFF0C002C00190043AE0F9A3E0A8
:102DC200FAA3E090052BC9F0A3EAF0A3E9F0D00141
:102DD200D0021240C4900437E0F9A3E0FAA3E090D5
:102DE20001FEC9F0A3EAF0A3E9F0900441E0FBA3DD
:102DF200E0FAA3E0F94A6007900201EB12104C904E
:102E02000444E0FBA3E0FAA3E0F94A600B9002B4A9
:102E1200EBF0A3EAF0A3E9F0E4900447F0A3F0900A
:102E22000447E0FEA3E0FFE4FCFD90043DE0F8A3CC
:102E3200E0F9A3E0FAA3E0FBD3120C82405E900417
:102E42003AE0F9A3E0FAA3E090052BC9F0A3EAF077
:102E5200A3E9F09004371240BC1241FD90043712EE
:102E620041AC90043AE0F9A3E0FAA3E09002B4C9BD
:102E7200F0A3EAF0A3E9F090043BE475F010120B22
:102E820001900438E475F010120B01900448E0241C
:102E920010F0900447E03400F0022E21900449E043
:102EA200604F90043AE0F9A3E0FAA3E090052BC941
:102EB200F0A3EAF0A3E9F09004371240BC90044971
:102EC200E0FFFDC374109DFDE49400FCC004C00546
:102ED200900437E0FBA3E0FAA3E0F9EFFD7C00E900
:102EE2002DF9EC3AFA7D00D007D006120DBE124140
:012EF200FDE2
:012EF30022BC
:1022E40000C1814001C0804101C0804100C18140E2
:1022F40001C0804100C1814000C1814001C08041D2
:1023040001C0804100C1814000C1814001C08041C1
:1023140000C1814001C0804101C0804100C18140B1
:1023240001C0804100C1814000C1814001C08041A1
:1023340000C1814001C0804101C0804100C1814091
:1023440000C1814001C0804101C0804100C1814081
:1023540001C0804100C1814000C1814001C0804171
:1023640001C0804100C1814000C1814001C0804161
:1023740000C1814001C0804101C0804100C1814051
:1023840000C1814001C0804101C0804100C1814041
:1023940001C0804100C1814000C1814001C0804131
:1023A40000C1814001C0804101C0804100C1814021
:1023B40001C0804100C1814000C1814001C0804111
:1023C40001C0804100C1814000C1814001C0804101
:1023D40000C1814001C0804101C0804100C18140F1
:1023E40000C0C101C30302C2C60607C705C5C404B1
:1023F400CC0C0DCD0FCFCE0E0ACACB0BC90908C821
:10240400D81819D91BDBDA1A1EDEDF1FDD1D1CDC10
:1024140014D4D515D71716D6D21213D311D1D01080
:10242400F03031F133F3F23236F6F737F53534F470
:102434003CFCFD3DFF3F3EFEFA3A3BFB39F9F838E0
:1024440028E8E929EB2B2AEAEE2E2FEF2DEDEC2CD0
:10245400E42425E527E7E62622E2E323E12120E040
:10246400A06061A163A3A26266A6A767A56564A430
:102474006CACAD6DAF6F6EAEAA6A6BAB69A9A868A0
:1024840078B8B979BB7B7ABABE7E7FBF7DBDBC7C90
:10249400B47475B577B7B67672B2B373B17170B000
:1024A40050909151935352929656579755959454F0
:1024B4009C5C5D9D5F9F9E5E5A9A9B5B9959589860
:1024C400884849894B8B8A4A4E8E8F4F8D4D4C8C50
:1024D40044848545874746868242438341818040C0
:103D61009004BBEBF0A3EAF0A3E9F0A3ECF0A3ED20
:013D7100F061
:103D7200A374FFF0A3F09004BE74FFF5F0120B17CA
:103D820045F060459004BBE0FBA3E475F001120B23
:103D920017A9F0FA120A32FF9004C0E06FFFE4FCA8
:103DA200FDFE9004C2120CD69004C2A3A3A3E0FCB1
:103DB2009022E493FE9004C1E06E9004C0F0EC9077
:103DC20023E4939004C1F080AD9004C0E0FEA3E030
:033DD200FDEDFF05
:013DD50022CB
:1037C70090046CEBF0A3EAF0A3E9F0A3ECF0A3ED0F
:0137D700F001
:1037D80090047674FFF0A3F090046F74FFF5F01274
:1037E8000B1745F0604590046CE0FBA3E475F0010D
:1037F800120B17A9F0FA120A32FF900476E06FFF55
:10380800E4FCFDFE900478120CD6900478A3A3A3E0
:10381800E0FC9022E493FE900477E06E900476F04A
:10382800EC9023E493900477F080AD90047474FFD7
:10383800F5F0120B1745F06045900471E0FBA3E426
:1038480075F001120B17A9F0FA120A32FF900476EC
:10385800E06FFFE4FCFDFE900478120CD69004782B
:10386800A3A3A3E0FC9022E493FE900477E06E907B
:103878000476F0EC9023E493900477F080AD900404
:0838880076E0FEA3E0FDEDFF78
:013890002215
:04346C00020D00004D
:10471300E49003B2F0A304F0A3F0A3F0E4A3F0A3A6
:1047230074DCF0A3E4F0A304F0FB7A0379B2E4FFB2
:03473300022A9BBC
:08005900C28CAE0DAF0ED28C7B
:01006100227C
:101DDB0041540041542B474D4D0041542B43475325
:101DEB004E004154264600415426570041542B4384
:101DFB0046554E3D310041542B4943463D332C3023
:101E0B000041542B4950523D313135323030004175
:101E1B00542B434C434B3D53432C320041542B43E7
:101E2B0050494E3F0041542B434F50533F004154B8
:101E3B002B435245473D310041542B435245473FBD
:101E4B000041542B4353510041542B4347524547B8
:101E5B003F0041542B43474154543D310041542BD7
:101E6B00435354543D22434D4E4554220041542B71
:101E7B00435354543D2233676E6574220041542BF7
:101E8B0043474155544F3D310041542B4349465331
:101E9B00520041542B4349504D55583D300041544D
:101EAB002B4349504D55583D310041542B4349501C
:101EBB0053544152543D0041542B43495053454ECA
:101ECB00440041542B434950534855540041542B23
:101EDB0043494943520041542B43495053544154B5
:101EEB0055530041542B43444E534749503D003802
:101EFB002E382E382E380041542B4349504D4F4429
:101F0B00453D31000D00743D3A25640A0041545F94
:101F1B00696E69740A004F4B002573257325730096
:101F2B004154353A000A00B2A8CCD8C2CA3A0025AF
:101F3B007300B2A8CCD8C2CAC9E8D6C3CAA7B0DC52
:101F4B00A3A10053494DD7B4CCAC3A0053494DBF74
:101F5B00A8BCECB2E2CAA7B0DCA3A100D0C5BAC53D
:101F6B00C7BFB6C83A00CEDED0C5BAC5C7BFB6C864
:101F7B00A3A10047534DD7A2B2E1D7B4CCAC3A00E2
:101F8B0047534DBFA8D7A2B2E1CAA7B0DCA3A100AB
:101F9B0047505253D7A2B2E1D7B4CCAC3A0047501A
:101FAB005253D7B4CCACD7A2B2E1CAA7B0DCA3A131
:101FBB0000CDF8C2E7D7B4CCAC3A00B2E9D1AFCD83
:101FCB00F8C2E7D7B4CCACCAA7B0DCA3A100B5A5C7
:101FDB00B7FECEF1C6F7C4A3CABD3A00C9E8D6C353
:101FEB00B5A5B7FECEF1C4A3CABDCAA7B0DCA3A1E9
:101FFB000047505253B8BDD7C53A0047505253B85B
:10200B00BDD7C5CAA7B0DCA3A100D4CBD0D0C9CC57
:10201B003A00B6C1C8A1D4CBD0D0C9CCCAA7B0DCCA
:10202B00A3A100C8EBCDB8B4ABC4A3CABD3A00BDE5
:10203B00F8C8EBCDB8B4ABCAA7B0DCA3A10034365B
:10204B0030303000434D4E45543A00343630303149
:10205B000033474E45543A00BCA4BBEED2C6B6AFD4
:10206B00B3A1BEB03A00BCA4BBEED2C6B6AFB3A10F
:10207B00BEB0CAA7B0DCA3A100BBF1C8A14950B543
:10208B00D8D6B73A007365727665723D25730D0A23
:10209B0000434F4E4E45435400C1ACBDD3B7FECEAB
:1020AB00F1C6F73A00C1B4BDD3B7FECEF1C6F7CA3D
:0620BB00A7B0DCA3A100A8
:103470004203661DDB4203871DDE42036E1DE542EB
:1034800003851DED4203911DF24203701DF74203B7
:103490007F1E0142038F1E0C4203681E1A42036CFA
:1034A0001E274203721E304203811E394203831ECF
:1034B000434203891E4C42038B1E534203951E5DFB
:1034C0004203581E684203641E784203761E8842F7
:1034D00003971E9442035E1E9D4203601EA9420391
:1034E000931EB542035C1EC242036A1ECD42038D89
:1034F0001ED84203741EE14203621EEE4203561EB2
:06350000FA42035A1F020B
:1045B900900541EBF0A3EAF0A3E9F0900541E0FB97
:1045C900A3E0FAA3E0F9120A326017900541A3E4C7
:1045D90075F001120B17A9F0FA120A32FF12479768
:0345E90080D92254
:10446900900544EBF0A3EAF0A3E9F07E007F017D1B
:10447900007B017A04790A120DBEE4900406F090DB
:104489000544E0FBA3E0FAA3E0F91245B97BFF7A02
:0D4499001F790F1245B97FF47E0102442BFC
:0B36FB0090047CEBF0A3EAF0A3E9F0E0
:10370600E490048AF0900406F0120059900486EEC4
:10371600F0A3EFF090047CE0FBA3E0FAA3E0F9123B
:1037260044697FF47E0112442B90048A7401F09060
:103736000482E0F9A3E0FAA3E09004B2C9F0A3EA98
:10374600F0A3E9F090047FE0FBA3E0FAA3E0F9120E
:103756003891EA494B705F120059900488EEF0A345
:10376600EFF07C007D64120AACED4C70209004886A
:10377600E0FEA3E0FF7C007D64120AAC9003D2EE6B
:10378600F0A3EFF07BFF7A1F79111217E2900486FF
:10379600E0FEA3E0FFC3900489E09FFF900488E069
:1037A6009EFE900485E0FDD3EF9DEE94004080E4FC
:1037B60090048AF0FF22E4900406F090048AE0FF69
:0137C60022E0
:0B006600900507EBF0A3EAF0A3E9F01F
:100071007BFF7A1F79181217E2900366E0FEA3E076
:10008100AA06F97BFFC00390047F7401F0A37404F6
:10009100F0A3740AF0A3EBF0A3741FF0A37421F092
:1000A100A374F4F0D0031236FB900366E0FEA3E0E4
:1000B100AA06F97BFFC00390047F7401F0A37404C6
:1000C100F0A3740AF0A3EBF0A3741FF0A37421F062
:1000D100A374F4F0D0031236FB900366E0FEA3E0B4
:1000E100AA06F97BFFC00390047F7401F0A3740496
:1000F100F0A3740AF0A3EBF0A3741FF0A37421F032
:10010100A374F4F0D0031236FB900366E0FEA3E083
:10011100AA06F97BFFC00390047F7401F0A3740465
:10012100F0A3740AF0A3EBF0A3741FF0A37421F001
:10013100A374F4F0D0031236FB900366E0FEA3E053
:10014100AA06F97BFFC00390047F7401F0A3740435
:10015100F0A3740AF0A3EBF0A3741FF0A37421F0D1
:10016100A374F4F0D0031236FB900366E0FEA3E023
:10017100AA06F97BFFC00390047F7401F0A3740405
:10018100F0A3740AF0A3EBF0A3741FF0A37421F0A1
:10019100A374F4F0D0031236FB9003D274FFF0A3E2
:1001A100741FF0A3742BF0A37401F0A37404F0A3E3
:1001B100740AF0A374FFF0A3741FF0A37430F07BF2
:1001C100FF7A1F79241217E290038FE0FEA3E0AAC1
:1001D10006F97BFFC00390047F7401F0A37404F05F
:1001E100A3740AF0A3EBF0A3741FF0A37421F0A38E
:1001F10074F4F0D0031236FB90050DEFF09003D2AA
:1002010074FFBF0129F0A3741FF0A37432F0A3742B
:1002110001F0A37404F0A3740AF0A374FFF0A374B3
:100221001FF0A37430F07BFF7A1F7924800FF0A3B5
:10023100741FF0A3743DF07BFF7A1F793A1217E225
:10024100900391E0FEA3E0AA06F97BFFC0039004AE
:100251007F7401F0A37404F0A3740AF0A3EBF0A37C
:10026100741FF0A37421F0A374F4F0D0031236FBD1
:1002710090036CE0FEA3E0AA06F97BFFC0039004A3
:100281007F7401F0A37404F0A3740AF0A3EBF0A34C
:10029100741FF0A37421F0A374F4F0D0031236FBA1
:1002A10090050DEFF09003D274FFBF0129F0A37404
:1002B1001FF0A3744EF0A37401F0A37404F0A374AF
:1002C1000AF0A374FFF0A3741FF0A37430F07BFF56
:1002D1007A1F7924800FF0A3741FF0A37457F07B69
:1002E100FF7A1F793A1217E2900389E0FEA3E0AA90
:1002F10006F97BFFC00390047F7401F0A37404F03E
:10030100A3740AF0A3EBF0A3741FF0A37421F0A36C
:1003110074F4F0D0031236FB90050DEFF09003D288
:1003210074FFBF0129F0A3741FF0A37467F0A374D5
:1003310001F0A37404F0A3740AF0A374FFF0A37492
:100341001FF0A37430F07BFF7A1F7924800FF0A394
:10035100741FF0A37471F07BFF7A1F793A1217E2D0
:10036100900383E0FEA3E0AA06F97BFFC00390049B
:100371007F7401F0A37404F0A3740AF0A3EBF0A35B
:10038100741FF0A37421F0A374F4F0D0031236FBB0
:1003910090050DEFF09003D274FFBF0129F0A37413
:1003A1001FF0A3747EF0A37401F0A37404F0A3748E
:1003B1000AF0A374FFF0A3741FF0A37430F07BFF65
:1003C1007A1F7924800FF0A3741FF0A3748BF07B44
:1003D100FF7A1F793A1217E290038BE0FEA3E0AA9D
:1003E10006F97BFFC00390047F7401F0A37404F04D
:1003F100A3740AF0A3EBF0A3741FF0A37421F0A37C
:1004010074F4F0D0031236FB90050DEFF09003D297
:1004110074FFBF0129F0A3741FF0A3749BF0A374B0
:1004210001F0A37404F0A3740AF0A374FFF0A374A1
:100431001FF0A37430F07BFF7A1F7924800FF0A3A3
:10044100741FF0A374A9F07BFF7A1F793A1217E2A7
:10045100900372E0FEA3E0AA06F97BFFC0039004BB
:100461007F7401F0A37404F0A3740AF0A3EBF0A36A
:10047100741FF0A37421F0A374F4F0D0031236FBBF
:1004810090050DEFF09003D274FFBF0129F0A37422
:100491001FF0A374BCF0A37401F0A37404F0A3745F
:1004A1000AF0A374FFF0A3741FF0A37430F07BFF74
:1004B1007A1F7924800FF0A3741FF0A374C6F07B18
:1004C100FF7A1F793A1217E290035EE0FEA3E0AAD9
:1004D10006F97BFFC00390047F7401F0A37404F05C
:1004E100A3740AF0A3EBF0A3741FF0A37421F0A38B
:1004F10074F4F0D0031236FB90050DEFF09003D2A7
:1005010074FFBF0129F0A3741FF0A374D9F0A37481
:1005110001F0A37404F0A3740AF0A374FFF0A374B0
:100521001FF0A37430F07BFF7A1F7924800FF0A3B2
:10053100741FF0A374E7F07BFF7A1F793A1217E278
:10054100900395E0FEA3E0AA06F97BFFC0039004A7
:100551007F7401F0A37404F0A3740AF0A3EBF0A379
:10056100741FF0A37421F0A374F4F0D0031236FBCE
:1005710090050DEFF09003D274FFBF0129F0A37431
:100581001FF0A374FCF0A37401F0A37404F0A3742E
:100591000AF0A374FFF0A3741FF0A37430F07BFF83
:1005A1007A1F7924800FF0A37420F0A37406F07BE6
:1005B100FF7A1F793A1217E2900372E0FEA3E0AAD4
:1005C10006F97BFFC00390047F7401F0A37404F06B
:1005D100A3740AF0A3EBF0A3741FF0A37421F0A39A
:1005E10074F4F0D0031236FB90050DEFF09003D2B6
:1005F10074FFBF0129F0A37420F0A37415F0A37454
:1006010001F0A37404F0A3740AF0A374FFF0A374BF
:100611001FF0A37430F07BFF7A1F7924800FF0A3C1
:100621007420F0A3741DF07BFF7A1F793A1217E250
:1006310090035AE0FEA3E0AA06F97BFFC0039004F1
:100641007F7401F0A37404F0A3740AF0A3EBF0A388
:10065100741FF0A37421F0A374F4F0D0031236FBDD
:1006610090050DEFF09003D274FFBF0129F0A37440
:1006710020F0A3742EF0A37401F0A37404F0A3740A
:100681000AF0A374FFF0A3741FF0A37430F07BFF92
:100691007A1F7924800FF0A37420F0A3743AF07BC1
:1006A100FF7A1F793A1217E29004B274FFF0A37433
:1006B10020F0A37449F07B017A04790A123891EA97
:1006C100494B703F900358E0FEA3E0AA06F97BFF77
:1006D100C00390047F7401F0A37404F0A3740AF0C2
:1006E100A3EBF0A3741FF0A37421F0A374F4F0D072
:1006F100031236FB9003D274FFF0A37420F0A374AD
:100701004F80599004B274FFF0A37420F0A3745683
:10071100F07B017A04790A123891EA494B705F90B3
:100721000364E0FEA3E0AA06F97BFFC00390047F07
:100731007401F0A37404F0A3740AF0A3EBF0A374A2
:100741001FF0A37421F0A374F4F0D0031236FB90D0
:1007510003D274FFF0A37420F0A3745CF0A37401BE
:10076100F0A37404F0A3740AF0A374FFF0A3741F40
:10077100F0A37430F07BFF7A1F79241217E2900303
:100781008DE0FEA3E0AA06F97BFFC00390047F740D
:1007910001F0A37404F0A3740AF0A3EBF0A3741F97
:1007A100F0A37421F0A374F4F0D0031236FB90058A
:1007B1000DEFF09003D274FFBF0129F0A37420F074
:1007C100A37463F0A37401F0A37404F0A3740AF09A
:1007D100A374FFF0A3741FF0A37430F07BFF7A1FA2
:1007E1007924800FF0A37420F0A37471F07BFF7A59
:1007F1001F793A1217E2900397E0FEA3E0AA06F9E7
:100801007BFFC00390047F7401F0A37404F0A37410
:100811000AF0A3EBF0A3741FF0A37421F0A374F406
:10082100F0D0031236FB90050DEFF09003D274FF68
:10083100F0A37420F0A37484F0A37401F0A37404F2
:10084100F0A3740AF0A374FFF0A3741FF0A3743033
:10085100F07BFF7A1F79241217E2900393E0FEA345
:10086100E0AA06F990050174FFF0A3EAF0A3E9F00C
:1008710090050AE0FBA3E0FAA3E0F9123EB590056A
:1008810007E0FBA3E0FAA3E0F9900003120D8E90BC
:100891000501EBF0A3EAF0A3E9F090050AE0FBA360
:1008A100E0FAA3E0F9123EB590050AE0F9A3E0FAF7
:1008B100A3E09003D2C9F0A3EAF0A3E9F07BFF7AA9
:1008C1002079901217E290047F7401F0A37404F070
:1008D100A3740AF0A374FFF0A37420F0A3749CF036
:1008E100A374E8F090050AE0FBA3E0FAA3E0F91293
:1008F10036FB900378EFF09003D274FFBF0129F02B
:10090100A37420F0A374A4F0A37401F0A37404F001
:10091100A3740AF0A374FFF0A3741FF0A37430F062
:100921007BFF7A1F7924800FF0A37420F0A374B0A9
:0A093100F07BFF7A1F793A1217E2FB
:01093B002299
:103DD600900491EBF0A3EAF0A3E9F0900491E0FBE4
:103DE600A3E0FAA3E0F9120A32605090048EE0F9DB
:103DF600A3E0FAA3E0900494C9F0A3EAF0A3E9F0E3
:103E0600900494E0FBA3E0FAA3E0F9120A32FF6003
:103E16001E900491E0FBA3E0FAA3E0F9120A32B582
:103E2600070122900495E475F001120B0180D190F0
:103E36000492E475F001120B0180A07B007A0079F0
:013E4600007B
:013E47002258
:0B3B4C00900497EBF0A3EAF0A3E9F06F
:103B5700120D1F90049DEBF0A3EAF0A3E9F0AE026B
:103B67004E7004FBFAF92290049AE0F9A3E0FAA355
:103B7700E090048EC9F0A3EAF0A3E9F090049DE079
:103B8700FBA3E0FAA3E0F9123DD69004A0EBF0A363
:103B9700EAF0A3E9F04A4B60149004A0E0FBA3E429
:103BA70075F001120B17A9F0FAE4120A789004A035
:103BB700E0FBA3E0FAA3E0F9C003C002C001900450
:103BC70097E0FBA3E0FAA3E0F9120D3F90049DE014
:073BD700FBA3E0FAA3E0F9F3
:013BDE0022C4
:0B3950009004F5EBF0A3EAF0A3E9F00F
:10395B00A3EBF0A3EAF0A3E9F09004F5E0F9A3E000
:10396B00FAA3E09004FBC9F0A3EAF0A3E9F09004FA
:10397B00F8E0FBA3E0FAA3E0F9120A32FF6420603F
:10398B0004EFB4090C9004F9E475F001120B0180FB
:10399B00DD9004F8E0FBA3E475F001120B17A9F01E
:1039AB00FA120A32FF9004FBE0FBA3E475F001125C
:1039BB000B17A9F0FAEF120A7870D69004FC74FF7B
:1039CB0075F0FE801E9004FBE0FBA3E0FAA3E0F988
:1039DB00120A32FF64206004EFB4090C9004FC74EB
:1039EB00FFF5F0120B0180DD900001E4120A8A90C2
:0A39FB0004F5E0FBA3E0FAA3E0F9F5
:013A0500229E
:0B3548009004A3EBF0A3EAF0A3E9F06D
:10355300A3EBF0A3EAF0A3E9F09004A3E0F9A3E05E
:10356300FAA3E09004A9C9F0A3EAF0A3E9F0900458
:10357300A3E0F9A3A3E09004ACC9F0A3EAF0A3E9A4
:10358300F09004A6E0FBA3E0FAA3E0F9120A32FFED
:1035930064206004EFB4090C9004A7E475F00112F1
:1035A3000B0180DD9004A6E0FBA3E0FAA3E0F9128F
:1035B3000A32FF9004A9E0FBA3E0FAA3E0F9EF12BB
:1035C3000A7860409004A9E0FBA3E0FAA3E0F912B3
:1035D3000A32FF64206017EF64096012E92401F9DD
:1035E300E43AFA9004ACEBF0A3EAF0A3E9F0900418
:1035F300AAE475F001120B019004A7E475F001121F
:103603000B0180A09004ACE0FBA3E0FAA3E0F9E493
:0E361300120A789004A3E0FBA3E0FAA3E0F90A
:013621002286
:0B3275009004C6EBF0A3EAF0A3E9F020
:10328000E49004CCF0A3F012002EEF24FFFFEE3404
:10329000FF9004CEF0A3EFF09004C6E0FBA3E0FAA9
:1032A000A3E0F99004CCE0FEA3E0F5828E83120A3D
:1032B0004BFF64206004EFB409109004CDE004F0EB
:1032C00070D69004CCE004F080CE9004C6E0FBA35E
:1032D000E0FAA3E0F99004CEE0FEA3E0F5828E834D
:1032E000120A4BFF64206004EFB409109004CFE091
:1032F00024FFF09004CEE034FFF080CE9004C6E0CE
:10330000FBA3E0FAA3E0F99004CCE0FEA3E0FFE920
:103310002FF9EA3EFA9004D3EBF0A3EAF0A3E9F028
:10332000C39004CFE09FFF9004CEE09ECF2401CF56
:1033300034009004D6F0A3EFF09004C9E0FBA3E0C2
:10334000FAA3E0F9123F209004CCE0FEA3E0FFC313
:103350009004CFE09FFF9004CEE09ECF2401CF34B5
:1033600000FE9004C9E0FBA3E0FAA3E0F98F828E8F
:0533700083E4020A8A5B
:10350600420347FFFF420338FFFF420352FFFF42D9
:103516000354FFFF42034EFFFF420350FFFF4203E7
:103526004C0000410346004103490042034A0000A3
:043536004102B70097
:1044A60090052EEBF0A3EAF0A3E9F0A3ECF0A3ED60
:1044B600F090053174FFF5F0120B1745F060199076
:1044C600052EE0FBA3E475F001120B17A9F0FA1212
:0944D6000A32FF12479780D92237
:1042DF009003C5EBF0A3EAF0A3E9F0900349E06087
:1042EF0031C2AFE4F09003C5E0FBA3E0FAA3E0F81E
:1042FF00AC02AD037B017A03793A7E007F0C120A80
:10430F000C7F017E0012442B43AF01D2AF7E007FA2
:06431F000122E4FEFF2272
:103F880090033AEEF0A3EFF0AF0590033CECF0A3FA
:103F9800EFF0AF0390033EEAF0A3EFF09003ACE03C
:103FA800FFA3E0900340CFF0A3EFF09003AEE0FE54
:103FB800A3E0FF7C007D0A120AAC900342EEF0A356
:103FC800EFF09003B0E0FEA3E0FF7C007D0A120A48
:103FD800AC900344EEF0A3EFF09003497401F02293
:10314B00E49003A1F09002B7E0C394804002E4F056
:10315B009002B7E024B8F582E43402F583EFF090E7
:10316B0002B70232479002B7E0C3942050030232F9
:10317B004DC2809003A1E0FF24B8F582E43402F540
:10318B0083E06442600302323E74B92FF582E4346B
:0B319B0002F583E0644D600302323E49
:1031A6009003A2F09003A1E024B8F9E43402FA7B7C
:1031B600019003A3EBF0A3EAF0A3E9F09000061256
:1031C6000B2DFFAEF0900008120B2DFDACF0900019
:1031D6000C120B2DFBAAF0C002C0039003A3E0FB68
:1031E600A3E0FAA3E0F990000E120B2DFB9003ACBE
:1031F600E5F0F0A3EBF09003A3E0FB900018120BB0
:103206002DFB9003AEE5F0F0A3EBF09003A3E0FBFB
:1032160090001A120B2DFB9003B0E5F0F0A3EBF033
:10322600D003D002123F889002B7E024E0F090036A
:08323600A1E02420F002317038
:10323E009002B7E014F09003A1E004F00231709018
:10324E0003A1E0FF60209002B7E0F5827583007461
:10325E00B82FF9E43402FA7B0178B87C027D017E46
:06326E0000AF82120F64A4
:013274002237
:0D353A0041010200410101004200000000BB
:01006200227B
:1044DF009003CAEBF0A3EAF0A3E9F0A3ECF0A3ED8D
:1044EF00F09003CD74FFF5F0120B1745F0601990A3
:1044FF0003CAE0FBA3E475F001120B17A9F0FA123F
:09450F000A32FF12478880D9220C
:1020C1009003C57401F0A37401F0A37404F09003AC
:1020D100C5E0FBA3E0FAA3E0F974C3120A78900308
:1020E100C5E0FBA3E0FAA3E0F9900002743C120AF8
:1020F1008A900103E0900003120A8A900103E02410
:10210100FE70030221C90460030222E39003C5E0CB
:10211100FBA3E0FAA3E0F99000047409120A8A9083
:102121000005E4120A8A900347E0FEA3E09000064E
:10213100120A8AEE900007120A8A900008740112AE
:102141000A8A900338E0FEA3E0900009120A8AEEA1
:1021510090000A120A8A90000B7402120A8A9003F4
:1021610054E0FEA3E090000C120A8AEE90000D12DA
:102171000A8AE49003C8F0A3F09003C9E0FFC39476
:102181000950289003C5E0FBA3E0FAA3E02405F978
:10219100E43AFA7E00E92FF9EE3AFA120A32FF9098
:1021A10003C8E02FF0A3E004F080CE9003C8E0FF65
:1021B1009003C5E0FBA3E0FAA3E0F990000EEF1253
:1021C1000A8A90000F0222BE9003C5E0FBA3E0FA49
:1021D100A3E0F9900004740F120A8A900005E4123A
:1021E1000A8A900347E0FEA3E0900006120A8AEEF5
:1021F100900007120A8A9000087401120A8A90035B
:1022010038E0FEA3E0900009120A8AEE90000A125B
:102211000A8A90000B7402120A8A900352E0FEA30C
:10222100E090000C120A8AEE90000D120A8A9003C7
:102231004EE0FEA3E090000E120A8AEE90000F120B
:102241000A8A900354E0FEA3E0900010120A8AEE7D
:10225100900011120A8A900350E0FEA3E090001250
:10226100120A8AEE900013120A8AE49003C8F0A3BE
:10227100F09003C9E0FFC3940F50289003C5E0FB21
:10228100A3E0FAA3E02405F9E43AFA7E00E92FF984
:10229100EE3AFA120A32FF9003C8E02FF0A3E004ED
:1022A100F080CE9003C8E0FF9003C5E0FBA3E0FA05
:1022B100A3E0F9900014EF120A8A90001574E71256
:1022C1000A8A9003C5E0FBA3E0FAA3E0F9900004B9
:1022D100120A4B2407FDE433FC7B017A01790412D5
:0222E10044DFD8
:0122E30022D8
:102C3600E490039AF0A3F0C281900000A3E024027E
:102C4600F582E43400F583EFF0900000E475F001BE
:102C5600120B01FCC3E5F094FFEC9400400D9000CC
:102C660002EFF0900000E4F0A304F0900000E0FE14
:102C7600A3E0FFC39406EE94005003022D6A90036E
:102C86009AA3E02402F9E43400FA7B01A3EBF0A353
:102C9600EAF0A3E9F0120A3264C36003022D4890F9
:102CA600039CE0FBA3E0FAA3E0F9900002120A4BB2
:102CB600643C6003022D48900001120A4B640160D7
:102CC60003022D48900004120A4BFDD394C850729B
:102CD600ED2407FDE433FCC3EF9DEE9C5003022D6B
:102CE60096900004120A4BFF90039AA3E02F240843
:0C2CF600F582E43400F583E064E77046EA
:102D02009003A0F09004E204F090039CE0FBA3E0A7
:102D1200FAA3E0F9900003120A4B900103F090002D
:102D220004120A4B2407FFE433FEC3900001E09F24
:102D3200F0900000E09EF090039BE02FF090039A49
:062D4200E03EF0022C71DE
:102D4800900001E024FFF0900000E034FFF09003D1
:102D58009BE004F06003022C7190039AE004F002F7
:102D68002C7190039AE0FEA3E0FF4E6021900000D2
:102D7800E0FCA3E0FDAE04C00574022FF9E43400C2
:0E2D8800FA7B0178027C007D01D007120F64F7
:012D9600221A
:08442B009003C8EEF0A3EFF0CE
:104433001200599003CAEEF0A3EFF0120059AB0734
:10444300AA069003C8E0FEA3E0FF7C007D0A120ADF
:10445300ACA3E0FCA3E0FDC3EB9DFDEA9CFCC3ED34
:054463009FEC9E40D615
:014468002231
:0E47790000007F2B7E067DCBDDFEDEFCDFFA2E
:01478700220F
:1028D700EFD3940540037F0122120A32FED39403FB
:1028E70040037F0222EF7041EE700B900001120A45
:1028F7004BF452935294120A32B4010B9000011216
:102907000A4B4293F45294120A32FEB4020A900020
:1029170001120A4B42934294EEB4030D9000011248
:102927000A4BFEF45293EE4294EF64017043120A8D
:1029370032FE700B900001120A4BF452915292EE44
:10294700B4010B900001120A4B4291F45292120A01
:1029570032B4020A900001120A4B42914292120AC3
:1029670032B4030D900001120A4BFEF45291EE426D
:1029770092EF64027043120A32FE700B900001124C
:102987000A4BF452955296EEB4010B900001120ACD
:102997004B4295F45296120A32B4020A9000011281
:1029A7000A4B42954296120A32B4030D9000011267
:1029B7000A4BFEF45295EE4296EF64037043120AF7
:1029C70032FE700B900001120A4BF452B152B2EE74
:1029D700B4010B900001120A4B42B1F452B2120A31
:1029E70032B4020A900001120A4B42B142B2120AF3
:1029F70032B4030D900001120A4BFEF452B1EE42BD
:102A0700B2EF64047043120A32FE700B9000011299
:102A17000A4BF452B352B4EEB4010B900001120A00
:102A27004B42B3F452B4120A32B4020A90000112B4
:102A37000A4B42B342B4120A32B4030D900001129A
:102A47000A4BFEF452B3EE42B4EF64057043120A28
:102A570032FF700B900001120A4BF452C952CAEFB1
:102A6700B4010B900001120A4B42C9F452CA120A70
:102A770032B4020A900001120A4B42C942CA120A32
:102A870032B4030D900001120A4BFFF452C9EF4212
:042A9700CA7F0022D0
:1013FC009003C0EBF0A3EAF0A3E9F09003BFEFF089
:10140C00640160030216129003FB04F0E4A3F0A342
:10141C00F0A3F0A3F0A3F0A3F09003F8F09003C3B3
:10142C00F09003C3E0FFC394015014740B2FF582AA
:10143C00E43404F583E4F09003C3E004F080E2E4C8
:10144C009003C3F09003C3E0FFC3940150147409DC
:10145C002FF582E43404F583E4F09003C3E004F048
:10146C0080E29003C0E0FBA3E0FAA3E0F9120A3299
:10147C00D394C040037F022290000A120A4BB4019D
:10148C0004D2BC8002C2BC120A32FFE598543F4F12
:10149C00F598EF64C06008EF6440600302158C900F
:1014AC000002120CA67F007E307D2A7C00120BF00D
:1014BC009003C4120CD6E4FFFE7D01FC9003C4E043
:1014CC00F8A3E0F9A3E0FAA3E0FBC3120C824003FB
:1014DC007F02229003C4E0F8A3E0F9A3E0FAA3E0B2
:1014EC00FBC3E49BFFE49AFE740199FDE498FC9025
:1014FC0003C4120CD69003C0E0FBA3E0FAA3E0F9FE
:10150C00900001120A4BFB64017038C28E538EFEA0
:10151C005389BF5389CF438E409003C4E0FCA3E0B2
:10152C00FDA3E0FEA3E0FF7808120C938F8D9003CF
:10153C00C4A3A3A3E0F58BC2AB5389BF538FFDD2D9
:10154C008E8076EB64027035538EEF438E01538E92
:10155C00F7438E049003C4E0FCA3E0FDA3E0FEA3DC
:10156C00E0FF7808120C938FD69003C4A3A3A3E0DA
:10157C00F5D753AFFB538EF7438E10803C7F02227E
:10158C009003C0E0FBA3E0FAA3E0F9120A32FF706B
:10159C0013900008120A4BB40105438E20801A5395
:1015AC008EDF8015EFB48011900008120A4BB40145
:1015BC0005438780800353877F9003C0E0FBA3E043
:1015CC00FAA3E0F9900009120A4BB40104D2AC80E2
:1015DC0002C2AC900007120A4BB40104D29C8002E8
:1015EC00C29C90000B120A4B54C0FFE5A2543F4F13
:1015FC00F5A290000C120A4BB4010543971080031E
:10160C005397EF7F00229003BFE064026003021740
:10161C00749004027402F0E4A3F0A3F0A3F0A3F01E
:10162C00A3F0A3F09003C3F09003C3E0FFC39401B5
:10163C005014740C2FF582E43404F583E4F0900319
:10164C00C3E004F080E2E49003C3F09003C3E0FF36
:10165C00C394015014740A2FF582E43404F583E426
:10166C00F09003C3E004F080E29003C0E0FBA3E041
:10167C00FAA3E0F9120A32FF64C06008EF6440601C
:10168C000302173490000A120A4BB4010543B5014A
:10169C00800353B5FE120A32B4C005439A8080030E
:1016AC00539A7F900002120CA67F007E307D2A7C1C
:1016BC0000120BF09003C4120CD6E4FFFE7D01FC6B
:1016CC009003C4E0F8A3E0F9A3E0FAA3E0FBC31293
:1016DC000C8240037F02229003C4E0F8A3E0F9A33C
:1016EC00E0FAA3E0FBC3E49BFFE49AFE740199FDCE
:1016FC00E498FC9003C4120CD6538EEF538EF74330
:10170C008E049003C4E0FCA3E0FDA3E0FEA3E0FF85
:10171C007808120C938FD69003C4A3A3A3E0F5D73B
:10172C0053AFFB438E1080037F02229003C0E0FB7B
:10173C00A3E0FAA3E0F9900009120A4BB4010543A7
:10174C00AF01800353AFFE900007120A4BB40105A2
:10175C00439A108003539AEF90000B120A4B5401DA
:0A176C00FFE5BA54FE4FF5BA7F0303
:011776002250
:03002300023FE8B1
:0D3FE800C0E0C0F0C083C082C0D075D01012
:103FF500309813C298AF99122C36900401E07006E0
:10400500900399E599F0900399E0FF3395E0FEEF71
:1040150064AF4E700690040EE004F090040EE0B418
:10402500050AE599B47F0575C760E4F0309907C2C4
:06403500999003FEE4F087
:0B403B00D0D0D082D083D0F0D0E03293
:030043000245185B
:10451800C0E0C0F0C083C082C0D075D018E59A3022
:10452800E00E539AFE900408E07005AF9B12314BE1
:10453800E59A30E108539AFD900405E4F0D0D0D014
:0845480082D083D0F0D0E032F4
:0F4788009003FEE070FA9003FE7401F08F992207
:10004600120A32FF600C124788740129F9E43AFA61
:0300560080EE2217
:0B4650009003C5EBF0A3EAF0A3E9F033
:10465B00E4FEEEC39D501A9003C5E0FBA3E0FAA362
:10466B00E0F98E82758300120A4BFF1247880E8089
:01467B00E15D
:01467C00221B
:0F479700900405E070FA9004057401F08F9B22E6
:10475600120A32FF600C124797740129F9E43AFAFB
:0347660080EE22C0
:0B467D00900547EBF0A3EAF0A3E9F082
:10468800E4FEEEC39D501A900547E0FBA3E0FAA3B1
:10469800E0F98E82758300120A4BFF1247970E804D
:0146A800E130
:0146A90022EE
:03000B0002000EE2
:0D000E00C0E0050EE50E7002050DD0E032D9
:03001B000247E9B0
:0147E900329D
:030063000247EA67
:0147EA00329C
:102A9B00AD07EDD3940240037F0122ED6003022BBF
:102AAB002FC28C900002120A4BB40104D2A98002EF
:102ABB00C2A9900001120A4BB40104D2B98002C220
:102ACB00B9120A32FED3940340037F0222E58954E4
:102ADB00FC4EF589900003120A4BFFB40103538E91
:102AEB007FEF7003438E80EFB402054389048003AC
:102AFB005389FB900004120A4BB40105438F0180EC
:102B0B0003538FFE900005120B2DE5F0F58C900012
:102B1B0005120B2DF58A900007120A4BB40102D255
:102B2B008C7F0022ED64016003022BBAC28E9000F1
:102B3B0002120A4BB40104D2AB8002C2AB9000016B
:102B4B00120A4BB40104D2BB8002C2BB120A32FE82
:102B5B00C3940340037F0222E58954CF4EF589903D
:102B6B000003120A4BFFB40103538EBFEF700343F4
:102B7B008E40EFB4020543894080035389BF900018
:102B8B0004120A4BB40105438F028003538FFD904F
:102B9B000005120B2DE5F0F58D900005120B2DF5B0
:102BAB008B900007120A4BB40102D28E7F0022EDEC
:102BBB0064027074538EEF900002120A4BB401053D
:102BCB0043AF04800353AFFB900003120A4BFED3B9
:102BDB00940240037F0222EEB40103538EFB90005C
:102BEB0003120A4B7003438E04900003120A4BB47A
:102BFB000205438E088003538EF7900004120A4B94
:102C0B00B40105438F048003538FFB900005120B17
:102C1B002DFDACF0ECF5D68DD7900007120A4BB416
:0B2C2B000103438E107F00227F022275
:0E47A600E4F5C7F5C5F5C675C3FF75C4FF225F
:1043AD00AD07AC06C2AF75C78375C501ECF5C3AFDC
:1043BD00058FC475C65A75C6A500E5C2120A780DDB
:1043CD00BD00010C740129F9E43AFA90051374FF4C
:0F43DD00F5F0120B0145F070D31247A6D2AF22B4
:10473600AD07AC06C2AFECF5C3AF058FC475C78332
:1047460075C50375C65A75C6A5001247A6D2AF220F
:1043EC00AD07AC06C2AF75C78375C502ECF5C3AF9C
:1043FC00058FC4120A32F5C275C65A75C6A5000DD2
:10440C00BD00010C740129F9E43AFA90051A74FF05
:0F441C00F5F0120B0145F070D31247A6D2AF2274
:10415900120A32F59D900001120A4BFFE5BC549FEB
:104169004FF5BC900002120A4BB4010543BC808094
:104179000353BC7F900003120A4BB40105439720F7
:1041890080035397DF900005120A4BB40104D2ADA6
:104199008002C2AD900004120A4BB40103D2BD22C1
:0341A900C2BD2272
:0C47CC00EFB4010443BC802253BC7F22E8
:10404600EFD3940740028051E4F5BDF5BEE5BC54BC
:10405600E044084FF5BC00000000E4FBE5BC30E49A
:104066003353BCEFE59730E509E5BD5403ADBEFC1F
:10407600801DAFBD7C00AD07ED7E007802C333CE58
:1040860033CED8F9FFE5BE5403FDEEFCEF4DFDAF90
:0D40960005AE04220BEBB4FAC37E047F00DC
:0140A30022FA
:03002B000247E5A4
:0447E50053BCEF32A0
:03000000023BDFE1
:0C3BDF00787FE4F6D8FD758121023C26B9
:10093C00E709F608DFFA8046E709F208DFFA803E9D
:10094C0088828C83E709F0A3DFFA8032E309F6088A
:10095C00DFFA8078E309F208DFFA807088828C83F2
:10096C00E309F0A3DFFA806489828A83E0A3F608A6
:10097C00DFFA805889828A83E0A3F208DFFA804C80
:10098C0080D280FA80C680D4806980F28033801057
:10099C0080A680EA809A80A880DA80E280CA8033C0
:1009AC0089828A83ECFAE493A3C8C582C8CCC58338
:1009BC00CCF0A3C8C582C8CCC583CCDFE9DEE78008
:1009CC000D89828A83E493A3F608DFF9ECFAA9F087
:1009DC00EDFB2289828A83ECFAE0A3C8C582C8CCDD
:1009EC00C583CCF0A3C8C582C8CCC583CCDFEADEF6
:1009FC00E880DB89828A83E493A3F208DFF980CC58
:100A0C0088F0EF60010E4E60C388F0ED2402B40450
:100A1C000050B9F582EB2402B4040050AF232345F7
:060A2C00822390098C7387
:100A3200BB010689828A83E0225002E722BBFE02C2
:090A4200E32289828A83E49322F5
:100A4B00BB010CE58229F582E5833AF583E0225060
:100A5B0006E92582F8E622BBFE06E92582F8E222AA
:0D0A6B00E58229F582E5833AF583E49322C4
:100A7800BB010689828A83F0225002F722BBFE015D
:020A8800F32257
:100A8A00F8BB010DE58229F582E5833AF583E8F0A2
:100A9A00225006E92582C8F622BBFE05E92582C84E
:020AAA00F22236
:100AAC00BC000BBE0029EF8DF084FFADF022E4CC2E
:100ABC00F875F008EF2FFFEE33FEEC33FCEE9DECF7
:100ACC00984005FCEE9DFE0FD5F0E9E4CEFD22ED3D
:100ADC00F8F5F0EE8420D21CFEADF075F008EF2F87
:100AEC00FFED33FD4007985006D5F0F222C398FD78
:050AFC000FD5F0EA2215
:100B0100C5F0F8A3E028F0C5F0F8E582158270027F
:060B11001583E038F0221C
:100B1700A3F8E0C5F025F0F0E58215827002158391
:060B2700E0C838F0E822EE
:100B2D00BB0110E58229F582E5833AF583E0F5F006
:100B3D00A3E0225009E92582F886F008E622BBFEE3
:100B4D000AE92582F8E2F5F008E222E5832AF58329
:080B5D00E993F5F0A3E99322EE
:100B6500E88FF0A4CC8BF0A42CFCE98EF0A42CFC2F
:100B75008AF0EDA42CFCEA8EF0A4CDA8F08BF0A4AD
:100B85002DCC3825F0FDE98FF0A42CCD35F0FCEB0C
:100B95008EF0A4FEA9F0EB8FF0A4CFC5F02ECD39D1
:0F0BA500FEE43CFCEAA42DCE35F0FDE43CFC223E
:100BB40075F008758200EF2FFFEE33FECD33CDCCF8
:100BC40033CCC58233C5829BED9AEC99E58298407B
:100BD4000CF582EE9BFEED9AFDEC99FC0FD5F0D658
:100BE400E4CEFBE4CDFAE4CCF9A88222B800C1B982
:100BF4000059BA002DEC8BF084CFCECDFCE5F0CBC0
:100C0400F97818EF2FFFEE33FEED33FDEC33FCEBF8
:100C140033FB10D703994004EB99FB0FD8E5E4F9B3
:100C2400FA227818EF2FFFEE33FEED33FDEC33FCA0
:100C3400C933C910D7059BE99A4007EC9BFCE99A94
:100C4400F90FD8E0E4C9FAE4CCFB2275F010EF2FD9
:100C5400FFEE33FEED33FDCC33CCC833C810D707D9
:100C64009BEC9AE899400AED9BFDEC9AFCE899F814
:0E0C74000FD5F0DAE4CDFBE4CCFAE4C8F922A7
:100C8200EB9FF5F0EA9E42F0E99D42F0E89C45F0C8
:010C9200223F
:100C9300E8600FECC313FCED13FDEE13FEEF13FF3F
:030CA300D8F12263
:100CA600BB010DE58229F582E5833AF583020F99AA
:100CB6005007E92582F8020F8CBBFE07E92582F86A
:100CC600020FA5E58229F582E5833AF583020FB284
:0C0CD600ECF0A3EDF0A3EEF0A3EFF02291
:100CE200A8828583F0D083D082120CF9120CF912FB
:100CF2000CF9120CF9E473E493A3C583C5F0C58320
:100D0200C8C582C8F0A3C583C5F0C583C8C582C85B
:010D120022BE
:0C0D1300A42582F582E5F03583F58322EB
:100D1F00BB010789828A83020FD45005E9F8020FBD
:100D2F00C2BBFE05E9F8020FFD89828A8302100F0C
:100D3F00BB011A89828A83D0F0D0E0F8D0E0F9D0D5
:100D4F00E0FAD0E0FBE8C0E0C0F0020FF45016E983
:100D5F00F8D083D082D0E0F9D0E0FAD0E0FBC082A7
:100D6F00C083020FCBBBFE16E9F8D083D082D0E050
:0F0D7F00F9D0E0FAD0E0FBC082C0830210062258
:100D8E00BB010DE58229F582E5833AF583020FD486
:100D9E005007E92582F8020FC2BBFE07E92582F84B
:100DAE00020FFDE58229F582E5833AF58302100FE5
:10177700E50824D2F582E43403F583E005082290D6
:1017870003CF3007039003D2E475F001120FDD0297
:101797000A322000E97F2ED2008018EF540F2490E0
:1017A700D43440D4FF30040BEF24BFB41A005003E5
:1017B7002461FFE50960021509050CE50C700205B7
:1017C7000B30070E9003CFE475F001120FDDEF0227
:1017D7000A780247697403D2078003E4C207F50851
:1017E7009003CF120FF4E4F509F50BF50CE509604A
:1017F700077F201217BA80F5750AFFC201C200C21F
:1018070002C203C205C206C208121786FF700D3056
:1018170007057F001217CBAF0CAE0B22B4255FC2B2
:10182700D5C204121786FF24D0B40A00501A75F0E7
:101837000A780930D50508B6FF0106C6A426F620A2
:10184700D5047002D20380D924CFB41A00EF500414
:10185700C2E5D2040219CCD20180C6D20080C0D220
:101867000280BCD2D580BAD20580B47F201217BAC5
:101877002002077401B5090040F1121777FF12170C
:10188700BA0217F4D208D2068095121777FB1217FF
:1018970077FA121777F94A4B7006799D7A1A7BFF08
:1018A70020022EE509602A7E008E82758300120AC7
:1018B7004B60060EEE650A70F0C2D5EBC0E0EAC0D9
:1018C700E0E9C0E0EE121A13D0E0F9D0E0FAD0E078
:1018D700FB120A32FF60AAEBC0E0EAC0E0E9C0E011
:1018E7001217BAD0E02401F9D0E03400FAD0E0FBB7
:1018F700E50A0460DCD50AD980877BFF7A1A790F5D
:10190700D202809C791080027908C206C20880083A
:10191700D2D5790A8004790AC2D5E50A047002F59E
:101927000AE4FAFDFEFF121777FC7B082001131269
:101937001777FD7B1030000A121777FE121777FF13
:101947007B20EC3382D592D55013C3E43000069F39
:10195700FFE49EFEE42001039DFDE49CFCE4CBF83C
:10196700C201EC700CCFCECDCCE824F8F870F38030
:1019770017C3EF33FFEE33FEED33FDEC33FCEB33F0
:10198700FB994002FB0FD8E9EB300105F8D0E0C422
:1019970048B201C0E00AEC4D4E4F78207B0070C280
:1019A700EAB50A0040BCC0E0121A15D0F0D0E0201A
:1019B7000104C4C0E0C4B201C0F01217A3D0F0D52F
:1019C700F0EB0217F412101B189153190B581862F9
:1019D7004C185E42190F4F191744191749187743C6
:0819E700191D551901461901F3
:1019EF00451901471ABD5018662D186A2E188D2BF0
:1019FF00186E23188B201AA62A182648000018855F
:101A0F003F3F3F00790AA2D5200314300509B910D2
:101A1F00020404B9080104A2D520060250010420D3
:101A2F0002689202B509005034C0E07F20300319DC
:101A3F007F30A20272067205500F121A6CC202C2D8
:101A4F0006C205C2087F30800F300503E9C0E012DF
:101A5F0017BA300503D0E0F9D0E0B509CC3005173F
:101A6F007F30B9100C1217BA7F583004077F788077
:101A7F0003B908031217BA3002057F2D0217BA7F78
:101A8F00202008F87F2B2006F322920280CF286EA9
:101A9F00756C6C2900D2011217773001F8C20178EA
:101AAF000930D50108F60218262D50434958121750
:101ABF00772403B405004001E4901AB8931217ABD2
:0D1ACF00743A1217ABD20375090402190B0B
:103EB5009004FEEBF0A3EAF0A3E9F0900504EBF023
:103EC500A3EAF0A3E9F09004FEE0FBA3E475F0019A
:103ED500120B17A9F0FA120A3270EB9004FF74FF67
:103EE500F5F0120B01900501E0FBA3E475F001125A
:103EF5000B17A9F0FA120A32FF9004FEE0FBA3E4C7
:103F050075F001120B17A9F0FAEF120A7870D69026
:0B3F15000504E0FBA3E0FAA3E0F922A2
:103F20009004D0EBF0A3EAF0A3E9F0E49004D8F019
:103F3000A3F09004D674FFF5F0120B1745F0603C27
:103F40009004D3E0FBA3E0FAA3E0F9120A32FF9059
:103F500004D0E0FBA3E0FAA3E0F99004D8E475F004
:103F600001120B1785F082F583EF120A8AEF60C207
:103F70009004D4E475F001120B0180B69004D0E0F7
:083F8000FBA3E0FAA3E0F92223
:10002E00E4FFFE120A32600C0FEF70010E09E97048
:05003E00F20A80EF2230
:103891009004AFEBF0A3EAF0A3E9F0A3E0FBA3E00F
:1038A100FAA3E0F9120A32700302393D9004AFE045
:1038B100FBA3E0FAA3E0F9120A327003023949903E
:1038C10004B2E0F9A3E0FAA3E0A3C9F0A3EAF0A3EC
:1038D100E9F09004AFA3E0FAA3E0F99004B8EBF0AB
:1038E100A3EAF0A3E9F09004B5E0FBA3E0FAA3E0BA
:1038F100F9120A32FF60269004B8E0FBA3E0FAA3B4
:10390100E0F9120A326F70159004B675F001120BCE
:10391100019004B9E475F001120B0180C99004B55E
:10392100E0FBA3E0FAA3E0F9120A327002800D90E5
:1039310004B0E475F001120B010238AD9004AFE060
:0F394100FBA3E0FAA3E0F9227B007A00790022D1
:100DBE00EF4E6012EF60010EEDBB010B89828A834C
:100DCE00F0A3DFFCDEFA2289F05007F709DFFCA959
:0C0DDE00F022BBFEFCF309DFFCA9F022B0
:100DEA00E709F608DFFA807BE9D39850F3E92FF98F
:100DFA00E82FF819E718F6DFFA8068E709F208DF42
:100E0A00FA806080E388828C83E709F0A3DFFA80A6
:100E1A0052E309F608DFFA804AE9D398500EE92F1F
:100E2A00F9E82FF819E318F2DFFA8037E309F20834
:100E3A00DFFA802F88828C83E309F0A3DFFA80230C
:100E4A0089828A83E0A3F608DFFA801789828A8377
:100E5A00E493A3F208DFF9800A89828A83E0A3F285
:100E6A0008DFFA020EFC80B180F980A580C680DC1A
:100E7A0080F180738010808380E98087808780D9A1
:100E8A0080E180BC8073D3E998EA9C5039E92FF558
:100E9A0082EA3BF583E82FF8EC3BFC0582D5820217
:100EAA0015831582E493C8C582C8CCC583CC058254
:100EBA00D5820215831582F0C8C582C8CCC583CCF9
:100ECA00DFD9DED7802E89828A83ECFAE493A3C81D
:100EDA00C582C8CCC583CCF0A3C8C582C8CCC5839B
:100EEA00CCDFE9DEE7800D89828A83E493A3F608E2
:100EFA00DFF9ECFAA9F0EDFB22D3E998EA9C503825
:100F0A00E92FF582EA3BF583E82FF8EC3BFC0582F2
:100F1A00D5820215831582E0C8C582C8CCC583CCA8
:100F2A000582D5820215831582F0C8C582C8CCC550
:100F3A0083CCDFDADED880BC89828A83ECFAE0A32C
:100F4A00C8C582C8CCC583CCF0A3C8C582C8CCC5E5
:100F5A0083CCDFEADEE8809C809888F08E83EF609D
:100F6A00010E4E608DED2402B404005085F582EB2B
:100F7A002402B4040050E123234582AB8323900E5C
:020F8A00707382
:103BEB000247DFE493A3F8E493A34003F68001F2CA
:103BFB0008DFF48029E493A3F85407240CC8C333DB
:103C0B00C4540F4420C8834004F456800146F6DFA9
:103C1B00E4800B0102040810204080903468E47E9D
:103C2B00019360BCA3FF543F30E509541FFEE4939E
:103C3B00A360010ECF54C025E060A840B8E493A365
:103C4B00FAE493A3F8E493A3C8C582C8CAC583CA90
:103C5B00F0A3C8C582C8CAC583CADFE9DEE780BE48
:013547000083
:0D0F8C00E6FB08E6F908E6FA08E6CBF822D5
:0C0F9900E0F8A3E0F9A3E0FAA3E0FB22DB
:0D0FA500E2FB08E2F908E2FA08E2CBF822CC
:100FB200E493F8740193F9740293FA740393FB2295
:090FC200E6FB08E6FA08E6F92254
:090FCB00EBF608EAF608E9F6224B
:090FD400E0FBA3E0FAA3E0F9221E
:100FDD00F8E0FBA3A3E0F925F0F0E582158270029D
:070FED001583E0FA38F02241
:090FF400EBF0A3EAF0A3E9F022FE
:090FFD00E2FB08E2FA08E2F92225
:09100600EBF208EAF208E9F2221B
:0C100F00E493FB740193FA740293F9223D
:10101B00D083D082F8E4937012740193700DA3A364
:10102B0093F8740193F5828883E473740293686078
:06103B00EFA3A3A380DF78
:00000001FF
