:103AE2007461736B300D0A00733D2564730D0A0017
:103AF200696E2D6366672D4F4B0D0A006F6B007167
:093B02007569742D4F4B0D0A008A
:103B940090038174FFF0E4900380F07B017A037951
:053BA40080FF02236B0D
:103599009003807440F0A37401F0A31208F20000B4
:1035A90025809003877401F0E4A3F0A304F0E4A359
:1035B900F0A3F0A3F07B017A0379807F011213B79E
:1035C9009003807440F09003821208F20000258075
:1035D9009003877401F0900389F0E4A3F0A3F07BD2
:0A35E900017A0379807F020213B714
:102A7E009004A57401F0E4900000F07BFF7A3A799F
:102A8E00E2120BE4123C159004A6EE022B329004D7
:102A9E00A5E07003022B39123C159004A8EEF0A3AA
:102AAE00EFF07C007D641206AEED4C7032A3E0FEBA
:102ABE00A3E0FF9004A8E06E7003A3E06F60209087
:102ACE0004A8E0FEA3E0FF7C007D641206AE900336
:102ADE0086EEF0A3EFF07BFF7A3A79EA120BE490E0
:102AEE0004A6E0FEA3E0FFC39004A9E09FFF9004BC
:102AFE00A8E09EFED3EF94F4EE94014007E4900418
:102B0E00A5F0805A900000E0B401107BFF7A3A796C
:102B1E00F2120BE4E49004A5F080109004A8E0FFFC
:102B2E00A3E0A3CFF0A3EFF0022A9C900000E024D4
:102B3E00FE600F14601D14602024036003022A9CA3
:102B4E0080031233407BFF7A3A79FE7D02123A5FA0
:102B5E00022A9C122EB7022A9CE4900000F07BFF02
:072B6E007A3B7901020BE440
:100046009004D87401F0123B94123599123B51D2A8
:08005600AFD282D2830230BC5C
:103AB9009004D8E0B401078F993099FDC299900418
:103AC900D8E0B402138F9BE59A20E1047E018002BD
:093AD9007E00EE70F2539AFD220A
:0F3BCF0049443A57482D25730D0D0A006F6B00BE
:10364B00602803DE00010203040506072B7E151616
:10365B0028AED2A6ABF7158809CF4F3C0001020369
:10366B000405060708090A0B0C0D0E0F4403B300E3
:0A367B000000004403B70000000047
:0B2B7500900383EBF0A3EAF0A3E9F06B
:102B8000E490038DF0A3F0900389E0FEA3E0FFC37F
:102B900090038EE09FEE6480F890038DE06480984F
:102BA0004003022C2F900386E0FBA3E0FAA3E0F998
:102BB00090038DE0FEA3E0F5828E8312064DFFC4E4
:102BC000540F2430FE90038CF0EF540F2430900308
:102BD0008BF0EED394394005A3E02407F090038BEB
:102BE000E0D394394004E02407F090038CE0FD909A
:102BF000038EE025E0FF90038DE033FE900383E039
:102C0000FBA3E0FAA3E0F98F828E83ED12068C908D
:102C1000038BE08F828E83A312068C90038EE004D8
:102C2000F06003022B8790038DE004F0022B879065
:102C3000038AE025E0FF900389E033FE900383E000
:0F2C4000FBA3E0FAA3E0F98F828E83E402068CF7
:1030BC00E4900000F07B017A01790D900388F0A375
:1030CC007430F0E4FFFE1239347F067E001239B200
:1030DC00900380E4F0A3F0A374F1F07E007F147DE4
:1030EC00007B017A0379C2120975900380E0F9A381
:1030FC00E0FAA3E0900386C9F0A3EAF0A3E9F0A3F9
:10310C00E4F0A37407F07B017A0379C2122B75905B
:10311C0003867401F0A37403F0A374C2F07BFF7AEE
:10312C003B79CF120BE475C12743C1101239F01251
:0D313C0037D71236EE2080F11235F380EC0B
:1036EE00123C15E4FCFD9003B31208E69003B7E01C
:1036FE00F8A3E0F9A3E0FAA3E0FB9003B3E0FCA388
:10370E00E0FDA3E0FEA3E0C39BFFEE9AFEED99FD64
:10371E00EC98FCE47B64FAF9F8C31208925010C2DC
:0F372E0082C283123C15E4FCFD9003B71208E63B
:01373D002269
:103B0B00900348EEF0A3EFF0123C159003D8EEF0C3
:103B1B00A3EFF0900348E0FFA3E09003D6CFF0A310
:033B2B00EFF02296
:103B2E0090037EEEF0A3EFF0123C159003DCEEF066
:103B3E00A3EFF090037EE0FFA3E09003DACFF0A3B3
:033B4E00EFF02273
:1039F000900006E0D394004032123C159003BBEED9
:103A0000F0A3EFF09003D8E0FCA3E0FDC3EF9DFF2F
:103A1000EE9CFEC39003D7E09F9003D6E09E500B30
:0B3A2000D282E4900006F0900005F058
:013A2B002278
:1037D70090000DE0D394004040123C159003BDEEDD
:1037E700F0A3EFF09003DCE0FCA3E0FDC3EF9DFF47
:1037F700EE9CFEC39003DBE09F9003DAE09E501936
:10380700D2837B017A01790D90000CE0FD123A5FBB
:09381700E490000DF090000CF0AB
:013820002285
:1033400078DE7C037D017B017A0079107E007F08A6
:1033500012060E78E67C037D017B017A0079187EE7
:10336000007F1012060E78F67C037D017B017A0047
:1033700079287E007F1012060EE4FFFE123B747F58
:10338000067E001239B27B017A007910900005E0C8
:10339000FF9004B1E4F0A3EFF0E4FFFE1239737F75
:1033A000067E001239B27BFF7A3B79DB7D02023A5E
:0133B0005FBD
:0838F2009004D0EEF0A3EFF00A
:1038FA009003C1E0700F123C159003BFEEF0A3EFE6
:10390A00F0A37401F0123C159003BFE0FCA3E0FDA4
:10391A00C3EF9DFFEE9CFEC39004D1E09F9004D0BC
:09392A00E09E5005E49003C1F099
:013933002271
:102EB700900006E0D39400405690000DE0705090CB
:102EC7000006E014F07048900005E0D39400403A03
:102ED700E49004D2F0A3F0900005E0FF9004D2E064
:102EE700FCA3E0FDC39FEC9400501F740F2DF582E7
:102EF700E43400F583E0FF1200269004D3E004F0E9
:102F070070D59004D2E004F080CDE4900005F090F5
:102F1700000DE0D394004056900006E070509000FA
:102F27000DE014F0704890000CE0D39400403AE4B0
:102F37009004D2F0A3F090000CE0FF9004D2E0FCE4
:102F4700A3E0FDC39FEC9400501F740D2DF582E4A0
:102F57003401F583E0FF123BED9004D3E004F070F9
:0E2F6700D59004D2E004F080CDE490000CF090
:012F75002239
:102DF2009004217401F0A37403F0A374F6F0A37499
:102E020001F0A37400F0A3740FF0900006E0149098
:102E12000427F0A37401F0A37402F0A3744BF07BB7
:102E2200017A0379E612282790041CEEF0A3EFF052
:102E320078087C047D017B017A0379DE7E007F08BD
:102E420012060E90041CE0FCA3E0FDEC900410F0CE
:102E5200EDA3F090047E7401F0A37402F0A3744B0E
:102E6200F090041CE0FFA3E0900481CFF0A3EFF008
:102E72007B017A0479067D0C7C00122D2890041ABD
:102E8200EEF0A3EFF07B017A0479067D0C123A8C06
:102E92007B017A02794B90041CA3E0FD123A8C90DC
:102EA200041AE0FF12002690041AA3E0FF12002683
:052EB2007FE70200268D
:07000300252E3278000A00EF
:0B3821009004BFEBF0A3EAF0A3E9F075
:10382C00E4A3F09004C2E0FFC3941050289004BFAE
:10383C00E0FBA3E0FAA3E0F98F8275830012064D3A
:10384C00900386F07BFF7A007903120BE49004C29C
:0E385C00E004F080CE7BFF7A007908020BE4D6
:0B2C4F00900457EBF0A3EAF0A3E9F0BB
:102C5A00900463E4F0A37403F0900463E0C4F854AE
:102C6A00F0C868FFA3E0C4540F48A3CFF0A3EFF065
:102C7A00E4A3F07403540FA3F07D037C0090046670
:102C8A00E02401FF900465E03400FEEFC4F8540F1D
:102C9A00C868FFEEC454F048FEC3ED9FEC9E502076
:102CAA00900467A3E0FF90045DE0FBA3E0FAA3E0D1
:102CBA00F98D828C83EF12068C0DBD00010C80BD4C
:102CCA0090045DE0F9A3E0FAA3E0900447C9F0A3F9
:102CDA00EAF0A3E9F0A31208F200000040900457BA
:102CEA00E0F9A3E0FAA3E090044EC9F0A3EAF0A346
:102CFA00E9F090045AE0F9A3E0FAA3E0900451C97C
:102D0A00F0A3EAF0A3E9F0900460E0FBA3E0FAA3E1
:0D2D1A00E0F91226CA900463E0FEA3E0FF7A
:012D27002289
:0B28270090041EEBF0A3EAF0A3E9F020
:10283200900427E0FFC4540FFD90042DE4F0A3EDB3
:10284200F0EF540FFF7E00A3EEF0A3EFF0605C9078
:102852000427E0FF90042BEEF0A3EFF0900427E0B2
:102862002410FFE433FE90042FE0FAA3E0FBC3EF51
:102872009BFFEE9AFE90042BE0FCA3E0FDC39FECCD
:102882009E5028C374109BFF900424E0FBA3E0FA3F
:10289200A3E0F98D828C83EF12068C90042CE00465
:1028A200F070B990042BE004F080B1900424E0F9B8
:1028B200A3E0FAA3E0900434C9F0A3EAF0A3E9F09C
:1028C20090042EE02401FF90042DE03400FEEFC4BA
:1028D200F8540FC868FFEEC454F048FEE4FCFD90C3
:1028E20004371208E690041EE0F9A3E0FAA3E09090
:1028F200043BC9F0A3EAF0A3E9F0900421E0F9A3B4
:10290200E0FAA3E090043EC9F0A3EAF0A3E9F09054
:102912000428E0FBA3E0FAA3E0F91229549004286A
:10292200E0FBA3E0FAA3E0F990042DA3E004C45471
:10293200F0FD123A5F90042EE02401FF90042DE096
:102942003400FEEFC4F8540FC868FFEEC454F048D8
:01295200FE86
:012953002261
:101A7900637C777BF26B6FC53001672BFED7AB7642
:101A8900CA82C97DFA5947F0ADD4A2AF9CA472C0ED
:101A9900B7FD9326363FF7CC34A5E5F171D831155A
:101AA90004C723C31896059A071280E2EB27B2757B
:101AB90009832C1A1B6E5AA0523BD6B329E32F84F3
:101AC90053D100ED20FCB15B6ACBBE394A4C58CFEB
:101AD900D0EFAAFB434D338545F9027F503C9FA8BF
:101AE90051A3408F929D38F5BCB6DA2110FFF3D28D
:101AF900CD0C13EC5F974417C4A77E3D645D197341
:101B090060814FDC222A908846EEB814DE5E0BDB3A
:101B1900E0323A0A4906245CC2D3AC629195E47971
:101B2900E7C8376D8DD54EA96C56F4EA657AAE08CB
:101B3900BA78252E1CA6B4C6E8DD741F4BBD8B8A66
:101B4900703EB5664803F60E613557B986C11D9ECC
:101B5900E1F8981169D98E949B1E87E9CE5528DF43
:101B69008CA1890DBFE6426841992D0FB054BB166F
:101B790052096AD53036A538BF40A39E81F3D7FBF9
:101B89007CE339829B2FFF87348E4344C4DEE9CB43
:101B9900547B9432A6C2233DEE4C950B42FAC34EB8
:101BA900082EA16628D924B2765BA2496D8BD1256E
:101BB90072F8F66486689816D4A45CCC5D65B69212
:101BC9006C704850FDEDB9DA5E154657A78D9D84B6
:101BD90090D8AB008CBCD30AF7E45805B8B34506D6
:101BE900D02C1E8FCA3F0F02C1AFBD0301138A6BF0
:101BF9003A9111414F67DCEA97F2CFCEF0B4E67320
:101C090096AC7422E7AD3585E2F937E81C75DF6ECD
:101C190047F11A711D29C5896FB7620EAA18BE1B33
:101C2900FC563E4BC6D279209ADBC0FE78CD5AF4D9
:101C39001FDDA8338807C731B11210592780EC5F1F
:101C490060517FA919B54A0D2DE57A9F93C99CEF7B
:101C5900A0E03B4DAE2AF5B0C8EBBB3C835399617C
:101C6900172B047EBA77D626E169146355210C7DBA
:101C79008D01020408102040801B366CD8AB4D9AA8
:101C89002F5EBC63C697356AD4B37DFAEFC5913927
:101C990072E4D3BD61C29F254A943366CC831D3A51
:101CA90074E8CB8D01020408102040801B366CD8E3
:101CB900AB4D9A2F5EBC63C697356AD4B37DFAEFF4
:101CC900C5913972E4D3BD61C29F254A943366CC6C
:101CD900831D3A74E8CB8D01020408102040801B53
:101CE900366CD8AB4D9A2F5EBC63C697356AD4B3B0
:101CF9007DFAEFC5913972E4D3BD61C29F254A943B
:101D09003366CC831D3A74E8CB8D01020408102098
:101D190040801B366CD8AB4D9A2F5EBC63C6973595
:101D29006AD4B37DFAEFC5913972E4D3BD61C29F1C
:101D3900254A943366CC831D3A74E8CB8D0102049D
:101D490008102040801B366CD8AB4D9A2F5EBC63BF
:101D5900C697356AD4B37DFAEFC5913972E4D3BD1C
:0F1D690061C29F254A943366CC831D3A74E8CB40
:053C0900EFF0A3E0FF55
:073C0E00EF901A7993FF22E9
:073C1E00EF901B7993FF22D8
:100FFC00E0F9A3E0FAA3E0C9900292F0A3EAF0A30F
:02100C00E9F009
:10100E009004691208F200000000E47F04FEFDFC6B
:10101E00900469E0F8A3E0F9A3E0FAA3E0FBC312A1
:10102E0008924003021155E47F04FEFDFC90046912
:10103E00E0F8A3A3A3E0120767900292E0FBA3E0FF
:10104E00FAA3E0F98F828E8312064DFD900469A3F8
:10105E00A3E0FAA3E090029575F004120923EA25A5
:10106E00E025E02583F583EDF0EF2401FFE43EFE5D
:10107E00900292E0FBA3E0FAA3E0F98F828E831236
:10108E00064DFF900469A3A3E0FAA3E090029675C3
:10109E00F004120923EA25E025E02583F583EFF01D
:1010AE00E47F04FEFDFC900469E0F8A3E0F9A3E000
:1010BE00FAA3E0FB120767EF2402FDE43EFC900268
:1010CE0092E0FBA3E0FAA3E0F98D828C8312064D29
:1010DE00FD900469A3A3E0FAA3E090029775F004D3
:1010EE00120923EA25E025E02583F583EDF0EF24B0
:1010FE0003FFE43EFE900292E0FBA3E0FAA3E0F9C8
:10110E008F828E8312064DFF900469A3A3E0FAA38B
:10111E00E090029875F004120923EA25E025E025F7
:10112E0083F583EFF0900469E0FCA3E0FDA3E0FEFD
:10113E00A3E02401FFE43EFEE43DFDE43CFC90040C
:10114E00691208E6021018E47F2CFEFDFC9004697B
:10115E00E0F8A3E0F9A3E0FAA3E0FBC31208924083
:10116E00030213B690046D1208F200000000E47F33
:10117E0004FEFDFC90046DE0F8A3E0F9A3E0FAA3F1
:10118E00E0FBC3120892505AE47F04FEFDFC90046B
:10119E0069E0F8A3E0F9A3E0FAA3E0FB120767AB5E
:1011AE000790046DA3A3A3E0FF2B2491F582E434F2
:1011BE0002F583E0FE74752FF582E43404F583EEB8
:1011CE00F090046DE0FCA3E0FDA3E0FEA3E024019B
:1011DE00FFE43EFEE43DFDE43CFC90046D1208E6A7
:1011EE00808C900469A3A3A3E05403FFE4FEFDFCEE
:1011FE00FBFAF9F8C3120892600302128C90047580
:10120E00E0FFE4FCFDFE9004711208E6900476E027
:10121E00900475F0900477E0900476F0900478E0F6
:10122E00900477F0900471A3A3A3E0900478F0905B
:10123E000475E0FF123C0E900475123C0990047682
:10124E00123C09900477123C09900478EFF0900458
:10125E0075E0FFC007E47B04F8900469E0FCA3E0AE
:10126E00FDA3E0FEA3E0FF1207F274792FF582745E
:10127E001C3EF583E493FED0E06E900475F090046E
:10128E0069A3A3E0FEA3E090028575F00412092382
:10129E00EE25E025E02583F583E0FF900475E0FE62
:1012AE00EF6EFF900469A3A3E0FAA3E09002957598
:1012BE00F004120923EA25E025E02583F583EFF0FB
:1012CE00900469A3A3E0FEA3E090028675F00412D9
:1012DE000923EE25E025E02583F583E0FF900476D3
:1012EE00E0FEEF6EFF900469A3A3E0FAA3E0900284
:1012FE009675F004120923EA25E025E02583F5838F
:10130E00EFF0900469A3A3E0FEA3E090028775F0CE
:10131E0004120923EE25E025E02583F583E0FF90F6
:10132E000477E0FEEF6EFF900469A3A3E0FAA3E05A
:10133E0090029775F004120923EA25E025E0258333
:10134E00F583EFF0900469A3A3E0FEA3E09002887A
:10135E0075F004120923EE25E025E02583F583E0E0
:10136E00FF900478E0FEEF6EFF900469A3A3E0FA0D
:10137E00A3E090029875F004120923EA25E025E017
:10138E002583F583EFF0900469E0FCA3E0FDA3E074
:10139E00FEA3E02401FFE43EFEE43DFDE43CFC90B0
:0813AE0004691208E602115562
:0113B6002214
:0533B1009004C7EFF0DD
:1033B600E4A3F0E49004C9F09004C8E075F004A416
:1033C600FF90028FE0FBA3E0FAA3E02FF9EA35F0C5
:1033D600FA9004C9E0FF7C0029F9EC3AFA120634A7
:1033E600FE9004C8E025E025E0FD9004C7E0C45443
:1033F600F02DFDEF2D2495F582E43402F583E06E81
:1034060012067A9004C9E004F0E0B404AB9004C854
:07341600E004F0E0B4049CA7
:01341D00228C
:1031D500E49004D4F0E49004D5F09004D5E0FFC366
:1031E5009404505AEF75F004A4FF90028FE0FBA3FE
:1031F500E0FAA3E02FF9EA35F0FA9004D4E07E0076
:1032050029F9EE3AFA120634FF123C0EAD07900486
:10321500D5E075F004A4FF90028FE0FBA3E0FAA3CC
:10322500E02FF9EA35F0FA9004D4E07E0029F9EEB2
:103235003AFAED12067A9004D5E004F0809C9004E9
:0A324500D4E004F0E0C39404408BD1
:01324F00225C
:102F760090028FE0FBA3E0FAA3E0F99000011206AD
:102F86004DFF90000512064D90000112068C900030
:102F96000912064D90000512068C90000D12064D82
:102FA60090000912068C90000DEF12068C9000021C
:102FB60012064DFF90000A12064D90000212068C72
:102FC60090000AEF12068C90000612064DFF900044
:102FD6000E12064D90000612068C90000EEF120699
:102FE6008C90000312064DFF90000F12064D9000C4
:102FF6000312068C90000B12064D90000F12068CE1
:1030060090000712064D90000B12068C900007EFF9
:0330160002068C23
:103A2C00FDE0FF123A4D123A4D123A4DAC07E0FF51
:103A3C00123A4DE06F6C6DA3FDE0FF123A4D123A55
:013A4C004D2C
:103A4D00EFC4131313540175F01BA4FEEF25E06EA4
:023A5D00FF2246
:10217200E49004C3F090028FE0FBA3E0FAA3E0F93D
:102182009004C3E0FF75F004A4F58285F083120683
:102192004D9004C6F0EF75F004A4FFE92FF9EA357B
:1021A200F0FA90000112064DFF90028FA3E0FAA30D
:1021B200E0F99004C3E0FE75F004A4F58285F08393
:1021C20012064D6FFDEE75F004A4FFE92FF9EA3512
:1021D200F0FA90000212064D6DFF90000312064DB8
:1021E2006F9004C4F090000112064DFF90028FA37D
:1021F200E0FAA3E0F99004C3E075F004A4F5828547
:10220200F08312064D6FFF9004C5F0123A4DEFF0C5
:1022120090028FE0FBA3E0FAA3E0F99004C3E0FE92
:1022220075F004A4F582E92582F9EA35F0FA12067E
:1022320034FD9004C4E06F6D12067AEE75F004A4CA
:10224200FF90028FE0FBA3E0FAA3E02FF9EA35F05A
:10225200FA90000212064DFF90000112064D6FFF28
:102262009004C5F0123A4DEFF09004C3E075F0040B
:10227200A4FF90028FE0FBA3E0FAA3E02FF9EA3576
:10228200F0FAE92401F9E43AFA120634FF9004C4A0
:10229200E0FEA3E06E6F12067A9004C3E075F004CC
:1022A200A4FF90028FE0FBA3E0FAA3E02FF9EA3546
:1022B200F0FA90000312064DFF90000212064D6FD5
:1022C200FF9004C5F0123A4DEFF09004C3E075F0B0
:1022D20004A4FF90028FE0FBA3E0FAA3E02FF9EA47
:1022E20035F0FAE92402F9E43AFA120634FF9004CE
:1022F200C4E0FEA3E06E6F12067A9004C3E075F0AC
:1023020004A4FF90028FE0FBA3E0FAA3E02FF9EA16
:1023120035F0FA90000312064DFF9004C6E06FFFFD
:102322009004C5F0123A4DEFF09004C3E075F0044A
:10233200A4FF90028FE0FBA3E0FAA3E02FF9EA35B5
:10234200F0FAE92403F9E43AFA120634FF9004C4DD
:10235200E0FEA3E06E6F12067A9004C3E004F0E0A0
:08236200C3940450030221772B
:01236A002250
:101F7800E49004B3F0A3F09004B3E0FEA3E0FFC341
:101F88009404EE648094804003022171EF7802C3C8
:101F980033CE33CED8F9FF90028FE0FBA3E0FAA34B
:101FA800E0F98F828E8312064D9004B5F0E92FF97F
:101FB800EA3EFA90000112064D9004B6F090000235
:101FC80012064D9004B7F090000312064D9004B825
:101FD800F09004B5E0FF123A4D123A4DAD07E0FF1C
:101FE800123A4DEF6D123A44EF6DA3123A2CAC073A
:101FF800E0FF123A4D123A3CE06F6DFD9004B3E0F9
:10200800FEA3E07802C333CE33CED8F9FF90028F17
:10201800E0FBA3E0FAA3E0F98F828E83ED12068C31
:102028009004B6E0FF123A4D123A4DAD07E0FF12A8
:102038003A4DEF6D123A44EF6D9004B5123A44E010
:102048006F6D9004B7123A2CAC07E0FF123A4D12AC
:102058003A4DE06F6C6DFD9004B3E0FEA3E07802AA
:10206800C333CE33CED8F9FF90028FE0FBA3E0FA5A
:10207800A3E02FF9EA3EFA900001ED12068C9004D5
:10208800B5123A45AD07E0FF123A4D123A4DE06FEE
:10209800123A42E06F6DFDA3E0FF123A4D123A4D3D
:1020A800AC07E0FF123A4DEF6CFC123A45EF123ADA
:1020B80041AC07E0FF123A4DE06F6C6DFD9004B340
:1020C800E0FEA3E07802C333CE33CED8F9FF900206
:1020D8008FE0FBA3E0FAA3E02FF9EA3EFA900002B2
:1020E800ED12068C9004B6123A45AD07E0FF123A9D
:1020F8004D123A4DE06F6DFD9004B5123A45AC07AC
:10210800E0FF123A4DE06F6C6DFD9004B7123A454E
:10211800E06F6DFDA3E0FF123A4D123A4DAC07E0B7
:10212800FF123A4DEF6CFC123A45EF6C6DFD9004CE
:10213800B3E0FEA3E07802C333CE33CED8F9FF90E4
:10214800028FE0FBA3E0FAA3E02FF9EA3EFA900041
:1021580003ED12068C9004B4E004F06003021F7FC4
:092168009004B3E004F0021F7FB3
:01217100224B
:10325000E49004D6F0E49004D7F09004D7E0FFC3E4
:103260009404505AEF75F004A4FF90028FE0FBA382
:10327000E0FAA3E02FF9EA35F0FA9004D6E07E00F8
:1032800029F9EE3AFA120634FF123C1EAD079004FB
:10329000D7E075F004A4FF90028FE0FBA3E0FAA34F
:1032A000E02FF9EA35F0FA9004D6E07E0029F9EE35
:1032B0003AFAED12067A9004D7E004F0809C90046C
:0A32C000D6E004F0E0C39404408B54
:0132CA0022E1
:1030190090028FE0FBA3E0FAA3E0F990000D1206FD
:103029004DFF90000912064D90000D12068C90007C
:103039000512064D90000912068C90000112064DEA
:1030490090000512068C900001EF12068C90000288
:1030590012064DFF90000A12064D90000212068CCE
:1030690090000AEF12068C90000612064DFF9000A0
:103079000E12064D90000612068C90000EEF1206F5
:103089008C90000312064DFF90000712064D900028
:103099000312068C90000B12064D90000712068C45
:1030A90090000F12064D90000B12068C90000FEF46
:0330B90002068C80
:10378B00900431E0F9A3E0FAA3E090028FC9F0A313
:05379B00EAF0A3E9F0D3
:1037A000E49004D9F0FF1233B19004D97401F012FF
:1037B00031D5122F761221729004D9E0FF1233B165
:1037C0009004D9E004F0E0C3940A40E31231D5122A
:0737D0002F767F0A0233B1DE
:10373E00900444E0F9A3E0FAA3E090028FC9F0A34D
:05374E00EAF0A3E9F020
:10375300E49004DAF07F0A1233B19004DA7409F0CA
:103763001230191232509004DAE0FF1233B1121FF3
:10377300789004DAE014F0E0D3940050E3123019A7
:08378300123250E4FF0233B1E1
:10353E00900434E0F9A3E0FAA3E09004BCC9F0A330
:10354E00EAF0A3E9F0900431E0FBA3E0FAA3E0F97E
:0B355E009004B9EBF0A3EAF0A3E9F041
:10356900E4FF9004BCE0FBA3E0FAA3E0F98F8275C5
:10357900830012064DFE9004B9E0FBA3E0FAA3E034
:0F358900F98F82758300EE12068C0FEFB410D30A
:013598002210
:10386A00900493EBF0A3EAF0A3E9F0900493E0F953
:10387A00A3E0FAA3E09004BCC9F0A3EAF0A3E9F03C
:10388A00900499123556900499E0F9A3E0FAA3E05E
:10389A0090028FC9F0A3EAF0A3E9F0900496120F00
:0438AA00FC0237A045
:1038AE0090049CEBF0A3EAF0A3E9F090049CE0F9FD
:1038BE00A3E0FAA3E09004BCC9F0A3EAF0A3E9F0F8
:1038CE009004A21235569004A2E0F9A3E0FAA3E008
:1038DE0090028FC9F0A3EAF0A3E9F090049F120FB3
:0438EE00FC0237534E
:08369D00E0FBA3E0FAA3E0F951
:0B36A5009004CAEBF0A3EAF0A3E9F0E8
:1036B000E4FF9004CAE0FBA3E0FAA3E02FF9E43AA8
:1036C000FAC003C002C001120634FE900345E0FBBD
:1036D000A3E0FAA3E0F98F8275830012064D6ED045
:0D36E00001D002D00312067A0FEFB410C51E
:0136ED0022BA
:0B295400900431EBF0A3EAF0A3E9F0DF
:10295F00900437E0FCA3E0FDA3E0FEA3E0540FFFDB
:10296F00900443EFF0C002C001900434E0F9A3E0FB
:10297F00FAA3E09004BCC9F0A3EAF0A3E9F0D001F8
:10298F00D00212355E900431E0F9A3E0FAA3E09093
:10299F00028FC9F0A3EAF0A3E9F090043BE0FBA398
:1029AF00E0FAA3E0F94A6004EB12100490043EE051
:1029BF00FBA3E0FAA3E0F94A600B900345EBF0A309
:1029CF00EAF0A3E9F0E4900441F0A3F0900441E0B1
:1029DF00FEA3E0FFE4FCFD900437E0F8A3E0F9A3C9
:1029EF00E0FAA3E0FBD3120892404690043412366B
:1029FF009D12353E12378B900431E0F9A3E0FAA314
:102A0F00E0900345C9F0A3EAF0A3E9F0900435E4A0
:102A1F0075F010120703900432E475F010120703DB
:102A2F00900442E02410F0900441E03400F00229B9
:102A3F00DB900443E0603712353E900443E0FFFD26
:102A4F00C374109DFDE49400FCC004C005900431D4
:102A5F00E0FBA3E0FAA3E0F9EFFD7C00E92DF9EC30
:0E2A6F003AFA7D00D007D00612097512378B97
:012A7D002236
:0B26CA00900444EBF0A3EAF0A3E9F059
:1026D50090044AE0FCA3E0FDA3E0FEA3E0540FFF55
:1026E500900456EFF0C002C001900447E0F9A3E062
:1026F500FAA3E09004BCC9F0A3EAF0A3E9F0D00185
:10270500D00212355E900444E0F9A3E0FAA3E0900C
:10271500028FC9F0A3EAF0A3E9F090044EE0FBA311
:10272500E0FAA3E0F94A6007900292EB12100790D5
:102735000451E0FBA3E0FAA3E0F94A600B900345DE
:10274500EBF0A3EAF0A3E9F0E4900454F0A3F090D1
:102755000454E0FEA3E0FFE4FCFD90044AE0F8A386
:10276500E0F9A3E0FAA3E0FBD3120892405E9004DF
:1027750047E0F9A3E0FAA3E09004BCC9F0A3EAF0AE
:10278500A3E9F090044412355612373E90044412E2
:10279500369D900447E0F9A3E0FAA3E0900345C90C
:1027A500F0A3EAF0A3E9F0900448E475F0101207ED
:1027B50003900445E475F010120703900455E024D6
:1027C50010F0900454E03400F0022754900456E0D1
:1027D500604F900447E0F9A3E0FAA3E09004BCC978
:1027E500F0A3EAF0A3E9F09004441235569004569C
:1027F500E0FFFDC374109DFDE49400FCC004C0051A
:10280500900444E0FBA3E0FAA3E0F9EFFD7C00E9C6
:102815002DF9EC3AFA7D00D007D00612097512376A
:012825003E74
:01282600228F
:101D780000C1814001C0804101C0804100C1814053
:101D880001C0804100C1814000C1814001C0804143
:101D980001C0804100C1814000C1814001C0804133
:101DA80000C1814001C0804101C0804100C1814023
:101DB80001C0804100C1814000C1814001C0804113
:101DC80000C1814001C0804101C0804100C1814003
:101DD80000C1814001C0804101C0804100C18140F3
:101DE80001C0804100C1814000C1814001C08041E3
:101DF80001C0804100C1814000C1814001C08041D3
:101E080000C1814001C0804101C0804100C18140C2
:101E180000C1814001C0804101C0804100C18140B2
:101E280001C0804100C1814000C1814001C08041A2
:101E380000C1814001C0804101C0804100C1814092
:101E480001C0804100C1814000C1814001C0804182
:101E580001C0804100C1814000C1814001C0804172
:101E680000C1814001C0804101C0804100C1814062
:101E780000C0C101C30302C2C60607C705C5C40422
:101E8800CC0C0DCD0FCFCE0E0ACACB0BC90908C892
:101E9800D81819D91BDBDA1A1EDEDF1FDD1D1CDC82
:101EA80014D4D515D71716D6D21213D311D1D010F2
:101EB800F03031F133F3F23236F6F737F53534F4E2
:101EC8003CFCFD3DFF3F3EFEFA3A3BFB39F9F83852
:101ED80028E8E929EB2B2AEAEE2E2FEF2DEDEC2C42
:101EE800E42425E527E7E62622E2E323E12120E0B2
:101EF800A06061A163A3A26266A6A767A56564A4A2
:101F08006CACAD6DAF6F6EAEAA6A6BAB69A9A86811
:101F180078B8B979BB7B7ABABE7E7FBF7DBDBC7C01
:101F2800B47475B577B7B67672B2B373B17170B071
:101F38005090915193535292965657975595945461
:101F48009C5C5D9D5F9F9E5E5A9A9B5B99595898D1
:101F5800884849894B8B8A4A4E8E8F4F8D4D4C8CC1
:101F68004484854587474686824243834181804031
:1032CB0090034EEBF0A3EAF0A3E9F0A3ECF0A3ED2F
:0132DB00F002
:1032DC00A374FFF0A3F090035174FFF5F0120719DB
:1032EC0045F0604590034EE0FBA3E475F001120736
:1032FC0019A9F0FA120634FF900353E06FFFE4FCB7
:10330C00FDFE9003551208E6900355A3A3A3E0FC21
:10331C00901D7893FE900354E06E900353F0EC9064
:10332C001E7893900354F080AD900353E0FEA3E01D
:03333C00FDEDFFA5
:01333F00226B
:102D2800900479EBF0A3EAF0A3E9F0A3ECF0A3EDAB
:012D3800F0AA
:102D390090048374FFF0A3F090047C74FFF5F01203
:102D4900071945F06045900479E0FBA3E475F001AB
:102D5900120719A9F0FA120634FF900483E06FFFF5
:102D6900E4FCFDFE9004851208E6900485A3A3A364
:102D7900E0FC901D7893FE900484E06E900483F04B
:102D8900EC901E7893900484F080AD90048174FFD8
:102D9900F5F012071945F0604590047EE0FBA3E4C5
:102DA90075F001120719A9F0FA120634FF9004838D
:102DB900E06FFFE4FCFDFE9004851208E6900485AF
:102DC900A3A3A3E0FC901D7893FE900484E06E9089
:102DD9000483F0EC901E7893900484F080AD900405
:082DE90083E0FEA3E0FDEDFF15
:012DF10022BF
:043685000218000027
:103B5100E4900380F0A304F0A3F0A3F0E4A3F0A3A6
:103B610074DCF0A3E4F0A304F0FB7A037980E4FFB2
:033B710002252FFB
:083C1500C28CAF19AE18D28C6D
:013C1D002284
:1034E1002573007B00226465766964223A2257487D
:1034F1002573222C002573252E32662C0025732579
:103501002E33662C0025732564007D000103000025
:103511000006C5C82264617461223A7B0022746D81
:1035210070223A00225048223A0022444F223A00A7
:0D353100224E5455223A00224743223A0010
:103689004404890000000044048D00000000420445
:033699009100009D
:1035F300123C15E4FCFD9004891208E690048DE06A
:10360300F8A3E0F9A3E0FAA3E0FB900489E0FCA3AC
:10361300E0FDA3E0FEA3E0C39BFFEE9AFEED99FD60
:10362300EC98FCE47BE87A03F9F8C312089250178C
:103633007BFF7A35790D7D08123A5F123C15E4FC65
:07364300FD90048D1208E662
:01364A00225D
:10173200E4900348F0C3900492E094FE900491E098
:1017420094004004E4F0A3F0900491A3E0240FF588
:1017520082E43400F583EFF0900492E004F0700626
:10176200900491E004F0900491E0FEA3E0FFC394A2
:1017720011EE94005003021A4F900348E0240FF92F
:10178200E43400FA7B01A3EBF0A3EAF0A3E9F01240
:10179200063464016003021A38900349E0FBA3E0B7
:1017A200FAA3E0F990000112064D64036003021AE5
:1017B2003890000212064D2405FDE433FCC3EF9D70
:1017C200EE9C5003021A78900348E0240FF9E434A7
:1017D20000FA7B01C003C002C001A3E0FBA3E0FA50
:1017E200A3E0F990000212064D2403FDE433FCD07D
:1017F20001D002D0031232CB90034CEEF0A3EFF0F3
:10180200900349E0FBA3E0FAA3E0F990000F12066F
:101812004DFD90034CE06D7001E46003021A3890B4
:10182200001012064DFF90034DE06F7001E460035B
:10183200021A389004D87402F090038674FFF0A361
:101842007434F0A374E4F07BFF7A3479E1120BE490
:101852009003867401F0A37403F0A374C2F07BFFBB
:101862007A3479E6120BE490038674FFF0A37435A0
:10187200F0A37415F07BFF7A3479E1120BE4900344
:101882008674FFF0A37435F0A3741EF0900349E050
:10189200FBA3E0FAA3E0F990000312064DFE9000CC
:1018A2000412064DFDEEFCE412010BE4FBFA79C8CA
:1018B20078421200699003891208E67BFF7A347934
:1018C200F6120BE490038674FFF0A37435F0A37450
:1018D20025F0900349E0FBA3E0FAA3E0F9900005AC
:1018E20012064DFE90000612064DFDEEFCE41201BA
:1018F2000BE4FBFA797A78441200699003891208A2
:10190200E67BFF7A3479FE120BE490038674FFF0D3
:10191200A37435F0A3742BF0900349E0FBA3E0FA23
:10192200A3E0F990000712064DFE90000812064D42
:10193200FDEEFCE412010BE4FBFA797A7844120022
:10194200699003891208E67BFF7A3479FE120BE470
:1019520090038674FFF0A37435F0A37431F0900302
:1019620049E0FBA3E0FAA3E0F990000912064DFE5C
:1019720090000A12064DFDEEFCE412010BE4FBFAA4
:1019820079C878421200699003891208E67BFF7ACF
:101992003479F6120BE490038674FFF0A37435F0E9
:1019A200A37438F0900349E0FBA3E0FAA3E0F990B6
:1019B200000B12064DFE90000C12064DFDEDFF903D
:1019C2000389EEF0A3EFF07BFF7A357906120BE480
:1019D20090038674FFF0A37435F0A3740BF07BFFC1
:1019E2007A3479E1120BE490038674FFF0A3743524
:1019F200F0A3740BF07BFF7A3479E1120BE49004CC
:101A0200D87401F0900349E0FBA3E0FAA3E0F99057
:101A1200000212064DFF2405FDE433FCC39004923C
:101A2200E09DF0900491E09CF0EF2405FF900348C4
:101A3200E02FF0021768900492E024FFF0900491E6
:101A4200E034FFF0900348E004F002176890034886
:101A5200E0FF6022900491E0F8A3E0F582888374AD
:101A62000F2FF9E43400FA7B01780F7C007D01AE80
:061A720083AF82120B1B82
:011A7800224B
:0839B200900383EEF0A3EFF097
:1039BA00123C15900385EEF0A3EFF0123C15AB070D
:1039CA00AA06900383E0FEA3E0FF7C007D0A1206AC
:1039DA00AEA3E0FCA3E0FDC3EB9DFDEA9CFCC3EDB6
:0539EA009FEC9E40D699
:0139EF0022B5
:0E3BDE0000007F2B7E067DCBDDFEDEFCDFFAD5
:013BEC0022B6
:10236B00EFD3940540037F0122120634FED394036E
:10237B0040037F0222EF7041EE700B9000011206BA
:10238B004DF452935294120634B4010B9000011287
:10239B00064D4293F45294120634FEB4020A900096
:1023AB000112064D42934294EEB4030D90000112BC
:1023BB00064DFEF45293EE4294EF64017043120605
:1023CB0034FE700B90000112064DF452915292EEB6
:1023DB00B4010B90000112064D4291F45292120679
:1023EB0034B4020A90000112064D42914292120639
:1023FB0034B4030D90000112064DFEF45291EE42DF
:10240B0092EF64027043120634FE700B90000112BF
:10241B00064DF452955296EEB4010B900001120644
:10242B004D4295F45296120634B4020A90000112F2
:10243B00064D42954296120634B4030D90000112DC
:10244B00064DFEF45295EE4296EF6403704312066E
:10245B0034FE700B90000112064DF452B152B2EEE5
:10246B00B4010B90000112064D42B1F452B21206A8
:10247B0034B4020A90000112064D42B142B2120668
:10248B0034B4030D90000112064DFEF452B1EE422E
:10249B00B2EF64047043120634FE700B900001120D
:1024AB00064DF452B352B4EEB4010B900001120678
:1024BB004D42B3F452B4120634B4020A9000011226
:1024CB00064D42B342B4120634B4030D9000011210
:1024DB00064DFEF452B3EE42B4EF640570431206A0
:1024EB0034FF700B90000112064DF452C952CAEF23
:1024FB00B4010B90000112064D42C9F452CA1206E8
:10250B0034B4020A90000112064D42C942CA1206A7
:10251B0034B4030D90000112064DFFF452C9EF4283
:04252B00CA7F002241
:1013B70090038EEBF0A3EAF0A3E9F090038DEFF032
:1013C700640160030215CD90000104F0E4A3F0A3CB
:1013D700F0A3F0A3F0A3F0A3F0900000F090039126
:1013E700F0900391E0FFC394405014740B2FF582E3
:1013F700E43402F583E4F0900391E004F080E2E442
:10140700900391F0900391E0FFC394FE5014740F82
:101417002FF582E43400F583E4F0900391E004F0C3
:1014270080E290038EE0FBA3E0FAA3E0F912063412
:10143700D394C040037F022290000A12064DB401E4
:1014470004D2BC8002C2BC120634FFE598543F4F59
:10145700F598EF64C06008EF644060030215479099
:1014670000021208B67F007E307D2A7C001207F248
:101477009003921208E6E4FFFE7D01FC900392E0E0
:10148700F8A3E0F9A3E0FAA3E0FBC3120892400334
:101497007F0222900392E0F8A3E0F9A3E0FAA3E029
:1014A700FBC3E49BFFE49AFE740199FDE498FC906A
:1014B70003921208E690038EE0FBA3E0FAA3E0F99B
:1014C70090000112064DFB64017038C28E538EFEE8
:1014D7005389BF5389CF438E40900392E0FCA3E02A
:1014E700FDA3E0FEA3E0FF78081208A38F8D900309
:1014F70092A3A3A3E0F58BC2AB5389BF538FFDD251
:101507008E8076EB64027035538EEF438E01538ED7
:10151700F7438E04900392E0FCA3E0FDA3E0FEA353
:10152700E0FF78081208A38FD6900392A3A3A3E045
:10153700F5D753AFFB538EF7438E10803C7F0222C3
:1015470090038EE0FBA3E0FAA3E0F9120634FF70E4
:101557001390000812064DB40105438E20801A53DC
:101567008EDF8015EFB4801190000812064DB4018C
:1015770005438780800353877F90038EE0FBA3E0BA
:10158700FAA3E0F990000912064DB40104D2AC8029
:1015970002C2AC90000712064DB40104D29C80022F
:1015A700C29C90000B12064D54C0FFE5A2543F4F5A
:1015B700F5A290000C12064DB40105439710800365
:1015C7005397EF7F002290038DE0640260030217B8
:1015D7002F9000087402F0E4A3F0A3F0A3F0A3F0A7
:1015E700A3F0A3F0900391F0900391E0FFC3944020
:1015F7005014744B2FF582E43402F583E4F0900322
:1016070091E004F080E2E4900391F0900391E0FF11
:10161700C394FE5014740D2FF582E43401F583E46E
:10162700F0900391E004F080E290038EE0FBA3E0EA
:10163700FAA3E0F9120634FF64C06008EF64406063
:10164700030216EF90000A12064DB4010543B501D7
:10165700800353B5FE120634B4C005439A80800355
:10166700539A7F9000021208B67F007E307D2A7C55
:10167700001207F29003921208E6E4FFFE7D01FCD8
:10168700900392E0F8A3E0F9A3E0FAA3E0FBC3120A
:10169700089240037F0222900392E0F8A3E0F9A3A7
:1016A700E0FAA3E0FBC3E49BFFE49AFE740199FD13
:1016B700E498FC9003921208E6538EEF538EF7439B
:1016C7008E04900392E0FCA3E0FDA3E0FEA3E0FFFD
:1016D70078081208A38FD6900392A3A3A3E0F5D7A7
:1016E70053AFFB438E1080037F022290038EE0FBF3
:1016F700A3E0FAA3E0F990000912064DB4010543EF
:10170700AF01800353AFFE90000712064DB40105E9
:10171700439A108003539AEF90000B12064D540121
:0A172700FFE5BA54FE4FF5BA7F0348
:011731002295
:0300230002341E86
:10341E00C0E0C0F0C083C082C0D075D00830982400
:10342E00C298900007E0701C7F14FE123B0B9000B8
:10343E0005E0C394FE4002E4F09000067405F0AF80
:10344E0099121732E599B4AF0690028CE004F09011
:10345E00028CE0B4050AE599B47F0575C760E4F007
:10346E00309907C299900004E4F0D0D0D082D08376
:05347E00D0F0D0E032A7
:0300430002348301
:10348300C0E0C0F0C083C082C0D075D010E59A30D0
:10349300E034539AFE90000EE0702B7F14FE123B33
:1034A3002E90000CE0C394FE4002E4F090000CE088
:1034B300FF04F0740D2FF582E43401F583E59BF0EE
:1034C30090000D7405F0E59A30E108539AFD9000E1
:0E34D3000BE4F0D0D0D082D083D0F0D0E03225
:0E3BED008F993099FDC2999000047401F02266
:103BA900120634FF600C123BED740129F9E43AFA6C
:033BB90080EE2279
:0B3A5F00900383EBF0A3EAF0A3E9F072
:103A6A00E4FEEEC39D501A900383E0FBA3E0FAA3A1
:103A7A00E0F98E8275830012064DFF123BED0E802F
:013A8A00E15A
:013A8B002218
:100026008F9BE59A20E1047F0180027F00EF70F24A
:0A003600539AFD90000B7401F022B4
:103BBC00120634FF600C120026740129F9E43AFA5B
:033BCC0080EE2266
:0B3A8C009004CDEBF0A3EAF0A3E9F0FA
:103A9700E4FEEEC39D501A9004CDE0FBA3E0FAA329
:103AA700E0F98E8275830012064DFF1200260E8004
:013AB700E12D
:013AB80022EB
:03000B0002000EE2
:0D000E00C0E00519E51970020518D0E032B8
:03001B0002000AD6
:01000A0032C3
:0300630002001E7A
:01001E0032AF
:10252F00AD07EDD3940240037F0122ED6003022536
:10253F00C3C28C90000212064DB40104D2A98002CE
:10254F00C2A990000112064DB40104D2B98002C293
:10255F00B9120634FED3940340037F0222E5895457
:10256F00FC4EF58990000312064DFFB40103538E04
:10257F007FEF7003438E80EFB4020543890480031D
:10258F005389FB90000412064DB40105438F01805F
:10259F0003538FFE90000512072FE5F0F58C900086
:1025AF000512072FF58A90000712064DB40102D2CB
:1025BF008C7F0022ED6401600302264EC28E9000D4
:1025CF000212064DB40104D2AB8002C2AB900001DF
:1025DF0012064DB40104D2BB8002C2BB120634FEF8
:1025EF00C3940340037F0222E58954CF4EF58990AF
:1025FF00000312064DFFB40103538EBFEF70034368
:10260F008E40EFB4020543894080035389BF900089
:10261F000412064DB40105438F028003538FFD90C2
:10262F00000512072FE5F0F58D90000512072FF525
:10263F008B90000712064DB40102D28E7F0022ED5F
:10264F0064027074538EEF90000212064DB40105B0
:10265F0043AF04800353AFFB90000312064DFED32C
:10266F00940240037F0222EEB40103538EFB9000CD
:10267F000312064D7003438E0490000312064DB4EF
:10268F000205438E088003538EF790000412064D07
:10269F00B40105438F048003538FFB90000512078D
:1026AF002FFDACF0ECF5D68DD790000712064DB488
:0B26BF000103438E107F00227F0222E7
:0E3BFB00E4F5C7F5C5F5C675C3FF75C4FF2216
:10393400AD07AC06C2AF75C78375C501ECF5C3AF5F
:10394400058FC475C65A75C6A500E5C212067A0D60
:10395400BD00010C740129F9E43AFA90038874FF5C
:0F396400F5F012070345F070D3123BFBD2AF22F0
:103B7400AD07AC06C2AFECF5C3AF058FC475C78300
:103B840075C50375C65A75C6A500123BFBD2AF2294
:10397300AD07AC06C2AF75C78375C502ECF5C3AF1F
:10398300058FC4120634F5C275C65A75C6A5000D57
:10399300BD00010C740129F9E43AFA9004B174FFF3
:0F39A300F5F012070345F070D3123BFBD2AF22B1
:10006600020183EC5D046005E8590470030201791E
:10007600120144580460F6EC4860F2EC7004FDFE90
:10008600FF22C860DB2481C85009C398600250066D
:100096000201809850CAF582E9294B4A7005AB8265
:1000A60002016F75F0007C1A7880C3EF9BEE9AED23
:1000B60099400DC3EF9BFFEE9AFEED99FDE842F0E5
:1000C600DC23ACF0D0E0FFD0E0FED0E0FDAB822038
:1000D600E7101BEB60BAEC2CFCEF33FFEE33FEEDC2
:1000E60033FD02015BE803F830E705C0F075F00068
:1000F600EF2FFFEE33FEED33FD40B830E7C280AAA6
:1001060075F020800E75F010800575F0087D007E74
:10011600007F003392D530D503120884EC334010AB
:10012600EF33FFEE33FEED33FDEC33FCD5F0ED227D
:0E013600E5F0247EA2D513CC92E7CDCEFF22B9
:100B7900E5282486F582E43403F583E005282290EC
:100B89000383301003900386E475F00112092F02E4
:100B990006342009E97F2ED2098018EF540F2490DA
:100BA900D43440D4FF300D0BEF24BFB41A005003E6
:100BB9002461FFE52960021529052CE52C70020541
:100BC9002B30100E900383E475F00112092FEF0208
:100BD900067A023AB97403D2108003E4C210F528E8
:100BE900900383120946E4F529F52BF52CE52960D4
:100BF900077F20120BBC80F5752AFFC20AC209C201
:100C09000BC20CC20EC20FC211120B88FF700D303D
:100C190010057F00120BCDAF2CAE2B22B4255FC27D
:100C2900D5C20D120B88FF24D0B40A00501A75F0F2
:100C39000A782930D50508B6FF0106C6A426F6208C
:100C4900D5047002D20C80D924CFB41A00EF500415
:100C5900C2E5D20D020EBFD20A80C6D20980C0D227
:100C69000B80BCD2D580BAD20E80B47F20120BBCC7
:100C7900200B077401B5290040F1120B79FF120B03
:100C8900BC020BF6D211D20F8095120B79FB120B15
:100C990079FA120B79F94A4B700679BD7A0F7BFF05
:100CA900200B2EE529602A7E008E827583001206AC
:100CB9004D60060EEE652A70F0C2D5EBC0E0EAC0C1
:100CC900E0E9C0E0EE120F20D0E0F9D0E0FAD0E080
:100CD900FB120634FF60AAEBC0E0EAC0E0E9C0E01D
:100CE900120BBCD0E02401F9D0E03400FAD0E0FBCB
:100CF900E52A0460DCD52AD98087D20B80A2120F9D
:100D09000260F7E52A70010412018EA92A600DE537
:100D19002A600914F52A120FAAEF60F3EA30E702F4
:100D2900F404C3995079EAF4252A0430E701E4046C
:100D3900F52A800D120F0260C1EA052A252A12013F
:100D49008EEA9003B2F030E701E4252A04D52A049B
:100D5900200E0114120F20E4C0E0120FAA9003B272
:100D6900E0601320E70714F0120BA4802204F0D0EE
:100D7900E014C0E07F00120BA4E52A6007120B9B68
:100D8900152A800B300E03120B9BD0E0020BF6D014
:100D9900E00480C4120F02609EE52A0412018E90BD
:100DA90003B2EAF0E52A200E026001042404120FBE
:010DB9002019
:100DBA0074FF04C0E0120FAA120BA4E52A200E0247
:100DCA006003120B9BD0E0B52AE87F45120BAE9068
:100DDA0003B2E07F2B30E7047F2DF404C0E0120B4E
:100DEA00BCD0E075F00A84C0F0120BA5D0E0120B5B
:100DFA00A5020BF6791080027908C20FC211800889
:100E0A00D2D5790A8004790AC2D5E52A047002F596
:100E1A002AE4FAFDFEFF120B79FC7B08200A131262
:100E2A000B79FD7B1030090A120B79FE120B79FF40
:100E3A007B20EC3382D592D55013C3E43009069F48
:100E4A00FFE49EFEE4200A039DFDE49CFCE4CBF84B
:100E5A00C20AEC700CCFCECDCCE824F8F870F3803F
:100E6A0017C3EF33FFEE33FEED33FDEC33FCEB3308
:100E7A00FB994002FB0FD8E9EB300A05F8D0E0C431
:100E8A0048B20AC0E00AEC4D4E4F78207B0070C28F
:100E9A00EAB52A0040BCC0E0120F22D0F0D0E02010
:100EAA000A04C4C0E0C4B20AC0F0120BA5D0F0D53F
:100EBA00F0EB020BF612094F0C93530DFE580C641B
:100ECA004C0C60420E024F0E0A440E0A490C79433A
:100EDA000E10550D3D460D9D450D07470FDD500C73
:100EEA00682D0C6C2E0C8F2B0C70230C8D200FC6CA
:100EFA002A0C284800000C87E52AB4FF03752A0645
:100F0A00120B79FC120B79FD120B79FE120B79FF89
:100F1A009003AB0201CB790AA2D5200C14300E093A
:100F2A00B910020404B9080104A2D5200F02500125
:100F3A0004200B68920BB529005034C0E07F2030A2
:100F4A000C197F30A20B720F720E500F120F79C25A
:100F5A000BC20FC20EC2117F30800F300E03E9C0E0
:100F6A00E0120BBC300E03D0E0F9D0E0B529CC304A
:100F7A000E177F30B9100C120BBC7F58300D077F4B
:100F8A00788003B90803120BBC300B057F2D020BC6
:100F9A00BC7F202011F87F2B200FF322920B80CFE9
:100FAA007F00B40700500B24ABF582E43403F583C9
:100FBA00E0FF22286E756C6C2900D20A120B793078
:100FCA000AF8C20A782930D50108F6020C282D50F1
:100FDA00434958120B792403B405004001E4900FE9
:100FEA00D893120BAD743A120BADD20C75290402C8
:020FFA000DFEEA
:10014400E9D2E7C933E833F892D5EDD2E7CD33EC01
:0701540033FC5002B2D5227A
:10015B00EC30E7100FBF000C0EBE00080DBD000405
:10016B000BEB6014A2D5EB13FCED92E7FD2274FFB1
:10017B00FCFDFEFF22E480F8A2D574FF13FC7D800A
:03018B00E480EF1E
:10018E00F920E73624F950037907E4F42402FBE55D
:10019E0082158270021583DBF6E024FB501BE960AA
:1001AE0014E4F0E582158270021583E004F0B40ABF
:0D01BE0008E4F0D9EE7401F00A22C2D52247
:1001CB00ED33EC3392D5FA602AB4FF33EDC2E77B03
:1001DB00FF60067A0179F0E4227A0179F920D504DF
:1001EB007A0179F4224E614E002B494E46002D497F
:1001FB004E4600E47A08F0A3DAFC7B00740722C0B9
:10020B0083C082ECC0E0EDC0E0EEC0E0EFC0E0EAFE
:10021B0075F010A4CAABF075F04DA42BFBE435F0D0
:10022B00FCEA2410FAEB34C5FBEC34D9FCEDC2E745
:10023B00FF75F056A4F42411C5F0F434C58FF0A467
:10024B002AE5F03BE43CF020E7141204FED0E0FF7B
:10025B00D0E0FED0E0FDD0E0FC1200698014F40485
:10026B001204FED0E0FFD0E0FED0E0FDD0E0FC12A7
:10027B0003C8D082D083E0FAEDD2E7CD33EC332440
:10028B0082FBE4C3CF33CFCE33CECD33CD33DBF3D1
:10029B007B0775F00A846004F0A31B0AE5F0F0A35A
:1002AB008FF0740AA4FFACF08EF0740AA42CFEAC91
:1002BB00F050010C8DF0740AA42CFDE435F0F0A382
:0502CB00DBDE740722D8
:1002D000020179E86480F8E933E83360110460F0E2
:1002E000ED33EC337009E8FCE9FDEAFEEBFF220494
:1002F00060DED3EB9FEA9EE99DE8C2E78CF0C2F78F
:1003000095F0400CE8CCF8E9CDF9EACEFAEBCFFB5A
:1003100012014485D0F05804700320D5B3E804706E
:10032000075002B2D502018392D5EC0460F7E4CC09
:10033000C0E0C398F8603B94186008400DD0E0FB23
:1003400002015BE4FBFAC9FC8028E830E406E4C95A
:10035000FBE4CAFCE830E305E4C9CACBFCE8540777
:100360006010F8C3E913F9EA13FAEB13FBEC13FC82
:10037000D8F130F52FC3E49CFCEF9BFFEE9AFEED25
:1003800099FDD0E0FBEF4E4D4C701222DB030201D1
:1003900080EC2CFCEF33FFEE33FEED33FDED30E768
:1003A000EB02015BEF2BFFEE3AFEED39FDD0E0FBF7
:1003B00050130BBB0003020183ED13FDEE13FEEFA0
:0803C00013FFEC13FC02015BCA
:1003C800EC4D6011E8497017ED33EC3304600DE42F
:1003D800FCFFFEFD22E933E8330470F802017912CC
:1003E800014458046009E4CC2481500628500902CD
:1003F8000183284003020180C0E0EB4A7044B980C1
:1004080006D0E0FB02016FEF4E701CBD8008EBFFC9
:10041800EAFEE9FD80EBE98DF0A4FEE5F00204B107
:10042800E9CDF9EAFEEBFFEF89F0A4FCE5F0CE890F
:10043800F0A42EFFE435F0CD89F0A42DFEE435F0CC
:100448008067EF4E7005BD80D780C3EF8BF0A4ACFA
:10045800F0EE8BF0A42CFCE435F0F8EF8AF0A42C35
:10046800E5F038FCE433CB8DF0A42CFCE5F03BF848
:10047800EE8AF0A42CFCE5F038F8E433CF89F0A438
:100488002CFCE5F038CF3400CE89F0A42FFFE5F03E
:100498003EFEE433C98DF0A42EFEE5F039CD8AF096
:1004A800A42FFFE5F03EFEE43DFD33D0E0FB50070E
:1004B8000BBB000F020183EC2CFCEF33FFEE33FE85
:0604C800ED33FD02015BB3
:1004CE003F8000004120000042C80000447A000036
:1004DE00461C400047C35000497424004B189680B8
:1004EE004CBEBC205A0E1BCA6753C21C749DC5AEAF
:1004FE00FB60065407601C232312052CEB54386056
:10050E00091205181205271203C8ECF8EDF9EEFAD8
:10051E00EFCB22EB12052780F1543803241C9004F4
:10052E00CEFE93FC0EEE93FD0EEE930ECE93FF22B7
:0300000002314981
:0C314900787FE4F6D8FD75812C023190EF
:10053E00E709F608DFFA8046E709F208DFFA803E9F
:10054E0088828C83E709F0A3DFFA8032E309F6088C
:10055E00DFFA8078E309F208DFFA807088828C83F4
:10056E00E309F0A3DFFA806489828A83E0A3F608A8
:10057E00DFFA805889828A83E0A3F208DFFA804C82
:10058E0080D280FA80C680D4806980F28033801059
:10059E0080A680EA809A80A880DA80E280CA8033C2
:1005AE0089828A83ECFAE493A3C8C582C8CCC5833A
:1005BE00CCF0A3C8C582C8CCC583CCDFE9DEE7800A
:1005CE000D89828A83E493A3F608DFF9ECFAA9F089
:1005DE00EDFB2289828A83ECFAE0A3C8C582C8CCDF
:1005EE00C583CCF0A3C8C582C8CCC583CCDFEADEF8
:1005FE00E880DB89828A83E493A3F208DFF980CC5A
:10060E0088F0EF60010E4E60C388F0ED2402B40452
:10061E000050B9F582EB2402B4040050AF232345F9
:06062E00822390058E738B
:10063400BB010689828A83E0225002E722BBFE02C4
:09064400E32289828A83E49322F7
:10064D00BB010CE58229F582E5833AF583E0225062
:10065D0006E92582F8E622BBFE06E92582F8E222AC
:0D066D00E58229F582E5833AF583E49322C6
:10067A00BB010689828A83F0225002F722BBFE015F
:02068A00F32259
:10068C00F8BB010DE58229F582E5833AF583E8F0A4
:10069C00225006E92582C8F622BBFE05E92582C850
:0206AC00F22238
:1006AE00BC000BBE0029EF8DF084FFADF022E4CC30
:1006BE00F875F008EF2FFFEE33FEEC33FCEE9DECF9
:1006CE00984005FCEE9DFE0FD5F0E9E4CEFD22ED3F
:1006DE00F8F5F0EE8420D21CFEADF075F008EF2F89
:1006EE00FFED33FD4007985006D5F0F222C398FD7A
:0506FE000FD5F0EA2217
:10070300C5F0F8A3E028F0C5F0F8E5821582700281
:060713001583E038F0221E
:10071900A3F8E0C5F025F0F0E58215827002158393
:06072900E0C838F0E822F0
:10072F00BB0110E58229F582E5833AF583E0F5F008
:10073F00A3E0225009E92582F886F008E622BBFEE5
:10074F000AE92582F8E2F5F008E222E5832AF5832B
:08075F00E993F5F0A3E99322F0
:10076700E88FF0A4CC8BF0A42CFCE98EF0A42CFC31
:100777008AF0EDA42CFCEA8EF0A4CDA8F08BF0A4AF
:100787002DCC3825F0FDE98FF0A42CCD35F0FCEB0E
:100797008EF0A4FEA9F0EB8FF0A4CFC5F02ECD39D3
:0F07A700FEE43CFCEAA42DCE35F0FDE43CFC2240
:1007B60075F008758200EF2FFFEE33FECD33CDCCFA
:1007C60033CCC58233C5829BED9AEC99E58298407D
:1007D6000CF582EE9BFEED9AFDEC99FC0FD5F0D65A
:1007E600E4CEFBE4CDFAE4CCF9A88222B800C1B984
:1007F6000059BA002DEC8BF084CFCECDFCE5F0CBC2
:10080600F97818EF2FFFEE33FEED33FDEC33FCEBFA
:1008160033FB10D703994004EB99FB0FD8E5E4F9B5
:10082600FA227818EF2FFFEE33FEED33FDEC33FCA2
:10083600C933C910D7059BE99A4007EC9BFCE99A96
:10084600F90FD8E0E4C9FAE4CCFB2275F010EF2FDB
:10085600FFEE33FEED33FDCC33CCC833C810D707DB
:100866009BEC9AE899400AED9BFDEC9AFCE899F816
:0E0876000FD5F0DAE4CDFBE4CCFAE4C8F922A9
:0E088400C3E49FFFE49EFEE49DFDE49CFC2285
:10089200EB9FF5F0EA9E42F0E99D42F0E89C45F0BC
:0108A2002233
:1008A300E8600FECC313FCED13FDEE13FEEF13FF33
:0308B300D8F12257
:1008B600BB010DE58229F582E5833AF583020B50EB
:1008C6005007E92582F8020B43BBFE07E92582F8AB
:1008D600020B5CE58229F582E5833AF583020B6912
:0C08E600ECF0A3EDF0A3EEF0A3EFF02285
:1008F200A8828583F0D083D08212090912090912D5
:100902000909120909E473E493A3C583C5F0C583F9
:10091200C8C582C8F0A3C583C5F0C583C8C582C84F
:0109220022B2
:0C092300A42582F582E5F03583F58322DF
:10092F00F8E0FBA3A3E0F925F0F0E5821582700251
:07093F001583E0FA38F022F5
:09094600EBF0A3EAF0A3E9F022B2
:10094F00D083D082F8E4937012740193700DA3A337
:10095F0093F8740193F5828883E47374029368604B
:06096F00EFA3A3A380DF4B
:10097500EF4E6012EF60010EEDBB010B89828A8399
:10098500F0A3DFFCDEFA2289F05007F709DFFCA9A6
:0C099500F022BBFEFCF309DFFCA9F022FD
:1009A100E709F608DFFA807BE9D39850F3E92FF9DC
:1009B100E82FF819E718F6DFFA8068E709F208DF8F
:1009C100FA806080E388828C83E709F0A3DFFA80F4
:1009D10052E309F608DFFA804AE9D398500EE92F6D
:1009E100F9E82FF819E318F2DFFA8037E309F20882
:1009F100DFFA802F88828C83E309F0A3DFFA80235A
:100A010089828A83E0A3F608DFFA801789828A83C4
:100A1100E493A3F208DFF9800A89828A83E0A3F2D2
:100A210008DFFA020AB380B180F980A580C680DCB4
:100A310080F180738010808380E98087808780D9EE
:100A410080E180BC8073D3E998EA9C5039E92FF5A5
:100A510082EA3BF583E82FF8EC3BFC0582D5820264
:100A610015831582E493C8C582C8CCC583CC0582A1
:100A7100D5820215831582F0C8C582C8CCC583CC46
:100A8100DFD9DED7802E89828A83ECFAE493A3C86A
:100A9100C582C8CCC583CCF0A3C8C582C8CCC583E8
:100AA100CCDFE9DEE7800D89828A83E493A3F6082F
:100AB100DFF9ECFAA9F0EDFB22D3E998EA9C503872
:100AC100E92FF582EA3BF583E82FF8EC3BFC058240
:100AD100D5820215831582E0C8C582C8CCC583CCF6
:100AE1000582D5820215831582F0C8C582C8CCC59E
:100AF10083CCDFDADED880BC89828A83ECFAE0A37A
:100B0100C8C582C8CCC583CCF0A3C8C582C8CCC532
:100B110083CCDFEADEE8809C809888F08E83EF60EA
:100B2100010E4E608DED2402B404005085F582EB78
:100B31002402B4040050E123234582AB8323900AAD
:020B4100277318
:10315500020046E493A3F8E493A34003F68001F24A
:1031650008DFF48029E493A3F85407240CC8C3337B
:10317500C4540F4420C8834004F456800146F6DF4A
:10318500E4800B010204081020408090364BE47E59
:10319500019360BCA3FF543F30E509541FFEE4933F
:1031A500A360010ECF54C025E060A840B8E493A306
:1031B500FAE493A3F8E493A3C8C582C8CAC583CA31
:1031C500F0A3C8C582C8CAC583CADFE9DEE780BEE9
:01369C00002D
:0D0B4300E6FB08E6F908E6FA08E6CBF82222
:0C0B5000E0F8A3E0F9A3E0FAA3E0FB2228
:0D0B5C00E2FB08E2F908E2FA08E2CBF82219
:100B6900E493F8740193F9740293FA740393FB22E2
:00000001FF
