:1043B8007461736B300D0A00733D25640A00696EE1
:1043C8002D6366672D4F4B0A00756172742D636605
:1043D800672D4F4B0D0A00677072732D6366672D4A
:1043E8004F4B0D0A00717569742D4F4B0D0A007102
:0D43F8007569742D6366672D4F4B0D0A002B
:104833009002DB74FFF0E49002DAF07B017A0279F4
:10484300DAFF122A427B017A0279DA7F01122A42C5
:0B4853007B017A0279DA7F03022A421F
:1042B9009002DA7440F0A37401F0A3120CE200003A
:1042C90025809002E17401F0E4A3F0A304F0E4A3D3
:1042D900F0A3F0A3F07B017A0279DA7F0112126868
:1042E9009002DA7440F09002DC120CE20001C20084
:1042F9009002E17401F09002E3F0E4A3F0A3F07BF3
:0A430900017A0279DA7F02021268DD
:1048070090031E7440F0A37401F0A3120CD690031A
:10481700257401F0E4A3F0A304F0E4A3F0A3F0A34C
:0C482700F07B017A03791E7F0102126809
:0C4957001248331242B91248A4D2AF2219
:1033E1001249579002D57401F0E4900002F0900068
:1033F10001F0C2807BFF7A4379B812164E12005950
:103401009002D6EEF0A3EFF09002D5E060701200CA
:10341100599002D8EEF0A3EFF07C007D64120AAC63
:10342100ED4C70209002D8E0FEA3E0FF7C007D64AB
:10343100120AAC900337EEF0A3EFF07BFF7A4379E9
:10344100C012164E9002D6E0FEA3E0FFC39002D94F
:10345100E09FFF9002D8E09EFED3EF94F4EE94013A
:103461004007E49002D5F08071900002E0B4019829
:103471007BFF7A4379C612164EE49002D5F0900094
:1034810002E024FD601314602C14604524036003E2
:10349100023409123E640234097FF47E011246CCE3
:1034A1001244057BFF7A4379D112164E90000274C3
:1034B10001F00234097FF47E011246CC1244EB90F4
:1034C10000027401F07BFF7A4379DF12164E023459
:1034D100097BFF7A4379ED12164E7BFF7A4379F728
:1034E10012164ED280E4900009F0900010F0900086
:1034F1000AF0900011F090000104F01248FA80FBEC
:10490C00EFB40A0675990D3099FD8F993099FD22F7
:104313003B00B2CECA3A200A006B65793D200025E6
:10432300237820000A0069563D200069643D20007F
:10433300626175643D256C640A007365727665720B
:104343003D25730A00B2A8CCD8C2CACEB4C9E8D6F8
:10435300C3A3A10A006F6B006F6B0A004154004FA7
:044363004B00C30147
:101F2D00E4900318F0900002F0FE7F80FD7B017AB3
:101F3D00007993120DE47B017A007993900323E4E9
:101F4D00F0A37429F0E4FFFE12464E7F067E0012C8
:101F5D0046CC78B37C037D017B017A0079947E00B9
:101F6D007F10120A0C78C37C037D017B017A007906
:101F7D00A47E007F10120A0C78AB7C037D017B01DF
:101F8D007A0079B47E007F08120A0C900093E090DD
:101F9D0003D3F078DA7C027D017B007A0079007E34
:101FAD00007F32120A0C7B017A0279DA900323E466
:101FBD00F0A37432F07F007E0212464E7F067E0043
:101FCD001246CC7B017A0279DA123A0990030FEBB3
:101FDD00F0A3EAF0A3E9F090032174FFF0A374439A
:101FED00F0A37413F07B017A03790F123D45900332
:101FFD000CEBF0A3EAF0A3E9F04A4B603D90031817
:10200D00E0FF701590030CE0F9A3E0FAA3E0900354
:10201D0012C9F0A3EAF0A3E9F0EFB4011590030C97
:10202D00E0F9A3E0FAA3E0900315C9F0A3EAF0A349
:10203D00E9F0900318E004F0809D900321E4F0A3F3
:10204D00F0A3F0A3740AF0900312E0FBA3E0FAA34F
:10205D00E0F91221FD900319120CD67BFF7A43791A
:10206D001512164E7BFF7A43791C12164EE490031F
:10207D001DF090031DE0FFC3941050207BFF7A43A9
:10208D00792274B32FF582E43403F583E09003379E
:10209D00F012164E90031DE004F080D67BFF7A43BC
:1020AD00792712164E7BFF7A43792912164EE4904A
:1020BD00031DF090031DE0FFC3941050207BFF7AA9
:1020CD0043792274C32FF582E43403F583E0900342
:1020DD0037F012164E90031DE004F080D67BFF7A88
:1020ED0043792712164E7BFF7A43792E12164EE452
:1020FD0090031DF090031DE0FFC3940850207BFF5B
:10210D007A43792274AB2FF582E43403F583E090A2
:10211D000337F012164E90031DE004F080D67BFFBE
:10212D007A43792712164E7BFF7A43793390031940
:10213D00E0FCA3E0FDA3E0FEA3E0FF900337120C4B
:10214D00D612164E900315E0F9A3E0FAA3E0900322
:10215D0037C9F0A3EAF0A3E9F07BFF7A43793D128A
:10216D00164E900315E0F9A3E0FAA3E0900337C9EA
:10217D00F0A3EAF0A3E9F07BFF7A43793D12164E06
:10218D00900315E0F9A3E0FAA3E0900337C9F0A39B
:10219D00EAF0A3E9F07BFF7A43793D12164EE47F16
:1021AD00B07E04FDFC900319E0F8A3E0F9A3E0FA7A
:1021BD00A3E0FBC3120C8250167F807E257D007C30
:1021CD00001248077BFF7A43794812164E80119012
:1021DD000319E0FCA3E0FDA3E0FEA3E0FF12480716
:0F21ED007B017A0379121200669003D37401F01C
:0121FC0022C0
:1048FA00121F2D12318B12457F7F0A7E00123C0552
:02490A0080F13A
:10485E009002D1EEF0A3EFF01200599003A5EEF006
:10486E00A3EFF09002D1E0FFA3E09003A3CFF0A35B
:03487E00EFF02236
:104881009002D3EEF0A3EFF01200599003A9EEF0DD
:10489100A3EFF09002D3E0FFA3E09003A7CFF0A332
:0348A100EFF02213
:10318B0090000AE0D3940050030232B6120059901B
:10319B0003A5E0FCA3E0FDC3EF9DFFEE9CFEC390F7
:1031AB0003A4E09F9003A3E09E40030232B690037A
:1031BB00D3E0640260030232987B019002F504F0C5
:1031CB00A37403F0A374C3F0A3EBF0A37400F0A3F8
:1031DB007413F090000AE0149002FBF0A3EBF0A341
:1031EB007401F0A37493F07A0379B312305E9002FA
:1031FB00F0EEF0A3EFF0904365E4939002DAF090D9
:10320B004366E4939002DBF078DC7C027D017B016A
:10321B007A0379AB7E007F08120A0C9002F0E0FC77
:10322B00A3E0FDEC9002E4F0EDA3F09002F7740143
:10323B00F0A37401F0A37493F09002F0E0FFA3E00D
:10324B009002FACFF0A3EFF07B017A0279DA7D0CD2
:10325B007C001238809002EEEEF0A3EFF07B017A47
:10326B000279DA7D0C1247DA7B017A0179939002AD
:10327B00F0A3E0FD1247DA9002EEE0FF12493A901C
:10328B0002EEA3E0FF12493A7FE712493A9003D3CB
:10329B00E0B4010E7B017A007913900009E0FD1276
:0B32AB0047DAE490000AF0900009F000
:0132B60022F5
:10457F00900011E0D39400403D1200599003A9E040
:10458F00FCA3E0FDC3EF9DFFEE9CFEC39003A8E0EC
:10459F009F9003A7E09E501E9003D3E0B4010E7BC3
:1045AF00017A007993900010E0FD1247ADE490007E
:0645BF0011F0900010F065
:0145C50022D3
:10440500E4FFFE1248C77F067E001246CC7B017A88
:10441500007913900009E0FF9002DFE4F0A3EFF0CC
:10442500E4FFFE12468D7F067E001246CC7BFF7AA6
:104435004379587D021247AD7E007F807D007B0168
:0D4445007A007913120DE4E4900009F022D2
:1044EB007F007E021248C77F0A7E001246CC7B01FA
:1044FB007A0079139002DFE4F0A37432F07F007E30
:10450B000212468D7F067E001246CC7BFF7A4379E2
:10451B005B7D041247AD7E007F807D007B017A00BE
:0B452B007913120DE4E4900009F02267
:083C05009002DAEEF0A3EFF0EB
:103C0D0012005990039FEEF0A3EFF01200599003AC
:103C1D009FE0FCA3E0FDC3EF9DFFEE9CFED3EF9470
:103C2D0064EE9400407290037EE0B40104D2B5803E
:103C3D0002B2B5B2B49003A1E004F0C3943C405875
:103C4D00E4F0A3E004FFF0D39002DBE09F9002DAF2
:103C5D00E0940050439003287401F0A37400F0A386
:103C6D007493F0A374FFF0A37443F0A37462F0A3F4
:103C7D0074F4F07BFF7A43795F1237B4EF7014D28E
:103C8D00807F64FE1246CCC2807FC87E001246CC77
:083C9D0075C760E49003A2F07A
:013CA50022FC
:103E640090000AE0D3940040361200599003A5E074
:103E7400FCA3E0FDC3EF9DFFEE9CFEC39003A4E012
:103E84009F9003A3E09E50177B017A007913900062
:103E940009E0FD1247DAE490000AF0900009F0907E
:103EA4000011E0D3940040361200599003A9E0FCBD
:103EB400A3E0FDC3EF9DFFEE9CFEC39003A8E09F2B
:103EC4009003A7E09E50177B017A0079939000102D
:0E3ED400E0FD1247ADE4900011F0900010F0F8
:013EE20022BD
:07000300252E3278000A00EF
:0B45360090043CEBF0A3EAF0A3E9F0D6
:10454100E4A3F090043FE0FFC39410502890043C92
:10455100E0FBA3E0FAA3E0F98F82758300120A4B16
:10456100900337F07BFF7A00790312164E90043FD7
:0E457100E004F080CE7BFF7A00790802164E3F
:0B36DB009003E7EBF0A3EAF0A3E9F096
:1036E6009003F3E4F0A37403F09003F3E0C4F854FA
:1036F600F0C868FFA3E0C4540F48A3CFF0A3EFF0CF
:10370600E4A3F07403540FA3F07D037C009003F64A
:10371600E02401FF9003F5E03400FEEFC4F8540FF7
:10372600C868FFEEC454F048FEC3ED9FEC9E5020DF
:103736009003F7A3E0FF9003EDE0FBA3E0FAA3E01C
:10374600F98D828C83EF120A8A0DBD00010C80BDB3
:103756009003EDE0F9A3E0FAA3E09003D7C9F0A344
:10376600EAF0A3E9F0A3120CE2000000409003E7A0
:10377600E0F9A3E0FAA3E09003DEC9F0A3EAF0A320
:10378600E9F09003EAE0F9A3E0FAA3E09003E1C9C7
:10379600F0A3EAF0A3E9F09003F0E0FBA3E0FAA3BC
:0D37A600E0F9122F019003F3E0FEA3E0FF15
:0137B30022F3
:0B305E009002F2EBF0A3EAF0A3E9F00F
:103069009002FBE0FFC4540FFD900301E4F0A3EDCF
:10307900F0EF540FFF7E00A3EEF0A3EFF0605C9039
:1030890002FBE0FF9002FFEEF0A3EFF09002FBE0FD
:103099002410FFE433FE900303E0FAA3E0FBC3EF3F
:1030A9009BFFEE9AFE9002FFE0FCA3E0FDC39FECBC
:1030B9009E5028C374109BFF9002F8E0FBA3E0FA2E
:1030C900A3E0F98D828C83EF120A8A900300E00451
:1030D900F070B99002FFE004F080B19002F8E0F9D5
:1030E900A3E0FAA3E0900308C9F0A3EAF0A3E9F08A
:1030F900900302E02401FF900301E03400FEEFC4D5
:10310900F8540FC868FFEEC454F048FEE4FCFD9083
:10311900030B120CD69002F2E0F9A3E0FAA3E090B7
:10312900030FC9F0A3EAF0A3E9F09002F5E0F9A3CF
:10313900E0FAA3E0900312C9F0A3EAF0A3E9F09042
:1031490002FCE0FBA3E0FAA3E0F91232B79002FC1B
:10315900E0FBA3E0FAA3E0F9900301A3E004C4545F
:10316900F0FD1247AD900302E02401FF900301E056
:103179003400FEEFC4F8540FC868FFEEC454F04899
:01318900FE47
:01318A002222
:10194800637C777BF26B6FC53001672BFED7AB7674
:10195800CA82C97DFA5947F0ADD4A2AF9CA472C01F
:10196800B7FD9326363FF7CC34A5E5F171D831158C
:1019780004C723C31896059A071280E2EB27B275AD
:1019880009832C1A1B6E5AA0523BD6B329E32F8425
:1019980053D100ED20FCB15B6ACBBE394A4C58CF1D
:1019A800D0EFAAFB434D338545F9027F503C9FA8F1
:1019B80051A3408F929D38F5BCB6DA2110FFF3D2BF
:1019C800CD0C13EC5F974417C4A77E3D645D197373
:1019D80060814FDC222A908846EEB814DE5E0BDB6D
:1019E800E0323A0A4906245CC2D3AC629195E479A4
:1019F800E7C8376D8DD54EA96C56F4EA657AAE08FE
:101A0800BA78252E1CA6B4C6E8DD741F4BBD8B8A98
:101A1800703EB5664803F60E613557B986C11D9EFE
:101A2800E1F8981169D98E949B1E87E9CE5528DF75
:101A38008CA1890DBFE6426841992D0FB054BB16A1
:101A480052096AD53036A538BF40A39E81F3D7FB2B
:101A58007CE339829B2FFF87348E4344C4DEE9CB75
:101A6800547B9432A6C2233DEE4C950B42FAC34EEA
:101A7800082EA16628D924B2765BA2496D8BD125A0
:101A880072F8F66486689816D4A45CCC5D65B69244
:101A98006C704850FDEDB9DA5E154657A78D9D84E8
:101AA80090D8AB008CBCD30AF7E45805B8B3450608
:101AB800D02C1E8FCA3F0F02C1AFBD0301138A6B22
:101AC8003A9111414F67DCEA97F2CFCEF0B4E67352
:101AD80096AC7422E7AD3585E2F937E81C75DF6E00
:101AE80047F11A711D29C5896FB7620EAA18BE1B66
:101AF800FC563E4BC6D279209ADBC0FE78CD5AF40C
:101B08001FDDA8338807C731B11210592780EC5F51
:101B180060517FA919B54A0D2DE57A9F93C99CEFAD
:101B2800A0E03B4DAE2AF5B0C8EBBB3C83539961AE
:101B3800172B047EBA77D626E169146355210C7DEC
:101B48008D01020408102040801B366CD8AB4D9ADA
:101B58002F5EBC63C697356AD4B37DFAEFC5913959
:101B680072E4D3BD61C29F254A943366CC831D3A83
:101B780074E8CB8D01020408102040801B366CD815
:101B8800AB4D9A2F5EBC63C697356AD4B37DFAEF26
:101B9800C5913972E4D3BD61C29F254A943366CC9E
:101BA800831D3A74E8CB8D01020408102040801B85
:101BB800366CD8AB4D9A2F5EBC63C697356AD4B3E2
:101BC8007DFAEFC5913972E4D3BD61C29F254A946D
:101BD8003366CC831D3A74E8CB8D010204081020CB
:101BE80040801B366CD8AB4D9A2F5EBC63C69735C8
:101BF8006AD4B37DFAEFC5913972E4D3BD61C29F4F
:101C0800254A943366CC831D3A74E8CB8D010204CF
:101C180008102040801B366CD8AB4D9A2F5EBC63F1
:101C2800C697356AD4B37DFAEFC5913972E4D3BD4E
:0F1C380061C29F254A943366CC831D3A74E8CB72
:05496300EFF0A3E0FFEE
:07496800EF90194893FF22B4
:07003B00EF901A4893FF2229
:100EAD00E0F9A3E0FAA3E0C990021AF0A3EAF0A3D7
:020EBD00E9F05A
:100EBF00900318120CE200000000E47F04FEFDFC1A
:100ECF00900318E0F8A3E0F9A3E0FAA3E0FBC31244
:100EDF000C824003021006E47F04FEFDFC90031811
:100EEF00E0F8A3A3A3E0120B6590021AE0FBA3E0C6
:100EFF00FAA3E0F98F828E83120A4BFD900318A399
:100F0F00A3E0FAA3E090021D75F004120D13EA2579
:100F1F00E025E02583F583EDF0EF2401FFE43EFEAD
:100F2F0090021AE0FBA3E0FAA3E0F98F828E8312FE
:100F3F000A4BFF900318A3A3E0FAA3E090021E75DB
:100F4F00F004120D13EA25E025E02583F583EFF079
:100F5F00E47F04FEFDFC900318E0F8A3E0F9A3E0A2
:100F6F00FAA3E0FB120B65EF2402FDE43EFC9002B6
:100F7F001AE0FBA3E0FAA3E0F98D828C83120A4BEF
:100F8F00FD900318A3A3E0FAA3E090021F75F004ED
:100F9F00120D13EA25E025E02583F583EDF0EF240C
:100FAF0003FFE43EFE90021AE0FBA3E0FAA3E0F990
:100FBF008F828E83120A4BFF900318A3A3E0FAA32C
:100FCF00E090022075F004120D13EA25E025E025CC
:100FDF0083F583EFF0900318E0FCA3E0FDA3E0FEA0
:100FEF00A3E02401FFE43EFEE43DFDE43CFC90035E
:100FFF0018120CD6020EC9E47F2CFEFDFC900318CC
:10100F00E0F8A3E0F9A3E0FAA3E0FBC3120C8240DF
:10101F000302126790031C120CE200000000E47F31
:10102F0004FEFDFC90031CE0F8A3E0F9A3E0FAA393
:10103F00E0FBC3120C82505AE47F04FEFDFC9003C8
:10104F0018E0F8A3E0F9A3E0FAA3E0FB120B65ABFD
:10105F000790031CA3A3A3E0FF2B2419F582E4340C
:10106F0002F583E0FE74242FF582E43403F583EE5A
:10107F00F090031CE0FCA3E0FDA3E0FEA3E024013D
:10108F00FFE43EFEE43DFDE43CFC90031C120CD655
:10109F00808C900318A3A3A3E05403FFE4FEFDFC90
:1010AF00FBFAF9F8C3120C82600302113D9003247E
:1010BF00E0FFE4FCFDFE900320120CD6900325E028
:1010CF00900324F0900326E0900325F0900327E08F
:1010DF00900326F0900320A3A3A3E0900327F090A2
:1010EF000324E0FF124968900324124963900325FB
:1010FF00124963900326124963900327EFF0900380
:10110F0024E0FFC007E47B04F8900318E0FCA3E0A1
:10111F00FDA3E0FEA3E0FF120BF074482FF58274DD
:10112F001B3EF583E493FED0E06E900324F0900312
:10113F0018A3A3E0FEA3E090020D75F004120D13A7
:10114F00EE25E025E02583F583E0FF900324E0FE04
:10115F00EF6EFF900318A3A3E0FAA3E090021D75B2
:10116F00F004120D13EA25E025E02583F583EFF057
:10117F00900318A3A3E0FEA3E090020E75F00412F3
:10118F000D13EE25E025E02583F583E0FF90032581
:10119F00E0FEEF6EFF900318A3A3E0FAA3E0900226
:1011AF001E75F004120D13EA25E025E02583F58363
:1011BF00EFF0900318A3A3E0FEA3E090020F75F0E9
:1011CF0004120D13EE25E025E02583F583E0FF9053
:1011DF000326E0FEEF6EFF900318A3A3E0FAA3E04F
:1011EF0090021F75F004120D13EA25E025E0258308
:1011FF00F583EFF0900318A3A3E0FEA3E090021095
:10120F0075F004120D13EE25E025E02583F583E03C
:10121F00FF900327E0FEEF6EFF900318A3A3E0FA01
:10122F00A3E090022075F004120D13EA25E025E0EB
:10123F002583F583EFF0900318E0FCA3E0FDA3E016
:10124F00FEA3E02401FFE43EFEE43DFDE43CFC9000
:08125F000318120CD602100660
:011267002264
:0540C000900319EFF070
:1040C500E4A3F0E490031BF090031AE075F004A458
:1040D500FF900217E0FBA3E0FAA3E02FF9EA35F021
:1040E500FA90031BE0FF7C0029F9EC3AFA120A3238
:1040F500FE90031AE025E025E0FD900319E0C45485
:10410500F02DFDEF2D241DF582E43402F583E06EDC
:10411500120A7890031BE004F0E0B404AB90031A94
:07412500E004F0E0B4049C8B
:01412C002270
:103EE300E4900319F0E490031AF090031AE0FFC37F
:103EF3009404505AEF75F004A4FF900217E0FBA35B
:103F0300E0FAA3E02FF9EA35F0FA900319E07E0016
:103F130029F9EE3AFA120A32FF124968AD07900303
:103F23001AE075F004A4FF900217E0FBA3E0FAA3E4
:103F3300E02FF9EA35F0FA900319E07E0029F9EE53
:103F43003AFAED120A7890031AE004F0809C900389
:0A3F530019E004F0E0C39404408B71
:013F5D002241
:103ABF00900217E0FBA3E0FAA3E0F9900001120ACD
:103ACF004BFF900005120A4B900001120A8A9000DA
:103ADF0009120A4B900005120A8A90000D120A4B28
:103AEF00900009120A8A90000DEF120A8A900002C4
:103AFF00120A4BFF90000A120A4B900002120A8A18
:103B0F0090000AEF120A8A900006120A4BFF9000EB
:103B1F000E120A4B900006120A8A90000EEF120A3C
:103B2F008A900003120A4BFF90000F120A4B90006D
:103B3F0003120A8A90000B120A4B90000F120A8A86
:103B4F00900007120A4B90000B120A8A900007EFA1
:033B5F00020A8ACD
:10474700FDE0FF124768124768124768AC07E0FFB1
:10475700124768E06F6C6DA3FDE0FF1247681247D0
:0147670068E9
:10476800EFC4131313540175F01BA4FEEF25E06E7C
:02477800FF221E
:10284900E4900319F0900217E0FBA3E0FAA3E0F982
:10285900900319E0FF75F004A4F58285F083120A4C
:102869004B90031CF0EF75F004A4FFE92FF9EA354A
:10287900F0FA900001120A4BFF900217A3E0FAA3A5
:10288900E0F9900319E0FE75F004A4F58285F08360
:10289900120A4B6FFDEE75F004A4FFE92FF9EA3532
:1028A900F0FA900002120A4B6DFF900003120A4BD6
:1028B9006F90031AF0900001120A4BFF900217A3C0
:1028C900E0FAA3E0F9900319E075F004A4F5828514
:1028D900F083120A4B6FFF90031BF0124768EFF069
:1028E900900217E0FBA3E0FAA3E0F9900319E0FED8
:1028F90075F004A4F582E92582F9EA35F0FA120A9D
:1029090032FD90031AE06F6D120A78EE75F004A497
:10291900FF900217E0FBA3E0FAA3E02FF9EA35F0F4
:10292900FA900002120A4BFF900001120A4B6FFF46
:1029390090031BF0124768EFF0900319E075F0045B
:10294900A4FF900217E0FBA3E0FAA3E02FF9EA3510
:10295900F0FAE92401F9E43AFA120A32FF90031A6B
:10296900E0FEA3E06E6F120A78900319E075F00497
:10297900A4FF900217E0FBA3E0FAA3E02FF9EA35E0
:10298900F0FA900003120A4BFF900002120A4B6FF3
:10299900FF90031BF0124768EFF0900319E075F000
:1029A90004A4FF900217E0FBA3E0FAA3E02FF9EAE1
:1029B90035F0FAE92402F9E43AFA120A32FF9003EF
:1029C9001AE0FEA3E06E6F120A78900319E075F021
:1029D90004A4FF900217E0FBA3E0FAA3E02FF9EAB1
:1029E90035F0FA900003120A4BFF90031CE06FFFC9
:1029F90090031BF0124768EFF0900319E075F0049B
:102A0900A4FF900217E0FBA3E0FAA3E02FF9EA354F
:102A1900F0FAE92403F9E43AFA120A32FF90031AA8
:102A2900E0FEA3E06E6F120A78900319E004F0E06B
:082A3900C39404500302284E6F
:012A41002272
:10264F00E4900436F0A3F0900436E0FEA3E0FFC35D
:10265F009404EE648094804003022848EF7802C30C
:10266F0033CE33CED8F9FF900217E0FBA3E0FAA3E5
:10267F00E0F98F828E83120A4B900438F0E92FF91C
:10268F00EA3EFA900001120A4B900439F0900002D2
:10269F00120A4B90043AF0900003120A4B90043B3D
:1026AF00F0900438E0FF124768124768AD07E0FF6B
:1026BF00124768EF6D12475FEF6DA3124747AC07E4
:1026CF00E0FF124768124757E06F6DFD900436E048
:1026DF00FEA3E07802C333CE33CED8F9FF900217B2
:1026EF00E0FBA3E0FAA3E0F98F828E83ED120A8A52
:1026FF00900439E0FF124768124768AD07E0FF12F8
:10270F004768EF6D12475FEF6D90043812475FE037
:10271F006F6D90043A124747AC07E0FF12476812FB
:10272F004768E06F6C6DFD900436E0FEA3E0780221
:10273F00C333CE33CED8F9FF900217E0FBA3E0FAF4
:10274F00A3E02FF9EA3EFA900001ED120A8A9004F5
:10275F0038124760AD07E0FF124768124768E06F15
:10276F0012475DE06F6DFDA3E0FF124768124768E7
:10277F00AC07E0FF124768EF6CFC124760EF12479F
:10278F005CAC07E0FF124768E06F6C6DFD9004369C
:10279F00E0FEA3E07802C333CE33CED8F9FF900228
:1027AF0017E0FBA3E0FAA3E02FF9EA3EFA9000024C
:1027BF00ED120A8A900439124760AD07E0FF124705
:1027CF0068124768E06F6DFD900438124760AC07E0
:1027DF00E0FF124768E06F6C6DFD90043A1247609E
:1027EF00E06F6DFDA3E0FF124768124768AC07E08A
:1027FF00FF124768EF6CFC124760EF6C6DFD9004A1
:10280F0036E0FEA3E07802C333CE33CED8F9FF9083
:10281F000217E0FBA3E0FAA3E02FF9EA3EFA9000DB
:10282F0003ED120A8A900437E004F0600302265683
:09283F00900436E004F002265674
:01284800226D
:103F5E00E4900440F0E4900441F0900441E0FFC38B
:103F6E009404505AEF75F004A4FF900217E0FBA3DF
:103F7E00E0FAA3E02FF9EA35F0FA900440E07E0073
:103F8E0029F9EE3AFA120A32FF12003BAD079004FD
:103F9E0041E075F004A4FF900217E0FBA3E0FAA342
:103FAE00E02FF9EA35F0FA900440E07E0029F9EEB0
:103FBE003AFAED120A78900441E004F0809C9004E5
:0A3FCE0040E004F0E0C39404408BCF
:013FD80022C6
:103B6200900217E0FBA3E0FAA3E0F990000D120A1D
:103B72004BFF900009120A4B90000D120A8A900026
:103B820005120A4B900009120A8A900001120A4B90
:103B9200900005120A8A900001EF120A8A90000230
:103BA200120A4BFF90000A120A4B900002120A8A74
:103BB20090000AEF120A8A900006120A4BFF900048
:103BC2000E120A4B900006120A8A90000EEF120A99
:103BD2008A900003120A4BFF900007120A4B9000D2
:103BE20003120A8A90000B120A4B900007120A8AEB
:103BF20090000F120A4B90000B120A8A90000FEFEE
:033C0200020A8A29
:10449F00900305E0F9A3E0FAA3E0900217C9F0A397
:0544AF00EAF0A3E9F0B2
:1044B400E4900318F0FF1240C09003187401F01246
:1044C4003EE3123ABF122849900318E0FF1240C09D
:1044D400900318E004F0E0C3940A40E3123EE312B0
:0744E4003ABF7F0A0240C04D
:104452009003D4E0F9A3E0FAA3E0900217C9F0A315
:05446200EAF0A3E9F0FF
:10446700E4900442F07F0A1240C09004427409F0BD
:10447700123B62123F5E900442E0FF1240C01226D8
:104487004F900442E014F0E0D3940050E3123B62F3
:08449700123F5EE4FF0240C089
:10425E00900308E0F9A3E0FAA3E090031BC9F0A3D2
:10426E00EAF0A3E9F0900305E0FBA3E0FAA3E0F97E
:0B427E00900318EBF0A3EAF0A3E9F0B6
:10428900E4FF90031BE0FBA3E0FAA3E0F98F82753A
:104299008300120A4BFE900318E0FBA3E0FAA3E0A7
:0F42A900F98F82758300EE120A8A0FEFB410D3DB
:0142B80022E3
:1045C600900424EBF0A3EAF0A3E9F0900424E0F9C8
:1045D600A3E0FAA3E090031BC9F0A3EAF0A3E9F075
:1045E60090042A12427690042AE0F9A3E0FAA3E0A6
:1045F600900217C9F0A3EAF0A3E9F0900427120E7F
:04460600AD0244B409
:10460A0090042DEBF0A3EAF0A3E9F090042DE0F971
:10461A00A3E0FAA3E090031BC9F0A3EAF0A3E9F030
:10462A00900433124276900433E0F9A3E0FAA3E04F
:10463A00900217C9F0A3EAF0A3E9F0900430120E31
:04464A00AD02446712
:08436700E0FBA3E0FAA3E0F97A
:0B436F00900318EBF0A3EAF0A3E9F0C4
:10437A00E4FF900318E0FBA3E0FAA3E02FF9E43A84
:10438A00FAC003C002C001120A32FE9002CDE0FB5D
:10439A00A3E0FAA3E0F98F82758300120A4B6ED06C
:0D43AA0001D002D003120A780FEFB410C545
:0143B70022E3
:0B32B700900305EBF0A3EAF0A3E9F0A0
:1032C20090030BE0FCA3E0FDA3E0FEA3E0540FFF9C
:1032D200900317EFF0C002C001900308E0F9A3E0E9
:1032E200FAA3E090031BC9F0A3EAF0A3E9F0D0012E
:1032F200D00212427E900305E0F9A3E0FAA3E09027
:103302000217C9F0A3EAF0A3E9F090030FE0FBA3D0
:10331200E0FAA3E0F94A6004EB120EB5900312E062
:10332200FBA3E0FAA3E0F94A600B9002CDEBF0A315
:10333200EAF0A3E9F0E4900315F0A3F0900315E09E
:10334200FEA3E0FFE4FCFD90030BE0F8A3E0F9A389
:10335200E0FAA3E0FBD3120C82404690030812432A
:103362006712425E12449F900305E0F9A3E0FAA3BC
:10337200E09002CDC9F0A3EAF0A3E9F0900309E4DA
:1033820075F010120B01900306E475F010120B0198
:10339200900316E02410F0900315E03400F002339D
:1033A2003E900317E0603712425E900317E0FFFD84
:1033B200C374109DFDE49400FCC004C00590030595
:1033C200E0FBA3E0FAA3E0F9EFFD7C00E92DF9ECC4
:0E33D2003AFA7D00D007D006120DE412449F97
:0133E00022CA
:0B2F01009003D4EBF0A3EAF0A3E9F08A
:102F0C009003DAE0FCA3E0FDA3E0FEA3E0540FFF86
:102F1C009003E6EFF0C002C0019003D7E0F9A3E004
:102F2C00FAA3E090031BC9F0A3EAF0A3E9F0D001E7
:102F3C00D00212427E9003D4E0F9A3E0FAA3E09011
:102F4C000217C9F0A3EAF0A3E9F09003DEE0FBA3BB
:102F5C00E0FAA3E0F94A600790021AEB120EB8905F
:102F6C0003E1E0FBA3E0FAA3E0F94A600B9002CD89
:102F7C00EBF0A3EAF0A3E9F0E49003E4F0A3F09003
:102F8C0003E4E0FEA3E0FFE4FCFD9003DAE0F8A329
:102F9C00E0F9A3E0FAA3E0FBD3120C82405E9003AD
:102FAC00D7E0F9A3E0FAA3E090031BC9F0A3EAF081
:102FBC00A3E9F09003D41242761244529003D41237
:102FCC0043679003D7E0F9A3E0FAA3E09002CDC9E0
:102FDC00F0A3EAF0A3E9F09003D8E475F010120B1B
:102FEC00019003D5E475F010120B019003E5E02479
:102FFC0010F09003E4E03400F0022F8B9003E6E035
:10300C00604F9003D7E0F9A3E0FAA3E090031BC94B
:10301C00F0A3EAF0A3E9F09003D41242769003E611
:10302C00E0FFFDC374109DFDE49400FCC004C005DA
:10303C009003D4E0FBA3E0FAA3E0F9EFFD7C00E9F8
:10304C002DF9EC3AFA7D00D007D006120DE41244AB
:01305C005221
:01305D002250
:10244F0000C1814001C0804101C0804100C1814075
:10245F0001C0804100C1814000C1814001C0804165
:10246F0001C0804100C1814000C1814001C0804155
:10247F0000C1814001C0804101C0804100C1814045
:10248F0001C0804100C1814000C1814001C0804135
:10249F0000C1814001C0804101C0804100C1814025
:1024AF0000C1814001C0804101C0804100C1814015
:1024BF0001C0804100C1814000C1814001C0804105
:1024CF0001C0804100C1814000C1814001C08041F5
:1024DF0000C1814001C0804101C0804100C18140E5
:1024EF0000C1814001C0804101C0804100C18140D5
:1024FF0001C0804100C1814000C1814001C08041C5
:10250F0000C1814001C0804101C0804100C18140B4
:10251F0001C0804100C1814000C1814001C08041A4
:10252F0001C0804100C1814000C1814001C0804194
:10253F0000C1814001C0804101C0804100C1814084
:10254F0000C0C101C30302C2C60607C705C5C40444
:10255F00CC0C0DCD0FCFCE0E0ACACB0BC90908C8B4
:10256F00D81819D91BDBDA1A1EDEDF1FDD1D1CDCA4
:10257F0014D4D515D71716D6D21213D311D1D01014
:10258F00F03031F133F3F23236F6F737F53534F404
:10259F003CFCFD3DFF3F3EFEFA3A3BFB39F9F83874
:1025AF0028E8E929EB2B2AEAEE2E2FEF2DEDEC2C64
:1025BF00E42425E527E7E62622E2E323E12120E0D4
:1025CF00A06061A163A3A26266A6A767A56564A4C4
:1025DF006CACAD6DAF6F6EAEAA6A6BAB69A9A86834
:1025EF0078B8B979BB7B7ABABE7E7FBF7DBDBC7C24
:1025FF00B47475B577B7B67672B2B373B17170B094
:10260F005090915193535292965657975595945483
:10261F009C5C5D9D5F9F9E5E5A9A9B5B99595898F3
:10262F00884849894B8B8A4A4E8E8F4F8D4D4C8CE3
:10263F004484854587474686824243834181804053
:103FD900900405EBF0A3EAF0A3E9F0A3ECF0A3ED5C
:013FE900F0E7
:103FEA00A374FFF0A3F090040874FFF5F0120B1706
:103FFA0045F06045900405E0FBA3E475F001120B5F
:10400A0017A9F0FA120A32FF90040AE06FFFE4FCE3
:10401A00FDFE90040C120CD690040CA3A3A3E0FCA2
:10402A0090244F93FE90040BE06E90040AF0EC90FB
:10403A00254F9390040BF080AD90040AE0FEA3E0B4
:03404A00FDEDFF8A
:01404D002250
:103880009002F2EBF0A3EAF0A3E9F0A3ECF0A3EDD1
:01389000F047
:103891009002FC74FFF0A3F09002F574FFF5F012B2
:1038A1000B1745F060459002F2E0FBA3E475F001CF
:1038B100120B17A9F0FA120A32FF9002FCE06FFF17
:1038C100E4FCFDFE9002FE120CD69002FEA3A3A31F
:1038D100E0FC90244F93FE9002FDE06E9002FCF01C
:1038E100EC90254F939002FDF080AD9002FA74FFA9
:1038F100F5F0120B1745F060459002F7E0FBA3E4E9
:1039010075F001120B17A9F0FA120A32FF9002FCAE
:10391100E06FFFE4FCFDFE9002FE120CD69002FE69
:10392100A3A3A3E0FC90244F93FE9002FDE06E90D0
:1039310002FCF0EC90254F939002FDF080AD9002D7
:08394100FCE0FEA3E0FDEDFF38
:01394900225B
:043CA600020D00000B
:1048A400E49002DAF0A304F0A3F0A3F0E4A3F0A3ED
:1048B40074DCF0A3E4F0A304F0FB7A0279DAE4FFF9
:0348C400022C06BD
:08005900C28CAE0DAF0ED28C7B
:01006100227C
:101C470041540041542B474D4D0041542B434753BA
:101C57004E004154264600415426570041542B4319
:101C670046554E3D310041542B4943463D332C30B8
:101C77000041542B4950523D31313532303000410B
:101C8700542B434C434B3D53432C320041542B437D
:101C970050494E3F0041542B434F50533F0041544E
:101CA7002B435245473D310041542B435245473F53
:101CB7000041542B4353510041542B43475245474E
:101CC7003F0041542B43474154543D310041542B6D
:101CD700435354543D22434D4E4554220041542B07
:101CE700435354543D2233676E6574220041542B8D
:101CF70043474155544F3D310041542B43494653C7
:101D0700520041542B4349504D55583D30004154E2
:101D17002B4349504D55583D310041542B434950B1
:101D270053544152543D0041542B43495053454E5F
:101D3700440041542B434950534855540041542BB8
:101D470043494943520041542B434950535441544A
:101D570055530041542B43444E534749503D003897
:101D67002E382E382E380041542B4349504D4F44BE
:101D7700453D31000D00743D3A25640A0041545F2A
:101D8700696E69740A004F4B00257325732573002C
:101D97004154353A000A00B2A8CCD8C2CA3A002545
:101DA7007300B2A8CCD8C2CAC9E8D6C3CAA7B0DCE8
:101DB700A3A10053494DD7B4CCAC3A0053494DBF0A
:101DC700A8BCECB2E2CAA7B0DCA3A100D0C5BAC5D3
:101DD700C7BFB6C83A00CEDED0C5BAC5C7BFB6C8FA
:101DE700A3A10047534DD7A2B2E1D7B4CCAC3A0078
:101DF70047534DBFA8D7A2B2E1CAA7B0DCA3A10041
:101E070047505253D7A2B2E1D7B4CCAC3A004750AF
:101E17005253D7B4CCACD7A2B2E1CAA7B0DCA3A1C6
:101E270000CDF8C2E7D7B4CCAC3A00B2E9D1AFCD18
:101E3700F8C2E7D7B4CCACCAA7B0DCA3A100B5A55C
:101E4700B7FECEF1C6F7C4A3CABD3A00C9E8D6C3E8
:101E5700B5A5B7FECEF1C4A3CABDCAA7B0DCA3A17E
:101E67000047505253B8BDD7C53A0047505253B8F0
:101E7700BDD7C5CAA7B0DCA3A100D4CBD0D0C9CCED
:101E87003A00B6C1C8A1D4CBD0D0C9CCCAA7B0DC60
:101E9700A3A100C8EBCDB8B4ABC4A3CABD3A00BD7B
:101EA700F8C8EBCDB8B4ABCAA7B0DCA3A1003436F1
:101EB70030303000434D4E45543A003436303031DF
:101EC7000033474E45543A00BCA4BBEED2C6B6AF6A
:101ED700B3A1BEB03A00BCA4BBEED2C6B6AFB3A1A5
:101EE700BEB0CAA7B0DCA3A100BBF1C8A14950B5D9
:101EF700D8D6B73A007365727665723D25730D0AB9
:101F070000434F4E4E45435400C1ACBDD3B7FECE40
:101F1700F1C6F73A00C1B4BDD3B7FECEF1C6F7CAD2
:061F2700A7B0DCA3A1003D
:103CAA0042036C1C4742038D1C4A4203741C514256
:103CBA00038B1C594203971C5E4203761C63420322
:103CCA00851C6D4203951C7842036E1C8642037262
:103CDA001C934203781C9C4203871CA54203891C3F
:103CEA00AF42038F1CB84203911CBF42039B1CC9FD
:103CFA0042035E1CD442036A1CE442037C1CF44265
:103D0A00039D1D004203641D094203661D154203FB
:103D1A00991D214203621D2E4203701D39420393ED
:103D2A001D4442037A1D4D4203681D5A42035C1D1D
:063D3A00664203601D6EED
:10477A00900337EBF0A3EAF0A3E9F0900337E0FBEC
:10478A00A3E0FAA3E0F9120A326017900337A3E410
:10479A0075F001120B17A9F0FA120A32FF12493A00
:0347AA0080D92291
:10470A00900334EBF0A3EAF0A3E9F07E007F807D0A
:10471A00007B017A007993120DE4E4900010F09086
:10472A000334E0FBA3E0FAA3E0F912477A7BFF7AAD
:0D473A001D797B12477A7FF47E010246CC88
:0B37B400900325EBF0A3EAF0A3E9F07E
:1037BF00E4900333F0900010F012005990032FEEB5
:1037CF00F0A3EFF0900325E0FBA3E0FAA3E0F912DA
:1037DF00470A7FF47E011246CC9003337401F090B8
:1037EF00032BE0F9A3E0FAA3E0900337C9F0A3EAB3
:1037FF00F0A3E9F0900328E0FBA3E0FAA3E0F912AD
:10380F00394AEA494B705F120059900331EEF0A329
:10381F00EFF07C007D64120AACED4C702090033108
:10382F00E0FEA3E0FF7C007D64120AAC900337EE4C
:10383F00F0A3EFF07BFF7A1D797D12164E90032FC8
:10384F00E0FEA3E0FFC3900332E09FFF900331E05F
:10385F009EFE90032EE0FDD3EF9DEE94004080E49A
:10386F00900333F0FF22E4900010F0900333E0FF59
:01387F002226
:0B00660090031EEBF0A3EAF0A3E9F00A
:100071007BFF7A1D798412164E90036CE0FEA3E09B
:10008100AA06F97BFFC0039003287401F0A3740052
:10009100F0A37493F0A3EBF0A3741DF0A3748DF09F
:1000A100A374F4F0D0031237B490036CE0FEA3E024
:1000B100AA06F97BFFC0039003287401F0A3740022
:1000C100F0A37493F0A3EBF0A3741DF0A3748DF06F
:1000D100A374F4F0D0031237B490036CE0FEA3E0F4
:1000E100AA06F97BFFC0039003287401F0A37400F2
:1000F100F0A37493F0A3EBF0A3741DF0A3748DF03F
:10010100A374F4F0D0031237B490036CE0FEA3E0C3
:10011100AA06F97BFFC0039003287401F0A37400C1
:10012100F0A37493F0A3EBF0A3741DF0A3748DF00E
:10013100A374F4F0D0031237B490036CE0FEA3E093
:10014100AA06F97BFFC0039003287401F0A3740091
:10015100F0A37493F0A3EBF0A3741DF0A3748DF0DE
:10016100A374F4F0D0031237B490036CE0FEA3E063
:10017100AA06F97BFFC0039003287401F0A3740061
:10018100F0A37493F0A3EBF0A3741DF0A3748DF0AE
:10019100A374F4F0D0031237B490033774FFF0A3C3
:1001A100741DF0A37497F0A37401F0A37400F0A37D
:1001B1007493F0A374FFF0A3741DF0A3749CF07BFF
:1001C100FF7A1D799012164E900395E0FEA3E0AAE6
:1001D10006F97BFFC0039003287401F0A37400F0BB
:1001E100A37493F0A3EBF0A3741DF0A3748DF0A39B
:1001F10074F4F0D0031237B4900324EFF090033776
:1002010074FFBF0129F0A3741DF0A3749EF0A374C1
:1002110001F0A37400F0A37493F0A374FFF0A3742E
:100221001DF0A3749CF07BFF7A1D7990800FF0A3E1
:10023100741DF0A374A9F07BFF7A1D79A612164EE6
:10024100900397E0FEA3E0AA06F97BFFC0039003A9
:10025100287401F0A37400F0A37493F0A3EBF0A34E
:10026100741DF0A3748DF0A374F4F0D0031237B4AD
:10027100900372E0FEA3E0AA06F97BFFC00390039E
:10028100287401F0A37400F0A37493F0A3EBF0A31E
:10029100741DF0A3748DF0A374F4F0D0031237B47D
:1002A100900324EFF090033774FFBF0129F0A3748A
:1002B1001DF0A374BAF0A37401F0A37400F0A37449
:1002C10093F0A374FFF0A3741DF0A3749CF07BFF63
:1002D1007A1D7990800FF0A3741DF0A374C3F07B95
:1002E100FF7A1D79A612164E90038FE0FEA3E0AAB5
:1002F10006F97BFFC0039003287401F0A37400F09A
:10030100A37493F0A3EBF0A3741DF0A3748DF0A379
:1003110074F4F0D0031237B4900324EFF090033754
:1003210074FFBF0129F0A3741DF0A374D3F0A3746B
:1003310001F0A37400F0A37493F0A374FFF0A3740D
:100341001DF0A3749CF07BFF7A1D7990800FF0A3C0
:10035100741DF0A374DDF07BFF7A1D79A612164E91
:10036100900389E0FEA3E0AA06F97BFFC003900396
:10037100287401F0A37400F0A37493F0A3EBF0A32D
:10038100741DF0A3748DF0A374F4F0D0031237B48C
:10039100900324EFF090033774FFBF0129F0A37499
:1003A1001DF0A374EAF0A37401F0A37400F0A37428
:1003B10093F0A374FFF0A3741DF0A3749CF07BFF72
:1003C1007A1D7990800FF0A3741DF0A374F7F07B70
:1003D100FF7A1D79A612164E900391E0FEA3E0AAC2
:1003E10006F97BFFC0039003287401F0A37400F0A9
:1003F100A37493F0A3EBF0A3741DF0A3748DF0A389
:1004010074F4F0D0031237B4900324EFF090033763
:1004110074FFBF0129F0A3741EF0A37407F0A37445
:1004210001F0A37400F0A37493F0A374FFF0A3741C
:100431001DF0A3749CF07BFF7A1D7990800FF0A3CF
:10044100741EF0A37415F07BFF7A1D79A612164E67
:10045100900378E0FEA3E0AA06F97BFFC0039003B6
:10046100287401F0A37400F0A37493F0A3EBF0A33C
:10047100741DF0A3748DF0A374F4F0D0031237B49B
:10048100900324EFF090033774FFBF0129F0A374A8
:100491001EF0A37428F0A37401F0A37400F0A374F8
:1004A10093F0A374FFF0A3741DF0A3749CF07BFF81
:1004B1007A1D7990800FF0A3741EF0A37432F07B43
:1004C100FF7A1D79A612164E900364E0FEA3E0AAFE
:1004D10006F97BFFC0039003287401F0A37400F0B8
:1004E100A37493F0A3EBF0A3741DF0A3748DF0A398
:1004F10074F4F0D0031237B4900324EFF090033773
:1005010074FFBF0129F0A3741EF0A37445F0A37416
:1005110001F0A37400F0A37493F0A374FFF0A3742B
:100521001DF0A3749CF07BFF7A1D7990800FF0A3DE
:10053100741EF0A37453F07BFF7A1D79A612164E38
:1005410090039BE0FEA3E0AA06F97BFFC0039003A2
:10055100287401F0A37400F0A37493F0A3EBF0A34B
:10056100741DF0A3748DF0A374F4F0D0031237B4AA
:10057100900324EFF090033774FFBF0129F0A374B7
:100581001EF0A37468F0A37401F0A37400F0A374C7
:1005910093F0A374FFF0A3741DF0A3749CF07BFF90
:1005A1007A1D7990800FF0A3741EF0A37472F07B12
:1005B100FF7A1D79A612164E900378E0FEA3E0AAF9
:1005C10006F97BFFC0039003287401F0A37400F0C7
:1005D100A37493F0A3EBF0A3741DF0A3748DF0A3A7
:1005E10074F4F0D0031237B4900324EFF090033782
:1005F10074FFBF0129F0A3741EF0A37481F0A374EA
:1006010001F0A37400F0A37493F0A374FFF0A3743A
:100611001DF0A3749CF07BFF7A1D7990800FF0A3ED
:10062100741EF0A37489F07BFF7A1D79A612164E11
:10063100900360E0FEA3E0AA06F97BFFC0039003EC
:10064100287401F0A37400F0A37493F0A3EBF0A35A
:10065100741DF0A3748DF0A374F4F0D0031237B4B9
:10066100900324EFF090033774FFBF0129F0A374C6
:100671001EF0A3749AF0A37401F0A37400F0A374A4
:1006810093F0A374FFF0A3741DF0A3749CF07BFF9F
:100691007A1D7990800FF0A3741EF0A374A6F07BED
:1006A100FF7A1D79A612164E90033774FFF0A374DA
:1006B1001EF0A374B5F07B017A00799312394AEAEE
:1006C100494B703F90035EE0FEA3E0AA06F97BFF71
:1006D100C0039003287401F0A37400F0A37493F095
:1006E100A3EBF0A3741DF0A3748DF0A374F4F0D008
:1006F100031237B490033774FFF0A3741EF0A37490
:10070100BB805990033774FFF0A3741EF0A374C229
:10071100F07B017A00799312394AEA494B705F9074
:10072100036AE0FEA3E0AA06F97BFFC00390032859
:100731007401F0A37400F0A37493F0A3EBF0A3741D
:100741001DF0A3748DF0A374F4F0D0031237B490AC
:10075100033774FFF0A3741EF0A374C8F0A37401EF
:10076100F0A37400F0A37493F0A374FFF0A3741DBD
:10077100F0A3749CF07BFF7A1D799012164E9003C2
:1007810093E0FEA3E0AA06F97BFFC003900328745F
:1007910001F0A37400F0A37493F0A3EBF0A3741D14
:1007A100F0A3748DF0A374F4F0D0031237B4900366
:1007B10024EFF090033774FFBF0129F0A3741EF0FA
:1007C100A374CFF0A37401F0A37400F0A37493F0A9
:1007D100A374FFF0A3741DF0A3749CF07BFF7A1D3A
:1007E1007990800FF0A3741EF0A374DDF07BFF7A83
:1007F1001D79A612164E90039DE0FEA3E0AA06F90C
:100801007BFFC0039003287401F0A37400F0A3746C
:1008110093F0A3EBF0A3741DF0A3748DF0A374F413
:10082100F0D0031237B4900324EFF090033774FF34
:10083100F0A3741EF0A374F0F0A37401F0A374008C
:10084100F0A37493F0A374FFF0A3741DF0A3749C40
:10085100F07BFF7A1D799012164E900399E0FEA36A
:10086100E0AA06F990032874FFF0A3EAF0A3E9F0E7
:10087100900321E0FBA3E0FAA3E0F912412D9003DC
:100881001EE0FBA3E0FAA3E0F9900003120D8E90A5
:100891000328EBF0A3EAF0A3E9F0900321E0FBA326
:1008A100E0FAA3E0F912412D900321E0F9A3E0FA67
:1008B100A3E0900337C9F0A3EAF0A3E9F07BFF7A44
:1008C1001E79FC12164E9003287401F0A37400F0F7
:1008D100A37493F0A374FFF0A3741FF0A37408F042
:1008E100A374E8F0900321E0FBA3E0FAA3E0F9127E
:1008F10037B490037EEFF090033774FFBF0129F006
:10090100A3741FF0A37410F0A37401F0A37400F09A
:10091100A37493F0A374FFF0A3741DF0A3749CF06F
:100921007BFF7A1D7990800FF0A3741FF0A3741CD4
:0A093100F07BFF7A1D79A612164E26
:01093B002299
:10404E00900330EBF0A3EAF0A3E9F0900330E0FB2D
:10405E00A3E0FAA3E0F9120A32605090032DE0F9C2
:10406E00A3E0FAA3E0900333C9F0A3EAF0A3E9F0CA
:10407E00900333E0FBA3E0FAA3E0F9120A32FF60EB
:10408E001E900330E0FBA3E0FAA3E0F9120A32B56A
:10409E00070122900334E475F001120B0180D190D8
:1040AE000331E475F001120B0180A07B007A0079D8
:0140BE000001
:0140BF0022DE
:0B3D450090031EEBF0A3EAF0A3E9F0EE
:103D5000120D1F900324EBF0A3EAF0A3E9F0AE02EA
:103D60004E7004FBFAF922900321E0F9A3E0FAA3D4
:103D7000E090032DC9F0A3EAF0A3E9F0900324E05A
:103D8000FBA3E0FAA3E0F912404E900327EBF0A367
:103D9000EAF0A3E9F04A4B6014900327E0FBA3E4A8
:103DA00075F001120B17A9F0FAE4120A78900327B4
:103DB000E0FBA3E0FAA3E0F9C003C002C001900356
:103DC0001EE0FBA3E0FAA3E0F9120D3F900324E00C
:073DD000FBA3E0FAA3E0F9F8
:013DD70022C9
:0B3A090090031EEBF0A3EAF0A3E9F02D
:103A1400A3EBF0A3EAF0A3E9F090031EE0F9A3E01E
:103A2400FAA3E0900324C9F0A3EAF0A3E9F0900319
:103A340021E0FBA3E0FAA3E0F9120A32FF6420605C
:103A440004EFB4090C900322E475F001120B018019
:103A5400DD900321E0FBA3E475F001120B17A9F03C
:103A6400FA120A32FF900324E0FBA3E475F001127A
:103A74000B17A9F0FAEF120A7870D690032574FF99
:103A840075F0FE801E900324E0FBA3E0FAA3E0F9A6
:103A9400120A32FF64206004EFB4090C9003257409
:103AA400FFF5F0120B0180DD900001E4120A8A9008
:0A3AB400031EE0FBA3E0FAA3E0F913
:013ABE0022E5
:0B3601009003F9EBF0A3EAF0A3E9F05E
:10360C00A3EBF0A3EAF0A3E9F09003F9E0F9A3E04F
:10361C00FAA3E09003FFC9F0A3EAF0A3E9F090034A
:10362C00F9E0F9A3A3E0900402C9F0A3EAF0A3E93E
:10363C00F09003FCE0FBA3E0FAA3E0F9120A32FFDE
:10364C0064206004EFB4090C9003FDE475F00112E2
:10365C000B0180DD9003FCE0FBA3E0FAA3E0F91280
:10366C000A32FF9003FFE0FBA3E0FAA3E0F9EF12AC
:10367C000A7860409003FFE0FBA3E0FAA3E0F912A4
:10368C000A32FF64206017EF64096012E92401F923
:10369C00E43AFA900402EBF0A3EAF0A3E9F0900408
:1036AC0000E475F001120B019003FDE475F00112BA
:1036BC000B0180A0900402E0FBA3E0FAA3E0F9E484
:0E36CC00120A789003F9E0FBA3E0FAA3E0F9FC
:0136DA0022CD
:0B350100900410EBF0A3EAF0A3E9F047
:10350C00E4900416F0A3F0120026EF24FFFFEE3433
:10351C00FF900418F0A3EFF0900410E0FBA3E0FA86
:10352C00A3E0F9900416E0FEA3E0F5828E83120A64
:10353C004BFF64206004EFB40910900417E004F012
:10354C0070D6900416E004F080CE900410E0FBA33B
:10355C00E0FAA3E0F9900418E0FEA3E0F5828E8374
:10356C00120A4BFF64206004EFB40910900419E0B8
:10357C0024FFF0900418E034FFF080CE900410E0AB
:10358C00FBA3E0FAA3E0F9900416E0FEA3E0FFE948
:10359C002FF9EA3EFA90041DEBF0A3EAF0A3E9F050
:1035AC00C3900419E09FFF900418E09ECF2401CF34
:1035BC003400900420F0A3EFF0900413E0FBA3E0A0
:1035CC00FAA3E0F9124198900416E0FEA3E0FFC3C1
:1035DC00900419E09FFF900418E09ECF2401CF3493
:1035EC0000FE900413E0FBA3E0FAA3E0F98F828EB7
:0535FC0083E4020A8ACD
:0846CC00900337EEF0A3EFF0BC
:1046D400120059900339EEF0A3EFF0120059AB0722
:1046E400AA06900337E0FEA3E0FF7C007D0A120ACD
:1046F400ACA3E0FCA3E0FDC3EB9DFDEA9CFCC3ED91
:054704009FEC9E40D671
:01470900228D
:0E491C0000007F2B7E067DCBDDFEDEFCDFFA89
:01492A00226A
:102A4200EFD3940540037F0122120A32FED394038E
:102A520040037F0222EF7041EE700B900001120AD8
:102A62004BF452935294120A32B4010B90000112A9
:102A72000A4B4293F45294120A32FEB4020A9000B4
:102A820001120A4B42934294EEB4030D90000112DC
:102A92000A4BFEF45293EE4294EF64017043120A21
:102AA20032FE700B900001120A4BF452915292EED8
:102AB200B4010B900001120A4B4291F45292120A95
:102AC20032B4020A900001120A4B42914292120A57
:102AD20032B4030D900001120A4BFEF45291EE4201
:102AE20092EF64027043120A32FE700B90000112E0
:102AF2000A4BF452955296EEB4010B900001120A61
:102B02004B4295F45296120A32B4020A9000011214
:102B12000A4B42954296120A32B4030D90000112FA
:102B22000A4BFEF45295EE4296EF64037043120A8A
:102B320032FE700B900001120A4BF452B152B2EE07
:102B4200B4010B900001120A4B42B1F452B2120AC4
:102B520032B4020A900001120A4B42B142B2120A86
:102B620032B4030D900001120A4BFEF452B1EE4250
:102B7200B2EF64047043120A32FE700B900001122D
:102B82000A4BF452B352B4EEB4010B900001120A94
:102B92004B42B3F452B4120A32B4020A9000011248
:102BA2000A4B42B342B4120A32B4030D900001122E
:102BB2000A4BFEF452B3EE42B4EF64057043120ABC
:102BC20032FF700B900001120A4BF452C952CAEF45
:102BD200B4010B900001120A4B42C9F452CA120A04
:102BE20032B4020A900001120A4B42C942CA120AC6
:102BF20032B4030D900001120A4BFFF452C9EF42A6
:042C0200CA7F002263
:043D4000410000003E
:1012680090032CEBF0A3EAF0A3E9F090032BEFF046
:101278006401600302147E90000504F0E4A3F0A367
:10128800F0A3F0A3F0A3F0A3F0900002F090032FD6
:10129800F090032FE0FFC39480501474132FF5824D
:1012A800E43401F583E4F090032FE004F080E2E4F5
:1012B80090032FF090032FE0FFC394805014741311
:1012C8002FF582E43400F583E4F090032FE004F076
:1012D80080E290032CE0FBA3E0FAA3E0F9120A32C3
:1012E800D394C040037F022290000A120A4BB40133
:1012F80004D2BC8002C2BC120A32FFE598543F4FA8
:10130800F598EF64C06008EF644060030213F8903A
:101318000002120CA67F007E307D2A7C00120BF0A2
:10132800900330120CD6E4FFFE7D01FC900330E000
:10133800F8A3E0F9A3E0FAA3E0FBC3120C82400390
:101348007F0222900330E0F8A3E0F9A3E0FAA3E0DB
:10135800FBC3E49BFFE49AFE740199FDE498FC90BA
:101368000330120CD690032CE0FBA3E0FAA3E0F9BB
:10137800900001120A4BFB64017038C28E538EFE36
:101388005389BF5389CF438E40900330E0FCA3E0DC
:10139800FDA3E0FEA3E0FF7808120C938F8D900365
:1013A80030A3A3A3E0F58BC2AB5389BF538FFDD203
:1013B8008E8076EB64027035538EEF438E01538E28
:1013C800F7438E04900330E0FCA3E0FDA3E0FEA306
:1013D800E0FF7808120C938FD6900330A3A3A3E004
:1013E800F5D753AFFB538EF7438E10803C7F022214
:1013F80090032CE0FBA3E0FAA3E0F9120A32FF7095
:1014080013900008120A4BB40105438E20801A532A
:101418008EDF8015EFB48011900008120A4BB401DA
:1014280005438780800353877F90032CE0FBA3E06C
:10143800FAA3E0F9900009120A4BB40104D2AC8077
:1014480002C2AC900007120A4BB40104D29C80027D
:10145800C29C90000B120A4B54C0FFE5A2543F4FA8
:10146800F5A290000C120A4BB401054397108003B3
:101478005397EF7F002290032BE06402600302156C
:10148800E090000C7402F0E4A3F0A3F0A3F0A3F042
:10149800A3F0A3F090032FF090032FE0FFC39480F4
:1014A800501474932FF582E43401F583E4F090032B
:1014B8002FE004F080E2E490032FF090032FE0FF88
:1014C800C39480501474932FF582E43400F583E4B8
:1014D800F090032FE004F080E290032CE0FBA3E0FF
:1014E800FAA3E0F9120A32FF64C06008EF644060B2
:1014F800030215A090000A120A4BB4010543B50176
:10150800800353B5FE120A32B4C005439A808003A3
:10151800539A7F900002120CA67F007E307D2A7CB1
:1015280000120BF0900330120CD6E4FFFE7D01FC94
:10153800900330E0F8A3E0F9A3E0FAA3E0FBC312BC
:101548000C8240037F0222900330E0F8A3E0F9A365
:10155800E0FAA3E0FBC3E49BFFE49AFE740199FD63
:10156800E498FC900330120CD6538EEF538EF74359
:101578008E04900330E0FCA3E0FDA3E0FEA3E0FFAF
:101588007808120C938FD6900330A3A3A3E0F5D765
:1015980053AFFB438E1080037F022290032CE0FBA5
:1015A800A3E0FAA3E0F9900009120A4BB40105433D
:1015B800AF01800353AFFE900007120A4BB4010538
:1015C800439A108003539AEF90000B120A4B540170
:0A15D800FFE5BA54FE4FF5BA7F0399
:0115E20022E6
:03002300022DA10A
:0D2DA100C0E0C0F0C083C082C0D075D0106B
:102DAE00209803022EC6C29890000BE06003022EFC
:012DBE00C64E
:102DBF009002D0E599F07F0A7E0012485E900009DC
:102DCF00E0C394804002E4F09002D0E0FF9000094D
:102DDF00E0FE04F074132EF582E43400F583EFF077
:102DEF0090000A7405F0900001E06003022EC6EF18
:102DFF00120DBE2EA9212E4A232E852A2E672B2E89
:102E0F002B3F2E43432E7E472E244D2E9C512E605A
:102E1F005300002EC690000074018076900000E0F1
:102E2F0064016003022EC6900009E0640160030292
:102E3F002EC6801790000074028057900000E06447
:102E4F00027074900009E06401706C9000020480BD
:102E5F005C9000007403803A900000E064037057A8
:102E6F00900009E06401704F9000027403803E905F
:102E7F0000007404801C900000E06404703990001E
:102E8F0009E064017031900002740480209000000A
:102E9F007405F0900009E4F0801D900000E0B40587
:102EAF0016900009E0B4010F9000027405F0900035
:072EBF0000E4F0900009F0AF
:102EC6009002D0E0FF3395E0FEEF64AF4E700690BF
:102ED6000214E004F0900214E0B4050AE599B47F08
:102EE6000575C760E4F0309907C299900008E4F0D0
:0B2EF600D0D0D082D083D0F0D0E032EA
:0300430002420076
:10420000C0E0C0F0C083C082C0D075D018E59A303D
:10421000E034539AFE900012E0702B7F0AFE1248A1
:1042200081900010E0C394804002E4F0900010E020
:10423000FF04F074932FF582E43400F583E59BF0DE
:104240009000117405F0E59A30E108539AFD900052
:0E4250000FE4F0D0D0D082D083D0F0D0E03296
:0F492B00900008E070FA9000087401F08F992254
:10004600120A32FF600C12492B740129F9E43AFABC
:0300560080EE2217
:0B47AD00900305EBF0A3EAF0A3E9F095
:1047B800E4FEEEC39D501A900305E0FBA3E0FAA3C4
:1047C800E0F98E82758300120A4BFF12492B0E8086
:0147D800E1FF
:0147D90022BD
:0F493A0090000FE070FA90000F7401F08F9B2235
:1048E700120A32FF600C12493A740129F9E43AFAC4
:0348F70080EE222E
:0B47DA009002F2EBF0A3EAF0A3E9F07C
:1047E500E4FEEEC39D501A9002F2E0FBA3E0FAA3AB
:1047F500E0F98E82758300120A4BFF12493A0E804A
:01480500E1D1
:01480600228F
:03000B0002000EE2
:0D000E00C0E0050EE50E7002050DD0E032D9
:03001B0002000AD6
:01000A0032C3
:0300630002001E7A
:01001E0032AF
:102C0600AD07EDD3940240037F0122ED6003022C51
:102C16009AC28C900002120A4BB40104D2A9800217
:102C2600C2A9900001120A4BB40104D2B98002C2B3
:102C3600B9120A32FED3940340037F0222E5895477
:102C4600FC4EF589900003120A4BFFB40103538E24
:102C56007FEF7003438E80EFB4020543890480033F
:102C66005389FB900004120A4BB40105438F01807F
:102C760003538FFE900005120B2DE5F0F58C9000A6
:102C860005120B2DF58A900007120A4BB40102D2E9
:102C96008C7F0022ED64016003022D25C28E900018
:102CA60002120A4BB40104D2AB8002C2AB900001FF
:102CB600120A4BB40104D2BB8002C2BB120A32FE16
:102CC600C3940340037F0222E58954CF4EF58990D1
:102CD6000003120A4BFFB40103538EBFEF70034388
:102CE6008E40EFB4020543894080035389BF9000AC
:102CF60004120A4BB40105438F028003538FFD90E3
:102D06000005120B2DE5F0F58D900005120B2DF543
:102D16008B900007120A4BB40102D28E7F0022ED7F
:102D260064027074538EEF900002120A4BB40105D0
:102D360043AF04800353AFFB900003120A4BFED34C
:102D4600940240037F0222EEB40103538EFB9000EF
:102D560003120A4B7003438E04900003120A4BB40D
:102D66000205438E088003538EF7900004120A4B27
:102D7600B40105438F048003538FFB900005120BAB
:102D86002DFDACF0ECF5D68DD7900007120A4BB4AA
:0B2D96000103438E107F00227F022209
:0E494900E4F5C7F5C5F5C675C3FF75C4FF22BA
:10464E00AD07AC06C2AF75C78375C501ECF5C3AF38
:10465E00058FC475C65A75C6A500E5C2120A780D37
:10466E00BD00010C740129F9E43AFA90032374FF9A
:0F467E00F5F0120B0145F070D3124949D2AF226B
:1048C700AD07AC06C2AFECF5C3AF058FC475C783A0
:1048D70075C50375C65A75C6A500124949D2AF22D8
:10468D00AD07AC06C2AF75C78375C502ECF5C3AFF8
:10469D00058FC4120A32F5C275C65A75C6A5000D2E
:1046AD00BD00010C740129F9E43AFA9002DF74FFA0
:0F46BD00F5F0120B0145F070D3124949D2AF222C
:03000000023DD8E6
:0C3DD800787FE4F6D8FD758121023E1FC3
:10093C00E709F608DFFA8046E709F208DFFA803E9D
:10094C0088828C83E709F0A3DFFA8032E309F6088A
:10095C00DFFA8078E309F208DFFA807088828C83F2
:10096C00E309F0A3DFFA806489828A83E0A3F608A6
:10097C00DFFA805889828A83E0A3F208DFFA804C80
:10098C0080D280FA80C680D4806980F28033801057
:10099C0080A680EA809A80A880DA80E280CA8033C0
:1009AC0089828A83ECFAE493A3C8C582C8CCC58338
:1009BC00CCF0A3C8C582C8CCC583CCDFE9DEE78008
:1009CC000D89828A83E493A3F608DFF9ECFAA9F087
:1009DC00EDFB2289828A83ECFAE0A3C8C582C8CCDD
:1009EC00C583CCF0A3C8C582C8CCC583CCDFEADEF6
:1009FC00E880DB89828A83E493A3F208DFF980CC58
:100A0C0088F0EF60010E4E60C388F0ED2402B40450
:100A1C000050B9F582EB2402B4040050AF232345F7
:060A2C00822390098C7387
:100A3200BB010689828A83E0225002E722BBFE02C2
:090A4200E32289828A83E49322F5
:100A4B00BB010CE58229F582E5833AF583E0225060
:100A5B0006E92582F8E622BBFE06E92582F8E222AA
:0D0A6B00E58229F582E5833AF583E49322C4
:100A7800BB010689828A83F0225002F722BBFE015D
:020A8800F32257
:100A8A00F8BB010DE58229F582E5833AF583E8F0A2
:100A9A00225006E92582C8F622BBFE05E92582C84E
:020AAA00F22236
:100AAC00BC000BBE0029EF8DF084FFADF022E4CC2E
:100ABC00F875F008EF2FFFEE33FEEC33FCEE9DECF7
:100ACC00984005FCEE9DFE0FD5F0E9E4CEFD22ED3D
:100ADC00F8F5F0EE8420D21CFEADF075F008EF2F87
:100AEC00FFED33FD4007985006D5F0F222C398FD78
:050AFC000FD5F0EA2215
:100B0100C5F0F8A3E028F0C5F0F8E582158270027F
:060B11001583E038F0221C
:100B1700A3F8E0C5F025F0F0E58215827002158391
:060B2700E0C838F0E822EE
:100B2D00BB0110E58229F582E5833AF583E0F5F006
:100B3D00A3E0225009E92582F886F008E622BBFEE3
:100B4D000AE92582F8E2F5F008E222E5832AF58329
:080B5D00E993F5F0A3E99322EE
:100B6500E88FF0A4CC8BF0A42CFCE98EF0A42CFC2F
:100B75008AF0EDA42CFCEA8EF0A4CDA8F08BF0A4AD
:100B85002DCC3825F0FDE98FF0A42CCD35F0FCEB0C
:100B95008EF0A4FEA9F0EB8FF0A4CFC5F02ECD39D1
:0F0BA500FEE43CFCEAA42DCE35F0FDE43CFC223E
:100BB40075F008758200EF2FFFEE33FECD33CDCCF8
:100BC40033CCC58233C5829BED9AEC99E58298407B
:100BD4000CF582EE9BFEED9AFDEC99FC0FD5F0D658
:100BE400E4CEFBE4CDFAE4CCF9A88222B800C1B982
:100BF4000059BA002DEC8BF084CFCECDFCE5F0CBC0
:100C0400F97818EF2FFFEE33FEED33FDEC33FCEBF8
:100C140033FB10D703994004EB99FB0FD8E5E4F9B3
:100C2400FA227818EF2FFFEE33FEED33FDEC33FCA0
:100C3400C933C910D7059BE99A4007EC9BFCE99A94
:100C4400F90FD8E0E4C9FAE4CCFB2275F010EF2FD9
:100C5400FFEE33FEED33FDCC33CCC833C810D707D9
:100C64009BEC9AE899400AED9BFDEC9AFCE899F814
:0E0C74000FD5F0DAE4CDFBE4CCFAE4C8F922A7
:100C8200EB9FF5F0EA9E42F0E99D42F0E89C45F0C8
:010C9200223F
:100C9300E8600FECC313FCED13FDEE13FEEF13FF3F
:030CA300D8F12263
:100CA600BB010DE58229F582E5833AF583020E2B19
:100CB6005007E92582F8020E1EBBFE07E92582F8D9
:100CC600020E37E58229F582E5833AF583020E4462
:0C0CD600ECF0A3EDF0A3EEF0A3EFF02291
:100CE200A8828583F0D083D082120CF9120CF912FB
:100CF2000CF9120CF9E473E493A3C583C5F0C58320
:100D0200C8C582C8F0A3C583C5F0C583C8C582C85B
:010D120022BE
:0C0D1300A42582F582E5F03583F58322EB
:100D1F00BB010789828A83020E665005E9F8020E2D
:100D2F0054BBFE05E9F8020E8F89828A83020EA159
:100D3F00BB011A89828A83D0F0D0E0F8D0E0F9D0D5
:100D4F00E0FAD0E0FBE8C0E0C0F0020E865016E9F2
:100D5F00F8D083D082D0E0F9D0E0FAD0E0FBC082A7
:100D6F00C083020E5DBBFE16E9F8D083D082D0E0BF
:0F0D7F00F9D0E0FAD0E0FBC082C083020E9822C8
:100D8E00BB010DE58229F582E5833AF583020E66F5
:100D9E005007E92582F8020E54BBFE07E92582F8BA
:100DAE00020E8FE58229F582E5833AF583020EA1C4
:100DBE00D083D082F8E4937012740193700DA3A3C4
:100DCE0093F8740193F5828883E4737402936860D8
:060DDE00EFA3A3A380DFD8
:1015E300E5082437F582E43403F583E00508229007
:1015F3000334300703900337E475F001120E6F02D2
:101603000A322000E97F2ED2008018EF540F249075
:10161300D43440D4FF30040BEF24BFB41A0050037A
:101623002461FFE50960021509050CE50C7002054C
:101633000B30070E900334E475F001120E6FEF02C6
:101643000A7802490C7403D2078003E4C207F50841
:10165300900334120E86E4F509F50BF50CE50960E9
:10166300077F2012162680F5750AFFC201C200C249
:1016730002C203C205C206C2081215F2FF700D3082
:1016830007057F00121637AF0CAE0B22B4255FC2DD
:10169300D5C2041215F2FF24D0B40A00501A75F013
:1016A3000A780930D50508B6FF0106C6A426F62038
:1016B300D5047002D20380D924CFB41A00EF5004AA
:1016C300C2E5D204021838D20180C6D20080C0D24B
:1016D3000280BCD2D580BAD20580B47F20121626F0
:1016E3002002077401B5090040F11215E3FF121639
:1016F30026021660D208D20680951215E3FB121556
:10170300E3FA1215E3F94A4B700679097A197BFF5C
:1017130020022EE509602A7E008E82758300120A5C
:101723004B60060EEE650A70F0C2D5EBC0E0EAC06E
:10173300E0E9C0E0EE12187FD0E0F9D0E0FAD0E0A3
:10174300FB120A32FF60AAEBC0E0EAC0E0E9C0E0A6
:10175300121626D0E02401F9D0E03400FAD0E0FBE1
:10176300E50A0460DCD50AD980877BFF7A18797B88
:10177300D202809C791080027908C206C2088008D0
:10178300D2D5790A8004790AC2D5E50A047002F534
:101793000AE4FAFDFEFF1215E3FC7B082001131295
:1017A30015E3FD7B1030000A1215E3FE1215E3FF6B
:1017B3007B20EC3382D592D55013C3E43000069FCF
:1017C300FFE49EFEE42001039DFDE49CFCE4CBF8D2
:1017D300C201EC700CCFCECDCCE824F8F870F380C6
:1017E30017C3EF33FFEE33FEED33FDEC33FCEB3386
:1017F300FB994002FB0FD8E9EB300105F8D0E0C4B8
:1018030048B201C0E00AEC4D4E4F78207B0070C215
:10181300EAB50A0040BCC0E0121881D0F0D0E02045
:101823000104C4C0E0C4B201C0F012160FD0F0D559
:10183300F0EB021660120DBE16FD5317775816CE45
:101843004C16CA42177B4F17834417834916E34349
:08185300178955176D46176D4A
:10185B0045176D4719295016D22D16D62E16F92B72
:10186B0016DA2316F72019122A169248000016F1E1
:10187B003F3F3F00790AA2D5200314300509B91068
:10188B00020404B9080104A2D52006025001042069
:10189B0002689202B509005034C0E07F2030031972
:1018AB007F30A20272067205500F1218D8C202C204
:1018BB0006C205C2087F30800F300503E9C0E01275
:1018CB001626300503D0E0F9D0E0B509CC3005176A
:1018DB007F30B9100C1216267F583004077F7880A2
:1018EB0003B908031216263002057F2D0216267F38
:1018FB00202008F87F2B2006F322920280CF286E3F
:10190B00756C6C2900D2011215E33001F8C2017815
:10191B000930D50108F60216922D5043495812157D
:10192B00E32403B405004001E49019249312161725
:0D193B00743A121617D203750904021777CB
:10412D00900325EBF0A3EAF0A3E9F090032BEBF05D
:10413D00A3EAF0A3E9F0900325E0FBA3E475F001F9
:10414D00120B17A9F0FA120A3270EB90032674FFC6
:10415D00F5F0120B01900328E0FBA3E475F00112BA
:10416D000B17A9F0FA120A32FF900325E0FBA3E426
:10417D0075F001120B17A9F0FAEF120A7870D690AC
:0B418D00032BE0FBA3E0FAA3E0F92203
:1041980090041AEBF0A3EAF0A3E9F0E4900422F00B
:1041A800A3F090042074FFF5F0120B1745F0603C63
:1041B80090041DE0FBA3E0FAA3E0F9120A32FF9095
:1041C800041AE0FBA3E0FAA3E0F9900422E475F0F6
:1041D80001120B1785F082F583EF120A8AEF60C28D
:1041E80090041EE475F001120B0180B690041AE0E9
:0841F800FBA3E0FAA3E0F922A9
:10002600E4FFFE120A32600C0FEF70010E09E97050
:05003600F20A80EF2238
:10394A00900334EBF0A3EAF0A3E9F0A3E0FBA3E0D1
:10395A00FAA3E0F9120A3270030239F6900334E04E
:10396A00FBA3E0FAA3E0F9120A327003023A0290CA
:10397A000337E0F9A3E0FAA3E0A3C9F0A3EAF0A3AE
:10398A00E9F0900334A3E0FAA3E0F990033DEBF0E9
:10399A00A3EAF0A3E9F090033AE0FBA3E0FAA3E07C
:1039AA00F9120A32FF602690033DE0FBA3E0FAA376
:1039BA00E0F9120A326F701590033B75F001120B91
:1039CA000190033EE475F001120B0180C990033A9D
:1039DA00E0FBA3E0FAA3E0F9120A327002800D902C
:1039EA000335E475F001120B01023966900334E0E5
:0F39FA00FBA3E0FAA3E0F9227B007A0079002218
:1021FD0090031EEBF0A3EAF0A3E9F0900327120C75
:10220D00E200000000E4900325F0A3F0900321E02C
:10221D00FBA3E0FAA3E0F9EA494B602090031EE02E
:10222D00FBA3E0FAA3E0F9EBC0E0EAC0E0E9C0E00F
:10223D00A3E0FBA3E0FAA3E0F9120D3F90031EE02B
:10224D00FBA3E475F001120B17A9F0FA120A3290F4
:10225D00032BF0E0FFC394094006EFD3940D40DC4F
:10226D00EF642060D7EFB42D0C900325E0F0A3E0D0
:10227D004403F0801D90032BE0B42B0C900325E05C
:10228D00F0A3E04401F0800A90031F74FFF5F012F3
:10229D000B01900324E060046410705190031EE064
:1022AD00FBA3E0FAA3E0F9120A326430600B90034D
:1022BD0024E07039740AF08034900001120A4BFF4B
:1022CD0064786004EFB4581C900325E0F0A3E0445B
:1022DD0001F09003247410F090031FE475F00212C6
:1022ED000B018009900324E070037408F090031E25
:1022FD00E0FBA3E475F001120B17A9F0FA120A32F4
:10230D0090032BF0E0FFC39461400AEFD3947A5011
:10231D0004EF54DFF090032BE024D0F0E0FFC394E2
:10232D000A400FEF941150030223DC90032BE0249D
:10233D00F9F0900324E0FB90032BE0D39B400302C4
:10234D0023DC900325E0F0A3E04401F0A3E0FCA31F
:10235D00E0FDA3E0FEA3E0FF90032C120CD6EBFFF3
:10236D007E00E4FCFD900327E0F8A3E0F9A3E0FA7A
:10237D00A3E0FB120B65C8ECC8C9EDC9CAEECACB08
:10238D00EFCB90032BE0FFE4FCFDFEEB2FFFEE3ACD
:10239D00FEED39FDEC38FC900327120CD690032787
:1023AD00E0FCA3E0FDA3E0FEA3E0FF90032CE0F82A
:1023BD00A3E0F9A3E0FAA3E0FBD3120C82500302D1
:1023CD0022FA900325E0F0A3E04404F00222FA90F3
:1023DD000326E020E003E48043900321E0FBA3E02B
:1023ED00FAA3E0F9EA494B602690031EE0FBA3E057
:1023FD00FAA3E024FFF9EA34FFFAEBC0E0EAC0E00B
:10240D00E9C0E0A3E0FBA3E0FAA3E0F9120D3F90D1
:10241D000325E0FAA3E0FB30E20774FFFFFEFDFCAD
:10242D0022EB90032730E10EE0FCA3E0FDA3E0FEDC
:10243D00A3E0FF020E10E0FCA3E0FDA3E0FEA3E08D
:02244D00FF226C
:100DE400EF4E6012EF60010EEDBB010B89828A8326
:100DF400F0A3DFFCDEFA2289F05007F709DFFCA933
:0C0E0400F022BBFEFCF309DFFCA9F02289
:103DE4000233E1E493A3F8E493A34003F68001F2E1
:103DF40008DFF48029E493A3F85407240CC8C333E0
:103E0400C4540F4420C8834004F456800146F6DFAE
:103E1400E4800B0102040810204080903CA6E47E5C
:103E2400019360BCA3FF543F30E509541FFEE493A3
:103E3400A360010ECF54C025E060A840B8E493A36A
:103E4400FAE493A3F8E493A3C8C582C8CAC583CA95
:103E5400F0A3C8C582C8CAC583CADFE9DEE780BE4D
:013D4400007E
:0E0E1000C3E49FFFE49EFEE49DFDE49CFC22F3
:0D0E1E00E6FB08E6F908E6FA08E6CBF82244
:0C0E2B00E0F8A3E0F9A3E0FAA3E0FB224A
:0D0E3700E2FB08E2F908E2FA08E2CBF8223B
:100E4400E493F8740193F9740293FA740393FB2204
:090E5400E6FB08E6FA08E6F922C3
:090E5D00EBF608EAF608E9F622BA
:090E6600E0FBA3E0FAA3E0F9228D
:100E6F00F8E0FBA3A3E0F925F0F0E582158270020C
:070E7F001583E0FA38F022B0
:090E8600EBF0A3EAF0A3E9F0226D
:090E8F00E2FB08E2FA08E2F92294
:090E9800EBF208EAF208E9F2228B
:0C0EA100E493FB740193FA740293F922AD
:00000001FF
