:103D5B009004D074FFF0E49004CFF07B017A0479E7
:103D6B00CFFF12241C7B017A0479CF7F0112241C14
:0B3D7B007B017A0479CF7F0302241C37
:103D860090049F7407F0A37420F0A37401F0E4A3D9
:103D9600F0A3F0A3F07B017A04799F1239047F0126
:033DA600023EBA20
:1038AA009003E57440F0A37401F0A3120BEC00003E
:1038BA0025809003EC7401F0E4A3F0A304F0E4A3E0
:1038CA00F0A3F0A3F07B017A0379E57F011211647A
:1038DA009003E57440F09003E7120BEC0001C2007C
:1038EA009003EC7401F09003EEF0E4A3F0A3F07BF4
:0A38FA00017A0379E57F02021164F0
:103D2F009003F27440F0A37401F0A3120BE0900320
:103D3F00F97401F0E4A3F0A304F0E4A3F0A3F0A35B
:0C3D4F00F07B017A0379F27F010211641D
:0C3EA200123D5B1238AA123DEFD2AF2295
:103E45007F011237F190049DEEF0A3EFF0123EC60C
:023E550080FBF0
:103E5700EFB40A0675990D3099FD8F993099FD22B7
:01000A0022D3
:0B3EC60012000A123C71123CA380F8AD
:103DA900900499EEF0A3EFF0120059900314EEF08D
:103DB900A3EFF0900499E0FFA3E0900312CFF0A3E2
:033DC900EFF022F6
:103DCC0090049BEEF0A3EFF0120059900318EEF064
:103DDC00A3EFF090049BE0FFA3E0900316CFF0A3B9
:033DEC00EFF022D3
:103C7100900009E0D394004028120059900314E009
:103C8100FCA3E0FDC3EF9DFFEE9CFEC3900313E098
:103C91009F900312E09E5009E4900009F090000803
:013CA100F032
:013CA20022FF
:103CA300900010E0D394004028120059900318E0CC
:103CB300FCA3E0FDC3EF9DFFEE9CFEC3900317E062
:103CC3009F900316E09E5009E4900010F090000FBF
:013CD300F000
:013CD40022CD
:07000300252E3278000A00EF
:0B3A41009004B1EBF0A3EAF0A3E9F061
:103A4C00E4A3F09004B4E0FFC3941050289004B1A8
:103A5C00E0FBA3E0FAA3E0F98F827583001209550D
:103A6C00900346F07BFF7A00790312154A9004B458
:0E3A7C00E004F080CE7BFF7A00790802154A44
:0B2D09009003A4EBF0A3EAF0A3E9F0B4
:102D14009003B0E4F0A37403F09003B0E0C4F8545B
:102D2400F0C868FFA3E0C4540F48A3CFF0A3EFF0AA
:102D3400E4A3F07403540FA3F07D037C009003B369
:102D4400E02401FF9003B2E03400FEEFC4F8540F16
:102D5400C868FFEEC454F048FEC3ED9FEC9E5020BB
:102D64009003B4A3E0FF9003AAE0FBA3E0FAA3E07E
:102D7400F98D828C83EF1209940DBD00010C80BD86
:102D84009003AAE0F9A3E0FAA3E0900394C9F0A3A6
:102D9400EAF0A3E9F0A3120BEC000000409003A4B6
:102DA400E0F9A3E0FAA3E090039BC9F0A3EAF0A33F
:102DB400E9F09003A7E0F9A3E0FAA3E090039EC929
:102DC400F0A3EAF0A3E9F09003ADE0FBA3E0FAA3DB
:0D2DD400E0F912277B9003B0E0FEA3E0FFC2
:012DE10022CF
:0B28D80090036BEBF0A3EAF0A3E9F023
:1028E300900374E0FFC4540FFD90037AE4F0A3ED6A
:1028F300F0EF540FFF7E00A3EEF0A3EFF0605C90C7
:102903000374E0FF900378EEF0A3EFF0900374E01C
:102913002410FFE433FE90037CE0FAA3E0FBC3EF53
:102923009BFFEE9AFE900378E0FCA3E0FDC39FECCF
:102933009E5028C374109BFF900371E0FBA3E0FA41
:10294300A3E0F98D828C83EF120994900379E0045C
:10295300F070B9900378E004F080B1900371E0F96E
:10296300A3E0FAA3E0900381C9F0A3EAF0A3E9F09E
:1029730090037BE02401FF90037AE03400FEEFC470
:10298300F8540FC868FFEEC454F048FEE4FCFD9011
:102993000384120BE090036BE0F9A3E0FAA3E09049
:1029A3000388C9F0A3EAF0A3E9F090036EE0F9A36A
:1029B300E0FAA3E090038BC9F0A3EAF0A3E9F09057
:1029C3000375E0FBA3E0FAA3E0F9122A059003756F
:1029D300E0FBA3E0FAA3E0F990037AA3E004C45474
:1029E300F0FD123CD590037BE02401FF90037AE0D5
:1029F3003400FEEFC4F8540FC868FFEEC454F04827
:012A0300FED4
:012A040022AF
:10184400637C777BF26B6FC53001672BFED7AB7679
:10185400CA82C97DFA5947F0ADD4A2AF9CA472C024
:10186400B7FD9326363FF7CC34A5E5F171D8311591
:1018740004C723C31896059A071280E2EB27B275B2
:1018840009832C1A1B6E5AA0523BD6B329E32F842A
:1018940053D100ED20FCB15B6ACBBE394A4C58CF22
:1018A400D0EFAAFB434D338545F9027F503C9FA8F6
:1018B40051A3408F929D38F5BCB6DA2110FFF3D2C4
:1018C400CD0C13EC5F974417C4A77E3D645D197378
:1018D40060814FDC222A908846EEB814DE5E0BDB72
:1018E400E0323A0A4906245CC2D3AC629195E479A9
:1018F400E7C8376D8DD54EA96C56F4EA657AAE0803
:10190400BA78252E1CA6B4C6E8DD741F4BBD8B8A9D
:10191400703EB5664803F60E613557B986C11D9E03
:10192400E1F8981169D98E949B1E87E9CE5528DF7A
:101934008CA1890DBFE6426841992D0FB054BB16A6
:1019440052096AD53036A538BF40A39E81F3D7FB30
:101954007CE339829B2FFF87348E4344C4DEE9CB7A
:10196400547B9432A6C2233DEE4C950B42FAC34EEF
:10197400082EA16628D924B2765BA2496D8BD125A5
:1019840072F8F66486689816D4A45CCC5D65B69249
:101994006C704850FDEDB9DA5E154657A78D9D84ED
:1019A40090D8AB008CBCD30AF7E45805B8B345060D
:1019B400D02C1E8FCA3F0F02C1AFBD0301138A6B27
:1019C4003A9111414F67DCEA97F2CFCEF0B4E67357
:1019D40096AC7422E7AD3585E2F937E81C75DF6E05
:1019E40047F11A711D29C5896FB7620EAA18BE1B6B
:1019F400FC563E4BC6D279209ADBC0FE78CD5AF411
:101A04001FDDA8338807C731B11210592780EC5F56
:101A140060517FA919B54A0D2DE57A9F93C99CEFB2
:101A2400A0E03B4DAE2AF5B0C8EBBB3C83539961B3
:101A3400172B047EBA77D626E169146355210C7DF1
:101A44008D01020408102040801B366CD8AB4D9ADF
:101A54002F5EBC63C697356AD4B37DFAEFC591395E
:101A640072E4D3BD61C29F254A943366CC831D3A88
:101A740074E8CB8D01020408102040801B366CD81A
:101A8400AB4D9A2F5EBC63C697356AD4B37DFAEF2B
:101A9400C5913972E4D3BD61C29F254A943366CCA3
:101AA400831D3A74E8CB8D01020408102040801B8A
:101AB400366CD8AB4D9A2F5EBC63C697356AD4B3E7
:101AC4007DFAEFC5913972E4D3BD61C29F254A9472
:101AD4003366CC831D3A74E8CB8D010204081020D0
:101AE40040801B366CD8AB4D9A2F5EBC63C69735CD
:101AF4006AD4B37DFAEFC5913972E4D3BD61C29F54
:101B0400254A943366CC831D3A74E8CB8D010204D4
:101B140008102040801B366CD8AB4D9A2F5EBC63F6
:101B2400C697356AD4B37DFAEFC5913972E4D3BD53
:0F1B340061C29F254A943366CC831D3A74E8CB77
:053EAE00EFF0A3E0FFAE
:073EB300EF90184493FF2279
:073ED100EF90194493FF225A
:100DA900E0F9A3E0FAA3E0C9900219F0A3EAF0A3DD
:020DB900E9F05F
:100DBB009003B6120BEC00000000E47F04FEFDFC78
:100DCB009003B6E0F8A3E0F9A3E0FAA3E0FBC312AB
:100DDB000B8C4003020F02E47F04FEFDFC9003B674
:100DEB00E0F8A3A3A3E0120A6F900219E0FBA3E0C3
:100DFB00FAA3E0F98F828E83120955FD9003B6A3F7
:100E0B00A3E0FAA3E090021C75F004120C1DEA2576
:100E1B00E025E02583F583EDF0EF2401FFE43EFEB2
:100E2B00900219E0FBA3E0FAA3E0F98F828E831204
:100E3B000955FF9003B6A3A3E0FAA3E090021D753A
:100E4B00F004120C1DEA25E025E02583F583EFF075
:100E5B00E47F04FEFDFC9003B6E0F8A3E0F9A3E009
:100E6B00FAA3E0FB120A6FEF2402FDE43EFC9002B2
:100E7B0019E0FBA3E0FAA3E0F98D828C83120955EC
:100E8B00FD9003B6A3A3E0FAA3E090021E75F00455
:100E9B00120C1DEA25E025E02583F583EDF0EF2408
:100EAB0003FFE43EFE900219E0FBA3E0FAA3E0F996
:100EBB008F828E83120955FF9003B6A3A3E0FAA38A
:100ECB00E090021F75F004120C1DEA25E025E025C9
:100EDB0083F583EFF09003B6E0FCA3E0FDA3E0FE07
:100EEB00A3E02401FFE43EFEE43DFDE43CFC900363
:100EFB00B6120BE0020DC5E47F2CFEFDFC9003B691
:100F0B00E0F8A3E0F9A3E0FAA3E0FBC3120B8C40DB
:100F1B00030211639003BA120BEC00000000E47F94
:100F2B0004FEFDFC9003BAE0F8A3E0F9A3E0FAA3FA
:100F3B00E0FBC3120B8C505AE47F04FEFDFC9003C4
:100F4B00B6E0F8A3E0F9A3E0FAA3E0FB120A6FAB5B
:100F5B00079003BAA3A3A3E0FF2B2418F582E43474
:100F6B0002F583E0FE74C22FF582E43403F583EEC1
:100F7B00F09003BAE0FCA3E0FDA3E0FEA3E02401A4
:100F8B00FFE43EFEE43DFDE43CFC9003BA120BE0B3
:100F9B00808C9003B6A3A3A3E05403FFE4FEFDFCF7
:100FAB00FBFAF9F8C3120B8C60030210399003C2E1
:100FBB00E0FFE4FCFDFE9003BE120BE09003C3E0E8
:100FCB009003C2F09003C4E09003C3F09003C5E01C
:100FDB009003C4F09003BEA3A3A3E09003C5F090CD
:100FEB0003C2E0FF123EB39003C2123EAE9003C3A6
:100FFB00123EAE9003C4123EAE9003C5EFF09003C9
:10100B00C2E0FFC007E47B04F89003B6E0FCA3E06A
:10101B00FDA3E0FEA3E0FF120AFA74442FF58274DD
:10102B001A3EF583E493FED0E06E9003C2F090037A
:10103B00B6A3A3E0FEA3E090020C75F004120C1D06
:10104B00EE25E025E02583F583E0FF9003C2E0FE6B
:10105B00EF6EFF9003B6A3A3E0FAA3E090021C751A
:10106B00F004120C1DEA25E025E02583F583EFF053
:10107B009003B6A3A3E0FEA3E090020D75F004125B
:10108B000C1DEE25E025E02583F583E0FF9003C3DF
:10109B00E0FEEF6EFF9003B6A3A3E0FAA3E090028D
:1010AB001D75F004120C1DEA25E025E02583F58360
:1010BB00EFF09003B6A3A3E0FEA3E090020E75F051
:1010CB0004120C1DEE25E025E02583F583E0FF904F
:1010DB0003C4E0FEEF6EFF9003B6A3A3E0FAA3E018
:1010EB0090021E75F004120C1DEA25E025E0258305
:1010FB00F583EFF09003B6A3A3E0FEA3E090020FFD
:10110B0075F004120C1DEE25E025E02583F583E038
:10111B00FF9003C5E0FEEF6EFF9003B6A3A3E0FACA
:10112B00A3E090021F75F004120C1DEA25E025E0E8
:10113B002583F583EFF09003B6E0FCA3E0FDA3E07D
:10114B00FEA3E02401FFE43EFEE43DFDE43CFC9005
:08115B0003B6120BE0020F02C3
:011163002269
:053653009004BDEFF042
:10365800E4A3F0E49004BFF09004BEE075F004A485
:10366800FF900216E0FBA3E0FAA3E02FF9EA35F099
:10367800FA9004BFE0FF7C0029F9EC3AFA12093C01
:10368800FE9004BEE025E025E0FD9004BDE0C454B2
:10369800F02DFDEF2D241CF582E43402F583E06E55
:1036A8001209829004BFE004F0E0B404AB9004BEB9
:0736B800E004F0E0B4049C03
:0136BF0022E8
:10347600E49004D1F0E49004D2F09004D2E0FFC3CB
:103486009404505AEF75F004A4FF900216E0FBA3D3
:10349600E0FAA3E02FF9EA35F0FA9004D1E07E00D5
:1034A60029F9EE3AFA12093CFF123EB3AD07900431
:1034B600D2E075F004A4FF900216E0FBA3E0FAA3A5
:1034C600E02FF9EA35F0FA9004D1E07E0029F9EE12
:1034D6003AFAED1209829004D2E004F0809C90043E
:0A34E600D1E004F0E0C39404408B31
:0134F00022B9
:1030ED00900216E0FBA3E0FAA3E0F99000011209AB
:1030FD0055FF90000512095590000112099490009A
:10310D000912095590000512099490000D120955E8
:10311D0090000912099490000DEF1209949000028D
:10312D00120955FF90000A120955900002120994D8
:10313D0090000AEF120994900006120955FF9000B5
:10314D000E12095590000612099490000EEF120907
:10315D0094900003120955FF90000F12095590002D
:10316D000312099490000B12095590000F12099447
:10317D0090000712095590000B120994900007EF6B
:03318D00020994A0
:103C0B00FDE0FF123C2C123C2C123C2CAC07E0FFCD
:103C1B00123C2CE06F6C6DA3FDE0FF123C2C123CB0
:013C2B002C6C
:103C2C00EFC4131313540175F01BA4FEEF25E06EC3
:023C3C00FF2265
:10222300E49004B5F0900216E0FBA3E0FAA3E0F912
:102233009004B5E0FF75F004A4F58285F0831209DC
:10224300559004B8F0EF75F004A4FFE92FF9EA35CF
:10225300F0FA900001120955FF900216A3E0FAA3C9
:10226300E0F99004B5E0FE75F004A4F58285F083EF
:102273001209556FFDEE75F004A4FFE92FF9EA3555
:10228300F0FA9000021209556DFF900003120955F0
:102293006F9004B6F0900001120955FF900216A347
:1022A300E0FAA3E0F99004B5E075F004A4F58285A3
:1022B300F0831209556FFF9004B7F0123C2CEFF036
:1022C300900216E0FBA3E0FAA3E0F99004B5E0FE68
:1022D30075F004A4F582E92582F9EA35F0FA1209CA
:1022E3003CFD9004B6E06F6D120982EE75F004A414
:1022F300FF900216E0FBA3E0FAA3E02FF9EA35F022
:10230300FA900002120955FF9000011209556FFF60
:102313009004B7F0123C2CEFF09004B5E075F00494
:10232300A4FF900216E0FBA3E0FAA3E02FF9EA353D
:10233300F0FAE92401F9E43AFA12093CFF9004B6F1
:10234300E0FEA3E06E6F1209829004B5E075F0041D
:10235300A4FF900216E0FBA3E0FAA3E02FF9EA350D
:10236300F0FA900003120955FF9000021209556F0D
:10237300FF9004B7F0123C2CEFF09004B5E075F039
:1023830004A4FF900216E0FBA3E0FAA3E02FF9EA0E
:1023930035F0FAE92402F9E43AFA12093CFF900411
:1023A300B6E0FEA3E06E6F1209829004B5E075F00B
:1023B30004A4FF900216E0FBA3E0FAA3E02FF9EADE
:1023C30035F0FA900003120955FF9004B8E06FFF4F
:1023D3009004B7F0123C2CEFF09004B5E075F004D4
:1023E300A4FF900216E0FBA3E0FAA3E02FF9EA357D
:1023F300F0FAE92403F9E43AFA12093CFF9004B62F
:10240300E0FEA3E06E6F1209829004B5E004F0E0F1
:08241300C394045003022228C7
:01241B00229E
:10202900E49004A5F0A3F09004A5E0FEA3E0FFC3AB
:102039009404EE648094804003022222EF7802C364
:1020490033CE33CED8F9FF900216E0FBA3E0FAA312
:10205900E0F98F828E831209559004A7F0E92FF9D0
:10206900EA3EFA9000011209559004A8F090000286
:102079001209559004A9F09000031209559004AA79
:10208900F09004A7E0FF123C2C123C2CAD07E0FFB6
:10209900123C2CEF6D123C23EF6DA3123C0BAC07E5
:1020A900E0FF123C2C123C1BE06F6DFD9004A5E093
:1020B900FEA3E07802C333CE33CED8F9FF900216DF
:1020C900E0FBA3E0FAA3E0F98F828E83ED12099475
:1020D9009004A8E0FF123C2C123C2CAD07E0FF1243
:1020E9003C2CEF6D123C23EF6D9004A7123C23E0CA
:1020F9006F6D9004A9123C0BAC07E0FF123C2C1247
:102109003C2CE06F6C6DFD9004A5E0FEA3E0780225
:10211900C333CE33CED8F9FF900216E0FBA3E0FA21
:10212900A3E02FF9EA3EFA900001ED120994900418
:10213900A7123C24AD07E0FF123C2C123C2CE06FA7
:10214900123C21E06F6DFDA3E0FF123C2C123C2CE8
:10215900AC07E0FF123C2CEF6CFC123C24EF123C64
:1021690020AC07E0FF123C2CE06F6C6DFD9004A5DC
:10217900E0FEA3E07802C333CE33CED8F9FF900254
:1021890016E0FBA3E0FAA3E02FF9EA3EFA90000279
:10219900ED1209949004A8123C24AD07E0FF123C0B
:1021A9002C123C2CE06F6DFD9004A7123C24AC0767
:1021B900E0FF123C2CE06F6C6DFD9004A9123C24E9
:1021C900E06F6DFDA3E0FF123C2C123C2CAC07E044
:1021D900FF123C2CEF6CFC123C24EF6C6DFD90045B
:1021E900A5E0FEA3E07802C333CE33CED8F9FF9041
:1021F9000216E0FBA3E0FAA3E02FF9EA3EFA900009
:1022090003ED1209949004A6E004F0600302203063
:092219009004A5E004F00220305D
:012222002299
:1034F100E49004D3F0E49004D4F09004D4E0FFC34A
:103501009404505AEF75F004A4FF900216E0FBA357
:10351100E0FAA3E02FF9EA35F0FA9004D3E07E0057
:1035210029F9EE3AFA12093CFF123ED1AD07900497
:10353100D4E075F004A4FF900216E0FBA3E0FAA327
:10354100E02FF9EA35F0FA9004D3E07E0029F9EE94
:103551003AFAED1209829004D4E004F0809C9004C0
:0A356100D3E004F0E0C39404408BB3
:01356B00223D
:10319000900216E0FBA3E0FAA3E0F990000D1209FB
:1031A00055FF90000912095590000D1209949000E6
:1031B0000512095590000912099490000112095551
:1031C000900005120994900001EF120994900002FA
:1031D000120955FF90000A12095590000212099435
:1031E00090000AEF120994900006120955FF900012
:1031F0000E12095590000612099490000EEF120964
:1032000094900003120955FF900007120955900091
:103210000312099490000B120955900007120994AB
:1032200090000F12095590000B12099490000FEFB7
:03323000020994FC
:1039F50090037EE0F9A3E0FAA3E0900216C9F0A3D4
:053A0500EAF0A3E9F066
:103A0A00E49004D5F0FF1236539004D57401F012F5
:103A1A0034761230ED1222239004D5E0FF12365389
:103A2A009004D5E004F0E0C3940A40E3123476121D
:073A3A0030ED7F0A02365354
:1039A800900391E0F9A3E0FAA3E0900216C9F0A30E
:0539B800EAF0A3E9F0B4
:1039BD00E49004D6F07F0A1236539004D67409F0C1
:1039CD001231901234F19004D6E0FF1236531220CA
:1039DD00299004D6E014F0E0D3940050E312319016
:0839ED001234F1E4FF0236532D
:10384F00900381E0F9A3E0FAA3E09004AEC9F0A3DE
:10385F00EAF0A3E9F090037EE0FBA3E0FAA3E0F91E
:0B386F009004ABEBF0A3EAF0A3E9F03B
:10387A00E4FF9004AEE0FBA3E0FAA3E0F98F8275BF
:10388A008300120955FE9004ABE0FBA3E0FAA3E023
:0F389A00F98F82758300EE1209940FEFB410D3EB
:0138A90022FC
:103A8A0090044EEBF0A3EAF0A3E9F090044EE0F9BB
:103A9A00A3E0FAA3E09004AEC9F0A3EAF0A3E9F028
:103AAA00900454123867900454E0F9A3E0FAA3E0B2
:103ABA00900216C9F0A3EAF0A3E9F0900451120D9E
:043ACA00A9023A0A09
:103ACE00900457EBF0A3EAF0A3E9F0900457E0F965
:103ADE00A3E0FAA3E09004AEC9F0A3EAF0A3E9F0E4
:103AEE0090045D12386790045DE0F9A3E0FAA3E05C
:103AFE00900216C9F0A3EAF0A3E9F090045A120D51
:043B0E00A90239BD12
:08395700E0FBA3E0FAA3E0F994
:0B395F009004C0EBF0A3EAF0A3E9F035
:10396A00E4FF9004C0E0FBA3E0FAA3E02FF9E43AF5
:10397A00FAC003C002C00112093CFE9002CCE0FB6F
:10398A00A3E0FAA3E0F98F827583001209556ED07D
:0D399A0001D002D0031209820FEFB410C556
:0139A70022FD
:0B2A050090037EEBF0A3EAF0A3E9F0E1
:102A1000900384E0FCA3E0FDA3E0FEA3E0540FFFDD
:102A2000900390EFF0C002C001900381E0F9A3E0B1
:102A3000FAA3E09004AEC9F0A3EAF0A3E9F0D00154
:102A4000D00212386F90037EE0F9A3E0FAA3E09081
:102A50000216C9F0A3EAF0A3E9F0900388E0FBA313
:102A6000E0FAA3E0F94A6004EB120DB190038BE0A9
:102A7000FBA3E0FAA3E0F94A600B9002CCEBF0A3D1
:102A8000EAF0A3E9F0E490038EF0A3F090038EE067
:102A9000FEA3E0FFE4FCFD900384E0F8A3E0F9A3CB
:102AA000E0FAA3E0FBD3120B8C404690038112396D
:102AB0005712384F1239F590037EE0F9A3E0FAA3DC
:102AC000E09002CCC9F0A3EAF0A3E9F0900382E41D
:102AD00075F010120A0B90037FE475F010120A0BC8
:102AE00090038FE02410F090038EE03400F0022A6F
:102AF0008C900390E0603712384F900390E0FFFD18
:102B0000C374109DFDE49400FCC004C00590037ED6
:102B1000E0FBA3E0FAA3E0F9EFFD7C00E92DF9EC7E
:0E2B20003AFA7D00D007D006120CC81239F523
:012B2E002284
:0B277B00900391EBF0A3EAF0A3E9F05B
:10278600900397E0FCA3E0FDA3E0FEA3E0540FFF57
:102796009003A3EFF0C002C001900394E0F9A3E018
:1027A600FAA3E09004AEC9F0A3EAF0A3E9F0D001E1
:1027B600D00212386F900391E0F9A3E0FAA3E090FB
:1027C6000216C9F0A3EAF0A3E9F090039BE0FBA38D
:1027D600E0FAA3E0F94A6007900219EB120DB490F3
:1027E600039EE0FBA3E0FAA3E0F94A600B9002CC5B
:1027F600EBF0A3EAF0A3E9F0E49003A1F0A3F090D4
:1028060003A1E0FEA3E0FFE4FCFD900397E0F8A33C
:10281600E0F9A3E0FAA3E0FBD3120B8C405E900331
:1028260094E0F9A3E0FAA3E09004AEC9F0A3EAF0BD
:10283600A3E9F09003911238671239A89003911218
:102846003957900394E0F9A3E0FAA3E09002CCC9CB
:10285600F0A3EAF0A3E9F0900395E475F010120AEC
:102866000B900392E475F010120A0B9003A2E02479
:1028760010F09003A1E03400F00228059003A3E0D5
:10288600604F900394E0F9A3E0FAA3E09004AEC988
:10289600F0A3EAF0A3E9F09003911238679003A33E
:1028A600E0FFFDC374109DFDE49400FCC004C00568
:1028B600900391E0FBA3E0FAA3E0F9EFFD7C00E9C9
:1028C6002DF9EC3AFA7D00D007D006120CC8123961
:0128D600A859
:0128D70022DE
:101E290000C1814001C0804101C0804100C18140A1
:101E390001C0804100C1814000C1814001C0804191
:101E490001C0804100C1814000C1814001C0804181
:101E590000C1814001C0804101C0804100C1814071
:101E690001C0804100C1814000C1814001C0804161
:101E790000C1814001C0804101C0804100C1814051
:101E890000C1814001C0804101C0804100C1814041
:101E990001C0804100C1814000C1814001C0804131
:101EA90001C0804100C1814000C1814001C0804121
:101EB90000C1814001C0804101C0804100C1814011
:101EC90000C1814001C0804101C0804100C1814001
:101ED90001C0804100C1814000C1814001C08041F1
:101EE90000C1814001C0804101C0804100C18140E1
:101EF90001C0804100C1814000C1814001C08041D1
:101F090001C0804100C1814000C1814001C08041C0
:101F190000C1814001C0804101C0804100C18140B0
:101F290000C0C101C30302C2C60607C705C5C40470
:101F3900CC0C0DCD0FCFCE0E0ACACB0BC90908C8E0
:101F4900D81819D91BDBDA1A1EDEDF1FDD1D1CDCD0
:101F590014D4D515D71716D6D21213D311D1D01040
:101F6900F03031F133F3F23236F6F737F53534F430
:101F79003CFCFD3DFF3F3EFEFA3A3BFB39F9F838A0
:101F890028E8E929EB2B2AEAEE2E2FEF2DEDEC2C90
:101F9900E42425E527E7E62622E2E323E12120E000
:101FA900A06061A163A3A26266A6A767A56564A4F0
:101FB9006CACAD6DAF6F6EAEAA6A6BAB69A9A86860
:101FC90078B8B979BB7B7ABABE7E7FBF7DBDBC7C50
:101FD900B47475B577B7B67672B2B373B17170B0C0
:101FE90050909151935352929656579755959454B0
:101FF9009C5C5D9D5F9F9E5E5A9A9B5B9959589820
:10200900884849894B8B8A4A4E8E8F4F8D4D4C8C0F
:10201900448485458747468682424383418180407F
:10356C0090042FEBF0A3EAF0A3E9F0A3ECF0A3EDA9
:01357C00F05E
:10357D00A374FFF0A3F090043274FFF5F0120A214A
:10358D0045F0604590042FE0FBA3E475F001120AAD
:10359D0021A9F0FA12093CFF900434E06FFFE4FC1E
:1035AD00FDFE900436120BE0900436A3A3A3E0FCBD
:1035BD00901E2993FE900435E06E900434F0EC904B
:1035CD001F2993900435F080AD900434E0FEA3E004
:0335DD00FDEDFF02
:0135E00022C8
:102EAE009003C6EBF0A3EAF0A3E9F0A3ECF0A3EDD8
:012EBE00F023
:102EBF009003D074FFF0A3F09003C974FFF5F012E4
:102ECF000A2145F060459003C6E0FBA3E475F001CD
:102EDF00120A21A9F0FA12093CFF9003D0E06FFF0C
:102EEF00E4FCFDFE9003D2120BE09003D2A3A3A348
:102EFF00E0FC901E2993FE9003D1E06E9003D0F07A
:102F0F00EC901F29939003D1F080AD9003CE74FF06
:102F1F00F5F0120A2145F060459003CBE0FBA3E4E6
:102F2F0075F001120A21A9F0FA12093CFF9003D0A3
:102F3F00E06FFFE4FCFDFE9003D2120BE09003D292
:102F4F00A3A3A3E0FC901E2993FE9003D1E06E9003
:102F5F0003D0F0EC901F29939003D1F080AD900334
:082F6F00D0E0FEA3E0FDEDFF40
:012F77002237
:04323300020D000088
:103DEF00E490047BF0A304F0A3F0A3F0E4A3F0A30A
:103DFF0074DCF0A3E4F0A304F0FB7A04797BE4FF16
:033E0F000225E0A9
:08005900C28CAE0DAF0ED28C7B
:01006100227C
:101B430041540041542B474D4D0041542B434753BF
:101B53004E004154264600415426570041542B431E
:101B630046554E3D310041542B4943463D332C30BD
:101B73000041542B4950523D313135323030004110
:101B8300542B434C434B3D53432C320041542B4382
:101B930050494E3F0041542B434F50533F00415453
:101BA3002B435245473D310041542B435245473F58
:101BB3000041542B4353510041542B434752454753
:101BC3003F0041542B43474154543D310041542B72
:101BD300435354543D22434D4E4554220041542B0C
:101BE300435354543D2233676E6574220041542B92
:101BF30043474155544F3D310041542B43494653CC
:101C0300520041542B4349504D55583D30004154E7
:101C13002B4349504D55583D310041542B434950B6
:101C230053544152543D0041542B43495053454E64
:101C3300440041542B434950534855540041542BBD
:101C430043494943520041542B434950535441544F
:101C530055530041542B43444E534749503D00389C
:101C63002E382E382E380041542B4349504D4F44C3
:101C7300453D31000D00743D3A25640A0041545F2F
:101C8300696E69740A004F4B002573257325730031
:101C93004154353A000A00B2A8CCD8C2CA3A00254A
:101CA3007300B2A8CCD8C2CAC9E8D6C3CAA7B0DCED
:101CB300A3A10053494DD7B4CCAC3A0053494DBF0F
:101CC300A8BCECB2E2CAA7B0DCA3A100D0C5BAC5D8
:101CD300C7BFB6C83A00CEDED0C5BAC5C7BFB6C8FF
:101CE300A3A10047534DD7A2B2E1D7B4CCAC3A007D
:101CF30047534DBFA8D7A2B2E1CAA7B0DCA3A10046
:101D030047505253D7A2B2E1D7B4CCAC3A004750B4
:101D13005253D7B4CCACD7A2B2E1CAA7B0DCA3A1CB
:101D230000CDF8C2E7D7B4CCAC3A00B2E9D1AFCD1D
:101D3300F8C2E7D7B4CCACCAA7B0DCA3A100B5A561
:101D4300B7FECEF1C6F7C4A3CABD3A00C9E8D6C3ED
:101D5300B5A5B7FECEF1C4A3CABDCAA7B0DCA3A183
:101D63000047505253B8BDD7C53A0047505253B8F5
:101D7300BDD7C5CAA7B0DCA3A100D4CBD0D0C9CCF2
:101D83003A00B6C1C8A1D4CBD0D0C9CCCAA7B0DC65
:101D9300A3A100C8EBCDB8B4ABC4A3CABD3A00BD80
:101DA300F8C8EBCDB8B4ABCAA7B0DCA3A1003436F6
:101DB30030303000434D4E45543A003436303031E4
:101DC3000033474E45543A00BCA4BBEED2C6B6AF6F
:101DD300B3A1BEB03A00BCA4BBEED2C6B6AFB3A1AA
:101DE300BEB0CAA7B0DCA3A100BBF1C8A14950B5DE
:101DF300D8D6B73A007365727665723D25730D0ABE
:101E030000434F4E4E45435400C1ACBDD3B7FECE45
:101E1300F1C6F73A00C1B4BDD3B7FECEF1C6F7CAD7
:061E2300A7B0DCA3A10042
:103237004202DF1B434203001B464202E71B4D428B
:1032470002FE1B5542030A1B5A4202E91B5F420258
:10325700F81B694203081B744202E11B824202E524
:103267001B8F4202EB1B984202FA1BA14202FC1B76
:10327700AB4203021BB44203041BBB42030E1BC534
:103287004202D11BD04202DD1BE04202EF1BF0429B
:1032970003101BFC4202D71C054202D91C11420332
:1032A7000C1C1D4202D51C2A4202E31C35420306B0
:1032B7001C404202ED1C494202DB1C564202CF1C55
:0632C700624202D31C6A02
:103C3E009004C3EBF0A3EAF0A3E9F09004C3E0FB19
:103C4E00A3E0FAA3E0F912093C60179004C3A3E4C1
:103C5E0075F001120A21A9F0FA12093CFF123E85F5
:033C6E0080D922D8
:103BCE009004C6EBF0A3EAF0A3E9F07E007F807DBF
:103BDE00007B017A007992120CC8E490000FF090ED
:103BEE0004C6E0FBA3E0FAA3E0F9123C3E7BFF7AA9
:0D3BFE001C7977123C3E7FF47E01023B9063
:0B2DE2009003D6EBF0A3EAF0A3E9F0A9
:102DED00E49003E4F090000FF01200599003E0EE30
:102DFD00F0A3EFF09003D6E0FBA3E0FAA3E0F91205
:102E0D003BCE7FF47E01123B909003E47401F09071
:102E1D0003DCE0F9A3E0FAA3E0900426C9F0A3EAED
:102E2D00F0A3E9F09003D9E0FBA3E0FAA3E0F912D7
:102E3D002F78EA494B705F1200599003E2EEF0A330
:102E4D00EFF07C007D641209B6ED4C70209003E22A
:102E5D00E0FEA3E0FF7C007D641209B6900346EE10
:102E6D00F0A3EFF07BFF7A1C797912154A9003E0FD
:102E7D00E0FEA3E0FFC39003E3E09FFF9003E2E0D9
:102E8D009EFE9003DFE0FDD3EF9DEE94004080E4C5
:102E9D009003E4F0FF22E490000FF09003E4E0FFD4
:012EAD002202
:0B006600900483EBF0A3EAF0A3E9F0A4
:100071007BFF7A1C798012154A9002DFE0FEA3E033
:10008100AA06F97BFFC0039003D97401F0A37400A1
:10009100F0A37492F0A3EBF0A3741CF0A37489F0A5
:1000A100A374F4F0D003122DE29002DFE0FEA3E08E
:1000B100AA06F97BFFC0039003D97401F0A3740071
:1000C100F0A37492F0A3EBF0A3741CF0A37489F075
:1000D100A374F4F0D003122DE29002DFE0FEA3E05E
:1000E100AA06F97BFFC0039003D97401F0A3740041
:1000F100F0A37492F0A3EBF0A3741CF0A37489F045
:10010100A374F4F0D003122DE29002DFE0FEA3E02D
:10011100AA06F97BFFC0039003D97401F0A3740010
:10012100F0A37492F0A3EBF0A3741CF0A37489F014
:10013100A374F4F0D003122DE29002DFE0FEA3E0FD
:10014100AA06F97BFFC0039003D97401F0A37400E0
:10015100F0A37492F0A3EBF0A3741CF0A37489F0E4
:10016100A374F4F0D003122DE29002DFE0FEA3E0CD
:10017100AA06F97BFFC0039003D97401F0A37400B0
:10018100F0A37492F0A3EBF0A3741CF0A37489F0B4
:10019100A374F4F0D003122DE290034674FFF0A390
:1001A100741CF0A37493F0A37401F0A37400F0A382
:1001B1007492F0A374FFF0A3741CF0A37498F07B05
:1001C100FF7A1C798C12154A900308E0FEA3E0AA7D
:1001D10006F97BFFC0039003D97401F0A37400F00A
:1001E100A37492F0A3EBF0A3741CF0A37489F0A3A1
:1001F10074F4F0D003122DE2900489EFF0900346DD
:1002010074FFBF0129F0A3741CF0A3749AF0A374C6
:1002110001F0A37400F0A37492F0A374FFF0A3742F
:100221001CF0A37498F07BFF7A1C798C800FF0A3EB
:10023100741CF0A374A5F07BFF7A1C79A212154AF5
:1002410090030AE0FEA3E0AA06F97BFFC003900336
:10025100D97401F0A37400F0A37492F0A3EBF0A39E
:10026100741CF0A37489F0A374F4F0D003122DE28E
:100271009002E5E0FEA3E0AA06F97BFFC00390032C
:10028100D97401F0A37400F0A37492F0A3EBF0A36E
:10029100741CF0A37489F0A374F4F0D003122DE25E
:1002A100900489EFF090034674FFBF0129F0A37415
:1002B1001CF0A374B6F0A37401F0A37400F0A3744E
:1002C10092F0A374FFF0A3741CF0A37498F07BFF69
:1002D1007A1C798C800FF0A3741CF0A374BFF07B9F
:1002E100FF7A1C79A212154A900302E0FEA3E0AA4C
:1002F10006F97BFFC0039003D97401F0A37400F0E9
:10030100A37492F0A3EBF0A3741CF0A37489F0A37F
:1003110074F4F0D003122DE2900489EFF0900346BB
:1003210074FFBF0129F0A3741CF0A374CFF0A37470
:1003310001F0A37400F0A37492F0A374FFF0A3740E
:100341001CF0A37498F07BFF7A1C798C800FF0A3CA
:10035100741CF0A374D9F07BFF7A1C79A212154AA0
:100361009002FCE0FEA3E0AA06F97BFFC003900324
:10037100D97401F0A37400F0A37492F0A3EBF0A37D
:10038100741CF0A37489F0A374F4F0D003122DE26D
:10039100900489EFF090034674FFBF0129F0A37424
:1003A1001CF0A374E6F0A37401F0A37400F0A3742D
:1003B10092F0A374FFF0A3741CF0A37498F07BFF78
:1003C1007A1C798C800FF0A3741CF0A374F3F07B7A
:1003D100FF7A1C79A212154A900304E0FEA3E0AA59
:1003E10006F97BFFC0039003D97401F0A37400F0F8
:1003F100A37492F0A3EBF0A3741CF0A37489F0A38F
:1004010074F4F0D003122DE2900489EFF0900346CA
:1004110074FFBF0129F0A3741DF0A37403F0A3744A
:1004210001F0A37400F0A37492F0A374FFF0A3741D
:100431001CF0A37498F07BFF7A1C798C800FF0A3D9
:10044100741DF0A37411F07BFF7A1C79A212154A76
:100451009002EBE0FEA3E0AA06F97BFFC003900344
:10046100D97401F0A37400F0A37492F0A3EBF0A38C
:10047100741CF0A37489F0A374F4F0D003122DE27C
:10048100900489EFF090034674FFBF0129F0A37433
:100491001DF0A37424F0A37401F0A37400F0A374FD
:1004A10092F0A374FFF0A3741CF0A37498F07BFF87
:1004B1007A1C798C800FF0A3741DF0A3742EF07B4D
:1004C100FF7A1C79A212154A9002D7E0FEA3E0AA96
:1004D10006F97BFFC0039003D97401F0A37400F007
:1004E100A37492F0A3EBF0A3741CF0A37489F0A39E
:1004F10074F4F0D003122DE2900489EFF0900346DA
:1005010074FFBF0129F0A3741DF0A37441F0A3741B
:1005110001F0A37400F0A37492F0A374FFF0A3742C
:100521001CF0A37498F07BFF7A1C798C800FF0A3E8
:10053100741DF0A3744FF07BFF7A1C79A212154A47
:1005410090030EE0FEA3E0AA06F97BFFC00390032F
:10055100D97401F0A37400F0A37492F0A3EBF0A39B
:10056100741CF0A37489F0A374F4F0D003122DE28B
:10057100900489EFF090034674FFBF0129F0A37442
:100581001DF0A37464F0A37401F0A37400F0A374CC
:1005910092F0A374FFF0A3741CF0A37498F07BFF96
:1005A1007A1C798C800FF0A3741DF0A3746EF07B1C
:1005B100FF7A1C79A212154A9002EBE0FEA3E0AA91
:1005C10006F97BFFC0039003D97401F0A37400F016
:1005D100A37492F0A3EBF0A3741CF0A37489F0A3AD
:1005E10074F4F0D003122DE2900489EFF0900346E9
:1005F10074FFBF0129F0A3741DF0A3747DF0A374EF
:1006010001F0A37400F0A37492F0A374FFF0A3743B
:100611001CF0A37498F07BFF7A1C798C800FF0A3F7
:10062100741DF0A37485F07BFF7A1C79A212154A20
:100631009002D3E0FEA3E0AA06F97BFFC00390037A
:10064100D97401F0A37400F0A37492F0A3EBF0A3AA
:10065100741CF0A37489F0A374F4F0D003122DE29A
:10066100900489EFF090034674FFBF0129F0A37451
:100671001DF0A37496F0A37401F0A37400F0A374A9
:1006810092F0A374FFF0A3741CF0A37498F07BFFA5
:100691007A1C798C800FF0A3741DF0A374A2F07BF7
:1006A100FF7A1C79A212154A90042674FFF0A374F4
:1006B1001DF0A374B1F07B017A007992122F78EAD0
:1006C100494B703F9002D1E0FEA3E0AA06F97BFFFF
:1006D100C0039003D97401F0A37400F0A37492F0E5
:1006E100A3EBF0A3741CF0A37489F0A374F4F0D00D
:1006F10003122DE290034674FFF0A3741DF0A3745E
:10070100B7805990042674FFF0A3741DF0A374BE42
:10071100F07B017A007992122F78EA494B705F9051
:1007210002DDE0FEA3E0AA06F97BFFC0039003D936
:100731007401F0A37400F0A37492F0A3EBF0A3741E
:100741001CF0A37489F0A374F4F0D003122DE2908D
:10075100034674FFF0A3741DF0A374C4F0A37401E5
:10076100F0A37400F0A37492F0A374FFF0A3741CBF
:10077100F0A37498F07BFF7A1C798C12154A9003D0
:1007810006E0FEA3E0AA06F97BFFC0039003D9743B
:1007910001F0A37400F0A37492F0A3EBF0A3741C16
:1007A100F0A37489F0A374F4F0D003122DE2900445
:1007B10089EFF090034674FFBF0129F0A3741DF087
:1007C100A374CBF0A37401F0A37400F0A37492F0AE
:1007D100A374FFF0A3741CF0A37498F07BFF7A1C40
:1007E100798C800FF0A3741DF0A374D9F07BFF7A8C
:1007F1001C79A212154A900310E0FEA3E0AA06F9A3
:100801007BFFC0039003D97401F0A37400F0A374BB
:1008110092F0A3EBF0A3741CF0A37489F0A374F419
:10082100F0D003122DE2900489EFF090034674FF9B
:10083100F0A3741DF0A374ECF0A37401F0A3740091
:10084100F0A37492F0A374FFF0A3741CF0A3749846
:10085100F07BFF7A1C798C12154A90030CE0FEA301
:10086100E0AA06F990047574FFF0A3EAF0A3E9F099
:10087100900486E0FBA3E0FAA3E0F91236C09004ED
:1008810083E0FBA3E0FAA3E0F9900003120C989037
:100891000475EBF0A3EAF0A3E9F0900486E0FBA372
:1008A100E0FAA3E0F91236C0900486E0F9A3E0FA79
:1008B100A3E0900346C9F0A3EAF0A3E9F07BFF7A35
:1008C1001D79F812154A9003D97401F0A37400F050
:1008D100A37492F0A374FFF0A3741EF0A37404F048
:1008E100A374E8F0900486E0FBA3E0FAA3E0F91218
:1008F1002DE29002F1EFF090034674FFBF0129F061
:10090100A3741EF0A3740CF0A37401F0A37400F09F
:10091100A37492F0A374FFF0A3741CF0A37498F075
:100921007BFF7A1C798C800FF0A3741EF0A37418DE
:0A093100F07BFF7A1C79A212154A30
:01093B002299
:1035E100900405EBF0A3EAF0A3E9F0900405E0FBF9
:1035F100A3E0FAA3E0F912093C6050900402E0F95B
:10360100A3E0FAA3E0900408C9F0A3EAF0A3E9F06B
:10361100900408E0FBA3E0FAA3E0F912093CFF6083
:103621001E900405E0FBA3E0FAA3E0F912093CB502
:10363100070122900409E475F001120A0B80D19070
:103641000406E475F001120A0B80A07B007A007970
:013651000078
:013652002255
:0B32CE0090040BEBF0A3EAF0A3E9F082
:1032D900120C29900411EBF0A3EAF0A3E9F0AE0275
:1032E9004E7004FBFAF92290040EE0F9A3E0FAA368
:1032F900E0900402C9F0A3EAF0A3E9F0900411E018
:10330900FBA3E0FAA3E0F91235E1900414EBF0A372
:10331900EAF0A3E9F04A4B6014900414E0FBA3E43B
:1033290075F001120A21A9F0FAE412098290041435
:10333900E0FBA3E0FAA3E0F9C003C002C0019004D6
:103349000BE0FBA3E0FAA3E0F9120C49900411E0A9
:07335900FBA3E0FAA3E0F979
:01336000224A
:0B303700900460EBF0A3EAF0A3E9F0C6
:10304200A3EBF0A3EAF0A3E9F0900460E0F9A3E0B7
:10305200FAA3E0900466C9F0A3EAF0A3E9F09004B1
:1030620063E0FBA3E0FAA3E0F912093CFF642060ED
:1030720004EFB4090C900464E475F001120A0B80A9
:10308200DD900463E0FBA3E475F001120A21A9F0CC
:10309200FA12093CFF900466E0FBA3E475F001120A
:1030A2000A21A9F0FAEF12098270D690046774FF20
:1030B20075F0FE801E900466E0FBA3E0FAA3E0F93F
:1030C20012093CFF64206004EFB4090C9004677499
:1030D200FFF5F0120A0B80DD900001E412099490D2
:0A30E2000460E0FBA3E0FAA3E0F9AC
:0130EC0022C1
:0B2C2F00900417EBF0A3EAF0A3E9F01B
:102C3A00A3EBF0A3EAF0A3E9F0900417E0F9A3E00C
:102C4A00FAA3E090041DC9F0A3EAF0A3E9F0900406
:102C5A0017E0F9A3A3E0900420C9F0A3EAF0A3E9DE
:102C6A00F090041AE0FBA3E0FAA3E0F912093CFF92
:102C7A0064206004EFB4090C90041BE475F001129F
:102C8A000A0B80DD90041AE0FBA3E0FAA3E0F91234
:102C9A00093CFF90041DE0FBA3E0FAA3E0F9EF1260
:102CAA000982604090041DE0FBA3E0FAA3E0F91258
:102CBA00093CFF64206017EF64096012E92401F9F6
:102CCA00E43AFA900420EBF0A3EAF0A3E9F09004C6
:102CDA001EE475F001120A0B90041BE475F0011250
:102CEA000A0B80A0900420E0FBA3E0FAA3E0F9E439
:0E2CFA00120982900417E0FBA3E0FAA3E0F9B0
:012D080022A8
:0B2B2F0090043AEBF0A3EAF0A3E9F0F9
:102B3A00E4900440F0A3F012002EEF24FFFFEE34DD
:102B4A00FF900442F0A3EFF090043AE0FBA3E0FA0E
:102B5A00A3E0F9900440E0FEA3E0F5828E83120917
:102B6A0055FF64206004EFB40910900441E004F0BA
:102B7A0070D6900440E004F080CE90043AE0FBA3C3
:102B8A00E0FAA3E0F9900442E0FEA3E0F5828E8326
:102B9A00120955FF64206004EFB40910900443E061
:102BAA0024FFF0900442E034FFF080CE90043AE033
:102BBA00FBA3E0FAA3E0F9900440E0FEA3E0FFE9FA
:102BCA002FF9EA3EFA900447EBF0A3EAF0A3E9F002
:102BDA00C3900443E09FFF900442E09ECF2401CFBC
:102BEA00340090044AF0A3EFF090043DE0FBA3E028
:102BFA00FAA3E0F912372B900440E0FEA3E0FFC3EA
:102C0A00900443E09FFF900442E09ECF2401CF341A
:102C1A0000FE90043DE0FBA3E0FAA3E0F98F828E68
:052C2A0083E40209949F
:083B90009004B9EEF0A3EFF080
:103B98001200599004BBEEF0A3EFF0120059AB07E6
:103BA800AA069004B9E0FEA3E0FF7C007D0A120992
:103BB800B6A3E0FCA3E0FDC3EB9DFDEA9CFCC3EDCE
:053BC8009FEC9E40D6B9
:013BCD0022D5
:0E3E670000007F2B7E067DCBDDFEDEFCDFFA49
:013E7500222A
:10241C00EFD3940540037F012212093CFED39403B1
:10242C0040037F0222EF7041EE700B900001120905
:10243C0055F45293529412093CB4010B90000112C2
:10244C0009554293F4529412093CFEB4020A9000CE
:10245C000112095542934294EEB4030D90000112FF
:10246C000955FEF45293EE4294EF64017043120945
:10247C003CFE700B900001120955F452915292EEF1
:10248C00B4010B9000011209554291F452921209B9
:10249C003CB4020A90000112095542914292120971
:1024AC003CB4030D900001120955FEF45291EE421A
:1024BC0092EF6402704312093CFE700B9000011203
:1024CC000955F452955296EEB4010B900001120985
:1024DC00554295F4529612093CB4020A900001122E
:1024EC0009554295429612093CB4030D9000011215
:1024FC000955FEF45295EE4296EF640370431209AF
:10250C003CFE700B900001120955F452B152B2EE20
:10251C00B4010B90000112095542B1F452B21209E8
:10252C003CB4020A90000112095542B142B21209A0
:10253C003CB4030D900001120955FEF452B1EE4269
:10254C00B2EF6404704312093CFE700B9000011250
:10255C000955F452B352B4EEB4010B9000011209B8
:10256C005542B3F452B412093CB4020A9000011261
:10257C00095542B342B412093CB4030D9000011248
:10258C000955FEF452B3EE42B4EF640570431209E0
:10259C003CFF700B900001120955F452C952CAEF5E
:1025AC00B4010B90000112095542C9F452CA120928
:1025BC003CB4020A90000112095542C942CA1209E0
:1025CC003CB4030D900001120955FFF452C9EF42BF
:0425DC00CA7F002290
:1011640090046AEBF0A3EAF0A3E9F0900469EFF0CD
:101174006401600302137A90000404F0E4A3F0A372
:10118400F0A3F0A3F0A3F0A3F0900001F090046D9D
:10119400F090046DE0FFC39480501474122FF58214
:1011A400E43401F583E4F090046DE004F080E2E4BB
:1011B40090046DF090046DE0FFC394805014741299
:1011C4002FF582E43400F583E4F090046DE004F03C
:1011D40080E290046AE0FBA3E0FAA3E0F912093C80
:1011E400D394C040037F022290000A120955B4012F
:1011F40004D2BC8002C2BC12093CFFE598543F4FA4
:10120400F598EF64C06008EF644060030212F49044
:101214000002120BB07F007E307D2A7C00120AFA95
:1012240090046E120BE0E4FFFE7D01FC90046EE07E
:10123400F8A3E0F9A3E0FAA3E0FBC3120B8C40038C
:101244007F022290046EE0F8A3E0F9A3E0FAA3E0A1
:10125400FBC3E49BFFE49AFE740199FDE498FC90BF
:10126400046E120BE090046AE0FBA3E0FAA3E0F939
:10127400900001120955FB64017038C28E538EFE32
:101284005389BF5389CF438E4090046EE0FCA3E0A2
:10129400FDA3E0FEA3E0FF7808120B9D8F8D900460
:1012A4006EA3A3A3E0F58BC2AB5389BF538FFDD2CA
:1012B4008E8076EB64027035538EEF438E01538E2D
:1012C400F7438E0490046EE0FCA3E0FDA3E0FEA3CC
:1012D400E0FF7808120B9D8FD690046EA3A3A3E0C1
:1012E400F5D753AFFB538EF7438E10803C7F022219
:1012F40090046AE0FBA3E0FAA3E0F912093CFF7052
:1013040013900008120955B40105438E20801A5326
:101314008EDF8015EFB48011900008120955B401D6
:1013240005438780800353877F90046AE0FBA3E032
:10133400FAA3E0F9900009120955B40104D2AC8073
:1013440002C2AC900007120955B40104D29C800279
:10135400C29C90000B12095554C0FFE5A2543F4FA4
:10136400F5A290000C120955B401054397108003AF
:101374005397EF7F0022900469E064026003021433
:10138400DC90000B7402F0E4A3F0A3F0A3F0A3F04C
:10139400A3F0A3F090046DF090046DE0FFC394807B
:1013A400501474922FF582E43401F583E4F0900430
:1013B4006DE004F080E2E490046DF090046DE0FFD1
:1013C400C39480501474922FF582E43400F583E4BE
:1013D400F090046DE004F080E290046AE0FBA3E086
:1013E400FAA3E0F912093CFF64C06008EF644060AE
:1013F4000302149C90000A120955B4010543B50177
:10140400800353B5FE12093CB4C005439A8080039F
:10141400539A7F900002120BB07F007E307D2A7CAD
:1014240000120AFA90046E120BE0E4FFFE7D01FC48
:1014340090046EE0F8A3E0F9A3E0FAA3E0FBC31282
:101444000B8C40037F022290046EE0F8A3E0F9A322
:10145400E0FAA3E0FBC3E49BFFE49AFE740199FD68
:10146400E498FC90046E120BE0538EEF538EF74316
:101474008E0490046EE0FCA3E0FDA3E0FEA3E0FF75
:101484007808120B9D8FD690046EA3A3A3E0F5D722
:1014940053AFFB438E1080037F022290046AE0FB6B
:1014A400A3E0FAA3E0F9900009120955B401054339
:1014B400AF01800353AFFE900007120955B4010534
:1014C400439A108003539AEF90000B12095554016C
:0A14D400FFE5BA54FE4FF5BA7F039E
:0114DE0022EB
:030023000233EDB8
:0D33ED00C0E0C0F0C083C082C0D075D01019
:1033FA0030983EC29890000AE07036900498E59999
:10340A00F07F0A7E00123DA9900008E0C394804034
:10341A0002E4F0900498E0FF900008E0FE04F074E3
:10342A00122EF582E43400F583EFF090000974055A
:10343A00F0900498E0FF3395E0FEEF64AF4E70061B
:10344A00900213E004F0900213E0B4050AE599B47F
:10345A007F0575C760E4F0309907C299900007E4C8
:01346A00F071
:0B346B00D0D0D082D083D0F0D0E0326F
:03004300023793EE
:10379300C0E0C0F0C083C082C0D075D018E59A30B5
:1037A300E034539AFE900011E0702B7F0AFE123D25
:1037B300CC90000FE0C394804002E4F090000FE04F
:1037C300FF04F074922FF582E43400F583E59BF057
:1037D3009000107405F0E59A30E108539AFD9000CB
:0E37E3000EE4F0D0D0D082D083D0F0D0E0320F
:0F3E7600900007E070FA9000077401F08F992216
:1000460012093CFF600C123E76740129F9E43AFA73
:0300560080EE2217
:0B3CD5009004C9EBF0A3EAF0A3E9F0B3
:103CE000E4FEEEC39D501A9004C9E0FBA3E0FAA3E2
:103CF000E0F98E82758300120955FF123E760E8020
:013D0000E1E1
:013D0100229F
:0F3E850090000EE070FA90000E7401F08F9B22F7
:103E320012093CFF600C123E85740129F9E43AFA3A
:033E420080EE22ED
:0B3D02009004CCEBF0A3EAF0A3E9F082
:103D0D00E4FEEEC39D501A9004CCE0FBA3E0FAA3B1
:103D1D00E0F98E82758300120955FF123E850E80E3
:013D2D00E1B4
:013D2E002272
:03000B0002000EE2
:0D000E00C0E0050EE50E7002050DD0E032D9
:03001B00020022BE
:0100220032AB
:0300630002002672
:0100260032A7
:1025E000AD07EDD3940240037F0122ED6003022684
:1025F00074C28C900002120955B40104D2A9800261
:10260000C2A9900001120955B40104D2B98002C2D6
:10261000B912093CFED3940340037F0222E589549A
:10262000FC4EF589900003120955FFB40103538E47
:102630007FEF7003438E80EFB4020543890480036B
:102640005389FB900004120955B40105438F0180A2
:1026500003538FFE900005120A37E5F0F58C9000C9
:1026600005120A37F58A900007120955B40102D203
:102670008C7F0022ED640160030226FFC28E900071
:1026800002120955B40104D2AB8002C2AB90000122
:10269000120955B40104D2BB8002C2BB12093CFE30
:1026A000C3940340037F0222E58954CF4EF58990FD
:1026B0000003120955FFB40103538EBFEF700343AB
:1026C0008E40EFB4020543894080035389BF9000D8
:1026D00004120955B40105438F028003538FFD9006
:1026E0000005120A37E5F0F58D900005120A37F55E
:1026F0008B900007120955B40102D28E7F0022EDA3
:1027000064027074538EEF900002120955B40105F3
:1027100043AF04800353AFFB900003120955FED36F
:10272000940240037F0222EEB40103538EFB90001B
:10273000031209557003438E04900003120955B427
:102740000205438E088003538EF79000041209554A
:10275000B40105438F048003538FFB900005120AD8
:1027600037FDACF0ECF5D68DD7900007120955B4C3
:0B2770000103438E107F00227F022235
:0E3E9400E4F5C7F5C5F5C675C3FF75C4FF227A
:103B1200AD07AC06C2AF75C78375C501ECF5C3AF7F
:103B2200058FC475C65A75C6A500E5C21209820D75
:103B3200BD00010C740129F9E43AFA90048F74FF74
:0F3B4200F5F0120A0B45F070D3123E94D2AF2269
:103E1200AD07AC06C2AFECF5C3AF058FC475C7835F
:103E220075C50375C65A75C6A500123E94D2AF2257
:103B5100AD07AC06C2AF75C78375C502ECF5C3AF3F
:103B6100058FC412093CF5C275C65A75C6A5000D6C
:103B7100BD00010C740129F9E43AFA90049674FF2E
:0F3B8100F5F0120A0B45F070D3123E94D2AF222A
:1039040012093CF59D900001120955FFE5BC549F36
:103914004FF5BC900002120955B4010543BC8080E8
:103924000353BC7F900003120955B401054397204B
:1039340080035397DF900005120955B40104D2ADFA
:103944008002C2AD900004120955B40103D2BD2215
:03395400C2BD22CF
:0C3EBA00EFB4010443BC802253BC7F2203
:1037F100EFD3940740028051E4F5BDF5BEE5BC541A
:10380100E044084FF5BC00000000E4FBE5BC30E4F7
:103811003353BCEFE59730E509E5BD5403ADBEFC7C
:10382100801DAFBD7C00AD07ED7E007802C333CEB5
:1038310033CED8F9FFE5BE5403FDEEFCEF4DFDAFED
:0D38410005AE04220BEBB4FAC37E047F0039
:01384E002257
:03002B0002001EB2
:04001E0053BCEF32AE
:0300000002336167
:0C336100787FE4F6D8FD7581210233A8C6
:10093C00BB010689828A83E0225002E722BBFE02B9
:09094C00E32289828A83E49322EC
:10095500BB010CE58229F582E5833AF583E0225057
:1009650006E92582F8E622BBFE06E92582F8E222A1
:0D097500E58229F582E5833AF583E49322BB
:10098200BB010689828A83F0225002F722BBFE0154
:02099200F3224E
:10099400F8BB010DE58229F582E5833AF583E8F099
:1009A400225006E92582C8F622BBFE05E92582C845
:0209B400F2222D
:1009B600BC000BBE0029EF8DF084FFADF022E4CC25
:1009C600F875F008EF2FFFEE33FEEC33FCEE9DECEE
:1009D600984005FCEE9DFE0FD5F0E9E4CEFD22ED34
:1009E600F8F5F0EE8420D21CFEADF075F008EF2F7E
:1009F600FFED33FD4007985006D5F0F222C398FD6F
:050A06000FD5F0EA220B
:100A0B00C5F0F8A3E028F0C5F0F8E5821582700276
:060A1B001583E038F02213
:100A2100A3F8E0C5F025F0F0E58215827002158388
:060A3100E0C838F0E822E5
:100A3700BB0110E58229F582E5833AF583E0F5F0FD
:100A4700A3E0225009E92582F886F008E622BBFEDA
:100A57000AE92582F8E2F5F008E222E5832AF58320
:080A6700E993F5F0A3E99322E5
:100A6F00E88FF0A4CC8BF0A42CFCE98EF0A42CFC26
:100A7F008AF0EDA42CFCEA8EF0A4CDA8F08BF0A4A4
:100A8F002DCC3825F0FDE98FF0A42CCD35F0FCEB03
:100A9F008EF0A4FEA9F0EB8FF0A4CFC5F02ECD39C8
:0F0AAF00FEE43CFCEAA42DCE35F0FDE43CFC2235
:100ABE0075F008758200EF2FFFEE33FECD33CDCCEF
:100ACE0033CCC58233C5829BED9AEC99E582984072
:100ADE000CF582EE9BFEED9AFDEC99FC0FD5F0D64F
:100AEE00E4CEFBE4CDFAE4CCF9A88222B800C1B979
:100AFE000059BA002DEC8BF084CFCECDFCE5F0CBB7
:100B0E00F97818EF2FFFEE33FEED33FDEC33FCEBEF
:100B1E0033FB10D703994004EB99FB0FD8E5E4F9AA
:100B2E00FA227818EF2FFFEE33FEED33FDEC33FC97
:100B3E00C933C910D7059BE99A4007EC9BFCE99A8B
:100B4E00F90FD8E0E4C9FAE4CCFB2275F010EF2FD0
:100B5E00FFEE33FEED33FDCC33CCC833C810D707D0
:100B6E009BEC9AE899400AED9BFDEC9AFCE899F80B
:0E0B7E000FD5F0DAE4CDFBE4CCFAE4C8F9229E
:100B8C00EB9FF5F0EA9E42F0E99D42F0E89C45F0BF
:010B9C002236
:100B9D00E8600FECC313FCED13FDEE13FEEF13FF36
:030BAD00D8F1225A
:100BB000BB010DE58229F582E5833AF583020D013B
:100BC0005007E92582F8020CF4BBFE07E92582F8FC
:100BD000020D0DE58229F582E5833AF583020D1AAF
:0C0BE000ECF0A3EDF0A3EEF0A3EFF02288
:100BEC00A8828583F0D083D082120C03120C0312DE
:100BFC000C03120C03E473E493A3C583C5F0C58303
:100C0C00C8C582C8F0A3C583C5F0C583C8C582C852
:010C1C0022B5
:0C0C1D00A42582F582E5F03583F58322E2
:100C2900BB010789828A83020D3C5005E9F8020D50
:100C39002ABBFE05E9F8020D6589828A83020D77D0
:100C4900BB011A89828A83D0F0D0E0F8D0E0F9D0CC
:100C5900E0FAD0E0FBE8C0E0C0F0020D5C5016E914
:100C6900F8D083D082D0E0F9D0E0FAD0E0FBC0829E
:100C7900C083020D33BBFE16E9F8D083D082D0E0E1
:0F0C8900F9D0E0FAD0E0FBC082C083020D6E22EA
:100C9800BB010DE58229F582E5833AF583020D3C17
:100CA8005007E92582F8020D2ABBFE07E92582F8DC
:100CB800020D65E58229F582E5833AF583020D7711
:1014DF00E5082446F582E43403F583E005082290FD
:1014EF000343300703900346E475F001120D4502E4
:1014FF00093C2000E97F2ED2008018EF540F249072
:10150F00D43440D4FF30040BEF24BFB41A0050037F
:10151F002461FFE50960021509050CE50C70020551
:10152F000B30070E900343E475F001120D45EF02E7
:10153F000982023E577403D2078003E4C207F508FD
:10154F00900343120D5CE4F509F50BF50CE509600A
:10155F00077F2012152280F5750AFFC201C200C253
:10156F0002C203C205C206C2081214EEFF700D308C
:10157F0007057F00121533AF0CAE0B22B4255FC2E7
:10158F00D5C2041214EEFF24D0B40A00501A75F01D
:10159F000A780930D50508B6FF0106C6A426F6203D
:1015AF00D5047002D20380D924CFB41A00EF5004AF
:1015BF00C2E5D204021734D20180C6D20080C0D255
:1015CF000280BCD2D580BAD20580B47F20121522FA
:1015DF002002077401B5090040F11214DFFF121544
:1015EF002202155CD208D20680951214DFFB12146A
:1015FF00DFFA1214DFF94A4B700679057A187BFF70
:10160F0020022EE509602A7E008E82758300120962
:10161F005560060EEE650A70F0C2D5EBC0E0EAC069
:10162F00E0E9C0E0EE12177BD0E0F9D0E0FAD0E0AD
:10163F00FB12093CFF60AAEBC0E0EAC0E0E9C0E0A2
:10164F00121522D0E02401F9D0E03400FAD0E0FBEB
:10165F00E50A0460DCD50AD980877BFF7A17797792
:10166F00D202809C791080027908C206C2088008D5
:10167F00D2D5790A8004790AC2D5E50A047002F539
:10168F000AE4FAFDFEFF1214DFFC7B08200113129F
:10169F0014DFFD7B1030000A1214DFFE1214DFFF7F
:1016AF007B20EC3382D592D55013C3E43000069FD4
:1016BF00FFE49EFEE42001039DFDE49CFCE4CBF8D7
:1016CF00C201EC700CCFCECDCCE824F8F870F380CB
:1016DF0017C3EF33FFEE33FEED33FDEC33FCEB338B
:1016EF00FB994002FB0FD8E9EB300105F8D0E0C4BD
:1016FF0048B201C0E00AEC4D4E4F78207B0070C21B
:10170F00EAB50A0040BCC0E012177DD0F0D0E0204F
:10171F000104C4C0E0C4B201C0F012150BD0F0D563
:10172F00F0EB02155C120D8315F95316735815CA99
:10173F004C15C64216774F167F44167F4915DF4367
:08174F0016855516694616695E
:101757004516694718255015CE2D15D22E15F52B90
:1017670015D62315F320180E2A158E48000015EDFF
:101777003F3F3F00790AA2D5200314300509B9106D
:10178700020404B9080104A2D5200602500104206E
:1017970002689202B509005034C0E07F2030031977
:1017A7007F30A20272067205500F1217D4C202C20E
:1017B70006C205C2087F30800F300503E9C0E0127A
:1017C7001522300503D0E0F9D0E0B509CC30051774
:1017D7007F30B9100C1215227F583004077F7880AC
:1017E70003B908031215223002057F2D0215227F47
:1017F700202008F87F2B2006F322920280CF286E44
:10180700756C6C2900D2011214DF3001F8C201781F
:101817000930D50108F602158E2D50434958121488
:10182700DF2403B405004001E49018209312151338
:0D183700743A121513D203750904021673DA
:1036C000900472EBF0A3EAF0A3E9F0900478EBF039
:1036D000A3EAF0A3E9F0900472E0FBA3E475F00123
:1036E000120A21A9F0FA12093C70EB90047374FFDE
:1036F000F5F0120A0B900475E0FBA3E475F00112DB
:103700000A21A9F0FA12093CFF900472E0FBA3E43D
:1037100075F001120A21A9F0FAEF12098270D69011
:0B3720000478E0FBA3E0FAA3E0F9222C
:10372B00900444EBF0A3EAF0A3E9F0E490044CF02E
:10373B00A3F090044A74FFF5F0120A2145F0603CA7
:10374B00900447E0FBA3E0FAA3E0F912093CFF90D9
:10375B000444E0FBA3E0FAA3E0F990044CE475F019
:10376B0001120A2185F082F583EF120994EF60C2F2
:10377B00900448E475F001120A0B80B6900444E003
:08378B00FBA3E0FAA3E0F92220
:10002E00E4FFFE12093C600C0FEF70010E09E9703F
:05003E00F20A80EF2230
:102F7800900423EBF0A3EAF0A3E9F0A3E0FBA3E0BD
:102F8800FAA3E0F912093C7003023024900423E00C
:102F9800FBA3E0FAA3E0F912093C70030230309079
:102FA8000426E0F9A3E0FAA3E0A3C9F0A3EAF0A39A
:102FB800E9F0900423A3E0FAA3E0F990042CEBF0E5
:102FC800A3EAF0A3E9F0900429E0FBA3E0FAA3E068
:102FD800F912093CFF602690042CE0FBA3E0FAA359
:102FE800E0F912093C6F701590042A75F001120A75
:102FF8000B90042DE475F001120A0B80C990042986
:10300800E0FBA3E0FAA3E0F912093C7002800D90FE
:103018000424E475F001120A0B022F94900423E0B3
:0F302800FBA3E0FAA3E0F9227B007A00790022F3
:100CC800EF4E6012EF60010EEDBB010B89828A8343
:100CD800F0A3DFFCDEFA2289F05007F709DFFCA950
:0C0CE800F022BBFEFCF309DFFCA9F022A7
:10336D00023E45E493A3F8E493A34003F68001F2F3
:10337D0008DFF48029E493A3F85407240CC8C33361
:10338D00C4540F4420C8834004F456800146F6DF30
:10339D00E4800B0102040810204080903233E47E5B
:1033AD00019360BCA3FF543F30E509541FFEE49325
:1033BD00A360010ECF54C025E060A840B8E493A3EC
:1033CD00FAE493A3F8E493A3C8C582C8CAC583CA17
:1033DD00F0A3C8C582C8CAC583CADFE9DEE780BECF
:0132CD000000
:0D0CF400E6FB08E6F908E6FA08E6CBF82270
:0C0D0100E0F8A3E0F9A3E0FAA3E0FB2275
:0D0D0D00E2FB08E2F908E2FA08E2CBF82266
:100D1A00E493F8740193F9740293FA740393FB222F
:090D2A00E6FB08E6FA08E6F922EE
:090D3300EBF608EAF608E9F622E5
:090D3C00E0FBA3E0FAA3E0F922B8
:100D4500F8E0FBA3A3E0F925F0F0E5821582700237
:070D55001583E0FA38F022DB
:090D5C00EBF0A3EAF0A3E9F02298
:090D6500E2FB08E2FA08E2F922BF
:090D6E00EBF208EAF208E9F222B6
:0C0D7700E493FB740193FA740293F922D8
:100D8300D083D082F8E4937012740193700DA3A3FF
:100D930093F8740193F5828883E473740293686013
:060DA300EFA3A3A380DF13
:00000001FF
