:101A49009003C974FFF0E49003C8F07B017A03792D
:101A5900C8FF120C7D7B017A0379C87F01120C7DC6
:101A69007B017A0379C87F02120C7D7B017A0379A5
:061A7900C87F03020C7D92
:1017E1009003C87440F0A37401F0A31203BD00007C
:1017F10009609003CF7401F0E4A3F0A304F0E4A323
:10180100F0A3F0A3F07B017A0379C87F011206A34C
:101811009003C87440F09003CA1203BD00002580F4
:101821009003CF7401F09003D1F0E4A3F0A3F07B17
:0A183100017A0379C87F020206A3C2
:0C1C3700121A491217E1121BB4D2AF229E
:06003B00121C37021367DE
:101C0A00EFB40A0675990D3099FD8F993099FD2226
:04188B0041043900DB
:01004100229C
:05001E00D292D2832202
:101367009003C81203BD000000009003CC1203BD18
:101377000000000012004112001E75C12712005A1A
:10138700E4FCFD9003C81203B19003CCE0F8A3E09E
:10139700F9A3E0FAA3E0FB9003C8E0FCA3E0FDA3F8
:1013A700E0FEA3E0C39BFFEE9AFEED99FDEC98FCEF
:1013B700E47BC8FAF9F8C312035D50C1D29643C162
:1013C700107B017A0379D01218D5EF4E7010FE7F8B
:1013D7000C7DFF7B017A0379D012045D8064005392
:1013E7009AEF009003D0E0FFA3E090039FCFF0A314
:1013F700EFF09003D2E0FFA3E090039BCFF0A3EFC1
:10140700F09003D4E0FFA3E09003A1CFF0A3EFF0A7
:101417009003D6E0FFA3E090039DCFF0A3EFF090F9
:1014270003D8E0FFA3E0900294CFF0A3EFF090037E
:10143700DAE0FFA3E0900285CFF0A3EFF000439A34
:10144700100012005AE4FCFD9003CC1203B1021302
:011457008410
:101B6E0090045DEEF0A3EFF012005A900433EEF005
:101B7E00A3EFF090045DE0FFA3E0900431CFF0A35B
:031B8E00EFF02253
:101B910090045FEEF0A3EFF012005A900437EEF0DC
:101BA100A3EFF090045FE0FFA3E0900435CFF0A332
:031BB100EFF02230
:101A7F009003E8E0D39400402812005A900433E01A
:101A8F00FCA3E0FDC3EF9DFFEE9CFEC3900432E08C
:101A9F009F900431E09E5009E49003E8F09003E733
:011AAF00F046
:011AB0002213
:101AB1009003EFE0D39400402812005A900437E0DD
:101AC100FCA3E0FDC3EF9DFFEE9CFEC3900436E056
:101AD1009F900435E09E5009E49003EFF09003EEEF
:011AE100F014
:011AE20022E1
:04188F00020800004B
:101BB400E49003C8F0A304F0A3F0A3F0E4A3F0A31B
:101BC40074DCF0A3E4F0A304F0FB7A0379C8E4FF27
:031BD400020E41BD
:08005A00C28CAE08AF09D28C84
:01006200227B
:101707009003FFEBF0A3EAF0A3E9F09003FFE0FBFF
:10171700A3E0FAA3E0F912015C60509003FCE0F942
:10172700A3E0FAA3E0900402C9F0A3EAF0A3E9F06A
:10173700900402E0FBA3E0FAA3E0F912015CFF606A
:101747001E9003FFE0FBA3E0FAA3E0F912015CB5EA
:10175700070122900403E475F00112022B80D19057
:101767000400E475F00112022B80A07B007A007957
:011777000071
:01177800224E
:0B15E800900405EBF0A3EAF0A3E9F08B
:1015F3001203EE90040BEBF0A3EAF0A3E9F0AE02C2
:101603004E7004FBFAF922900408E0F9A3E0FAA370
:10161300E09003FCC9F0A3EAF0A3E9F090040BE027
:10162300FBA3E0FAA3E0F912170790040EEBF0A373
:10163300EAF0A3E9F04A4B601490040EE0FBA3E444
:1016430075F001120241A9F0FAE41201A290040E0E
:10165300E0FBA3E0FAA3E0F9C003C002C0019004D9
:1016630005E0FBA3E0FAA3E0F912040E90040BE0FB
:07167300FBA3E0FAA3E0F97C
:01167A00224D
:0B15320090043AEBF0A3EAF0A3E9F00C
:10153D00A3EBF0A3EAF0A3E9F090043AE0F9A3E0FD
:10154D00FAA3E0900440C9F0A3EAF0A3E9F09004F7
:10155D003DE0FBA3E0FAA3E0F912015CFF6420601B
:10156D0004EFB4090C90043EE475F00112022B80D7
:10157D00DD90043DE0FBA3E475F001120241A9F0FA
:10158D00FA12015CFF900440E0FBA3E475F0011238
:10159D000241A9F0FAEF1201A270D690044174FF36
:1015AD0075F0FE801E900440E0FBA3E0FAA3E0F985
:1015BD0012015CFF64206004EFB4090C90044174C7
:1015CD00FFF5F012022B80DD900001E41201B490C2
:0A15DD00043AE0FBA3E0FAA3E0F9F2
:0115E70022E1
:0B145800900411EBF0A3EAF0A3E9F010
:10146300A3EBF0A3EAF0A3E9F0900411E0F9A3E001
:10147300FAA3E0900417C9F0A3EAF0A3E9F09004FB
:1014830011E0F9A3A3E090041AC9F0A3EAF0A3E9D9
:10149300F0900414E0FBA3E0FAA3E0F912015CFF6F
:1014A30064206004EFB4090C900415E475F0011294
:1014B300022B80DD900414E0FBA3E0FAA3E0F91211
:1014C300015CFF900417E0FBA3E0FAA3E0F9EF123D
:1014D30001A26040900417E0FBA3E0FAA3E0F91235
:1014E300015CFF64206017EF64096012E92401F9CD
:1014F300E43AFA90041AEBF0A3EAF0A3E9F09004BB
:1015030018E475F00112022B900415E475F0011232
:10151300022B80A090041AE0FBA3E0FAA3E0F9E415
:0E1523001201A2900411E0FBA3E0FAA3E0F98C
:011531002297
:0B12670090041DEBF0A3EAF0A3E9F0F7
:10127200E4900423F0A3F0120026EF24FFFFEE34E3
:10128200FF900425F0A3EFF090041DE0FBA3E0FA29
:10129200A3E0F9900423E0FEA3E0F5828E8312011D
:1012A20075FF64206004EFB40910900424E004F098
:1012B20070D6900423E004F080CE90041DE0FBA3DE
:1012C200E0FAA3E0F9900425E0FEA3E0F5828E8324
:1012D200120175FF64206004EFB40910900426E047
:1012E20024FFF0900425E034FFF080CE90041DE04E
:1012F200FBA3E0FAA3E0F9900423E0FEA3E0FFE9F8
:101302002FF9EA3EFA90042AEBF0A3EAF0A3E9F0FF
:10131200C3900426E09FFF900425E09ECF2401CFD6
:10132200340090042DF0A3EFF0900420E0FBA3E042
:10133200FAA3E0F9121779900423E0FEA3E0FFC3B9
:10134200900426E09FFF900425E09ECF2401CF3435
:1013520000FE900420E0FBA3E0FAA3E0F98F828E66
:0513620083E40201B468
:10189300420294FFFF420285FFFF42039FFFFF4284
:1018A30003A1FFFF42039BFFFF42039DFFFF420390
:1018B3009900004102930041029600420397000001
:0418C300410284005A
:1019D700900451EBF0A3EAF0A3E9F0A3ECF0A3ED38
:1019E700F090045474FFF5F012024145F06019902D
:1019F7000451E0FBA3E475F001120241A9F0FA12C9
:091A0700015CFF12004680D922A7
:1018D5009003DCEBF0A3EAF0A3E9F0900296E06058
:1018E500310000539AEF0000E4F09003DCE0FBA325
:1018F500E0FAA3E0F8AC02AD037B017A0279877EBA
:10190500007F0C1201360000439A1000007E007F14
:061915000122E4FEFF22A6
:10183B00900287EEF0A3EFF0AF05900289ECF0A3D6
:10184B00EFF0AF0390028BEAF0A3EFF09003C2E04E
:10185B00FFA3E090028DCFF0A3EFF09003C4E0FF65
:10186B00A3E090028FCFF0A3EFF09003C6E0FFA3AD
:10187B00E0900291CFF0A3EFF09002967401F0226A
:10113C00E49003B7F0900284C3748094814002E47D
:10114C00F0900284E02497F582E43402F583EFF00A
:10115C00900284021239900284E0C394205003025E
:10116C00123FC2969003B7E0FF2497F582E4340255
:10117C00F583E06442600302123074982FF582E428
:0C118C003402F583E0644D600302123071
:101198009003B8F09003B7E02497F9E43402FA7B9F
:1011A800019003B9EBF0A3EAF0A3E9F0900006126E
:1011B8000257FFAEF0900008120257FDACF0900005
:1011C8000C120257FBAAF0C002C0039003B9E0FB5F
:1011D800A3E0FAA3E0F990000E120257FB9003C2B5
:1011E800E5F0F0A3EBF09003B9E0FB9000181202D1
:1011F80057FB9003C4E5F0F0A3EBF09003B9E0FBD4
:1012080090001A120257FB9003C6E5F0F0A3EBF02A
:10121800D003D00212183B900284E024E0F090033F
:08122800B7E02420F00211627E
:10123000900284E014F09003B7E004F00211629091
:1012400003B7E0FF6020900284E0F58275830074AC
:10125000972FF9E43402FA7B0178977C027D017EB6
:0612600000AF821206033C
:011266002265
:0D18C7004102030041020200420000000047
:01004200229B
:101A10009003B2EBF0A3EAF0A3E9F0A3ECF0A3ED9E
:101A2000F09003B574FFF5F012024145F060199093
:101A300003B2E0FBA3E475F001120241A9F0FA122F
:091A4000015CFF12000380D922B1
:0B0A1E009003AAEBF0A3EAF0A3E9F0BC
:100A2900A37401F0A37402F0A37404F09003AAE084
:100A3900FBA3E0FAA3E0F9900003120175FF90030C
:100A4900ADE0FBA3E0FAA3E0F974C31201A290039D
:100A5900ADE0FBA3E0FAA3E0F9900002743C1201B7
:100A6900B49003AAE0FBA3E0FAA3E0F99000031213
:100A79000175FE9003ADE0FBA3E0FAA3E0F9900055
:100A890003EE1201B490000174011201B4EF24FEC7
:100A99007003020B60046003020C7C9003ADE0FB61
:100AA900A3E0FAA3E0F990000474091201B49000DC
:100AB90005E41201B4900294E0FEA3E0900006124E
:100AC90001B4EE9000071201B490000874011201FC
:100AD900B4900285E0FEA3E09000091201B4EE9003
:100AE900000A1201B490000B74021201B49003A120
:100AF900E0FEA3E090000C1201B4EE90000D12018B
:100B0900B4E49003B0F0A3F09003B1E0FFC39409FB
:100B190050289003ADE0FBA3E0FAA3E02405F9E433
:100B29003AFA7E00E92FF9EE3AFA12015CFF9003D6
:100B3900B0E02FF0A3E004F080CE9003B0E0FF9086
:100B490003ADE0FBA3E0FAA3E0F990000EEF120178
:100B5900B490000F020C559003ADE0FBA3E0FAA39B
:100B6900E0F9900004740F1201B4900005E4120139
:100B7900B4900294E0FEA3E09000061201B4EE9056
:100B890000071201B490000874011201B4900285A3
:100B9900E0FEA3E09000091201B4EE90000A1201F0
:100BA900B490000B74021201B490039FE0FEA3E01D
:100BB90090000C1201B4EE90000D1201B490039B49
:100BC900E0FEA3E090000E1201B4EE90000F1201B6
:100BD900B49003A1E0FEA3E09000101201B4EE90DE
:100BE90000111201B490039DE0FEA3E090001212DF
:100BF90001B4EE9000131201B4E49003B0F0A3F035
:100C09009003B1E0FFC3940F50289003ADE0FBA31C
:100C1900E0FAA3E02405F9E43AFA7E00E92FF9EEB7
:100C29003AFA12015CFF9003B0E02FF0A3E004F060
:100C390080CE9003B0E0FF9003ADE0FBA3E0FAA300
:100C4900E0F9900014EF1201B490001574E7120155
:100C5900B49003ADE0FBA3E0FAA3E0F9900004121D
:100C690001752407FDE433FC7B017A027904121A29
:030C790010D297FF
:010C7C002255
:100FDC00E49003A3F0A3F0C3900000E0940240045B
:100FEC00E4F0A3F0900000E0FCA3E02402F582748E
:100FFC00003CF583EFF0900001E004F070069000E7
:10100C0000E004F0900000E0FEA3E0FFC39407EEC4
:10101C009400500302110E9003A3E0FCA3E0240201
:10102C00F974003CFA7B01A3EBF0A3EAF0A3E9F01E
:10103C0012015C64C360030210EC9003A5E0FBA3F7
:10104C00E0FAA3E0F9900002120175643C6003021F
:10105C0010EC900001120175640160030210EC9019
:10106C000004120175FDD394C850757C00ED240763
:10107C00FBEC33FAC3EF9BEE9A500302113B900347
:10108C00A4E02DFF9003A3E03CFE74082FF58274BE
:09109C00003EF583E064E77047B3
:1010A5009003A9F0C2979003A5E0FBA3E0FAA3E0A3
:1010B500F9120A1E9003A5E0FBA3E0FAA3E0F9905C
:1010C50000041201752407FFE433FEC3900001E01C
:1010D5009FF0900000E09EF09003A4E02FF09003B5
:0710E500A3E03EF002101031
:1010EC00900001E024FFF0900000E034FFF090034A
:1010FC00A4E004F060030210109003A3E004F002DB
:10110C0010109003A3E0FEA3E0FF4E6022900000BD
:10111C00E0F8A3E0F582888374022FF974003EFA9C
:0F112C007B0178027C007D01AE83AF8212060347
:01113B002291
:08199900900456EEF0A3EFF0FC
:1019A10012005A900458EEF0A3EFF012005AAB0760
:1019B100AA06900456E0FEA3E0FF7C007D0A120116
:1019C100D6A3E0FCA3E0FDC3EB9DFDEA9CFCC3EDC7
:0519D1009FEC9E40D6D2
:0119D60022EE
:0E1C1A0000007F2B7E067DCBDDFEDEFCDFFAB8
:011C28002299
:100C7D00EFD3940540037F012212015CFED3940350
:100C8D0040037F0222EF7041EE700B9000011201C4
:100C9D0075F45293529412015CB4010B9000011241
:100CAD0001754293F4529412015CFEB4020A900055
:100CBD000112017542934294EEB4030D900001129E
:100CCD000175FEF45293EE4294EF640170431201EC
:100CDD005CFE700B900001120175F452915292EE70
:100CED00B4010B9000011201754291F45292120160
:100CFD005CB4020A900001120175429142921201F8
:100D0D005CB4030D900001120175FEF45291EE4298
:100D1D0092EF6402704312015CFE700B90000112A1
:100D2D000175F452955296EEB4010B90000112012B
:100D3D00754295F4529612015CB4020A90000112AC
:100D4D0001754295429612015CB4030D900001129B
:100D5D000175FEF45295EE4296EF64037043120155
:100D6D005CFE700B900001120175F452B152B2EE9F
:100D7D00B4010B90000112017542B1F452B212018F
:100D8D005CB4020A90000112017542B142B2120127
:100D9D005CB4030D900001120175FEF452B1EE42E8
:100DAD00B2EF6404704312015CFE700B90000112EF
:100DBD000175F452B352B4EEB4010B90000112015F
:100DCD007542B3F452B412015CB4020A90000112E0
:100DDD00017542B342B412015CB4030D90000112CF
:100DED000175FEF452B3EE42B4EF64057043120187
:100DFD005CFF700B900001120175F452C952CAEFDD
:100E0D00B4010B90000112017542C9F452CA1201CE
:100E1D005CB4020A90000112017542C942CA120166
:100E2D005CB4030D900001120175FFF452C9EF423D
:040E3D00CA7F002246
:1006A3009003D6EBF0A3EAF0A3E9F09003D5EFF0C3
:1006B300640160030208B99003E304F0E4A3F0A328
:1006C300F0A3F0A3F0A3F0A3F09003E0F09003D91C
:1006D300F09003D9E0FFC39401501474F32FF58213
:1006E300E43403F583E4F09003D9E004F080E2E41A
:1006F3009003D9F09003D9E0FFC39401501474F12F
:100703002FF582E43403F583E4F09003D9E004F099
:1007130080E29003D6E0FBA3E0FAA3E0F912015CC8
:10072300D394C040037F022290000A120175B401E2
:1007330004D2BC8002C2BC12015CFFE598543F4F57
:10074300F598EF64C06008EF6440600302083390DB
:1007530000021203817F007E307D2A7C001202CBCF
:100763009003DA1203B1E4FFFE7D01FC9003DAE0AB
:10077300F8A3E0F9A3E0FAA3E0FBC312035D40038F
:100783007F02229003DAE0F8A3E0F9A3E0FAA3E002
:10079300FBC3E49BFFE49AFE740199FDE498FC908B
:1007A30003DA1203B19003D6E0FBA3E0FAA3E0F966
:1007B300900001120175FB64017038C28E538EFEE6
:1007C3005389BF5389CF438E409003DAE0FCA3E003
:1007D300FDA3E0FEA3E0FF780812036E8F8D900364
:1007E300DAA3A3A3E0F58BC2AB5389BF538FFDD22A
:1007F3008E8076EB64027035538EEF438E01538EF9
:10080300F7438E049003DAE0FCA3E0FDA3E0FEA32C
:10081300E0FF780812036E8FD69003DAA3A3A3E058
:10082300F5D753AFFB538EF7438E10803C7F0222E4
:100833009003D6E0FBA3E0FAA3E0F912015CFF709A
:1008430013900008120175B40105438E20801A53DA
:100853008EDF8015EFB48011900008120175B4018A
:1008630005438780800353877F9003D6E0FBA3E093
:10087300FAA3E0F9900009120175B40104D2AC8027
:1008830002C2AC900007120175B40104D29C80022D
:10089300C29C90000B12017554C0FFE5A2543F4F58
:1008A300F5A290000C120175B40105439710800363
:1008B3005397EF7F00229003D5E064026003020A9E
:1008C3001B9003EA7402F0E4A3F0A3F0A3F0A3F0F7
:1008D300A3F0A3F09003D9F09003D9E0FFC39401F0
:1008E300501474F42FF582E43403F583E4F0900399
:1008F300D9E004F080E2E49003D9F09003D9E0FF5B
:10090300C39401501474F22FF582E43403F583E4A5
:10091300F09003D9E004F080E29003D6E0FBA3E07B
:10092300FAA3E0F912015CFF64C06008EF64406061
:10093300030209DB90000A120175B4010543B501F6
:10094300800353B5FE12015CB4C005439A80800353
:10095300539A7F9000021203817F007E307D2A7CB0
:10096300001202CB9003DA1203B1E4FFFE7D01FC17
:100973009003DAE0F8A3E0F9A3E0FAA3E0FBC312E3
:10098300035D40037F02229003DAE0F8A3E0F9A3BA
:10099300E0FAA3E0FBC3E49BFFE49AFE740199FD34
:1009A300E498FC9003DA1203B1538EEF538EF743AE
:1009B3008E049003DAE0FCA3E0FDA3E0FEA3E0FFD6
:1009C300780812036E8FD69003DAA3A3A3E0F5D7BA
:1009D30053AFFB438E1080037F02229003D6E0FBCC
:1009E300A3E0FAA3E0F9900009120175B4010543ED
:1009F300AF01800353AFFE900007120175B40105E8
:100A0300439A108003539AEF90000B12017554011F
:0A0A1300FFE5BA54FE4FF5BA7F0369
:010A1D0022B6
:03002300021B427B
:0D1B4200C0E0C0F0C083C082C0D075D010DC
:101B4F00309807C298AF99120FDC309907C299905D
:041B5F0003E6E4F0C5
:0B1B6300D0D0D082D083D0F0D0E03290
:03004300021AE3BB
:101AE300C0E0C0F0C083C082C0D075D018E59A3082
:101AF300E008539AFEAF9B12113CE59A30E108537C
:101B03009AFD9003EDE4F0D0D0D082D083D0F0D012
:021B1300E032BE
:080003008F993099FDC299228A
:100046008F9BE59A20E1047F0180027F00EF70F22A
:04005600539AFD229A
:101BF70012015CFF600C120046740129F9E43AFAFD
:031C070080EE224A
:0B1B150090045AEBF0A3EAF0A3E9F003
:101B2000E4FEEEC39D501A90045AE0FBA3E0FAA332
:101B3000E0F98E82758300120175FF1200460E8057
:011B4000E1C3
:011B41002281
:03000B0002000EE2
:0D000E00C0E00509E50970020508D0E032E8
:03001B00021C4381
:011C4300326E
:03006300021C4438
:011C4400326D
:100E4100AD07EDD3940240037F0122ED6003020E52
:100E5100D5C28C900002120175B40104D2A980029E
:100E6100C2A9900001120175B40104D2B98002C275
:100E7100B912015CFED3940340037F0222E5895439
:100E8100FC4EF589900003120175FFB40103538EE6
:100E91007FEF7003438E80EFB40205438904800322
:100EA1005389FB900004120175B40105438F018041
:100EB10003538FFE900005120257E5F0F58C900068
:100EC10005120257F58A900007120175B40102D28A
:100ED1008C7F0022ED64016003020F60C28E9000DE
:100EE10002120175B40104D2AB8002C2AB900001C1
:100EF100120175B40104D2BB8002C2BB12015CFEB7
:100F0100C3940340037F0222E58954CF4EF58990B3
:100F11000003120175FFB40103538EBFEF70034349
:100F21008E40EFB4020543894080035389BF90008E
:100F310004120175B40105438F028003538FFD90A4
:100F41000005120257E5F0F58D900005120257F5E4
:100F51008B900007120175B40102D28E7F0022ED41
:100F610064027074538EEF900002120175B4010592
:100F710043AF04800353AFFB900003120175FED30E
:100F8100940240037F0222EEB40103538EFB9000D2
:100F9100031201757003438E04900003120175B4AE
:100FA1000205438E088003538EF7900004120175E9
:100FB100B40105438F048003538FFB900005120297
:100FC10057FDACF0ECF5D68DD7900007120175B442
:0B0FD1000103438E107F00227F0222EC
:0E1C2900E4F5C7F5C5F5C675C3FF75C4FF2207
:10191B00AD07AC06C2AF75C78375C501ECF5C3AF98
:10192B00058FC475C65A75C6A500E5C21201A20D76
:10193B00BD00010C740129F9E43AFA90044874FFD4
:0F194B00F5F012022B45F070D3121C29D2AF22F7
:101BD700AD07AC06C2AFECF5C3AF058FC475C783BD
:101BE70075C50375C65A75C6A500121C29D2AF2242
:10195A00AD07AC06C2AF75C78375C502ECF5C3AF58
:10196A00058FC412015CF5C275C65A75C6A5000D6D
:10197A00BD00010C740129F9E43AFA90044F74FF8E
:0F198A00F5F012022B45F070D3121C29D2AF22B8
:0300000002167B6A
:0C167B00787FE4F6D8FD75811F0216C2CE
:10006600E709F608DFFA8046E709F208DFFA803E7C
:1000760088828C83E709F0A3DFFA8032E309F60869
:10008600DFFA8078E309F208DFFA807088828C83D1
:10009600E309F0A3DFFA806489828A83E0A3F60885
:1000A600DFFA805889828A83E0A3F208DFFA804C5F
:1000B60080D280FA80C680D4806980F28033801036
:1000C60080A680EA809A80A880DA80E280CA80339F
:1000D60089828A83ECFAE493A3C8C582C8CCC58317
:1000E600CCF0A3C8C582C8CCC583CCDFE9DEE780E7
:1000F6000D89828A83E493A3F608DFF9ECFAA9F066
:10010600EDFB2289828A83ECFAE0A3C8C582C8CCBB
:10011600C583CCF0A3C8C582C8CCC583CCDFEADED4
:10012600E880DB89828A83E493A3F208DFF980CC36
:1001360088F0EF60010E4E60C388F0ED2402B4042F
:100146000050B9F582EB2402B4040050AF232345D6
:0601560082239000B67345
:10015C00BB010689828A83E0225002E722BBFE02A1
:09016C00E32289828A83E49322D4
:10017500BB010CE58229F582E5833AF583E022503F
:1001850006E92582F8E622BBFE06E92582F8E22289
:0D019500E58229F582E5833AF583E49322A3
:1001A200BB010689828A83F0225002F722BBFE013C
:0201B200F32236
:1001B400F8BB010DE58229F582E5833AF583E8F081
:1001C400225006E92582C8F622BBFE05E92582C82D
:0201D400F22215
:1001D600BC000BBE0029EF8DF084FFADF022E4CC0D
:1001E600F875F008EF2FFFEE33FEEC33FCEE9DECD6
:1001F600984005FCEE9DFE0FD5F0E9E4CEFD22ED1C
:10020600F8F5F0EE8420D21CFEADF075F008EF2F65
:10021600FFED33FD4007985006D5F0F222C398FD56
:050226000FD5F0EA22F3
:10022B00C5F0F8A3E028F0C5F0F8E582158270025E
:06023B001583E038F022FB
:10024100A3F8E0C5F025F0F0E58215827002158370
:06025100E0C838F0E822CD
:10025700BB0110E58229F582E5833AF583E0F5F0E5
:10026700A3E0225009E92582F886F008E622BBFEC2
:100277000AE92582F8E2F5F008E222E5832AF58308
:08028700E993F5F0A3E99322CD
:10028F0075F008758200EF2FFFEE33FECD33CDCC26
:10029F0033CCC58233C5829BED9AEC99E5829840A9
:1002AF000CF582EE9BFEED9AFDEC99FC0FD5F0D686
:1002BF00E4CEFBE4CDFAE4CCF9A88222B800C1B9B0
:1002CF000059BA002DEC8BF084CFCECDFCE5F0CBEE
:1002DF00F97818EF2FFFEE33FEED33FDEC33FCEB27
:1002EF0033FB10D703994004EB99FB0FD8E5E4F9E2
:1002FF00FA227818EF2FFFEE33FEED33FDEC33FCCF
:10030F00C933C910D7059BE99A4007EC9BFCE99AC2
:10031F00F90FD8E0E4C9FAE4CCFB2275F010EF2F07
:10032F00FFEE33FEED33FDCC33CCC833C810D70707
:10033F009BEC9AE899400AED9BFDEC9AFCE899F842
:0E034F000FD5F0DAE4CDFBE4CCFAE4C8F922D5
:10035D00EB9FF5F0EA9E42F0E99D42F0E89C45F0F6
:01036D00226D
:10036E00E8600FECC313FCED13FDEE13FEEF13FF6D
:03037E00D8F12291
:10038100BB010DE58229F582E5833AF58302063842
:100391005007E92582F802062BBBFE07E92582F802
:1003A100020644E58229F582E5833AF58302065186
:0C03B100ECF0A3EDF0A3EEF0A3EFF022BF
:1003BD00A8828583F0D083D0821203D41203D41285
:1003CD0003D41203D4E473E493A3C583C5F0C583AA
:1003DD00C8C582C8F0A3C583C5F0C583C8C582C88A
:0103ED0022ED
:1003EE00BB010789828A830206735005E9F802066B
:1003FE0061BBFE05E9F802068589828A83020697AB
:10040E00BB011A89828A83D0F0D0E0F8D0E0F9D00F
:10041E00E0FAD0E0FBE8C0E0C0F002067C5016E93E
:10042E00F8D083D082D0E0F9D0E0FAD0E0FBC082E1
:10043E00C08302066ABBFE16E9F8D083D082D0E0F4
:0F044E00F9D0E0FAD0E0FBC082C08302068E2214
:10177900900427EBF0A3EAF0A3E9F0E490042FF03A
:10178900A3F090042D74FFF5F012024145F0603C7E
:1017990090042AE0FBA3E0FAA3E0F912015CFF90B0
:1017A9000427E0FBA3E0FAA3E0F990042FE475F025
:1017B9000112024185F082F583EF1201B4EF60C294
:1017C90090042BE475F00112022B80B6900427E0F7
:0817D900FBA3E0FAA3E0F922F2
:10002600E4FFFE12015C600C0FEF70010E09E9702F
:05003600F20A80EF2238
:10045D00EF4E6012EF60010EEDBB010B89828A83B6
:10046D00F0A3DFFCDEFA2289F05007F709DFFCA9C3
:0C047D00F022BBFEFCF309DFFCA9F0221A
:10048900E709F608DFFA807BE9D39850F3E92FF9F9
:10049900E82FF819E718F6DFFA8068E709F208DFAC
:1004A900FA806080E388828C83E709F0A3DFFA8011
:1004B90052E309F608DFFA804AE9D398500EE92F8A
:1004C900F9E82FF819E318F2DFFA8037E309F2089F
:1004D900DFFA802F88828C83E309F0A3DFFA802377
:1004E90089828A83E0A3F608DFFA801789828A83E2
:1004F900E493A3F208DFF9800A89828A83E0A3F2F0
:1005090008DFFA02059B80B180F980A580C680DCEE
:1005190080F180738010808380E98087808780D90B
:1005290080E180BC8073D3E998EA9C5039E92FF5C2
:1005390082EA3BF583E82FF8EC3BFC0582D5820281
:1005490015831582E493C8C582C8CCC583CC0582BE
:10055900D5820215831582F0C8C582C8CCC583CC63
:10056900DFD9DED7802E89828A83ECFAE493A3C887
:10057900C582C8CCC583CCF0A3C8C582C8CCC58305
:10058900CCDFE9DEE7800D89828A83E493A3F6084C
:10059900DFF9ECFAA9F0EDFB22D3E998EA9C50388F
:1005A900E92FF582EA3BF583E82FF8EC3BFC05825D
:1005B900D5820215831582E0C8C582C8CCC583CC13
:1005C9000582D5820215831582F0C8C582C8CCC5BB
:1005D90083CCDFDADED880BC89828A83ECFAE0A397
:1005E900C8C582C8CCC583CCF0A3C8C582C8CCC550
:1005F90083CCDFEADEE8809C809888F08E83EF6008
:10060900010E4E608DED2402B404005085F582EB95
:100619002402B4040050E123234582AB83239005CF
:020629000F734D
:1016870002003BE493A3F8E493A34003F68001F23E
:1016970008DFF48029E493A3F85407240CC8C33364
:1016A700C4540F4420C8834004F456800146F6DF33
:1016B700E4800B010204081020408090188BE47E20
:1016C700019360BCA3FF543F30E509541FFEE49328
:1016D700A360010ECF54C025E060A840B8E493A3EF
:1016E700FAE493A3F8E493A3C8C582C8CAC583CA1A
:1016F700F0A3C8C582C8CAC583CADFE9DEE780BED2
:0118D4000013
:0D062B00E6FB08E6F908E6FA08E6CBF8223F
:0C063800E0F8A3E0F9A3E0FAA3E0FB2245
:0D064400E2FB08E2F908E2FA08E2CBF82236
:10065100E493F8740193F9740293FA740393FB22FF
:09066100E6FB08E6FA08E6F922BE
:09066A00EBF608EAF608E9F622B5
:09067300E0FBA3E0FAA3E0F92288
:09067C00EBF0A3EAF0A3E9F0227F
:09068500E2FB08E2FA08E2F922A6
:09068E00EBF208EAF208E9F2229D
:0C069700E493FB740193FA740293F922BF
:00000001FF
