:10529C007461736B300D0A00733D2564730D0A0045
:1052AC00696E2D6366672D4F4B0D0A006770727324
:1052BC002D6366672D4F4B0D0A00717569742D6354
:0852CC0066672D4F4B0D0A002F
:1053F2009001D874FFF0E49001D7F07B017A017933
:10540200D7FF1232197B017A0179D77F0112321943
:0B5412007B017A0179D77F0302321979
:104DD8009001D77440F0A37401F0A31208F2000008
:104DE80025809001DE7401F0E4A3F0A304F0E4A3AD
:104DF800F0A3F0A3F07B017A0179D77F01121D653A
:104E08009001D77440F09001D91208F20001C20055
:104E18009001DE7401F09001E0F0E4A3F0A3F07BD0
:0A4E2800017A0179D77F02021D65AF
:1053C60090021A7440F0A37401F0A31208E690024A
:1053D600217401F0E4A3F0A304F0E4A3F0A3F0A386
:0C53E600F07B017A02791A7F01021D653C
:0C5517001253F2124DD8125487D2AF226A
:103D61001255179004A67401F09001D0F0E4900070
:103D710001F090000004F0C2807BFF7A52799C121E
:103D810015921200599001D1EE023E239001D0E02C
:103D91007003023E2A1200599001D3EEF0A3EFF016
:103DA1007C007D641206AEED4C7032A3E0FEA3E010
:103DB100FF9001D3E06E7003A3E06F60209001D308
:103DC100E0FEA3E0FF7C007D641206AE900233EEBC
:103DD100F0A3EFF07BFF7A5279A41215929001D1F2
:103DE100E0FEA3E0FFC39001D4E09FFF9001D3E088
:103DF1009EFED3EF94F4EE94014007E49001D0F0DD
:103E01008064900001E0B401107BFF7A5279AC121A
:103E11001592E49001D0F080109001D3E0FFA3E06F
:103E2100A3CFF0A3EFF0023D8D900001E024FC60F0
:103E31001014602924036003023D8D124448023DA1
:103E41008D7FF47E011251E5124FC1900001740182
:103E5100F07BFF7A5279B8121592023D8D7BFF7A81
:103E61005279C6121592C280E4900008F090000FBA
:103E7100F0900009F0900010F0900000F012552F22
:023E810080FBC4
:10541D009004A6E0B401078F993099FDC2999004CC
:10542D00A6E0B4020E8F9B90000EE070FA90000E75
:04543D007401F022E4
:1045B5003B00706172616D657465723A200D0A0089
:1045C500626175643D256C640D0A007365727665DC
:1045D500723D25730D0A0064656661756C74206211
:1045E50061756420393630300D0A0025730D0A00D7
:1045F5007B002573252E32662573002C0D0D0A00D0
:104605002573252E33662C0D0D0A002573252E32B4
:10461500662C0D0D0A00257325640A0025730D0D02
:104625000A007D006F6B006F6B0A004154004F4B11
:10463500000D000103000006C5C82254223A0022DD
:104645005048223A0022444F223A00224E54552225
:0A4655003A00224743223A00C30155
:10438B004403190000000044031D00000000420319
:03439B00210000FE
:10386F00E4900215F0900001F078D77C017D01FB08
:10387F00FAF9FE7F3212060E7B017A0179D7900298
:10388F001FE4F0A37432F07F007E021251677F06AF
:10389F007E001251E57B017A0179D71244FF900225
:1038AF000CEBF0A3EAF0A3E9F090021D74FFF0A374
:1038BF007445F0A374B5F07B017A02790C1248E3DA
:1038CF00900209EBF0A3EAF0A3E9F04A4B603D90B8
:1038DF000215E0FF7015900209E0F9A3E0FAA3E0EA
:1038EF0090020FC9F0A3EAF0A3E9F0EFB40115902D
:1038FF000209E0F9A3E0FAA3E0900212C9F0A3EAEB
:10390F00F0A3E9F0900215E004F0809D90021DE411
:10391F00F0A3F0A3F0A3740AF090020FE0FBA3E072
:10392F00FAA3E0F91229D49002161208E67BFF7A67
:10393F004579B71215927BFF7A4579C5900216E04B
:10394F00FCA3E0FDA3E0FEA3E0FF9002331208E624
:10395F00121592900212E0F9A3E0FAA3E09002335D
:10396F00C9F0A3EAF0A3E9F07BFF7A4579D01215ED
:10397F0092E47FB07E04FDFC900216E0F8A3E0F91C
:10398F00A3E0FAA3E0FBC312089250167F807E25B6
:10399F007D007C001253C67BFF7A4579DC121592AD
:1039AF008011900216E0FCA3E0FDA3E0FEA3E0FF70
:0C39BF001253C67B017A02790F020C51F2
:0B552F0012386F125127124E3280F824
:104E3200120059E4FCFD9003191208E690031DE0EC
:104E4200F8A3E0F9A3E0FAA3E0FB900319E0FCA3C6
:104E5200E0FDA3E0FEA3E0C39BFFEE9AFEED99FD09
:104E6200EC98FCE47BF47A01F9F8C312089250172B
:104E72007BFF7A4679387D0712536C120059E4FCA5
:074E8200FD90031D1208E67C
:014E89002206
:1020E000E4900198F0C3900322E09480900321E0F3
:1020F00094004004E4F0A3F0900321A3E02412F53F
:1021000082E43400F583EFF0900322E004F07006DF
:10211000900321E004F0900321E0FEA3E0FFC394CC
:1021200011EE940050030223C6900198E02412F9A6
:10213000E43400FA7B01A3EBF0A3EAF0A3E9F01288
:102140000634640160030223AF900199E0FBA3E031
:10215000FAA3E0F990000112064D64036003022324
:10216000AF90000212064D2405FDE433FCC3EF9D41
:10217000EE9C50030223EF900198E02412F9E4341E
:1021800000FA7B01C003C002C001A3E0FBA3E0FA98
:10219000A3E0F990000212064D2403FDE433FCD0C5
:1021A00001D002D003124AF890019CEEF0A3EFF0A8
:1021B000900199E0FBA3E0FAA3E0F990000F12066A
:1021C0004DFD90019CE06D7001E460030223AF902F
:1021D000001012064DFF90019DE06F7001E4600356
:1021E0000223AF9004A67402F090023374FFF0A3B0
:1021F0007445F0A374F5F07BFF7A4579F0121592DF
:1022000090023374FFF0A37446F0A3743FF0900182
:1022100099E0FBA3E0FAA3E0F990000312064DFE5B
:1022200090000412064DFDEEFCE412010BE4FBFAF3
:1022300079C878421200699002361208E690023A94
:1022400074FFF0A37446F0A37400F07BFF7A457925
:10225000F712159290023374FFF0A37446F0A37442
:1022600044F0900199E0FBA3E0FAA3E0F9900005A7
:1022700012064DFE90000612064DFDEEFCE4120122
:102280000BE4FBFA797A784412006990023612085E
:10229000E67BFF7A46790512159290023374FFF0BF
:1022A000A37446F0A3744AF0900199E0FBA3E0FA0E
:1022B000A3E0F990000712064DFE90000812064DAB
:1022C000FDEEFCE412010BE4FBFA797A784412008B
:1022D000699002361208E67BFF7A4679051215925C
:1022E00090023374FFF0A37446F0A37450F0900191
:1022F00099E0FBA3E0FAA3E0F990000912064DFE75
:1023000090000A12064DFDEEFCE412010BE4FBFA0C
:1023100079C878421200699002361208E67BFF7A8B
:1023200046791012159290023374FFF0A37446F0B0
:10233000A37457F0900199E0FBA3E0FAA3E0F990B1
:10234000000B12064DFE90000C12064DFDEDFF90A5
:102350000236EEF0A3EFF07BFF7A46791B1215925E
:1023600090023374FFF0A37446F0A37427F07BFF50
:102370007A4679211215929004A67401F090019981
:10238000E0FBA3E0FAA3E0F990000212064DFF245F
:1023900005FDE433FCC3900322E09DF0900321E0AF
:1023A0009CF0EF2405FF900198E02FF00221169099
:1023B0000322E024FFF0900321E034FFF090019825
:1023C000E004F0022116900198E0FF6022900321C2
:1023D000E0F8A3E0F582888374122FF9E43400FA60
:0F23E0007B0178127C007D01AE83AF82120BBAB5
:0123EF0022CB
:10544100900198EEF0A3EFF012005990032DEEF0C9
:10545100A3EFF0900198E0FFA3E090032BCFF0A31E
:03546100EFF02247
:105464009001CEEEF0A3EFF0120059900331EEF06C
:10547400A3EFF09001CEE0FFA3E090032FCFF0A3C1
:03548400EFF02224
:10533A00900009E0D39400402812005990032DE010
:10534A00FCA3E0FDC3EF9DFFEE9CFEC390032CE09F
:10535A009F90032BE09E5009E4900009F09000080A
:01536A00F052
:01536B00221F
:10512700900010E0D394004036120059900331E00C
:10513700FCA3E0FDC3EF9DFFEE9CFEC3900330E0B0
:105147009F90032FE09E50177B017A007992900081
:0F5157000FE0FD12536CE4900010F090000FF089
:015166002226
:104EDB00E4FFFE1254AA7F067E001251E57B017A95
:104EEB00007912900008E0FF9001DCE4F0A3EFF0F2
:104EFB00E4FFFE1251A67F067E001251E57BFF7A7E
:104F0B004679297D0212536C7E007F807D007B01E8
:0D4F1B007A007912120A14E4900008F022C6
:104FC1007F007E021254AA7F0A7E001251E57B0106
:104FD1007A0079129001DCE4F0A37432F07F007E54
:104FE100021251A67F067E001251E57BFF7A4679B7
:104FF1002C7D0412536C7E007F807D007B017A0042
:0B5001007912120A14E4900008F0225B
:0847A5009004A0EEF0A3EFF078
:1047AD00120059900323EEF0A3EFF012005990037D
:1047BD0023E0FCA3E0FDC3EF9DFFEE9CFED3EF9441
:1047CD0064EE9400407290037EE0B40104D2B58093
:1047DD0002B2B5B2B4900329E004F0C3943C405842
:1047ED00E4F0A3E004FFF0D39004A1E09F9004A0B7
:1047FD00E0940050439002247401F0A37400F0A3E0
:10480D007492F0A374FFF0A37446F0A37433F0A375
:10481D0074F4F07BFF7A467930124136EF7014D282
:10482D00807F64FE1251E5C2807FC87E001251E583
:08483D0075C760E490032AF046
:014845002250
:10444800900009E0D394004053120059900325EEE0
:10445800F0A3EFF090032DE0FCA3E0FDC3EF9DFF78
:10446800EE9CFEC390032CE09F90032BE09E502C03
:104478009004A67402F07B017A00791212159290CA
:1044880004A67401F07E007F807D00FB7A0079121B
:10449800120A14E4900009F0900008F0900010E06F
:1044A800D394004051120059900327EEF0A3EFF087
:1044B800900331E0FCA3E0FDC3EF9DFFEE9CFEC33B
:1044C800900330E09F90032FE09E502A7B017A00F2
:1044D80079921215927BFF7A4679361215927E00F0
:1044E8007F807D007B017A007992120A14E49000A3
:0644F80010F090000FF02F
:0144FE00229B
:07003B00252E3278000A00B7
:0B50560090048FEBF0A3EAF0A3E9F058
:10506100E4A3F0900492E0FFC39410502890048FC1
:10507100E0FBA3E0FAA3E0F98F8275830012064DED
:10508100900233F07BFF7A00793B121592900492E3
:0E509100E004F080CE7BFF7A00794002159299
:0B405D0090040BEBF0A3EAF0A3E9F0E5
:10406800900417E4F0A37403F0900417E0C4F85424
:10407800F0C868FFA3E0C4540F48A3CFF0A3EFF043
:10408800E4A3F07403540FA3F07D037C0090041A9A
:10409800E02401FF900419E03400FEEFC4F8540F47
:1040A800C868FFEEC454F048FEC3ED9FEC9E502054
:1040B80090041BA3E0FF900411E0FBA3E0FAA3E047
:1040C800F98D828C83EF12068C0DBD00010C80BD2A
:1040D800900411E0F9A3E0FAA3E09003FBC9F0A370
:1040E800EAF0A3E9F0A31208F20000004090040BE4
:1040F800E0F9A3E0FAA3E0900402C9F0A3EAF0A370
:10410800E9F090040EE0F9A3E0FAA3E0900405C9F1
:10411800F0A3EAF0A3E9F0900414E0FBA3E0FAA30B
:0D412800E0F9123712900417E0FEA3E0FF4B
:014135002267
:0B3B0A009003D2EBF0A3EAF0A3E9F077
:103B15009003DBE0FFC4540FFD9003E1E4F0A3ED57
:103B2500F0EF540FFF7E00A3EEF0A3EFF0605C9082
:103B350003DBE0FF9003DFEEF0A3EFF09003DBE0A3
:103B45002410FFE433FE9003E3E0FAA3E0FBC3EFA8
:103B55009BFFEE9AFE9003DFE0FCA3E0FDC39FEC24
:103B65009E5028C374109BFF9003D8E0FBA3E0FA96
:103B7500A3E0F98D828C83EF12068C9003E0E004BC
:103B8500F070B99003DFE004F080B19003D8E0F95C
:103B9500A3E0FAA3E09003E8C9F0A3EAF0A3E9F0F3
:103BA5009003E2E02401FF9003E1E03400FEEFC45E
:103BB500F8540FC868FFEEC454F048FEE4FCFD90CD
:103BC50003EB1208E69003D2E0F9A3E0FAA3E09034
:103BD50003EFC9F0A3EAF0A3E9F09003D5E0F9A358
:103BE500E0FAA3E09003F2C9F0A3EAF0A3E9F090AC
:103BF50003DCE0FBA3E0FAA3E0F9123C379003DC19
:103C0500E0FBA3E0FAA3E0F99003E1A3E004C454C8
:103C1500F0FD12536C9003E2E02401FF9003E1E014
:103C25003400FEEFC4F8540FC868FFEEC454F048E2
:013C3500FE90
:013C3600226B
:1023F000637C777BF26B6FC53001672BFED7AB76C2
:10240000CA82C97DFA5947F0ADD4A2AF9CA472C06C
:10241000B7FD9326363FF7CC34A5E5F171D83115D9
:1024200004C723C31896059A071280E2EB27B275FA
:1024300009832C1A1B6E5AA0523BD6B329E32F8472
:1024400053D100ED20FCB15B6ACBBE394A4C58CF6A
:10245000D0EFAAFB434D338545F9027F503C9FA83E
:1024600051A3408F929D38F5BCB6DA2110FFF3D20C
:10247000CD0C13EC5F974417C4A77E3D645D1973C0
:1024800060814FDC222A908846EEB814DE5E0BDBBA
:10249000E0323A0A4906245CC2D3AC629195E479F1
:1024A000E7C8376D8DD54EA96C56F4EA657AAE084B
:1024B000BA78252E1CA6B4C6E8DD741F4BBD8B8AE6
:1024C000703EB5664803F60E613557B986C11D9E4C
:1024D000E1F8981169D98E949B1E87E9CE5528DFC3
:1024E0008CA1890DBFE6426841992D0FB054BB16EF
:1024F00052096AD53036A538BF40A39E81F3D7FB79
:102500007CE339829B2FFF87348E4344C4DEE9CBC2
:10251000547B9432A6C2233DEE4C950B42FAC34E37
:10252000082EA16628D924B2765BA2496D8BD125ED
:1025300072F8F66486689816D4A45CCC5D65B69291
:102540006C704850FDEDB9DA5E154657A78D9D8435
:1025500090D8AB008CBCD30AF7E45805B8B3450655
:10256000D02C1E8FCA3F0F02C1AFBD0301138A6B6F
:102570003A9111414F67DCEA97F2CFCEF0B4E6739F
:1025800096AC7422E7AD3585E2F937E81C75DF6E4D
:1025900047F11A711D29C5896FB7620EAA18BE1BB3
:1025A000FC563E4BC6D279209ADBC0FE78CD5AF459
:1025B0001FDDA8338807C731B11210592780EC5F9F
:1025C00060517FA919B54A0D2DE57A9F93C99CEFFB
:1025D000A0E03B4DAE2AF5B0C8EBBB3C83539961FC
:1025E000172B047EBA77D626E169146355210C7D3A
:1025F0008D01020408102040801B366CD8AB4D9A28
:102600002F5EBC63C697356AD4B37DFAEFC59139A6
:1026100072E4D3BD61C29F254A943366CC831D3AD0
:1026200074E8CB8D01020408102040801B366CD862
:10263000AB4D9A2F5EBC63C697356AD4B37DFAEF73
:10264000C5913972E4D3BD61C29F254A943366CCEB
:10265000831D3A74E8CB8D01020408102040801BD2
:10266000366CD8AB4D9A2F5EBC63C697356AD4B32F
:102670007DFAEFC5913972E4D3BD61C29F254A94BA
:102680003366CC831D3A74E8CB8D01020408102018
:1026900040801B366CD8AB4D9A2F5EBC63C6973515
:1026A0006AD4B37DFAEFC5913972E4D3BD61C29F9C
:1026B000254A943366CC831D3A74E8CB8D0102041D
:1026C00008102040801B366CD8AB4D9A2F5EBC633F
:1026D000C697356AD4B37DFAEFC5913972E4D3BD9C
:0F26E00061C29F254A943366CC831D3A74E8CBC0
:05552300EFF0A3E0FF22
:07552800EF9023F093FF2236
:07553A00EF9024F093FF2223
:1019AA00E0F9A3E0FAA3E0C9900263F0A3EAF0A386
:0219BA00E9F052
:1019BC0090041D1208F200000000E47F04FEFDFC00
:1019CC0090041DE0F8A3E0F9A3E0FAA3E0FBC31236
:1019DC0008924003021B03E47F04FEFDFC90041DEF
:1019EC00E0F8A3A3A3E0120767900263E0FBA3E077
:1019FC00FAA3E0F98F828E8312064DFD90041DA38D
:101A0C00A3E0FAA3E090026675F004120923EA251C
:101A1C00E025E02583F583EDF0EF2401FFE43EFEA5
:101A2C00900263E0FBA3E0FAA3E0F98F828E8312AD
:101A3C00064DFF90041DA3A3E0FAA3E09002677586
:101A4C00F004120923EA25E025E02583F583EFF065
:101A5C00E47F04FEFDFC90041DE0F8A3E0F9A3E094
:101A6C00FAA3E0FB120767EF2402FDE43EFC9002B0
:101A7C0063E0FBA3E0FAA3E0F98D828C8312064DA0
:101A8C00FD90041DA3A3E0FAA3E090026875F00496
:101A9C00120923EA25E025E02583F583EDF0EF24F8
:101AAC0003FFE43EFE900263E0FBA3E0FAA3E0F93F
:101ABC008F828E8312064DFF90041DA3A3E0FAA320
:101ACC00E090026975F004120923EA25E025E0256F
:101ADC0083F583EFF090041DE0FCA3E0FDA3E0FE92
:101AEC00A3E02401FFE43EFEE43DFDE43CFC900455
:101AFC001D1208E60219C6E47F2CFEFDFC90041DA5
:101B0C00E0F8A3E0F9A3E0FAA3E0FBC312089240CB
:101B1C0003021D649004211208F200000000E47F0F
:101B2C0004FEFDFC900421E0F8A3E0F9A3E0FAA385
:101B3C00E0FBC3120892505AE47F04FEFDFC9004B3
:101B4C001DE0F8A3E0F9A3E0FAA3E0FB120767ABF2
:101B5C0007900421A3A3A3E0FF2B2462F582E434B5
:101B6C0002F583E0FE74292FF582E43404F583EE4C
:101B7C00F0900421E0FCA3E0FDA3E0FEA3E024012F
:101B8C00FFE43EFEE43DFDE43CFC9004211208E63B
:101B9C00808C90041DA3A3A3E05403FFE4FEFDFC82
:101BAC00FBFAF9F8C31208926003021C3A9004295C
:101BBC00E0FFE4FCFDFE9004251208E690042AE008
:101BCC00900429F090042BE090042AF090042CE06F
:101BDC0090042BF0900425A3A3A3E090042CF09088
:101BEC000429E0FF12552890042912552390042A49
:101BFC0012552390042B12552390042CEFF09004D3
:101C0C0029E0FFC007E47B04F890041DE0FCA3E08E
:101C1C00FDA3E0FEA3E0FF1207F274F02FF582742F
:101C2C00253EF583E493FED0E06E900429F09004F9
:101C3C001DA3A3E0FEA3E090025675F00412092345
:101C4C00EE25E025E02583F583E0FF900429E0FEF6
:101C5C00EF6EFF90041DA3A3E0FAA3E0900266755B
:101C6C00F004120923EA25E025E02583F583EFF043
:101C7C0090041DA3A3E0FEA3E090025775F004129C
:101C8C000923EE25E025E02583F583E0FF90042A67
:101C9C00E0FEEF6EFF90041DA3A3E0FAA3E0900218
:101CAC006775F004120923EA25E025E02583F58306
:101CBC00EFF090041DA3A3E0FEA3E090025875F092
:101CCC0004120923EE25E025E02583F583E0FF903F
:101CDC00042BE0FEEF6EFF90041DA3A3E0FAA3E03B
:101CEC0090026875F004120923EA25E025E02583AB
:101CFC00F583EFF090041DA3A3E0FEA3E09002593E
:101D0C0075F004120923EE25E025E02583F583E028
:101D1C00FF90042CE0FEEF6EFF90041DA3A3E0FAED
:101D2C00A3E090026975F004120923EA25E025E08E
:101D3C002583F583EFF090041DE0FCA3E0FDA3E008
:101D4C00FEA3E02401FFE43EFEE43DFDE43CFC90F8
:081D5C00041D1208E6021B033E
:011D6400225C
:054BDF00900497EFF0C7
:104BE400E4A3F0E4900499F0900498E075F004A430
:104BF400FF900260E0FBA3E0FAA3E02FF9EA35F0AE
:104C0400FA900499E0FF7C0029F9EC3AFA12063490
:104C1400FE900498E025E025E0FD900497E0C4545C
:104C2400F02DFDEF2D2466F582E43402F583E06E69
:104C340012067A900499E004F0E0B404AB9004986E
:074C4400E004F0E0B4049C61
:014C4B002246
:104A0200E49004A2F0E49004A3F09004A3E0FFC3B6
:104A12009404505AEF75F004A4FF900260E0FBA3E7
:104A2200E0FAA3E02FF9EA35F0FA9004A2E07E0062
:104A320029F9EE3AFA120634FF125528AD0790040E
:104A4200A3E075F004A4FF900260E0FBA3E0FAA3E8
:104A5200E02FF9EA35F0FA9004A2E07E0029F9EE9F
:104A62003AFAED12067A9004A3E004F0809C9004D6
:0A4A7200A2E004F0E0C39404408BBE
:014A7C002217
:10465F00900260E0FBA3E0FAA3E0F99000011206DC
:10466F004DFF90000512064D90000112068C900030
:10467F000912064D90000512068C90000D12064D82
:10468F0090000912068C90000DEF12068C9000021C
:10469F0012064DFF90000A12064D90000212068C72
:1046AF0090000AEF12068C90000612064DFF900044
:1046BF000E12064D90000612068C90000EEF120699
:1046CF008C90000312064DFF90000F12064D9000C4
:1046DF000312068C90000B12064D90000F12068CE1
:1046EF0090000712064D90000B12068C900007EFFA
:0346FF0002068C24
:1052D400FDE0FF1252F51252F51252F5AC07E0FF51
:1052E4001252F5E06F6C6DA3FDE0FF1252F51252FD
:0152F400F5C4
:1052F500EFC4131313540175F01BA4FEEF25E06EE4
:02530500FF2285
:10302000E4900493F0900260E0FBA3E0FAA3E0F9DF
:10303000900493E0FF75F004A4F58285F0831206F6
:103040004D900496F0EF75F004A4FFE92FF9EA35EE
:10305000F0FA90000112064DFF900260A3E0FAA37F
:10306000E0F9900493E0FE75F004A4F58285F08306
:1030700012064D6FFDEE75F004A4FFE92FF9EA3555
:10308000F0FA90000212064D6DFF90000312064DFB
:103090006F900494F090000112064DFF900260A31F
:1030A000E0FAA3E0F9900493E075F004A4F58285BA
:1030B000F08312064D6FFF900495F01252F5EFF079
:1030C000900260E0FBA3E0FAA3E0F9900493E0FE35
:1030D00075F004A4F582E92582F9EA35F0FA1206C2
:1030E00034FD900494E06F6D12067AEE75F004A43E
:1030F000FF900260E0FBA3E0FAA3E02FF9EA35F0CD
:10310000FA90000212064DFF90000112064D6FFF6B
:10311000900495F01252F5EFF0900493E075F004EE
:10312000A4FF900260E0FBA3E0FAA3E02FF9EA35E8
:10313000F0FAE92401F9E43AFA120634FF90049413
:10314000E0FEA3E06E6F12067A900493E075F0043F
:10315000A4FF900260E0FBA3E0FAA3E02FF9EA35B8
:10316000F0FA90000312064DFF90000212064D6F18
:10317000FF900495F01252F5EFF0900493E075F093
:1031800004A4FF900260E0FBA3E0FAA3E02FF9EAB9
:1031900035F0FAE92402F9E43AFA120634FF900411
:1031A00094E0FEA3E06E6F12067A900493E075F04F
:1031B00004A4FF900260E0FBA3E0FAA3E02FF9EA89
:1031C00035F0FA90000312064DFF900496E06FFF71
:1031D000900495F01252F5EFF0900493E075F0042E
:1031E000A4FF900260E0FBA3E0FAA3E02FF9EA3528
:1031F000F0FAE92403F9E43AFA120634FF90049451
:10320000E0FEA3E06E6F12067A900493E004F0E013
:08321000C394045003023025B1
:013218002293
:102E2600E4900477F0A3F0900477E0FEA3E0FFC3FC
:102E36009404EE64809480400302301FEF7802C34E
:102E460033CE33CED8F9FF900260E0FBA3E0FAA3BD
:102E5600E0F98F828E8312064D900479F0E92FF9FE
:102E6600EA3EFA90000112064D90047AF0900002B4
:102E760012064D90047BF090000312064D90047CE0
:102E8600F0900479E0FF1252F51252F5AD07E0FF1B
:102E96001252F5EF6D1252ECEF6DA31252D4AC073D
:102EA600E0FF1252F51252E4E06F6DFD900477E0F8
:102EB600FEA3E07802C333CE33CED8F9FF9002608A
:102EC600E0FBA3E0FAA3E0F98F828E83ED12068C75
:102ED60090047AE0FF1252F51252F5AD07E0FF12A8
:102EE60052F5EF6D1252ECEF6D9004791252ECE050
:102EF6006F6D90047B1252D4AC07E0FF1252F512AC
:102F060052F5E06F6C6DFD900477E0FEA3E0780269
:102F1600C333CE33CED8F9FF900260E0FBA3E0FACC
:102F2600A3E02FF9EA3EFA900001ED12068C900418
:102F3600791252EDAD07E0FF1252F51252F5E06F2D
:102F46001252EAE06F6DFDA3E0FF1252F51252F540
:102F5600AC07E0FF1252F5EF6CFC1252EDEF125285
:102F6600E9AC07E0FF1252F5E06F6C6DFD90047757
:102F7600E0FEA3E07802C333CE33CED8F9FF900249
:102F860060E0FBA3E0FAA3E02FF9EA3EFA90000224
:102F9600ED12068C90047A1252EDAD07E0FF125244
:102FA600F51252F5E06F6DFD9004791252EDAC0703
:102FB600E0FF1252F5E06F6C6DFD90047B1252ED4E
:102FC600E06F6DFDA3E0FF1252F51252F5AC07E07B
:102FD600FF1252F5EF6CFC1252EDEF6C6DFD900492
:102FE60077E0FEA3E07802C333CE33CED8F9FF9064
:102FF6000260E0FBA3E0FAA3E02FF9EA3EFA9000B4
:1030060003ED12068C900478E004F06003022E2D86
:09301600900477E004F0022E2D75
:01301F00228E
:104A7D00E49004A4F0E49004A5F09004A5E0FFC335
:104A8D009404505AEF75F004A4FF900260E0FBA36C
:104A9D00E0FAA3E02FF9EA35F0FA9004A4E07E00E5
:104AAD0029F9EE3AFA120634FF12553AAD07900481
:104ABD00A5E075F004A4FF900260E0FBA3E0FAA36B
:104ACD00E02FF9EA35F0FA9004A4E07E0029F9EE22
:104ADD003AFAED12067A9004A5E004F0809C900459
:0A4AED00A4E004F0E0C39404408B41
:014AF700229C
:10470200900260E0FBA3E0FAA3E0F990000D12062C
:104712004DFF90000912064D90000D12068C90007C
:104722000512064D90000912068C90000112064DEA
:1047320090000512068C900001EF12068C90000288
:1047420012064DFF90000A12064D90000212068CCE
:1047520090000AEF12068C90000612064DFF9000A0
:104762000E12064D90000612068C90000EEF1206F5
:104772008C90000312064DFF90000712064D900028
:104782000312068C90000B12064D90000712068C45
:1047920090000F12064D90000B12068C90000FEF46
:0347A20002068C80
:104F75009003E5E0F9A3E0FAA3E0900260C9F0A38D
:054F8500EAF0A3E9F0D1
:104F8A00E49004A7F0FF124BDF9004A77401F0121B
:104F9A004A0212465F1230209004A7E0FF124BDF4C
:104FAA009004A7E004F0E0C3940A40E3124A021214
:074FBA00465F7F0A024BDF96
:104F28009003F8E0F9A3E0FAA3E0900260C9F0A3C7
:054F3800EAF0A3E9F01E
:104F3D00E49004A8F07F0A124BDF9004A87409F0E6
:104F4D00124702124A7D9004A8E0FF124BDF122E89
:104F5D00269004A8E014F0E0D3940050E312470229
:084F6D00124A7DE4FF024BDF54
:104D7D009003E8E0F9A3E0FAA3E0900480C9F0A362
:104D8D00EAF0A3E9F09003E5E0FBA3E0FAA3E0F974
:0B4D9D0090047DEBF0A3EAF0A3E9F026
:104DA800E4FF900480E0FBA3E0FAA3E0F98F8275AA
:104DB800830012064DFE90047DE0FBA3E0FAA3E019
:0F4DC800F98F82758300EE12068C0FEFB410D3B3
:014DD70022B9
:10509F0090045DEBF0A3EAF0A3E9F090045DE0F972
:1050AF00A3E0FAA3E0900480C9F0A3EAF0A3E9F02B
:1050BF00900463124D95900463E0F9A3E0FAA3E026
:1050CF00900260C9F0A3EAF0A3E9F090046012190E
:0450DF00AA024F8A48
:1050E300900466EBF0A3EAF0A3E9F0900466E0F91C
:1050F300A3E0FAA3E0900480C9F0A3EAF0A3E9F0E7
:1051030090046C124D9590046CE0F9A3E0FAA3E0CF
:10511300900260C9F0A3EAF0A3E9F09004691219C0
:04512300AA024F3D50
:084E8A00E0FBA3E0FAA3E0F94C
:0B4E920090049AEBF0A3EAF0A3E9F013
:104E9D00E4FF90049AE0FBA3E0FAA3E02FF9E43AD3
:104EAD00FAC003C002C001120634FE900316E0FBE7
:104EBD00A3E0FAA3E0F98F8275830012064D6ED040
:0D4ECD0001D002D00312067A0FEFB410C519
:014EDA0022B5
:0B3C37009003E5EBF0A3EAF0A3E9F036
:103C42009003EBE0FCA3E0FDA3E0FEA3E0540FFF32
:103C52009003F7EFF0C002C0019003E8E0F9A3E09F
:103C6200FAA3E0900480C9F0A3EAF0A3E9F0D0013E
:103C7200D002124D9D9003E5E0F9A3E0FAA3E09093
:103C82000260C9F0A3EAF0A3E9F09003EFE0FBA31E
:103C9200E0FAA3E0F94A6004EB1219B29003F2E0F1
:103CA200FBA3E0FAA3E0F94A600B900316EBF0A342
:103CB200EAF0A3E9F0E49003F5F0A3F09003F5E055
:103CC200FEA3E0FFE4FCFD9003EBE0F8A3E0F9A320
:103CD200E0FAA3E0FBD312089240469003E8124EAA
:103CE2008A124D7D124F759003E5E0F9A3E0FAA325
:103CF200E0900316C9F0A3EAF0A3E9F09003E9E427
:103D020075F0101207039003E6E475F01012070332
:103D12009003F6E02410F09003F5E03400F0023C4A
:103D2200BE9003F7E06037124D7D9003F7E0FFFD90
:103D3200C374109DFDE49400FCC004C0059003E52B
:103D4200E0FBA3E0FAA3E0F9EFFD7C00E92DF9EC3A
:0E3D52003AFA7D00D007D006120A14124F75FF
:013D60002240
:0B3712009003F8EBF0A3EAF0A3E9F04D
:10371D009003FEE0FCA3E0FDA3E0FEA3E0540FFF49
:10372D0090040AEFF0C002C0019003FBE0F9A3E0A2
:10373D00FAA3E0900480C9F0A3EAF0A3E9F0D00168
:10374D00D002124D9D9003F8E0F9A3E0FAA3E090AA
:10375D000260C9F0A3EAF0A3E9F0900402E0FBA334
:10376D00E0FAA3E0F94A6007900263EB1219B590F5
:10377D000405E0FBA3E0FAA3E0F94A600B90031601
:10378D00EBF0A3EAF0A3E9F0E4900408F0A3F090C5
:10379D000408E0FEA3E0FFE4FCFD9003FEE0F8A3C7
:1037AD00E0F9A3E0FAA3E0FBD3120892405E900388
:1037BD00FBE0F9A3E0FAA3E0900480C9F0A3EAF0DE
:1037CD00A3E9F09003F8124D95124F289003F812CB
:1037DD004E8A9003FBE0F9A3E0FAA3E0900316C92B
:1037ED00F0A3EAF0A3E9F09003FCE475F0101207E2
:1037FD00039003F9E475F010120703900409E02417
:10380D0010F0900408E03400F002379C90040AE0B8
:10381D00604F9003FBE0F9A3E0FAA3E0900480C9A8
:10382D00F0A3EAF0A3E9F09003F8124D9590040A85
:10383D00E0FFFDC374109DFDE49400FCC004C005C1
:10384D009003F8E0FBA3E0FAA3E0F9EFFD7C00E9BB
:10385D002DF9EC3AFA7D00D007D006120A14124F5A
:01386D002832
:01386E002237
:102C260000C1814001C0804101C0804100C1814096
:102C360001C0804100C1814000C1814001C0804186
:102C460001C0804100C1814000C1814001C0804176
:102C560000C1814001C0804101C0804100C1814066
:102C660001C0804100C1814000C1814001C0804156
:102C760000C1814001C0804101C0804100C1814046
:102C860000C1814001C0804101C0804100C1814036
:102C960001C0804100C1814000C1814001C0804126
:102CA60001C0804100C1814000C1814001C0804116
:102CB60000C1814001C0804101C0804100C1814006
:102CC60000C1814001C0804101C0804100C18140F6
:102CD60001C0804100C1814000C1814001C08041E6
:102CE60000C1814001C0804101C0804100C18140D6
:102CF60001C0804100C1814000C1814001C08041C6
:102D060001C0804100C1814000C1814001C08041B5
:102D160000C1814001C0804101C0804100C18140A5
:102D260000C0C101C30302C2C60607C705C5C40465
:102D3600CC0C0DCD0FCFCE0E0ACACB0BC90908C8D5
:102D4600D81819D91BDBDA1A1EDEDF1FDD1D1CDCC5
:102D560014D4D515D71716D6D21213D311D1D01035
:102D6600F03031F133F3F23236F6F737F53534F425
:102D76003CFCFD3DFF3F3EFEFA3A3BFB39F9F83895
:102D860028E8E929EB2B2AEAEE2E2FEF2DEDEC2C85
:102D9600E42425E527E7E62622E2E323E12120E0F5
:102DA600A06061A163A3A26266A6A767A56564A4E5
:102DB6006CACAD6DAF6F6EAEAA6A6BAB69A9A86855
:102DC60078B8B979BB7B7ABABE7E7FBF7DBDBC7C45
:102DD600B47475B577B7B67672B2B373B17170B0B5
:102DE60050909151935352929656579755959454A5
:102DF6009C5C5D9D5F9F9E5E5A9A9B5B9959589815
:102E0600884849894B8B8A4A4E8E8F4F8D4D4C8C04
:102E16004484854587474686824243834181804074
:104AF80090019EEBF0A3EAF0A3E9F0A3ECF0A3ED9C
:014B0800F0BC
:104B0900A374FFF0A3F09001A174FFF5F012071947
:104B190045F0604590019EE0FBA3E475F0011207A2
:104B290019A9F0FA120634FF9001A3E06FFFE4FC23
:104B3900FDFE9001A51208E69001A5A3A3A3E0FC40
:104B4900902C2693FE9001A4E06E9001A3F0EC90C6
:104B59002D26939001A4F080AD9001A3E0FEA3E07F
:034B6900FDEDFF60
:014B6C002226
:1042020090042DEBF0A3EAF0A3E9F0A3ECF0A3ED08
:01421200F0BB
:1042130090043774FFF0A3F090043074FFF5F012AC
:10422300071945F0604590042DE0FBA3E475F00108
:10423300120719A9F0FA120634FF900437E06FFF52
:10424300E4FCFDFE9004391208E6900439A3A3A30D
:10425300E0FC902C2693FE900438E06E900437F037
:10426300EC902D2693900438F080AD90043574FFC4
:10427300F5F012071945F06045900432E0FBA3E422
:1042830075F001120719A9F0FA120634FF900437EA
:10429300E06FFFE4FCFDFE9004391208E690043958
:1042A300A3A3A3E0FC902C2693FE900438E06E9029
:1042B3000437F0EC902D2693900438F080AD9004F1
:0842C30037E0FEA3E0FDEDFF72
:0142CB0022D0
:04439E000208000011
:10548700E49001D7F0A304F0A3F0A3F0E4A3F0A302
:1054970074DCF0A3E4F0A304F0FB7A0179D7E4FF0E
:0354A7000233DDF0
:08005900C28CAE08AF09D28C85
:01006100227C
:1026EF0041540041542B474D4D0041542B43475308
:1026FF004E004154264600415426570041542B4367
:10270F0046554E3D310041542B4943463D332C3005
:10271F000041542B4950523D313135323030004158
:10272F00542B434C434B3D53432C320041542B43CA
:10273F0050494E3F0041542B434F50533F0041549B
:10274F002B435245473D310041542B435245473FA0
:10275F000041542B4353510041542B43475245479B
:10276F003F0041542B43474154543D310041542BBA
:10277F00435354543D22434D4E4554220041542B54
:10278F00435354543D2233676E6574220041542BDA
:10279F0043474155544F3D310041542B4349465314
:1027AF00520041542B4349504D55583D3000415430
:1027BF002B4349504D55583D310041542B434950FF
:1027CF0053544152543D0041542B43495053454EAD
:1027DF00440041542B434950534855540041542B06
:1027EF0043494943520041542B4349505354415498
:1027FF0055530041542B43444E534749503D0038E5
:10280F002E382E382E380041542B4349504D4F440B
:10281F00453D31000D00543D25640A0041545F6968
:10282F006E69740A004F4B002573257325730041A1
:10283F0054353A000A00B2A8CCD8C2CA3A00257360
:10284F0000B2A8CCD8C2CAC9E8D6C3CAA7B0DCA305
:10285F00A10053494DD7B4CCAC3A0053494DBFA852
:10286F00BCECB2E2CAA7B0DCA3A100D0C5BAC5C701
:10287F00BFB6C83A00CEDED0C5BAC5C7BFB6C8A36B
:10288F00A10047534DD7A2B2E1D7B4CCAC3A004721
:10289F00534DBFA8D7A2B2E1CAA7B0DCA3A100478E
:1028AF00505253D7A2B2E1D7B4CCAC3A00475052F2
:1028BF0053D7B4CCACD7A2B2E1CAA7B0DCA3A10066
:1028CF00CDF8C2E7D7B4CCAC3A00B2E9D1AFCDF86E
:1028DF00C2E7D7B4CCACCAA7B0DCA3A100B5A5B7EB
:1028EF00FECEF1C6F7C4A3CABD3A00C9E8D6C3B538
:1028FF00A5B7FECEF1C4A3CABDCAA7B0DCA3A10081
:10290F0047505253B8BDD7C53A0047505253B8BD80
:10291F00D7C5CAA7B0DCA3A100D4CBD0D0C9CC3ABD
:10292F0000B6C1C8A1D4CBD0D0C9CCCAA7B0DCA344
:10293F00A100C8EBCDB8B4ABC4A3CABD3A00BDF873
:10294F00C8EBCDB8B4ABCAA7B0DCA3A10034363006
:10295F00303000434D4E45543A003436303031005C
:10296F0033474E45543A00BCA4BBEED2C6B6AFB304
:10297F00A1BEB03A00BCA4BBEED2C6B6AFB3A1BEE7
:10298F00B0CAA7B0DCA3A100BBF1C8A14950B5D80C
:10299F00D6B73A007365727665723D25730D0A00DE
:1029AF00434F4E4E45435400C1ACBDD3B7FECEF19D
:1029BF00C6F73A00C1B4BDD3B7FECEF1C6F7CAA76A
:0529CF00B0DCA3A10033
:1043A20042036C26EF42038D26F242037426F94241
:1043B200038B27014203972706420376270B42030A
:1043C200852715420395272042036E272E4203724A
:1043D200273B4203782744420387274D420389271C
:1043E2005742038F2760420391276742039B27713D
:1043F20042035E277C42036A278C42037C279C424D
:10440200039D27A842036427B142036627BD4203E6
:104412009927C942036227D642037027E1420393D8
:1044220027EC42037A27F5420368280242035C28FC
:064432000E420360281693
:10530700900233EBF0A3EAF0A3E9F0900233E0FB5D
:10531700A3E0FAA3E0F91206346017900233A3E47E
:1053270075F001120719A9F0FA120634FF1254ECAE
:0353370080D922F8
:10522300900230EBF0A3EAF0A3E9F07E007F807DEB
:10523300007B017A007992120A14E490000FF09037
:105243000230E0FBA3E0FAA3E0F91253077BFF7AF5
:0D5253002879231253077FF47E010251E5F4
:0B413600900221EBF0A3EAF0A3E9F0F7
:10414100E490022FF090000FF012005990022BEE34
:10415100F0A3EFF0900221E0FBA3E0FAA3E0F91253
:1041610052237FF47E011251E590022F7401F090E9
:104171000227E0F9A3E0FAA3E0900233C9F0A3EA31
:10418100F0A3E9F0900224E0FBA3E0FAA3E0F91226
:1041910042CCEA494B705F12005990022DEEF0A318
:1041A100EFF07C007D641206AEED4C702090022D84
:1041B100E0FEA3E0FF7C007D641206AE900233EEC8
:1041C100F0A3EFF07BFF7A28792512159290022B4C
:1041D100E0FEA3E0FFC390022EE09FFF90022DE0DE
:1041E1009EFE90022AE0FDD3EF9DEE94004080E414
:1041F10090022FF0FF22E490000FF090022FE0FFD9
:01420100229A
:0B0C510090021AEBF0A3EAF0A3E9F018
:100C5C007BFF7A28792B12159290036CE0FEA3E0AF
:100C6C00AA06F97BFFC0039002247401F0A3740060
:100C7C00F0A37492F0A3EBF0A37428F0A37434F0F7
:100C8C00A374F4F0D00312413690036CE0FEA3E0A1
:100C9C00AA06F97BFFC0039002247401F0A3740030
:100CAC00F0A37492F0A3EBF0A37428F0A37434F0C7
:100CBC00A374F4F0D00312413690036CE0FEA3E071
:100CCC00AA06F97BFFC0039002247401F0A3740000
:100CDC00F0A37492F0A3EBF0A37428F0A37434F097
:100CEC00A374F4F0D00312413690036CE0FEA3E041
:100CFC00AA06F97BFFC0039002247401F0A37400D0
:100D0C00F0A37492F0A3EBF0A37428F0A37434F066
:100D1C00A374F4F0D00312413690036CE0FEA3E010
:100D2C00AA06F97BFFC0039002247401F0A374009F
:100D3C00F0A37492F0A3EBF0A37428F0A37434F036
:100D4C00A374F4F0D00312413690036CE0FEA3E0E0
:100D5C00AA06F97BFFC0039002247401F0A374006F
:100D6C00F0A37492F0A3EBF0A37428F0A37434F006
:100D7C00A374F4F0D00312413690023374FFF0A345
:100D8C007428F0A3743EF0A37401F0A37400F0A3D4
:100D9C007492F0A374FFF0A37428F0A37443F07B57
:100DAC00FF7A287937121592900395E0FEA3E0AAFA
:100DBC0006F97BFFC0039002247401F0A37400F0C9
:100DCC00A37492F0A3EBF0A37428F0A37434F0A3F3
:100DDC0074F4F0D003124136900220EFF0900233FD
:100DEC0074FFBF0129F0A37428F0A37445F0A37419
:100DFC0001F0A37400F0A37492F0A374FFF0A37439
:100E0C0028F0A37443F07BFF7A287937800FF0A386
:100E1C007428F0A37450F07BFF7A28794D12159248
:100E2C00900397E0FEA3E0AA06F97BFFC0039002B3
:100E3C00247401F0A37400F0A37492F0A3EBF0A35C
:100E4C007428F0A37434F0A374F4F0D00312413678
:100E5C00900372E0FEA3E0AA06F97BFFC0039002A8
:100E6C00247401F0A37400F0A37492F0A3EBF0A32C
:100E7C007428F0A37434F0A374F4F0D00312413648
:100E8C00900220EFF090023374FFBF0129F0A3749D
:100E9C0028F0A37461F0A37401F0A37400F0A374A0
:100EAC0092F0A374FFF0A37428F0A37443F07BFFBB
:100EBC007A287937800FF0A37428F0A3746AF07B3A
:100ECC00FF7A28794D12159290038FE0FEA3E0AAC9
:100EDC0006F97BFFC0039002247401F0A37400F0A8
:100EEC00A37492F0A3EBF0A37428F0A37434F0A3D2
:100EFC0074F4F0D003124136900220EFF0900233DC
:100F0C0074FFBF0129F0A37428F0A3747AF0A374C2
:100F1C0001F0A37400F0A37492F0A374FFF0A37417
:100F2C0028F0A37443F07BFF7A287937800FF0A365
:100F3C007428F0A37484F07BFF7A28794D121592F3
:100F4C00900389E0FEA3E0AA06F97BFFC0039002A0
:100F5C00247401F0A37400F0A37492F0A3EBF0A33B
:100F6C007428F0A37434F0A374F4F0D00312413657
:100F7C00900220EFF090023374FFBF0129F0A374AC
:100F8C0028F0A37491F0A37401F0A37400F0A3747F
:100F9C0092F0A374FFF0A37428F0A37443F07BFFCA
:100FAC007A287937800FF0A37428F0A3749EF07B15
:100FBC00FF7A28794D121592900391E0FEA3E0AAD6
:100FCC0006F97BFFC0039002247401F0A37400F0B7
:100FDC00A37492F0A3EBF0A37428F0A37434F0A3E1
:100FEC0074F4F0D003124136900220EFF0900233EB
:100FFC0074FFBF0129F0A37428F0A374AEF0A3749E
:10100C0001F0A37400F0A37492F0A374FFF0A37426
:10101C0028F0A37443F07BFF7A287937800FF0A374
:10102C007428F0A374BCF07BFF7A28794D121592CA
:10103C00900378E0FEA3E0AA06F97BFFC0039002C0
:10104C00247401F0A37400F0A37492F0A3EBF0A34A
:10105C007428F0A37434F0A374F4F0D00312413666
:10106C00900220EFF090023374FFBF0129F0A374BB
:10107C0028F0A374CFF0A37401F0A37400F0A37450
:10108C0092F0A374FFF0A37428F0A37443F07BFFD9
:10109C007A287937800FF0A37428F0A374D9F07BE9
:1010AC00FF7A28794D121592900364E0FEA3E0AA12
:1010BC0006F97BFFC0039002247401F0A37400F0C6
:1010CC00A37492F0A3EBF0A37428F0A37434F0A3F0
:1010DC0074F4F0D003124136900220EFF0900233FA
:1010EC0074FFBF0129F0A37428F0A374ECF0A3746F
:1010FC0001F0A37400F0A37492F0A374FFF0A37436
:10110C0028F0A37443F07BFF7A287937800FF0A383
:10111C007428F0A374FAF07BFF7A28794D1215929B
:10112C0090039BE0FEA3E0AA06F97BFFC0039002AC
:10113C00247401F0A37400F0A37492F0A3EBF0A359
:10114C007428F0A37434F0A374F4F0D00312413675
:10115C00900220EFF090023374FFBF0129F0A374CA
:10116C0029F0A3740FF0A37401F0A37400F0A3741E
:10117C0092F0A374FFF0A37428F0A37443F07BFFE8
:10118C007A287937800FF0A37429F0A37419F07BB7
:10119C00FF7A28794D121592900378E0FEA3E0AA0D
:1011AC0006F97BFFC0039002247401F0A37400F0D5
:1011BC00A37492F0A3EBF0A37428F0A37434F0A3FF
:1011CC0074F4F0D003124136900220EFF090023309
:1011DC0074FFBF0129F0A37429F0A37428F0A37441
:1011EC0001F0A37400F0A37492F0A374FFF0A37445
:1011FC0028F0A37443F07BFF7A287937800FF0A393
:10120C007429F0A37430F07BFF7A28794D12159273
:10121C00900360E0FEA3E0AA06F97BFFC0039002F6
:10122C00247401F0A37400F0A37492F0A3EBF0A368
:10123C007428F0A37434F0A374F4F0D00312413684
:10124C00900220EFF090023374FFBF0129F0A374D9
:10125C0029F0A37441F0A37401F0A37400F0A374FB
:10126C0092F0A374FFF0A37428F0A37443F07BFFF7
:10127C007A287937800FF0A37429F0A3744DF07B92
:10128C00FF7A28794D12159290023374FFF0A374F3
:10129C0029F0A3745CF07B017A0079921242CCEABB
:1012AC00494B703F90035EE0FEA3E0AA06F97BFF7A
:1012BC00C0039002247401F0A37400F0A37492F0A4
:1012CC00A3EBF0A37428F0A37434F0A374F4F0D05F
:1012DC000312413690023374FFF0A37429F0A37407
:1012EC0062805990023374FFF0A37429F0A37469DF
:1012FC00F07B017A0079921242CCEA494B705F90F4
:10130C00036AE0FEA3E0AA06F97BFFC00390022467
:10131C007401F0A37400F0A37492F0A3EBF0A37427
:10132C0028F0A37434F0A374F4F0D0031241369077
:10133C00023374FFF0A37429F0A3746FF0A374014B
:10134C00F0A37400F0A37492F0A374FFF0A37428BC
:10135C00F0A37443F07BFF7A28793712159290032F
:10136C0093E0FEA3E0AA06F97BFFC003900224746D
:10137C0001F0A37400F0A37492F0A3EBF0A3742813
:10138C00F0A37434F0A374F4F0D00312413690023D
:10139C0020EFF090023374FFBF0129F0A37429F001
:1013AC00A37476F0A37401F0A37400F0A37492F00C
:1013BC00A374FFF0A37428F0A37443F07BFF7A2886
:1013CC007937800FF0A37429F0A37484F07BFF7A33
:1013DC0028794D12159290039DE0FEA3E0AA06F920
:1013EC007BFFC0039002247401F0A37400F0A3747B
:1013FC0092F0A3EBF0A37428F0A37434F0A374F46C
:10140C00F0D003124136900220EFF090023374FFBB
:10141C00F0A37429F0A37497F0A37401F0A37400E3
:10142C00F0A37492F0A374FFF0A37428F0A3744398
:10143C00F07BFF7A287937121592900399E0FEA37E
:10144C00E0AA06F990022474FFF0A3EAF0A3E9F0F5
:10145C0090021DE0FBA3E0FAA3E0F9124C4C9002C1
:10146C001AE0FBA3E0FAA3E0F99000031209BE9086
:10147C000224EBF0A3EAF0A3E9F090021DE0FBA339
:10148C00E0FAA3E0F9124C4C90021DE0F9A3E0FA4B
:10149C00A3E0900233C9F0A3EAF0A3E9F07BFF7A52
:1014AC002979A31215929002247401F0A37400F010
:1014BC00A37492F0A374FFF0A37429F0A374AFF09B
:1014CC00A374E8F090021DE0FBA3E0FAA3E0F9128C
:1014DC00413690037EEFF090023374FFBF0129F088
:1014EC00A37429F0A374B7F0A37401F0A37400F0F3
:1014FC00A37492F0A374FFF0A37428F0A37443F0C8
:10150C007BFF7A287937800FF0A37429F0A374C37A
:0A151C00F07BFF7A28794D1215923A
:0115260022A2
:104B6D0090022CEBF0A3EAF0A3E9F090022CE0FB0D
:104B7D00A3E0FAA3E0F91206346050900229E0F99F
:104B8D00A3E0FAA3E090022FC9F0A3EAF0A3E9F0A5
:104B9D0090022FE0FBA3E0FAA3E0F9120634FF60C8
:104BAD001E90022CE0FBA3E0FAA3E0F9120634B547
:104BBD00070122900230E475F00112070380D190B5
:104BCD00022DE475F00112070380A07B007A0079B5
:014BDD0000D7
:014BDE0022B4
:0B48E30090021AEBF0A3EAF0A3E9F04A
:1048EE0012094F900220EBF0A3EAF0A3E9F0AE021A
:1048FE004E7004FBFAF92290021DE0F9A3E0FAA330
:10490E00E0900229C9F0A3EAF0A3E9F0900220E0BA
:10491E00FBA3E0FAA3E0F9124B6D900223EBF0A398
:10492E00EAF0A3E9F04A4B6014900223E0FBA3E403
:10493E0075F001120719A9F0FAE412067A90022313
:10494E00E0FBA3E0FAA3E0F9C003C002C0019002AD
:10495E001AE0FBA3E0FAA3E0F912096F900220E03F
:07496E00FBA3E0FAA3E0F94E
:01497500221F
:0B44FF0090021AEBF0A3EAF0A3E9F032
:10450A00A3EBF0A3EAF0A3E9F090021AE0F9A3E022
:10451A00FAA3E0900220C9F0A3EAF0A3E9F090021E
:10452A001DE0FBA3E0FAA3E0F9120634FF64206061
:10453A0004EFB4090C90021EE475F001120703801F
:10454A00DD90021DE0FBA3E475F001120719A9F042
:10455A00FA120634FF900220E0FBA3E475F0011280
:10456A000719A9F0FAEF12067A70D690022174FFA1
:10457A0075F0FE801E900220E0FBA3E0FAA3E0F9AA
:10458A00120634FF64206004EFB4090C900221740F
:10459A00FFF5F012070380DD900001E412068C900B
:0A45AA00021AE0FBA3E0FAA3E0F917
:0145B40022E4
:0B3F830090043DEBF0A3EAF0A3E9F08E
:103F8E00A3EBF0A3EAF0A3E9F090043DE0F9A3E07F
:103F9E00FAA3E0900443C9F0A3EAF0A3E9F0900479
:103FAE003DE0F9A3A3E0900446C9F0A3EAF0A3E92B
:103FBE00F0900440E0FBA3E0FAA3E0F9120634FF10
:103FCE0064206004EFB4090C900441E475F0011212
:103FDE00070380DD900440E0FBA3E0FAA3E0F912B2
:103FEE000634FF900443E0FBA3E0FAA3E0F9EF12DE
:103FFE00067A6040900443E0FBA3E0FAA3E0F912D6
:10400E000634FF64206017EF64096012E92401F999
:10401E00E43AFA900446EBF0A3EAF0A3E9F0900438
:10402E0044E475F001120703900441E475F00112A7
:10403E00070380A0900446E0FBA3E0FAA3E0F9E4B6
:0E404E0012067A90043DE0FBA3E0FAA3E0F92D
:01405C002241
:0B3E8300900449EBF0A3EAF0A3E9F083
:103E8E00E490044FF0A3F0120026EF24FFFFEE346F
:103E9E00FF900451F0A3EFF0900449E0FBA3E0FA89
:103EAE00A3E0F990044FE0FEA3E0F5828E831206A4
:103EBE004DFF64206004EFB40910900450E004F04C
:103ECE0070D690044FE004F080CE900449E0FBA33E
:103EDE00E0FAA3E0F9900451E0FEA3E0F5828E83B0
:103EEE0012064DFF64206004EFB40910900452E0F6
:103EFE0024FFF0900451E034FFF080CE900449E0AE
:103F0E00FBA3E0FAA3E0F990044FE0FEA3E0FFE983
:103F1E002FF9EA3EFA900456EBF0A3EAF0A3E9F08B
:103F2E00C3900452E09FFF900451E09ECF2401CF36
:103F3E003400900459F0A3EFF090044CE0FBA3E0A2
:103F4E00FAA3E0F9124CB790044FE0FEA3E0FFC3D2
:103F5E00900452E09FFF900451E09ECF2401CF3495
:103F6E0000FE90044CE0FBA3E0FAA3E0F98F828EF2
:053F7E0083E402068C43
:080003008F993099FDC299228A
:0B48460090039FEBF0A3EAF0A3E9F061
:104851009003CAE4F0A3F0A3F0A304F0A37403F05F
:10486100A374A2F090039FE0F9A3E0FAA3E09004FF
:1048710083C9F0A3EAF0A3E9F09003CDE0F9A3E046
:10488100FAA3E0900486C9F0A3EAF0A3E9F090034B
:10489100CAE0FBA3E0FAA3E0F912500C9003D0EEBA
:1048A100F0A3EFF09003CAE0FBA3E0FAA3E0F91252
:1048B100063460179003CAA3E475F001120719A921
:1048C100F0FA120634FF12000380D99003CAA3E064
:1048D100FAA3E0AE02FF1239CB9003D0E0FEA3E0D1
:0148E100FFD7
:0148E20022B3
:0851E500900233EEF0A3EFF09D
:1051ED00120059900235EEF0A3EFF0120059AB0703
:1051FD00AA06900233E0FEA3E0FF7C007D0A1206B2
:10520D00AEA3E0FCA3E0FDC3EB9DFDEA9CFCC3ED6A
:05521D009FEC9E40D64D
:015222002269
:0E54DD0000007F2B7E067DCBDDFEDEFCDFFABD
:0154EB00229E
:10321900EFD3940540037F0122120634FED39403B1
:1032290040037F0222EF7041EE700B9000011206FD
:103239004DF452935294120634B4010B90000112CA
:10324900064D4293F45294120634FEB4020A9000D9
:103259000112064D42934294EEB4030D90000112FF
:10326900064DFEF45293EE4294EF64017043120648
:1032790034FE700B90000112064DF452915292EEF9
:10328900B4010B90000112064D4291F452921206BC
:1032990034B4020A90000112064D4291429212067C
:1032A90034B4030D90000112064DFEF45291EE4222
:1032B90092EF64027043120634FE700B9000011203
:1032C900064DF452955296EEB4010B900001120688
:1032D9004D4295F45296120634B4020A9000011236
:1032E900064D42954296120634B4030D9000011220
:1032F900064DFEF45295EE4296EF640370431206B2
:1033090034FE700B90000112064DF452B152B2EE28
:10331900B4010B90000112064D42B1F452B21206EB
:1033290034B4020A90000112064D42B142B21206AB
:1033390034B4030D90000112064DFEF452B1EE4271
:10334900B2EF64047043120634FE700B9000011250
:10335900064DF452B352B4EEB4010B9000011206BB
:103369004D42B3F452B4120634B4020A9000011269
:10337900064D42B342B4120634B4030D9000011253
:10338900064DFEF452B3EE42B4EF640570431206E3
:1033990034FF700B90000112064DF452C952CAEF66
:1033A900B4010B90000112064D42C9F452CA12062B
:1033B90034B4020A90000112064D42C942CA1206EB
:1033C90034B4030D90000112064DFFF452C9EF42C7
:0433D900CA7F002285
:03001E004D55003D
:0444380041019600A8
:101D6500900228EBF0A3EAF0A3E9F0900227EFF048
:101D750064016003021F7B90000404F0E4A3F0A358
:101D8500F0A3F0A3F0A3F0A3F0900001F090022BD4
:101D9500F090022BE0FFC39440501474122FF5828B
:101DA500E43401F583E4F090022BE004F080E2E4F2
:101DB50090022BF090022BE0FFC394805014741214
:101DC5002FF582E43400F583E4F090022BE004F073
:101DD50080E2900228E0FBA3E0FAA3E0F9120634C2
:101DE500D394C040037F022290000A12064DB4012D
:101DF50004D2BC8002C2BC120634FFE598543F4FA2
:101E0500F598EF64C06008EF64406003021EF5902A
:101E150000021208B67F007E307D2A7C001207F290
:101E250090022C1208E6E4FFFE7D01FC90022CE0F6
:101E3500F8A3E0F9A3E0FAA3E0FBC312089240037C
:101E45007F022290022CE0F8A3E0F9A3E0FAA3E0D8
:101E5500FBC3E49BFFE49AFE740199FDE498FC90B2
:101E6500022C1208E6900228E0FBA3E0FAA3E0F9B1
:101E750090000112064DFB64017038C28E538EFE30
:101E85005389BF5389CF438E4090022CE0FCA3E0D9
:101E9500FDA3E0FEA3E0FF78081208A38F8D900252
:101EA5002CA3A3A3E0F58BC2AB5389BF538FFDD2FF
:101EB5008E8076EB64027035538EEF438E01538E20
:101EC500F7438E0490022CE0FCA3E0FDA3E0FEA303
:101ED500E0FF78081208A38FD690022CA3A3A3E0F5
:101EE500F5D753AFFB538EF7438E10803C7F02220C
:101EF500900228E0FBA3E0FAA3E0F9120634FF7094
:101F05001390000812064DB40105438E20801A5324
:101F15008EDF8015EFB4801190000812064DB401D4
:101F250005438780800353877F900228E0FBA3E069
:101F3500FAA3E0F990000912064DB40104D2AC8071
:101F450002C2AC90000712064DB40104D29C800277
:101F5500C29C90000B12064D54C0FFE5A2543F4FA2
:101F6500F5A290000C12064DB401054397108003AD
:101F75005397EF7F0022900227E06402600302205E
:101F8500DD90000B7402F0E4A3F0A3F0A3F0A3F03E
:101F9500A3F0A3F090022BF090022BE0FFC3944036
:101FA500501474522FF582E43401F583E4F0900265
:101FB5002BE004F080E2E490022BF090022BE0FF8E
:101FC500C39480501474922FF582E43400F583E4B1
:101FD500F090022BE004F080E2900228E0FBA3E001
:101FE500FAA3E0F9120634FF64C06008EF644060AC
:101FF5000302209D90000A12064DB4010543B50168
:10200500800353B5FE120634B4C005439A8080039D
:10201500539A7F9000021208B67F007E307D2A7C9D
:10202500001207F290022C1208E6E4FFFE7D01FC87
:1020350090022CE0F8A3E0F9A3E0FAA3E0FBC312B9
:10204500089240037F022290022CE0F8A3E0F9A356
:10205500E0FAA3E0FBC3E49BFFE49AFE740199FD5B
:10206500E498FC90022C1208E6538EEF538EF7434A
:102075008E0490022CE0FCA3E0FDA3E0FEA3E0FFAC
:1020850078081208A38FD690022CA3A3A3E0F5D756
:1020950053AFFB438E1080037F0222900228E0FBA2
:1020A500A3E0FAA3E0F990000912064DB401054337
:1020B500AF01800353AFFE90000712064DB4010532
:1020C500439A108003539AEF90000B12064D54016A
:0A20D500FFE5BA54FE4FF5BA7F0391
:0120DF0022DE
:030023000235782B
:0D357800C0E0C0F0C083C082C0D075D0108C
:103585002098030236D7C29890000AE060030236FD
:10359500D7900197E599F07F147E00125441900071
:1035A50008E0C394804002E4F09000097405F090AF
:1035B5000000E0640160030236C9900197E0FF90C6
:1035C5000008E0FE04F074122EF582E43400F58361
:1035D500EFF0EF2480B40A0040030236D79035F0AF
:1035E50075F003A4C58325F0C5837302360E023634
:1035F5001602363D02364402366102366802367FCF
:1036050002368602369D0236AA900196740102366C
:10361500A2900196E0640160030236D7900008E0AD
:10362500640160030236D77BFF7A00791E1215927A
:1036350090000174010236BD9001967402805E907F
:103645000196E0640260030236D7900008E0640149
:1036550060030236D79000017402805C9001967475
:1036650003803A900196E064037067900008E06477
:1036750001705F9000017403803E90019674048090
:103685001C900196E064047049900008E0640170A4
:1036950041900001740480209001967405F090001B
:1036A50008E4F0802D900196E0B40526900008E02E
:1036B500B4011F9000017405F0900196E4F09000AC
:1036C50008F0800E900008E004F0900197E0FF12EA
:1036D50020E0900197E0FF3395E0FEEF64AF4E7078
:1036E50006900193E004F0900193E0B4050AE59992
:1036F500B47F0575C760E4F0309907C2999000075B
:02370500E4F0EE
:0B370700D0D0D082D083D0F0D0E032D0
:03004300024D1F4C
:104D1F00C0E0C0F0C083C082C0D075D018E59A3013
:104D2F00E034539AFE900011E0702B7F14FE125462
:104D3F006490000FE0C394804002E4F090000FE015
:104D4F00FF04F074922FF582E43400F583E59BF0B5
:104D5F009000107405F0E59A30E108539AFD900029
:0E4D6F000EE4F0D0D0D082D083D0F0D0E0326D
:0E54FB008F993099FDC2999000077401F0223C
:10004600120634FF600C1254FB740129F9E43AFAE3
:0300560080EE2217
:0B536C009001D7EBF0A3EAF0A3E9F0FA
:10537700E4FEEEC39D501A9001D7E0FBA3E0FAA329
:10538700E0F98E8275830012064DFF1254FB0E80E2
:01539700E134
:0153980022F2
:0F54EC008F9B90000EE070FA90000E7401F0227A
:1054CA00120634FF600C1254EC740129F9E43AFA1A
:0354DA0080EE223F
:0B53990090049DEBF0A3EAF0A3E9F004
:1053A400E4FEEEC39D501A90049DE0FBA3E0FAA333
:1053B400E0F98E8275830012064DFF1254EC0E80C4
:0153C400E107
:0153C50022C5
:03000B0002000EE2
:0D000E00C0E00509E50970020508D0E032E8
:03001B00020021BF
:0100210032AC
:0300630002002276
:0100220032AB
:1033DD00AD07EDD3940240037F0122ED600302346B
:1033ED0071C28C90000212064DB40104D2A9800264
:1033FD00C2A990000112064DB40104D2B98002C2D7
:10340D00B9120634FED3940340037F0222E589549A
:10341D00FC4EF58990000312064DFFB40103538E47
:10342D007FEF7003438E80EFB40205438904800360
:10343D005389FB90000412064DB40105438F0180A2
:10344D0003538FFE90000512072FE5F0F58C9000C9
:10345D000512072FF58A90000712064DB40102D20E
:10346D008C7F0022ED640160030234FCC28E90005B
:10347D000212064DB40104D2AB8002C2AB90000122
:10348D0012064DB40104D2BB8002C2BB120634FE3B
:10349D00C3940340037F0222E58954CF4EF58990F2
:1034AD00000312064DFFB40103538EBFEF700343AB
:1034BD008E40EFB4020543894080035389BF9000CD
:1034CD000412064DB40105438F028003538FFD9006
:1034DD00000512072FE5F0F58D90000512072FF569
:1034ED008B90000712064DB40102D28E7F0022EDA3
:1034FD0064027074538EEF90000212064DB40105F4
:10350D0043AF04800353AFFB90000312064DFED36F
:10351D00940240037F0222EEB40103538EFB900010
:10352D000312064D7003438E0490000312064DB432
:10353D000205438E088003538EF790000412064D4A
:10354D00B40105438F048003538FFB9000051207D0
:10355D002FFDACF0ECF5D68DD790000712064DB4CB
:0B356D000103438E107F00227F02222A
:0E550900E4F5C7F5C5F5C675C3FF75C4FF22EE
:10516700AD07AC06C2AF75C78375C501ECF5C3AF14
:10517700058FC475C65A75C6A500E5C212067A0D15
:10518700BD00010C740129F9E43AFA90021F74FF7B
:0F519700F5F012070345F070D3125509D2AF227D
:1054AA00AD07AC06C2AFECF5C3AF058FC475C783B1
:1054BA0075C50375C65A75C6A500125509D2AF221D
:1051A600AD07AC06C2AF75C78375C502ECF5C3AFD4
:1051B600058FC4120634F5C275C65A75C6A5000D0C
:1051C600BD00010C740129F9E43AFA9001DC74FF80
:0F51D600F5F012070345F070D3125509D2AF223E
:10006600020183EC5D046005E8590470030201791E
:10007600120144580460F6EC4860F2EC7004FDFE90
:10008600FF22C860DB2481C85009C398600250066D
:100096000201809850CAF582E9294B4A7005AB8265
:1000A60002016F75F0007C1A7880C3EF9BEE9AED23
:1000B60099400DC3EF9BFFEE9AFEED99FDE842F0E5
:1000C600DC23ACF0D0E0FFD0E0FED0E0FDAB822038
:1000D600E7101BEB60BAEC2CFCEF33FFEE33FEEDC2
:1000E60033FD02015BE803F830E705C0F075F00068
:1000F600EF2FFFEE33FEED33FD40B830E7C280AAA6
:1001060075F020800E75F010800575F0087D007E74
:10011600007F003392D530D503120884EC334010AB
:10012600EF33FFEE33FEED33FDEC33FCD5F0ED227D
:0E013600E5F0247EA2D513CC92E7CDCEFF22B9
:10152700E5282433F582E43402F583E00528229088
:101537000230301003900233E475F00112092F02D4
:1015470006342009E97F2ED2098018EF540F249022
:10155700D43440D4FF300D0BEF24BFB41A0050032E
:101567002461FFE52960021529052CE52C70020589
:101577002B30100E900230E475F00112092FEF02A4
:10158700067A02541D7403D2108003E4C210F528B2
:10159700900230120946E4F529F52BF52CE5296070
:1015A700077F2012156A80F5752AFFC20AC209C291
:1015B7000BC20CC20EC20FC211121536FF700D30CE
:1015C70010057F0012157BAF2CAE2B22B4255FC20E
:1015D700D5C20D121536FF24D0B40A00501A75F083
:1015E7000A782930D50508B6FF0106C6A426F620D5
:1015F700D5047002D20C80D924CFB41A00EF50045E
:10160700C2E5D20D02186DD20A80C6D20980C0D2B7
:101617000B80BCD2D580BAD20E80B47F2012156A57
:10162700200B077401B5290040F1121527FF121589
:101637006A0215A4D211D20F8095121527FB121535
:1016470027FA121527F94A4B7006796B7A197BFF2F
:10165700200B2EE529602A7E008E827583001206F4
:101667004D60060EEE652A70F0C2D5EBC0E0EAC009
:10167700E0E9C0E0EE1218CED0E0F9D0E0FAD0E011
:10168700FB120634FF60AAEBC0E0EAC0E0E9C0E065
:1016970012156AD0E02401F9D0E03400FAD0E0FB5B
:1016A700E52A0460DCD52AD98087D20B80A21218DC
:1016B700B060F7E52A70010412018EA92A600DE5D2
:1016C7002A600914F52A121958EF60F3EA30E70285
:1016D700F404C3995079EAF4252A0430E701E404B5
:1016E700F52A800D1218B060C1EA052A252A1201D1
:1016F7008EEA90025FF030E701E4252A04D52A0438
:10170700200E01141218CEE4C0E012195890025F9F
:10171700E0601320E70714F0121552802204F0D07E
:10172700E014C0E07F00121552E52A600712154940
:10173700152A800B300E03121549D0E00215A4D0EC
:10174700E00480C41218B0609EE52A0412018E904E
:10175700025FEAF0E52A200E026001042404121851
:01176700CEB3
:1017680074FF04C0E0121958121552E52A200E021F
:101778006003121549D0E0B52AE87F4512155C9040
:10178800025FE07F2B30E7047F2DF404C0E01215E0
:101798006AD0E075F00A84C0F0121553D0E0121533
:1017A800530215A4791080027908C20FC21180086B
:1017B800D2D5790A8004790AC2D5E52A047002F5DF
:1017C8002AE4FAFDFEFF121527FC7B08200A1312F3
:1017D8001527FD7B1030090A121527FE121527FF61
:1017E8007B20EC3382D592D55013C3E43009069F91
:1017F800FFE49EFEE4200A039DFDE49CFCE4CBF894
:10180800C20AEC700CCFCECDCCE824F8F870F38087
:1018180017C3EF33FFEE33FEED33FDEC33FCEB3350
:10182800FB994002FB0FD8E9EB300A05F8D0E0C479
:1018380048B20AC0E00AEC4D4E4F78207B0070C2D7
:10184800EAB52A0040BCC0E01218D0D0F0D0E020A1
:101858000A04C4C0E0C4B20AC0F0121553D0F0D5CF
:10186800F0EB0215A41209EE16415317AC581612E4
:101878004C160E4217B04F17B84417B849162743ED
:1018880017BE5516EB46174B4516B547198B50161C
:10189800162D161A2E163D2B161E23163B201974CC
:1018A8002A15D64800001635E52AB4FF03752A061E
:1018B800121527FC121527FD121527FE121527FFF2
:1018C8009002580201CB790AA2D5200C14300E09D7
:1018D800B910020404B9080104A2D5200F0250016E
:1018E80004200B68920BB529005034C0E07F2030EB
:1018F8000C197F30A20B720F720E500F121927C2EB
:101908000BC20FC20EC2117F30800F300E03E9C028
:10191800E012156A300E03D0E0F9D0E0B529CC30DA
:101928000E177F30B9100C12156A7F58300D077FDB
:10193800788003B9080312156A300B057F2D02154C
:101948006A7F202011F87F2B200FF322920B80CF83
:101958007F00B40700500B2458F582E43402F58365
:10196800E0FF22286E756C6C2900D20A1215273008
:101978000AF8C20A782930D50108F60215D62D5082
:101988004349581215272403B405004001E490196F
:10199800869312155B743A12155BD20C75290402F2
:0219A80017AC7A
:10500C00900483E0FFA3E0FEA3E0CF900233F0A373
:10501C00EEF0A3EFF0900486E0CBF0A3E0CAF0A38F
:10502C00E0C9F07F22900236AD82AC831206348D3B
:10503C00828C83F0A309E970010ADFEC900486E00E
:0A504C00FBA3E0FAA3E0F902158CC3
:10014400E9D2E7C933E833F892D5EDD2E7CD33EC01
:0701540033FC5002B2D5227A
:10015B00EC30E7100FBF000C0EBE00080DBD000405
:10016B000BEB6014A2D5EB13FCED92E7FD2274FFB1
:10017B00FCFDFEFF22E480F8A2D574FF13FC7D800A
:03018B00E480EF1E
:10018E00F920E73624F950037907E4F42402FBE55D
:10019E0082158270021583DBF6E024FB501BE960AA
:1001AE0014E4F0E582158270021583E004F0B40ABF
:0D01BE0008E4F0D9EE7401F00A22C2D52247
:1001CB00ED33EC3392D5FA602AB4FF33EDC2E77B03
:1001DB00FF60067A0179F0E4227A0179F920D504DF
:1001EB007A0179F4224E614E002B494E46002D497F
:1001FB004E4600E47A08F0A3DAFC7B00740722C0B9
:10020B0083C082ECC0E0EDC0E0EEC0E0EFC0E0EAFE
:10021B0075F010A4CAABF075F04DA42BFBE435F0D0
:10022B00FCEA2410FAEB34C5FBEC34D9FCEDC2E745
:10023B00FF75F056A4F42411C5F0F434C58FF0A467
:10024B002AE5F03BE43CF020E7141204FED0E0FF7B
:10025B00D0E0FED0E0FDD0E0FC1200698014F40485
:10026B001204FED0E0FFD0E0FED0E0FDD0E0FC12A7
:10027B0003C8D082D083E0FAEDD2E7CD33EC332440
:10028B0082FBE4C3CF33CFCE33CECD33CD33DBF3D1
:10029B007B0775F00A846004F0A31B0AE5F0F0A35A
:1002AB008FF0740AA4FFACF08EF0740AA42CFEAC91
:1002BB00F050010C8DF0740AA42CFDE435F0F0A382
:0502CB00DBDE740722D8
:1002D000020179E86480F8E933E83360110460F0E2
:1002E000ED33EC337009E8FCE9FDEAFEEBFF220494
:1002F00060DED3EB9FEA9EE99DE8C2E78CF0C2F78F
:1003000095F0400CE8CCF8E9CDF9EACEFAEBCFFB5A
:1003100012014485D0F05804700320D5B3E804706E
:10032000075002B2D502018392D5EC0460F7E4CC09
:10033000C0E0C398F8603B94186008400DD0E0FB23
:1003400002015BE4FBFAC9FC8028E830E406E4C95A
:10035000FBE4CAFCE830E305E4C9CACBFCE8540777
:100360006010F8C3E913F9EA13FAEB13FBEC13FC82
:10037000D8F130F52FC3E49CFCEF9BFFEE9AFEED25
:1003800099FDD0E0FBEF4E4D4C701222DB030201D1
:1003900080EC2CFCEF33FFEE33FEED33FDED30E768
:1003A000EB02015BEF2BFFEE3AFEED39FDD0E0FBF7
:1003B00050130BBB0003020183ED13FDEE13FEEFA0
:0803C00013FFEC13FC02015BCA
:1003C800EC4D6011E8497017ED33EC3304600DE42F
:1003D800FCFFFEFD22E933E8330470F802017912CC
:1003E800014458046009E4CC2481500628500902CD
:1003F8000183284003020180C0E0EB4A7044B980C1
:1004080006D0E0FB02016FEF4E701CBD8008EBFFC9
:10041800EAFEE9FD80EBE98DF0A4FEE5F00204B107
:10042800E9CDF9EAFEEBFFEF89F0A4FCE5F0CE890F
:10043800F0A42EFFE435F0CD89F0A42DFEE435F0CC
:100448008067EF4E7005BD80D780C3EF8BF0A4ACFA
:10045800F0EE8BF0A42CFCE435F0F8EF8AF0A42C35
:10046800E5F038FCE433CB8DF0A42CFCE5F03BF848
:10047800EE8AF0A42CFCE5F038F8E433CF89F0A438
:100488002CFCE5F038CF3400CE89F0A42FFFE5F03E
:100498003EFEE433C98DF0A42EFEE5F039CD8AF096
:1004A800A42FFFE5F03EFEE43DFD33D0E0FB50070E
:1004B8000BBB000F020183EC2CFCEF33FFEE33FE85
:0604C800ED33FD02015BB3
:1004CE003F8000004120000042C80000447A000036
:1004DE00461C400047C35000497424004B189680B8
:1004EE004CBEBC205A0E1BCA6753C21C749DC5AEAF
:1004FE00FB60065407601C232312052CEB54386056
:10050E00091205181205271203C8ECF8EDF9EEFAD8
:10051E00EFCB22EB12052780F1543803241C9004F4
:10052E00CEFE93FC0EEE93FD0EEE930ECE93FF22B7
:030000000249763C
:0C497600787FE4F6D8FD75812C0249BD65
:10053E00E709F608DFFA8046E709F208DFFA803E9F
:10054E0088828C83E709F0A3DFFA8032E309F6088C
:10055E00DFFA8078E309F208DFFA807088828C83F4
:10056E00E309F0A3DFFA806489828A83E0A3F608A8
:10057E00DFFA805889828A83E0A3F208DFFA804C82
:10058E0080D280FA80C680D4806980F28033801059
:10059E0080A680EA809A80A880DA80E280CA8033C2
:1005AE0089828A83ECFAE493A3C8C582C8CCC5833A
:1005BE00CCF0A3C8C582C8CCC583CCDFE9DEE7800A
:1005CE000D89828A83E493A3F608DFF9ECFAA9F089
:1005DE00EDFB2289828A83ECFAE0A3C8C582C8CCDF
:1005EE00C583CCF0A3C8C582C8CCC583CCDFEADEF8
:1005FE00E880DB89828A83E493A3F208DFF980CC5A
:10060E0088F0EF60010E4E60C388F0ED2402B40452
:10061E000050B9F582EB2402B4040050AF232345F9
:06062E00822390058E738B
:10063400BB010689828A83E0225002E722BBFE02C4
:09064400E32289828A83E49322F7
:10064D00BB010CE58229F582E5833AF583E0225062
:10065D0006E92582F8E622BBFE06E92582F8E222AC
:0D066D00E58229F582E5833AF583E49322C6
:10067A00BB010689828A83F0225002F722BBFE015F
:02068A00F32259
:10068C00F8BB010DE58229F582E5833AF583E8F0A4
:10069C00225006E92582C8F622BBFE05E92582C850
:0206AC00F22238
:1006AE00BC000BBE0029EF8DF084FFADF022E4CC30
:1006BE00F875F008EF2FFFEE33FEEC33FCEE9DECF9
:1006CE00984005FCEE9DFE0FD5F0E9E4CEFD22ED3F
:1006DE00F8F5F0EE8420D21CFEADF075F008EF2F89
:1006EE00FFED33FD4007985006D5F0F222C398FD7A
:0506FE000FD5F0EA2217
:10070300C5F0F8A3E028F0C5F0F8E5821582700281
:060713001583E038F0221E
:10071900A3F8E0C5F025F0F0E58215827002158393
:06072900E0C838F0E822F0
:10072F00BB0110E58229F582E5833AF583E0F5F008
:10073F00A3E0225009E92582F886F008E622BBFEE5
:10074F000AE92582F8E2F5F008E222E5832AF5832B
:08075F00E993F5F0A3E99322F0
:10076700E88FF0A4CC8BF0A42CFCE98EF0A42CFC31
:100777008AF0EDA42CFCEA8EF0A4CDA8F08BF0A4AF
:100787002DCC3825F0FDE98FF0A42CCD35F0FCEB0E
:100797008EF0A4FEA9F0EB8FF0A4CFC5F02ECD39D3
:0F07A700FEE43CFCEAA42DCE35F0FDE43CFC2240
:1007B60075F008758200EF2FFFEE33FECD33CDCCFA
:1007C60033CCC58233C5829BED9AEC99E58298407D
:1007D6000CF582EE9BFEED9AFDEC99FC0FD5F0D65A
:1007E600E4CEFBE4CDFAE4CCF9A88222B800C1B984
:1007F6000059BA002DEC8BF084CFCECDFCE5F0CBC2
:10080600F97818EF2FFFEE33FEED33FDEC33FCEBFA
:1008160033FB10D703994004EB99FB0FD8E5E4F9B5
:10082600FA227818EF2FFFEE33FEED33FDEC33FCA2
:10083600C933C910D7059BE99A4007EC9BFCE99A96
:10084600F90FD8E0E4C9FAE4CCFB2275F010EF2FDB
:10085600FFEE33FEED33FDCC33CCC833C810D707DB
:100866009BEC9AE899400AED9BFDEC9AFCE899F816
:0E0876000FD5F0DAE4CDFBE4CCFAE4C8F922A9
:0E088400C3E49FFFE49EFEE49DFDE49CFC2285
:10089200EB9FF5F0EA9E42F0E99D42F0E89C45F0BC
:0108A2002233
:1008A300E8600FECC313FCED13FDEE13FEEF13FF33
:0308B300D8F12257
:1008B600BB010DE58229F582E5833AF583020BEF4C
:1008C6005007E92582F8020BE2BBFE07E92582F80C
:1008D600020BFBE58229F582E5833AF583020C08D3
:0C08E600ECF0A3EDF0A3EEF0A3EFF02285
:1008F200A8828583F0D083D08212090912090912D5
:100902000909120909E473E493A3C583C5F0C583F9
:10091200C8C582C8F0A3C583C5F0C583C8C582C84F
:0109220022B2
:0C092300A42582F582E5F03583F58322DF
:10092F00F8E0FBA3A3E0F925F0F0E5821582700251
:07093F001583E0FA38F022F5
:09094600EBF0A3EAF0A3E9F022B2
:10094F00BB010789828A83020C2A5005E9F8020C41
:10095F0018BBFE05E9F8020C3389828A83020C4525
:10096F00BB011A89828A83D0F0D0E0F8D0E0F9D0A9
:10097F00E0FAD0E0FBE8C0E0C0F00209465016E90B
:10098F00F8D083D082D0E0F9D0E0FAD0E0FBC0827B
:10099F00C083020C21BBFE16E9F8D083D082D0E0D1
:0F09AF00F9D0E0FAD0E0FBC082C083020C3C22FA
:1009BE00BB010DE58229F582E5833AF583020C2A07
:1009CE005007E92582F8020C18BBFE07E92582F8CC
:1009DE00020C33E58229F582E5833AF583020C4554
:1009EE00D083D082F8E4937012740193700DA3A398
:1009FE0093F8740193F5828883E4737402936860AC
:060A0E00EFA3A3A380DFAB
:104C4C00900221EBF0A3EAF0A3E9F0900227EBF03D
:104C5C00A3EAF0A3E9F0900221E0FBA3E475F001D4
:104C6C00120719A9F0FA12063470EB90022274FFA5
:104C7C00F5F0120703900224E0FBA3E475F0011297
:104C8C000719A9F0FA120634FF900221E0FBA3E405
:104C9C0075F001120719A9F0FAEF12067A70D69086
:0B4CAC000227E0FBA3E0FAA3E0F922DE
:104CB700900453EBF0A3EAF0A3E9F0E490045BF06F
:104CC700A3F090045974FFF5F012071945F0603C02
:104CD700900456E0FBA3E0FAA3E0F9120634FF9034
:104CE7000453E0FBA3E0FAA3E0F990045BE475F05A
:104CF7000112071985F082F583EF12068CEF60C267
:104D0700900457E475F00112070380B6900453E04E
:084D1700FBA3E0FAA3E0F9227E
:10002600E4FFFE120634600C0FEF70010E09E97052
:05003600F20A80EF2238
:1042CC00900230EBF0A3EAF0A3E9F0A3E0FBA3E04B
:1042DC00FAA3E0F91206347003024378900230E03E
:1042EC00FBA3E0FAA3E0F9120634700302438490B6
:1042FC000233E0F9A3E0FAA3E0A3C9F0A3EAF0A328
:10430C00E9F0900230A3E0FAA3E0F9900239EBF067
:10431C00A3EAF0A3E9F0900236E0FBA3E0FAA3E0F5
:10432C00F9120634FF6026900239E0FBA3E0FAA3F1
:10433C00E0F91206346F701590023775F001120710
:10434C000390023AE475F00112070380C99002361B
:10435C00E0FBA3E0FAA3E0F91206347002800D90A2
:10436C000231E475F0011207030242E8900230E0DA
:0F437C00FBA3E0FAA3E0F9227B007A007900228C
:1029D40090021AEBF0A3EAF0A3E9F09002231208A4
:1029E400F200000000E4900221F0A3F090021DE048
:1029F400FBA3E0FAA3E0F9EA494B602090021AE055
:102A0400FBA3E0FAA3E0F9EBC0E0EAC0E0E9C0E030
:102A1400A3E0FBA3E0FAA3E0F912096F90021AE025
:102A2400FBA3E475F001120719A9F0FA1206349019
:102A34000227F0E0FFC394094006EFD3940D40DC75
:102A4400EF642060D7EFB42D0C900221E0F0A3E0F6
:102A54004403F0801D900227E0B42B0C900221E087
:102A6400F0A3E04401F0800A90021B74FFF5F01219
:102A74000703900220E060046410705190021AE091
:102A8400FBA3E0FAA3E0F91206346430600B900271
:102A940020E07039740AF0803490000112064DFF72
:102AA40064786004EFB4581C900221E0F0A3E04481
:102AB40001F09002207410F090021BE475F00212F1
:102AC40007038009900220E070037408F090021A52
:102AD400E0FBA3E475F001120719A9F0FA12063419
:102AE400900227F0E0FFC39461400AEFD3947A5038
:102AF40004EF54DFF0900227E024D0F0E0FFC39409
:102B04000A400FEF94115003022BB3900227E024E4
:102B1400F9F0900220E0FB900227E0D39B400302EF
:102B24002BB3900221E0F0A3E04401F0A3E0FCA366
:102B3400E0FDA3E0FEA3E0FF9002281208E6EBFF0D
:102B44007E00E4FCFD900223E0F8A3E0F9A3E0FAA0
:102B5400A3E0FB120767C8ECC8C9EDC9CAEECACB2B
:102B6400EFCB900227E0FFE4FCFDFEEB2FFFEE3AF3
:102B7400FEED39FDEC38FC9002231208E6900223A6
:102B8400E0FCA3E0FDA3E0FEA3E0FF900228E0F850
:102B9400A3E0F9A3E0FAA3E0FBD3120892500302E6
:102BA4002AD1900221E0F0A3E04404F0022AD1905B
:102BB4000222E020E003E4804390021DE0FBA3E056
:102BC400FAA3E0F9EA494B602690021AE0FBA3E07D
:102BD400FAA3E024FFF9EA34FFFAEBC0E0EAC0E02C
:102BE400E9C0E0A3E0FBA3E0FAA3E0F912096F90C7
:102BF4000221E0FAA3E0FB30E20774FFFFFEFDFCD4
:102C040022EB90022330E10EE0FCA3E0FDA3E0FE02
:102C1400A3E0FF020884E0FCA3E0FDA3E0FEA3E040
:022C2400FF228D
:100A1400EF4E6012EF60010EEDBB010B89828A83F9
:100A2400F0A3DFFCDEFA2289F05007F709DFFCA906
:0C0A3400F022BBFEFCF309DFFCA9F0225D
:100A4000E709F608DFFA807BE9D39850F3E92FF93C
:100A5000E82FF819E718F6DFFA8068E709F208DFEF
:100A6000FA806080E388828C83E709F0A3DFFA8054
:100A700052E309F608DFFA804AE9D398500EE92FCD
:100A8000F9E82FF819E318F2DFFA8037E309F208E2
:100A9000DFFA802F88828C83E309F0A3DFFA8023BA
:100AA00089828A83E0A3F608DFFA801789828A8325
:100AB000E493A3F208DFF9800A89828A83E0A3F233
:100AC00008DFFA020B5280B180F980A580C680DC75
:100AD00080F180738010808380E98087808780D94F
:100AE00080E180BC8073D3E998EA9C5039E92FF506
:100AF00082EA3BF583E82FF8EC3BFC0582D58202C5
:100B000015831582E493C8C582C8CCC583CC058201
:100B1000D5820215831582F0C8C582C8CCC583CCA6
:100B2000DFD9DED7802E89828A83ECFAE493A3C8CA
:100B3000C582C8CCC583CCF0A3C8C582C8CCC58348
:100B4000CCDFE9DEE7800D89828A83E493A3F6088F
:100B5000DFF9ECFAA9F0EDFB22D3E998EA9C5038D2
:100B6000E92FF582EA3BF583E82FF8EC3BFC0582A0
:100B7000D5820215831582E0C8C582C8CCC583CC56
:100B80000582D5820215831582F0C8C582C8CCC5FE
:100B900083CCDFDADED880BC89828A83ECFAE0A3DA
:100BA000C8C582C8CCC583CCF0A3C8C582C8CCC593
:100BB00083CCDFEADEE8809C809888F08E83EF604B
:100BC000010E4E608DED2402B404005085F582EBD9
:100BD0002402B4040050E123234582AB8323900A0E
:020BE000C673DA
:1039CB00900489EEF0A3EFF04E7003023B099004D4
:1039DB0071E07002A3E07003023B09900489E0FEE2
:1039EB00A3E024FCFFEE34FFFEA37404F0A3746F7A
:1039FB00F090048BE0FCA3E0F5828C83E0FCA3E069
:103A0B00FD90048DECF0A3EDF04C6020900489E068
:103A1B00FCA3E0FD90048DE0FAA3E0FBD39DEA9CB0
:103A2B00500A90048BEAF0A3EBF080C590048DE074
:103A3B007002A3E0604D8F828E83A3A3E0FCA3E012
:103A4B00FD90048AE02DFD900489E03CFC90048DF0
:103A5B00E0FAA3E0FB6D7002EA6C70278B828A831D
:103A6B00A3A3E0FCA3E02404FDE43C8F828E83A39C
:103A7B00A38DF012070390048DE0FCA3E0F5828C7C
:103A8B0083800390048DE0FDA3E08F828E83CDF0C5
:103A9B00A3EDF090048BE0FCA3E0FDF5828C83A3F7
:103AAB00A3E0FAA3E0FBED2BFDEC3AFCED2404FDC7
:103ABB00E43CFCED6F7002EC6E70338F828E83A34F
:103ACB00A3E0FCA3E02404FDE43CFC90048BE0FAAF
:103ADB00A3E0FBF5828A83A3A3EC8DF01207038F7F
:103AEB00828E83E0FFA3E08B828A83CF800C9004CD
:0F3AFB008BE0FCA3E0F5828C83EEF0A3EFF022CA
:10498200023D61E493A3F8E493A34003F68001F2AD
:1049920008DFF48029E493A3F85407240CC8C33336
:1049A200C4540F4420C8834004F456800146F6DF05
:1049B200E4800B010204081020408090438BE47EC7
:1049C200019360BCA3FF543F30E509541FFEE493FA
:1049D200A360010ECF54C025E060A840B8E493A3C1
:1049E200FAE493A3F8E493A3C8C582C8CAC583CAEC
:1049F200F0A3C8C582C8CAC583CADFE9DEE780BEA4
:01443C00007F
:0D0BE200E6FB08E6F908E6FA08E6CBF82283
:0C0BEF00E0F8A3E0F9A3E0FAA3E0FB2289
:0D0BFB00E2FB08E2F908E2FA08E2CBF8227A
:100C0800E493F8740193F9740293FA740393FB2242
:090C1800E6FB08E6FA08E6F92201
:090C2100EBF608EAF608E9F622F8
:090C2A00E0FBA3E0FAA3E0F922CB
:090C3300E2FB08E2FA08E2F922F2
:090C3C00EBF208EAF208E9F222E9
:0C0C4500E493FB740193FA740293F9220B
:0B443D0048046F0000000000000000B9
:10526000EF4E7008FE7F01ED1D70011C90046FEE83
:10527000F0A3EFF0A3ECF0A3EDF090046FE0FEA339
:10528000E0FFF5828E83E4F0A3F0ED24FCFDEC3426
:0C529000FF8F828E83A3A3F0A3EDF02219
:00000001FF
