:102C470090052974FFF0E4900528F07B017A057957
:102C5700287F0112187E900529740EF0E49005284C
:102C6700F07B017A057928FF12187E900529748078
:102C7700F09005287401F0FB7A0579287F02121875
:032C87007ED28179
:012C8A002227
:102A18009005287440F0A37401F0A312040C000080
:102A2800258090052F7401F0E4A3F0A304F0E4A33B
:102A3800F0A3F0A3F07B017A0579287F011208AC96
:102A48009005287440F090052A12040C0000258097
:102A5800E490052FF090053104F0E4A3F0A3F07B97
:0A2A6800017A0579287F020208AC0C
:102F3600122C47122A18122EE0D2AFC282C2830286
:022F4600000089
:102F4800EFB40A0675990D3099FD8F993099FD22D5
:102A7200456E74657220636F6E6669677572617404
:102A8200696F6E206D6F6465210D0A007365742095
:102A92007570207375636365737366756C6C79000A
:102AA2004578697420636F6E6669677572617469CF
:102AB2006F6E206D6F646500434839313231207288
:072AC2006573657400C30198
:102D9100602804D400010203040506072B7E1516E2
:102DA10028AED2A6ABF7158809CF4F3C000102032C
:0C2DB1000405060708090A0B0C0D0E0FA4
:10218700900001745AF07B017A01790F9005E3E41E
:10219700F0A37428F0E4FFFE122D137F067E0012D1
:1021A7002DCF78DC7C047D017B017A01790F7E00DD
:1021B7007F1012013678EC7C047D017B017A01796E
:1021C7001F7E007F1012013678D47C047D017B01CD
:1021D7007A01792F7E007F081201367FE87E03128D
:1021E7002DCFE58730E46E7BFF7A2A7972120C9245
:1021F7005387EF120059900613EEF0A3EFF090000B
:1022070001E0645A6007E4900613F0A3F090000120
:10221700E024FC6018240270191228FD9000017454
:1022270055F07BFF7A2A798E120C928005E4900094
:1022370001F0900001E0600FD3900614E0944C90F9
:102247000613E0940440ACE4900001F07BFF7A2A87
:1022570079A2120046121F79120026900612E0B4E6
:1022670001F37BFF7A2A79BA120C927FB87E0B12A0
:0B2277002DCFD281E4900612F080DA37
:102E9A00900524EEF0A3EFF01200599004CEEEF064
:102EAA00A3EFF0900524E0FFA3E09004CCCFF0A3B9
:032EBA00EFF02214
:102EBD00900526EEF0A3EFF01200599004D2EEF03B
:102ECD00A3EFF0900526E0FFA3E09004D0CFF0A390
:032EDD00EFF022F1
:101F7900900007E0D3940050030220871200599083
:101F890004CEE0FCA3E0FDC3EF9DFFEE9CFEC390F1
:101F990004CDE09F9004CCE09E4003022087900589
:101FA900597401F0A37404F0A374ECF0A37401F064
:101FB900A37400F0A37410F0900007E01490055F7B
:101FC900F0A37401F0A37403F0A3740DF07B017AFC
:101FD9000479DC121E64900554EEF0A3EFF0902A08
:101FE900C7E49390053EF0902AC8E49390053FF02A
:101FF90078407C057D017B017A0479D47E007F08D5
:10200900120136900554E0FCA3E0FDEC900548F080
:10201900EDA3F09005B67401F0A37403F0A3740D59
:10202900F0900554E0FFA3E09005B9CFF0A3EFF0DD
:102039007B017A05793E7D0C7C0012235B90055269
:10204900EEF0A3EFF07B017A05793E7D0C122E6D3F
:102059007B017A03790D900554A3E0FD122E6D9052
:102069000552E0FF122F76900552A3E0FF122F765A
:0E2079007FE7122F76E4900007F0900006F04B
:012087002236
:1000260090000EE0D39400400B120059900615EE96
:04003600F0A3EFF054
:01003A0022A3
:1028FD0078D47C047D017B017A0079107E007F08FD
:10290D0012013678DC7C047D017B017A0079187E1A
:10291D00007F1012013678EC7C047D017B017A007A
:10292D0079287E007F10120136E4FFFE122F037FFF
:10293D00067E00122DCF7B017A0079109005EAE416
:10294D00F0A37428F0E4FFFE122D527F067E0002E4
:02295D002DCF7C
:08282100900617EEF0A3EFF0A2
:102829009004CBE0700F1200599004C9EEF0A3EFA9
:10283900F0A37401F01200599004C9E0FCA3E0FD73
:10284900C3EF9DFFEE9CFEC3900618E09F9006170C
:10285900E09E5032E49004CBF02091033092067E42
:10286900007F0180047E007F00EF64014E700CD26E
:10287900937F107E27122DCFC29322D2947FD07ED0
:0628890007122DCFC294DE
:01288F002226
:10242500900007E0D39400405690000EE070509065
:102435000007E014F07048900006E0D39400403A9D
:10244500E4900619F0A3F0900006E0FF900619E06D
:10245500FCA3E0FDC39FEC9400501F74102DF58282
:10246500E43400F583E0FF122F7690061AE004F0BD
:1024750070D5900619E004F080CDE4900006F09048
:10248500000EE0D394004056900007E07050900095
:102495000EE014F0704890000DE0D39400403AE44B
:1024A500900619F0A3F090000DE0FF900619E0FCEE
:1024B500A3E0FDC39FEC9400501F740F2DF582E43B
:1024C5003401F583E0FF122F6790061AE004F070DF
:0E24D500D5900619E004F080CDE490000DF0E3
:0124E30022D6
:07000300252E3278000A00EF
:0B2BFE009005F8EBF0A3EAF0A3E9F06B
:102C0900E4A3F09005FBE0FFC3941050289005F869
:102C1900E0FBA3E0FAA3E0F98F8275830012017546
:102C29009004FFF07BFF7A007903120C929005FB68
:0E2C3900E004F080CE7BFF7A007908020C9256
:0B22820090058FEBF0A3EAF0A3E9F059
:10228D0090059BE4F0A37403F090059BE0C4F85413
:10229D00F0C868FFA3E0C4540F48A3CFF0A3EFF03C
:1022AD00E4A3F07403540FA3F07D037C0090059E0E
:1022BD00E02401FF90059DE03400FEEFC4F8540FBB
:1022CD00C868FFEEC454F048FEC3ED9FEC9E50204D
:1022DD0090059FA3E0FF900595E0FBA3E0FAA3E036
:1022ED00F98D828C83EF1201B40DBD00010C80BD00
:1022FD00900595E0F9A3E0FAA3E090057FC9F0A35E
:10230D00EAF0A3E9F0A312040C0000004090058F41
:10231D00E0F9A3E0FAA3E0900586C9F0A3EAF0A3E3
:10232D00E9F0900592E0F9A3E0FAA3E0900589C9E0
:10233D00F0A3EAF0A3E9F0900598E0FBA3E0FAA37F
:0D234D00E0F9121BDD90059BE0FEA3E0FF10
:01235A002260
:0B1E6400900556EBF0A3EAF0A3E9F0B4
:101E6F0090055FE0FFC4540FFD900565E4F0A3ED0E
:101E7F00F0EF540FFF7E00A3EEF0A3EFF0605C9045
:101E8F00055FE0FF900563EEF0A3EFF090055FE0D4
:101E9F002410FFE433FE900567E0FAA3E0FBC3EFE5
:101EAF009BFFEE9AFE900563E0FCA3E0FDC39FEC61
:101EBF009E5028C374109BFF90055CE0FBA3E0FAD3
:101ECF00A3E0F98D828C83EF1201B4900564E004D6
:101EDF00F070B9900563E004F080B190055CE0F913
:101EEF00A3E0FAA3E090056CC9F0A3EAF0A3E9F030
:101EFF00900566E02401FF900565E03400FEEFC415
:101F0F00F8540FC868FFEEC454F048FEE4FCFD908F
:101F1F00056F120400900556E0F9A3E0FAA3E090D4
:101F2F000573C9F0A3EAF0A3E9F0900559E0F9A30E
:101F3F00E0FAA3E0900576C9F0A3EAF0A3E9F090E8
:101F4F000560E0FBA3E0FAA3E0F9121D3A900566E5
:101F5F00E02401FF900565E03400FEEFC4F8540F54
:091F6F00C868FFEEC454F048FEFE
:011F78002246
:100F8C00637C777BF26B6FC53001672BFED7AB763A
:100F9C00CA82C97DFA5947F0ADD4A2AF9CA472C0E5
:100FAC00B7FD9326363FF7CC34A5E5F171D8311552
:100FBC0004C723C31896059A071280E2EB27B27573
:100FCC0009832C1A1B6E5AA0523BD6B329E32F84EB
:100FDC0053D100ED20FCB15B6ACBBE394A4C58CFE3
:100FEC00D0EFAAFB434D338545F9027F503C9FA8B7
:100FFC0051A3408F929D38F5BCB6DA2110FFF3D285
:10100C00CD0C13EC5F974417C4A77E3D645D197338
:10101C0060814FDC222A908846EEB814DE5E0BDB32
:10102C00E0323A0A4906245CC2D3AC629195E47969
:10103C00E7C8376D8DD54EA96C56F4EA657AAE08C3
:10104C00BA78252E1CA6B4C6E8DD741F4BBD8B8A5E
:10105C00703EB5664803F60E613557B986C11D9EC4
:10106C00E1F8981169D98E949B1E87E9CE5528DF3B
:10107C008CA1890DBFE6426841992D0FB054BB1667
:10108C0052096AD53036A538BF40A39E81F3D7FBF1
:10109C007CE339829B2FFF87348E4344C4DEE9CB3B
:1010AC00547B9432A6C2233DEE4C950B42FAC34EB0
:1010BC00082EA16628D924B2765BA2496D8BD12566
:1010CC0072F8F66486689816D4A45CCC5D65B6920A
:1010DC006C704850FDEDB9DA5E154657A78D9D84AE
:1010EC0090D8AB008CBCD30AF7E45805B8B34506CE
:1010FC00D02C1E8FCA3F0F02C1AFBD0301138A6BE8
:10110C003A9111414F67DCEA97F2CFCEF0B4E67317
:10111C0096AC7422E7AD3585E2F937E81C75DF6EC5
:10112C0047F11A711D29C5896FB7620EAA18BE1B2B
:10113C00FC563E4BC6D279209ADBC0FE78CD5AF4D1
:10114C001FDDA8338807C731B11210592780EC5F17
:10115C0060517FA919B54A0D2DE57A9F93C99CEF73
:10116C00A0E03B4DAE2AF5B0C8EBBB3C8353996174
:10117C00172B047EBA77D626E169146355210C7DB2
:10118C008D01020408102040801B366CD8AB4D9AA0
:10119C002F5EBC63C697356AD4B37DFAEFC591391F
:1011AC0072E4D3BD61C29F254A943366CC831D3A49
:1011BC0074E8CB8D01020408102040801B366CD8DB
:1011CC00AB4D9A2F5EBC63C697356AD4B37DFAEFEC
:1011DC00C5913972E4D3BD61C29F254A943366CC64
:1011EC00831D3A74E8CB8D01020408102040801B4B
:1011FC00366CD8AB4D9A2F5EBC63C697356AD4B3A8
:10120C007DFAEFC5913972E4D3BD61C29F254A9432
:10121C003366CC831D3A74E8CB8D01020408102090
:10122C0040801B366CD8AB4D9A2F5EBC63C697358D
:10123C006AD4B37DFAEFC5913972E4D3BD61C29F14
:10124C00254A943366CC831D3A74E8CB8D01020495
:10125C0008102040801B366CD8AB4D9A2F5EBC63B7
:10126C00C697356AD4B37DFAEFC5913972E4D3BD14
:0F127C0061C29F254A943366CC831D3A74E8CB38
:05000E00EFF0A3E0FF8C
:07001300EF900F8C93FF2218
:07003B00EF90108C93FF22EF
:1004F100E0F9A3E0FAA3E0C9900413F0A3EAF0A3A2
:02050100E9F01F
:100503009005A112040C00000000E47F04FEFDFC32
:100513009005A1E0F8A3E0F9A3E0FAA3E0FBC3127E
:1005230003AC400302064AE47F04FEFDFC9005A1F0
:10053300E0F8A3A3A3E012028F900413E0FBA3E06F
:10054300FAA3E0F98F828E83120175FD9005A1A3B2
:10055300A3E0FAA3E090041675F00412043DEA2523
:10056300E025E02583F583EDF0EF2401FFE43EFE73
:10057300900413E0FBA3E0FAA3E0F98F828E8312C9
:100583000175FF9005A1A3A3E0FAA3E090041775FA
:10059300F00412043DEA25E025E02583F583EFF01E
:1005A300E47F04FEFDFC9005A1E0F8A3E0F9A3E0DD
:1005B300FAA3E0FB12028FEF2402FDE43EFC900459
:1005C30013E0FBA3E0FAA3E0F98D828C831201759B
:1005D300FD9005A1A3A3E0FAA3E090041875F0042D
:1005E30012043DEA25E025E02583F583EDF0EF24B1
:1005F30003FFE43EFE900413E0FBA3E0FAA3E0F95B
:100603008F828E83120175FF9005A1A3A3E0FAA345
:10061300E090041975F00412043DEA25E025E02575
:1006230083F583EFF09005A1E0FCA3E0FDA3E0FEDA
:10063300A3E02401FFE43EFEE43DFDE43CFC900521
:10064300A112040002050DE47F2CFEFDFC9005A120
:10065300E0F8A3E0F9A3E0FAA3E0FBC31203AC4084
:10066300030208AB9005A512040C00000000E47F10
:1006730004FEFDFC9005A5E0F8A3E0F9A3E0FAA3CE
:10068300E0FBC31203AC505AE47F04FEFDFC90056B
:10069300A1E0F8A3E0F9A3E0FAA3E0FB12028FAB19
:1006A300079005A5A3A3A3E0FF2B2412F582E4344E
:1006B30004F583E0FE74AD2FF582E43405F583EE93
:1006C300F09005A5E0FCA3E0FDA3E0FEA3E0240178
:1006D300FFE43EFEE43DFDE43CFC9005A51204006E
:1006E300808C9005A1A3A3A3E05403FFE4FEFDFCCB
:1006F300FBFAF9F8C31203AC60030207819005AD5E
:10070300E0FFE4FCFDFE9005A91204009005AEE0B5
:100713009005ADF09005AFE09005AEF09005B0E028
:100723009005AFF09005A9A3A3A3E09005B0F090C6
:1007330005ADE0FF1200139005AD12000E9005AE5B
:1007430012000E9005AF12000E9005B0EFF0900569
:10075300ADE0FFC007E47B04F89005A1E0FCA3E053
:10076300FDA3E0FEA3E0FF12031A748C2FF582743D
:10077300113EF583E493FED0E06E9005ADF0900555
:10078300A1A3A3E0FEA3E090040675F00412043DC8
:10079300EE25E025E02583F583E0FF9005ADE0FE3F
:1007A300EF6EFF9005A1A3A3E0FAA3E090041675F2
:1007B300F00412043DEA25E025E02583F583EFF0FC
:1007C3009005A1A3A3E0FEA3E090040775F0041233
:1007D300043DEE25E025E02583F583E0FF9005AE9B
:1007E300E0FEEF6EFF9005A1A3A3E0FAA3E090045F
:1007F3001775F00412043DEA25E025E02583F5830F
:10080300EFF09005A1A3A3E0FEA3E090040875F028
:100813000412043DEE25E025E02583F583E0FF90F7
:1008230005AFE0FEEF6EFF9005A1A3A3E0FAA3E0FE
:1008330090041875F00412043DEA25E025E02583B1
:10084300F583EFF09005A1A3A3E0FEA3E0900409D4
:1008530075F00412043DEE25E025E02583F583E0E1
:10086300FF9005B0E0FEEF6EFF9005A1A3A3E0FAB1
:10087300A3E090041975F00412043DEA25E025E095
:100883002583F583EFF09005A1E0FCA3E0FDA3E051
:10089300FEA3E02401FFE43EFEE43DFDE43CFC90C6
:0808A30005A112040002064A3F
:0108AB00222A
:05289000900604EFF0CA
:10289500E4A3F0E4900606F0900605E075F004A4C4
:1028A500FF900410E0FBA3E0FAA3E02FF9EA35F06E
:1028B500FA900606E0FF7C0029F9EC3AFA12015C71
:1028C500FE900605E025E025E0FD900604E0C454F1
:1028D500F02DFDEF2D2416F582E43404F583E06E2A
:1028E5001201A2900606E004F0E0B404AB900605E0
:0728F500E004F0E0B4049CD4
:0128FC0022B9
:1026B600E490061BF0E490061CF090061CE0FFC3B5
:1026C6009404505AEF75F004A4FF900410E0FBA3A5
:1026D600E0FAA3E02FF9EA35F0FA90061BE07E0057
:1026E60029F9EE3AFA12015CFF120013AD079006C3
:1026F6001CE075F004A4FF900410E0FBA3E0FAA32D
:10270600E02FF9EA35F0FA90061BE07E0029F9EE93
:102716003AFAED1201A290061CE004F0809C9006A5
:0A2726001BE004F0E0C39404408BB4
:012730002286
:1024E400900410E0FBA3E0FAA3E0F99000011201CC
:1024F40075FF9000051201759000011201B490005F
:10250400091201759000051201B490000D120175B5
:102514009000091201B490000DEF1201B490000272
:10252400120175FF90000A1201759000021201B4A5
:1025340090000AEF1201B4900006120175FF90009A
:102544000E1201759000061201B490000EEF1201F4
:10255400B4900003120175FF90000F1201759000F2
:10256400031201B490000B12017590000F1201B414
:1025740090000712017590000B1201B4900007EF50
:032584000201B49D
:102E0D00FDE0FF122E2E122E2E122E2EAC07E0FFFD
:102E1D00122E2EE06F6C6DA3FDE0FF122E2E122EE2
:012E2D002E76
:102E2E00EFC4131313540175F01BA4FEEF25E06ECF
:022E3E00FF2271
:10168500E49005FCF0900410E0FBA3E0FAA3E0F978
:101695009005FCE0FF75F004A4F58285F083120146
:1016A500759005FFF0EF75F004A4FFE92FF9EA3511
:1016B500F0FA900001120175FF900410A3E0FAA35F
:1016C500E0F99005FCE0FE75F004A4F58285F08351
:1016D5001201756FFDEE75F004A4FFE92FF9EA35E7
:1016E500F0FA9000021201756DFF9000031201756A
:1016F5006F9005FDF0900001120175FF900410A395
:10170500E0FAA3E0F99005FCE075F004A4F5828504
:10171500F0831201756FFF9005FEF0122E2EEFF08B
:10172500900410E0FBA3E0FAA3E0F99005FCE0FECD
:1017350075F004A4F582E92582F9EA35F0FA12017B
:101745005CFD9005FDE06F6D1201A2EE75F004A43D
:10175500FF900410E0FBA3E0FAA3E02FF9EA35F0CF
:10176500FA900002120175FF9000011201756FFFDA
:101775009005FEF0122E2EEFF09005FCE075F004BA
:10178500A4FF900410E0FBA3E0FAA3E02FF9EA35EB
:10179500F0FAE92401F9E43AFA12015CFF9005FD3B
:1017A500E0FEA3E06E6F1201A29005FCE075F00467
:1017B500A4FF900410E0FBA3E0FAA3E02FF9EA35BB
:1017C500F0FA900003120175FF9000021201756F87
:1017D500FF9005FEF0122E2EEFF09005FCE075F05F
:1017E50004A4FF900410E0FBA3E0FAA3E02FF9EABC
:1017F50035F0FAE92402F9E43AFA12015CFF9005A2
:10180500FDE0FEA3E06E6F1201A29005FCE075F00D
:1018150004A4FF900410E0FBA3E0FAA3E02FF9EA8B
:1018250035F0FA900003120175FF9005FFE06FFF98
:101835009005FEF0122E2EEFF09005FCE075F004F9
:10184500A4FF900410E0FBA3E0FAA3E02FF9EA352A
:10185500F0FAE92403F9E43AFA12015CFF9005FD78
:10186500E0FEA3E06E6F1201A29005FCE004F0E03B
:08187500C39404500302168A1B
:01187D002248
:10148B00E49005ECF0A3F09005ECE0FEA3E0FFC3C5
:10149B009404EE648094804003021684EF7802C3B8
:1014AB0033CE33CED8F9FF900410E0FBA3E0FAA3C0
:1014BB00E0F98F828E831201759005EEF0E92FF91A
:1014CB00EA3EFA9000011201759005EFF0900002D0
:1014DB001201759005F0F09000031201759005F163
:1014EB00F09005EEE0FF122E2E122E2EAD07E0FF30
:1014FB00122E2EEF6D122E25EF6DA3122E0DAC07B3
:10150B00E0FF122E2E122E1DE06F6DFD9005ECE00C
:10151B00FEA3E07802C333CE33CED8F9FF9004108C
:10152B00E0FBA3E0FAA3E0F98F828E83ED1201B406
:10153B009005EFE0FF122E2E122E2EAD07E0FF12BC
:10154B002E2EEF6D122E25EF6D9005EE122E25E04F
:10155B006F6D9005F0122E0DAC07E0FF122E2E12C0
:10156B002E2EE06F6C6DFD9005ECE0FEA3E0780293
:10157B00C333CE33CED8F9FF900410E0FBA3E0FACF
:10158B00A3E02FF9EA3EFA900001ED1201B49005A9
:10159B00EE122E26AD07E0FF122E2E122E2EE06F2E
:1015AB00122E23E06F6DFDA3E0FF122E2E122E2EB6
:1015BB00AC07E0FF122E2EEF6CFC122E26EF122E34
:1015CB0022AC07E0FF122E2EE06F6C6DFD9005EC48
:1015DB00E0FEA3E07802C333CE33CED8F9FF9004FC
:1015EB0010E0FBA3E0FAA3E02FF9EA3EFA90000229
:1015FB00ED1201B49005EF122E26AD07E0FF122E6F
:10160B002E122E2EE06F6DFD9005EE122E26AC07DE
:10161B00E0FF122E2EE06F6C6DFD9005F0122E2662
:10162B00E06F6DFDA3E0FF122E2E122E2EAC07E005
:10163B00FF122E2EEF6CFC122E26EF6C6DFD90051B
:10164B00ECE0FEA3E07802C333CE33CED8F9FF90A3
:10165B000410E0FBA3E0FAA3E02FF9EA3EFA9000B6
:10166B0003ED1201B49005EDE004F0600302149257
:09167B009005ECE004F002149269
:011684002243
:10273100E490061DF0E490061EF090061EE0FFC333
:102741009404505AEF75F004A4FF900410E0FBA329
:10275100E0FAA3E02FF9EA35F0FA90061DE07E00D9
:1027610029F9EE3AFA12015CFF12003BAD0790061F
:102771001EE075F004A4FF900410E0FBA3E0FAA3AF
:10278100E02FF9EA35F0FA90061DE07E0029F9EE16
:102791003AFAED1201A290061EE004F0809C900628
:0A27A1001DE004F0E0C39404408B37
:0127AB00220B
:10258700900410E0FBA3E0FAA3E0F990000D12011C
:1025970075FF90000912017590000D1201B49000AB
:1025A700051201759000091201B49000011201751E
:1025B7009000051201B4900001EF1201B4900002DF
:1025C700120175FF90000A1201759000021201B402
:1025D70090000AEF1201B4900006120175FF9000F7
:1025E7000E1201759000061201B490000EEF120151
:1025F700B4900003120175FF900007120175900057
:10260700031201B490000B1201759000071201B478
:1026170090000F12017590000B1201B490000FEF9C
:032627000201B4F9
:102B6700900569E0F9A3E0FAA3E0900410C9F0A387
:052B7700EAF0A3E9F003
:102B7C00E490061FF0FF12289090061F7401F012CB
:102B8C0026B61224E412168590061FE0FF12289038
:102B9C0090061FE004F0E0C3940A40E31226B6123C
:072BAC0024E47F0A022890D7
:102B1A0090057CE0F9A3E0FAA3E0900410C9F0A3C1
:052B2A00EAF0A3E9F050
:102B2F00E4900620F07F0A1228909006207409F096
:102B3F00122587122731900620E0FF1228901214D9
:102B4F008B900620E014F0E0D3940050E312258719
:082B5F00122731E4FF02289067
:1029BD0090056CE0F9A3E0FAA3E09005F5C9F0A34A
:1029CD00EAF0A3E9F0900569E0FBA3E0FAA3E0F9D2
:0B29DD009005F2EBF0A3EAF0A3E9F094
:1029E800E4FF9005F5E0FBA3E0FAA3E0F98F827518
:1029F8008300120175FE9005F2E0FBA3E0FAA3E064
:0F2A0800F98F82758300EE1201B40FEFB410D373
:012A1700229C
:102C8B009005CCEBF0A3EAF0A3E9F09005CCE0F9CA
:102C9B00A3E0FAA3E09005F5C9F0A3EAF0A3E9F0ED
:102CAB009005D21229D59005D2E0F9A3E0FAA3E062
:102CBB00900410C9F0A3EAF0A3E9F09005CF120439
:042CCB00F1022B7C6B
:102CCF009005D5EBF0A3EAF0A3E9F09005D5E0F974
:102CDF00A3E0FAA3E09005F5C9F0A3EAF0A3E9F0A9
:102CEF009005DB1229D59005DBE0F9A3E0FAA3E00C
:102CFF00900410C9F0A3EAF0A3E9F09005D81204EC
:042D0F00F1022B2F73
:082AC900E0FBA3E0FAA3E0F931
:0B2AD100900607EBF0A3EAF0A3E9F089
:102ADC00E4FF900607E0FBA3E0FAA3E02FF9E43A49
:102AEC00FAC003C002C00112015CFE9004C6E0FBF8
:102AFC00A3E0FAA3E0F98F827583001201756ED002
:0D2B0C0001D002D0031201A20FEFB410C5DA
:012B19002299
:0B1D3A00900569EBF0A3EAF0A3E9F0CC
:101D450090056FE0FCA3E0FDA3E0FEA3E0540FFFC8
:101D550090057BEFF0C002C00190056CE0F9A3E0AF
:101D6500FAA3E09005F5C9F0A3EAF0A3E9F0D001E4
:101D7500D0021229DD900569E0F9A3E0FAA3E0900D
:101D85000410C9F0A3EAF0A3E9F0900573E0FBA302
:101D9500E0FAA3E0F94A6004EB1204F9900576E055
:101DA500FBA3E0FAA3E0F94A600B9004C6EBF0A3AD
:101DB500EAF0A3E9F0E4900579F0A3F0900579E065
:101DC500FEA3E0FFE4FCFD90056FE0F8A3E0F9A3B6
:101DD500E0FAA3E0FBD31203AC404690056C122A4F
:101DE500C91229BD122B67900569E0F9A3E0FAA392
:101DF500E09004C6C9F0A3EAF0A3E9F090056DE40C
:101E050075F01012022B90056AE475F01012022B82
:101E150090057AE02410F0900579E03400F0021D79
:101E2500C190057BE060371229BD90057BE0FFFD81
:101E3500C374109DFDE49400FCC004C005900569C1
:101E4500E0FBA3E0FAA3E0F9EFFD7C00E92DF9EC56
:0E1E55003AFA7D00D007D006120449122B671E
:011E6300225C
:0B1BDD0090057CEBF0A3EAF0A3E9F018
:101BE800900582E0FCA3E0FDA3E0FEA3E0540FFF14
:101BF80090058EEFF0C002C00190057FE0F9A3E0E8
:101C0800FAA3E09005F5C9F0A3EAF0A3E9F0D00142
:101C1800D0021229DD90057CE0F9A3E0FAA3E09058
:101C28000410C9F0A3EAF0A3E9F0900586E0FBA34D
:101C3800E0FAA3E0F94A6007900413EB1204FC9061
:101C48000589E0FBA3E0FAA3E0F94A600B9004C61B
:101C5800EBF0A3EAF0A3E9F0E490058CF0A3F09090
:101C6800058CE0FEA3E0FFE4FCFD900582E0F8A30C
:101C7800E0F9A3E0FAA3E0FBD31203AC405E9005C1
:101C88007FE0F9A3E0FAA3E09005F5C9F0A3EAF034
:101C9800A3E9F090057C1229D5122B1A90057C1225
:101CA8002AC990057FE0F9A3E0FAA3E09004C6C929
:101CB800F0A3EAF0A3E9F0900580E475F0101202B1
:101CC8002B90057DE475F01012022B90058DE02411
:101CD80010F090058CE03400F0021C6790058EE04F
:101CE800604F90057FE0F9A3E0FAA3E09005F5C9FD
:101CF800F0A3EAF0A3E9F090057C1229D590058EAF
:101D0800E0FFFDC374109DFDE49400FCC004C00511
:101D180090057CE0FBA3E0FAA3E0F9EFFD7C00E985
:101D28002DF9EC3AFA7D00D007D006120449122B9F
:011D38001A90
:011D39002287
:10128B0000C1814001C0804101C0804100C181404B
:10129B0001C0804100C1814000C1814001C080413B
:1012AB0001C0804100C1814000C1814001C080412B
:1012BB0000C1814001C0804101C0804100C181401B
:1012CB0001C0804100C1814000C1814001C080410B
:1012DB0000C1814001C0804101C0804100C18140FB
:1012EB0000C1814001C0804101C0804100C18140EB
:1012FB0001C0804100C1814000C1814001C08041DB
:10130B0001C0804100C1814000C1814001C08041CA
:10131B0000C1814001C0804101C0804100C18140BA
:10132B0000C1814001C0804101C0804100C18140AA
:10133B0001C0804100C1814000C1814001C080419A
:10134B0000C1814001C0804101C0804100C181408A
:10135B0001C0804100C1814000C1814001C080417A
:10136B0001C0804100C1814000C1814001C080416A
:10137B0000C1814001C0804101C0804100C181405A
:10138B0000C0C101C30302C2C60607C705C5C4041A
:10139B00CC0C0DCD0FCFCE0E0ACACB0BC90908C88A
:1013AB00D81819D91BDBDA1A1EDEDF1FDD1D1CDC7A
:1013BB0014D4D515D71716D6D21213D311D1D010EA
:1013CB00F03031F133F3F23236F6F737F53534F4DA
:1013DB003CFCFD3DFF3F3EFEFA3A3BFB39F9F8384A
:1013EB0028E8E929EB2B2AEAEE2E2FEF2DEDEC2C3A
:1013FB00E42425E527E7E62622E2E323E12120E0AA
:10140B00A06061A163A3A26266A6A767A56564A499
:10141B006CACAD6DAF6F6EAEAA6A6BAB69A9A86809
:10142B0078B8B979BB7B7ABABE7E7FBF7DBDBC7CF9
:10143B00B47475B577B7B67672B2B373B17170B069
:10144B005090915193535292965657975595945459
:10145B009C5C5D9D5F9F9E5E5A9A9B5B99595898C9
:10146B00884849894B8B8A4A4E8E8F4F8D4D4C8CB9
:10147B004484854587474686824243834181804029
:1027AC009005C1EBF0A3EAF0A3E9F0A3ECF0A3EDE4
:0127BC00F02C
:1027BD00A374FFF0A3F09005C474FFF5F01202416D
:1027CD0045F060459005C1E0FBA3E475F0011202F0
:1027DD0041A9F0FA12015CFF9005C6E06FFFE4FC21
:1027ED00FDFE9005C81204009005C8A3A3A3E0FC4C
:1027FD0090128B93FE9005C7E06E9005C6F0EC909D
:10280D00138B939005C7F080AD9005C6E0FEA3E055
:03281D00FDEDFFCF
:012820002295
:10235B009005B1EBF0A3EAF0A3E9F0A3ECF0A3ED49
:01236B00F081
:10236C009005BB74FFF0A3F09005B474FFF5F01268
:10237C00024145F060459005B1E0FBA3E475F00126
:10238C00120241A9F0FA12015CFF9005BBE06FFF4D
:10239C00E4FCFDFE9005BD1204009005BDA3A3A3B3
:1023AC00E0FC90128B93FE9005BCE06E9005BBF0A8
:1023BC00EC90138B939005BCF080AD9005B974FF35
:1023CC00F5F012024145F060459005B6E0FBA3E440
:1023DC0075F001120241A9F0FA12015CFF9005BBE5
:1023EC00E06FFFE4FCFDFE9005BD1204009005BDFE
:1023FC00A3A3A3E0FC90128B93FE9005BCE06E901F
:10240C0005BBF0EC90138B939005BCF080AD900560
:08241C00BBE0FEA3E0FDEDFFB3
:012424002295
:042DBD00021D0000F3
:102EE000E4900528F0A304F0A3F0A3F0E4A3F0A37A
:102EF00074DCF0A3E4F0A304F0FB7A057928E4FF86
:032F0000021A4270
:08005900C28CAF1EAE1DD28C5B
:01006100227C
:082DCF00900600EEF0A3EFF006
:102DD700120059900602EEF0A3EFF0120059AB076C
:102DE700AA06900600E0FEA3E0FF7C007D0A120120
:102DF700D6A3E0FCA3E0FDC3EB9DFDEA9CFCC3ED7D
:052E07009FEC9E40D687
:012E0C0022A3
:0E2F580000007F2B7E067DCBDDFEDEFCDFFA67
:012F66002248
:10187E00EFD3940540037F012212015CFED3940343
:10188E0040037F0222EF7041EE700B9000011201B7
:10189E0075F45293529412015CB4010B9000011234
:1018AE0001754293F4529412015CFEB4020A900048
:1018BE000112017542934294EEB4030D9000011291
:1018CE000175FEF45293EE4294EF640170431201DF
:1018DE005CFE700B900001120175F452915292EE63
:1018EE00B4010B9000011201754291F45292120153
:1018FE005CB4020A900001120175429142921201EB
:10190E005CB4030D900001120175FEF45291EE428B
:10191E0092EF6402704312015CFE700B9000011294
:10192E000175F452955296EEB4010B90000112011E
:10193E00754295F4529612015CB4020A900001129F
:10194E0001754295429612015CB4030D900001128E
:10195E000175FEF45295EE4296EF64037043120148
:10196E005CFE700B900001120175F452B152B2EE92
:10197E00B4010B90000112017542B1F452B2120182
:10198E005CB4020A90000112017542B142B212011A
:10199E005CB4030D900001120175FEF452B1EE42DB
:1019AE00B2EF6404704312015CFE700B90000112E2
:1019BE000175F452B352B4EEB4010B900001120152
:1019CE007542B3F452B412015CB4020A90000112D3
:1019DE00017542B342B412015CB4030D90000112C2
:1019EE000175FEF452B3EE42B4EF6405704312017A
:1019FE005CFF700B900001120175F452C952CAEFD0
:101A0E00B4010B90000112017542C9F452CA1201C1
:101A1E005CB4020A90000112017542C942CA120159
:101A2E005CB4030D900001120175FFF452C9EF4230
:041A3E00CA7F002239
:042DC10041000000CD
:1008AC00900536EBF0A3EAF0A3E9F0900535EFF0F4
:1008BC0064016003020AC290000204F0E4A3F0A3F6
:1008CC00F0A3F0A3F0A3F0A3F0900001F090053991
:1008DC00F0900539E0FFC394FF5014740E2FF5828D
:1008EC00E43402F583E4F0900539E004F080E2E4AE
:1008FC00900539F0900539E0FFC394FF5014741043
:10090C002FF582E43400F583E4F0900539E004F02F
:10091C0080E2900536E0FBA3E0FAA3E0F912015C5B
:10092C00D394C040037F022290000A120175B401D7
:10093C0004D2BC8002C2BC12015CFFE598543F4F4C
:10094C00F598EF64C06008EF64406003020A3C90C5
:10095C0000021203D07F007E307D2A7C0012031A25
:10096C0090053A120400E4FFFE7D01FC90053AE08C
:10097C00F8A3E0F9A3E0FAA3E0FBC31203AC400335
:10098C007F022290053AE0F8A3E0F9A3E0FAA3E095
:10099C00FBC3E49BFFE49AFE740199FDE498FC9080
:1009AC00053A120400900536E0FBA3E0FAA3E0F947
:1009BC00900001120175FB64017038C28E538EFEDB
:1009CC005389BF5389CF438E4090053AE0FCA3E096
:1009DC00FDA3E0FEA3E0FF78081203BD8F8D900508
:1009EC003AA3A3A3E0F58BC2AB5389BF538FFDD2BF
:1009FC008E8076EB64027035538EEF438E01538EEE
:100A0C00F7438E0490053AE0FCA3E0FDA3E0FEA3BF
:100A1C00E0FF78081203BD8FD690053AA3A3A3E09C
:100A2C00F5D753AFFB538EF7438E10803C7F0222D9
:100A3C00900536E0FBA3E0FAA3E0F912015CFF702D
:100A4C0013900008120175B40105438E20801A53CF
:100A5C008EDF8015EFB48011900008120175B4017F
:100A6C0005438780800353877F900536E0FBA3E026
:100A7C00FAA3E0F9900009120175B40104D2AC801C
:100A8C0002C2AC900007120175B40104D29C800222
:100A9C00C29C90000B12017554C0FFE5A2543F4F4D
:100AAC00F5A290000C120175B40105439710800358
:100ABC005397EF7F0022900535E064026003020C2F
:100ACC00249000097402F0E4A3F0A3F0A3F0A3F0C7
:100ADC00A3F0A3F0900539F0900539E0FFC394FF23
:100AEC005014740D2FF582E43403F583E4F0900573
:100AFC0039E004F080E2E4900539F0900539E0FF2C
:100B0C00C394FF5014740F2FF582E43401F583E481
:100B1C00F0900539E004F080E2900536E0FBA3E0AC
:100B2C00FAA3E0F912015CFF64C06008EF64406056
:100B3C0003020BE490000A120175B4010543B501E0
:100B4C00800353B5FE12015CB4C005439A80800348
:100B5C00539A7F9000021203D07F007E307D2A7C56
:100B6C000012031A90053A120400E4FFFE7D01FC0A
:100B7C0090053AE0F8A3E0F9A3E0FAA3E0FBC31276
:100B8C0003AC40037F022290053AE0F8A3E0F9A3FE
:100B9C00E0FAA3E0FBC3E49BFFE49AFE740199FD29
:100BAC00E498FC90053A120400538EEF538EF743F1
:100BBC008E0490053AE0FCA3E0FDA3E0FEA3E0FF69
:100BCC0078081203BD8FD690053AA3A3A3E0F5D7FE
:100BDC0053AFFB438E1080037F0222900536E0FB5F
:100BEC00A3E0FAA3E0F9900009120175B4010543E2
:100BFC00AF01800353AFFE900007120175B40105DD
:100C0C00439A108003539AEF90000B120175540114
:0A0C1C00FFE5BA54FE4FF5BA7F035E
:010C260022AB
:0300230002208830
:0D208800C0E0C0F0C083C082C0D075D00899
:10209500209803022156C298900008E060030221AF
:1020A50056900001E070067FC8FE122E9AAF9990F7
:1020B5000006E0C394FF4002E4F0900006E0FE0451
:1020C500F074102EF582E43400F583EFF0900007EC
:1020D5007405F0EF24AF604F24FE602D24FE6013DD
:1020E50024FD602C24FE604C240D70659000007466
:1020F500018039900000E064017056900006E064AC
:1021050001704E90000104803E9000007402801C16
:10211500900000E064027039900006E064017031BF
:10212500900001740280209000007404F090000675
:10213500E4F0801D900000E0B40416900006E0B4C1
:10214500010F9000017404F0900000E4F090000687
:10215500F0E599B4AF0690040DE004F090040DE0AD
:10216500B4050AE599B47F0575C760E4F0309907B1
:07217500C299900005E4F09F
:0B217C00D0D0D082D083D0F0D0E03271
:0300430002295F30
:10295F00C0E0C0F0C083C082C0D075D010E59A30FF
:10296F00E034539AFE90000FE0702B7FC8FE122EBA
:10297F00BD90000DE0C394FF4002E4F090000DE025
:10298F00FF04F0740F2FF582E43401F583E59BF01B
:10299F0090000E7405F0E59A30E108539AFD90000F
:0E29AF000CE4F0D0D0D082D083D0F0D0E03253
:0F2F6700900005E070FA9000057401F08F992238
:1000460012015CFF600C122F67740129F9E43AFA79
:0300560080EE2217
:0B2E400090060AEBF0A3EAF0A3E9F013
:102E4B00E4FEEEC39D501A90060AE0FBA3E0FAA342
:102E5B00E0F98E82758300120175FF122F670E80C9
:012E6B00E185
:012E6C002243
:0F2F760090000CE070FA90000C7401F08F9B2219
:102F230012015CFF600C122F76740129F9E43AFA5E
:032F330080EE220B
:0B2E6D0090060DEBF0A3EAF0A3E9F0E3
:102E7800E4FEEEC39D501A90060DE0FBA3E0FAA312
:102E8800E0F98E82758300120175FF122F760E808D
:012E9800E158
:012E99002216
:092DC50041061200420610000054
:03000B00022BB312
:082BB300C0E0C083C082C0D065
:102BBB00051EE51E7002051D20A728900611E004D6
:102BCB00F07006900610E004F0C3900611E094F448
:102BDB00900610E094014012C281E4F0A3F0A3042C
:0A2BEB00F08007900610E4F0A3F05C
:092BF500D0D0D082D083D0E032B0
:03001B0002000AD6
:01000A0032C3
:0300630002001A7E
:01001A0032B3
:101A4200AD07EDD3940240037F0122ED6003021A39
:101A5200D6C28C900002120175B40104D2A9800290
:101A6200C2A9900001120175B40104D2B98002C268
:101A7200B912015CFED3940340037F0222E589542C
:101A8200FC4EF589900003120175FFB40103538ED9
:101A92007FEF7003438E80EFB40205438904800315
:101AA2005389FB900004120175B40105438F018034
:101AB20003538FFE900005120257E5F0F58C90005B
:101AC20005120257F58A900007120175B40102D27D
:101AD2008C7F0022ED64016003021B61C28E9000C4
:101AE20002120175B40104D2AB8002C2AB900001B4
:101AF200120175B40104D2BB8002C2BB12015CFEAA
:101B0200C3940340037F0222E58954CF4EF58990A6
:101B12000003120175FFB40103538EBFEF7003433C
:101B22008E40EFB4020543894080035389BF900081
:101B320004120175B40105438F028003538FFD9097
:101B42000005120257E5F0F58D900005120257F5D7
:101B52008B900007120175B40102D28E7F0022ED34
:101B620064027074538EEF900002120175B4010585
:101B720043AF04800353AFFB900003120175FED301
:101B8200940240037F0222EEB40103538EFB9000C5
:101B9200031201757003438E04900003120175B4A1
:101BA2000205438E088003538EF7900004120175DC
:101BB200B40105438F048003538FFB90000512028A
:101BC20057FDACF0ECF5D68DD7900007120175B435
:0B1BD2000103438E107F00227F0222DF
:0E2F8500E4F5C7F5C5F5C675C3FF75C4FF2298
:102D1300AD07AC06C2AF75C78375C501ECF5C3AF8C
:102D2300058FC475C65A75C6A500E5C21201A20D6A
:102D3300BD00010C740129F9E43AFA9005E374FF2C
:0F2D4300F5F012022B45F070D3122F85D2AF227C
:102F0300AD07AC06C2AFECF5C3AF058FC475C7837D
:102F130075C50375C65A75C6A500122F85D2AF2293
:102D5200AD07AC06C2AF75C78375C502ECF5C3AF4C
:102D6200058FC412015CF5C275C65A75C6A5000D61
:102D7200BD00010C740129F9E43AFA9005EA74FFE6
:0F2D8200F5F012022B45F070D3122F85D2AF223D
:0300000002262AAB
:0C262A00787FE4F6D8FD7581210226714E
:10006600E709F608DFFA8046E709F208DFFA803E7C
:1000760088828C83E709F0A3DFFA8032E309F60869
:10008600DFFA8078E309F208DFFA807088828C83D1
:10009600E309F0A3DFFA806489828A83E0A3F60885
:1000A600DFFA805889828A83E0A3F208DFFA804C5F
:1000B60080D280FA80C680D4806980F28033801036
:1000C60080A680EA809A80A880DA80E280CA80339F
:1000D60089828A83ECFAE493A3C8C582C8CCC58317
:1000E600CCF0A3C8C582C8CCC583CCDFE9DEE780E7
:1000F6000D89828A83E493A3F608DFF9ECFAA9F066
:10010600EDFB2289828A83ECFAE0A3C8C582C8CCBB
:10011600C583CCF0A3C8C582C8CCC583CCDFEADED4
:10012600E880DB89828A83E493A3F208DFF980CC36
:1001360088F0EF60010E4E60C388F0ED2402B4042F
:100146000050B9F582EB2402B4040050AF232345D6
:0601560082239000B67345
:10015C00BB010689828A83E0225002E722BBFE02A1
:09016C00E32289828A83E49322D4
:10017500BB010CE58229F582E5833AF583E022503F
:1001850006E92582F8E622BBFE06E92582F8E22289
:0D019500E58229F582E5833AF583E49322A3
:1001A200BB010689828A83F0225002F722BBFE013C
:0201B200F32236
:1001B400F8BB010DE58229F582E5833AF583E8F081
:1001C400225006E92582C8F622BBFE05E92582C82D
:0201D400F22215
:1001D600BC000BBE0029EF8DF084FFADF022E4CC0D
:1001E600F875F008EF2FFFEE33FEEC33FCEE9DECD6
:1001F600984005FCEE9DFE0FD5F0E9E4CEFD22ED1C
:10020600F8F5F0EE8420D21CFEADF075F008EF2F65
:10021600FFED33FD4007985006D5F0F222C398FD56
:050226000FD5F0EA22F3
:10022B00C5F0F8A3E028F0C5F0F8E582158270025E
:06023B001583E038F022FB
:10024100A3F8E0C5F025F0F0E58215827002158370
:06025100E0C838F0E822CD
:10025700BB0110E58229F582E5833AF583E0F5F0E5
:10026700A3E0225009E92582F886F008E622BBFEC2
:100277000AE92582F8E2F5F008E222E5832AF58308
:08028700E993F5F0A3E99322CD
:10028F00E88FF0A4CC8BF0A42CFCE98EF0A42CFC0E
:10029F008AF0EDA42CFCEA8EF0A4CDA8F08BF0A48C
:1002AF002DCC3825F0FDE98FF0A42CCD35F0FCEBEB
:1002BF008EF0A4FEA9F0EB8FF0A4CFC5F02ECD39B0
:0F02CF00FEE43CFCEAA42DCE35F0FDE43CFC221D
:1002DE0075F008758200EF2FFFEE33FECD33CDCCD7
:1002EE0033CCC58233C5829BED9AEC99E58298405A
:1002FE000CF582EE9BFEED9AFDEC99FC0FD5F0D637
:10030E00E4CEFBE4CDFAE4CCF9A88222B800C1B960
:10031E000059BA002DEC8BF084CFCECDFCE5F0CB9E
:10032E00F97818EF2FFFEE33FEED33FDEC33FCEBD7
:10033E0033FB10D703994004EB99FB0FD8E5E4F992
:10034E00FA227818EF2FFFEE33FEED33FDEC33FC7F
:10035E00C933C910D7059BE99A4007EC9BFCE99A73
:10036E00F90FD8E0E4C9FAE4CCFB2275F010EF2FB8
:10037E00FFEE33FEED33FDCC33CCC833C810D707B8
:10038E009BEC9AE899400AED9BFDEC9AFCE899F8F3
:0E039E000FD5F0DAE4CDFBE4CCFAE4C8F92286
:1003AC00EB9FF5F0EA9E42F0E99D42F0E89C45F0A7
:0103BC00221E
:1003BD00E8600FECC313FCED13FDEE13FEEF13FF1E
:0303CD00D8F12242
:1003D000BB010DE58229F582E5833AF583020482AB
:1003E0005007E92582F8020475BBFE07E92582F86B
:1003F00002048EE58229F582E5833AF58302049BA7
:0C040000ECF0A3EDF0A3EEF0A3EFF0226F
:10040C00A8828583F0D083D0821204231204231295
:10041C000423120423E473E493A3C583C5F0C583BA
:10042C00C8C582C8F0A3C583C5F0C583C8C582C83A
:01043C00229D
:0C043D00A42582F582E5F03583F58322CA
:100C2700E51824FFF582E43404F583E005182290E3
:100C370004FC3007039004FFE475F0011204AB02D3
:100C4700015C2000E97F2ED2008018EF540F24901A
:100C5700D43440D4FF30040BEF24BFB41A00500340
:100C67002461FFE51960021519051CE51C700205D2
:100C77001B30070E9004FCE475F0011204ABEF0281
:100C870001A2022F487403D2078003E4C207F518B4
:100C97009004FC1204C2E4F519F51BF51CE5196074
:100CA700077F20120C6A80F5751AFFC201C200C2C5
:100CB70002C203C205C206C208120C36FF700D300D
:100CC70007057F00120C7BAF1CAE1B22B4255FC249
:100CD700D5C204120C36FF24D0B40A00501A75F09E
:100CE7000A781930D50508B6FF0106C6A426F620EE
:100CF700D5047002D20380D924CFB41A00EF500470
:100D0700C2E5D204020E7CD20180C6D20080C0D2D6
:100D17000280BCD2D580BAD20580B47F20120C6A7B
:100D27002002077401B5190040F1120C27FF120CBD
:100D37006A020CA4D208D2068095120C27FB120C6B
:100D470027FA120C27F94A4B7006794D7A0F7BFF69
:100D570020022EE519602A7E008E8275830012011B
:100D67007560060EEE651A70F0C2D5EBC0E0EAC0FA
:100D7700E0E9C0E0EE120EC3D0E0F9D0E0FAD0E02F
:100D8700FB12015CFF60AAEBC0E0EAC0E0E9C0E04B
:100D9700120C6AD0E02401F9D0E03400FAD0E0FB6D
:100DA700E51A0460DCD51AD980877BFF7A0E79BFF4
:100DB700D202809C791080027908C206C208800896
:100DC700D2D5790A8004790AC2D5E51A047002F5EA
:100DD7001AE4FAFDFEFF120C27FC7B082001131210
:100DE7000C27FD7B1030000A120C27FE120C27FF80
:100DF7007B20EC3382D592D55013C3E43000069F95
:100E0700FFE49EFEE42001039DFDE49CFCE4CBF897
:100E1700C201EC700CCFCECDCCE824F8F870F3808B
:100E270017C3EF33FFEE33FEED33FDEC33FCEB334B
:100E3700FB994002FB0FD8E9EB300105F8D0E0C47D
:100E470048B201C0E00AEC4D4E4F78207B0070C2DB
:100E5700EAB51A0040BCC0E0120EC5D0F0D0E020C1
:100E67000104C4C0E0C4B201C0F0120C53D0F0D5E5
:100E7700F0EB020CA41204CB0D41530DBB580D121D
:100E87004C0D0E420DBF4F0DC7440DC7490D2743EB
:080E97000DCD550DB1460DB162
:100E9F00450DB1470F6D500D162D0D1A2E0D3D2B13
:100EAF000D1E230D3B200F562A0CD64800000D3582
:100EBF003F3F3F00790AA2D5200314300509B9102E
:100ECF00020404B9080104A2D5200602500104202F
:100EDF0002689202B519005034C0E07F2030031928
:100EEF007F30A20272067205500F120F1CC202C28F
:100EFF0006C205C2087F30800F300503E9C0E0123B
:100F0F000C6A300503D0E0F9D0E0B519CC300517E5
:100F1F007F30B9100C120C6A7F583004077F78802D
:100F2F0003B90803120C6A3002057F2D020C6A7F89
:100F3F00202008F87F2B2006F322920280CF286E04
:100F4F00756C6C2900D201120C273001F8C20178A0
:100F5F001930D50108F6020CD62D50434958120C02
:100F6F00272403B405004001E4900F6893120C5B33
:0D0F7F00743A120C5BD203751904020DBB0D
:10044900EF4E6012EF60010EEDBB010B89828A83CA
:10045900F0A3DFFCDEFA2289F05007F709DFFCA9D7
:0C046900F022BBFEFCF309DFFCA9F0222E
:10263600022F36E493A3F8E493A34003F68001F255
:1026460008DFF48029E493A3F85407240CC8C333A5
:10265600C4540F4420C8834004F456800146F6DF74
:10266600E4800B0102040810204080902D91E47E46
:10267600019360BCA3FF543F30E509541FFEE49369
:10268600A360010ECF54C025E060A840B8E493A330
:10269600FAE493A3F8E493A3C8C582C8CAC583CA5B
:1026A600F0A3C8C582C8CAC583CADFE9DEE780BE13
:012DCE000004
:0D047500E6FB08E6F908E6FA08E6CBF822F7
:0C048200E0F8A3E0F9A3E0FAA3E0FB22FD
:0D048E00E2FB08E2F908E2FA08E2CBF822EE
:10049B00E493F8740193F9740293FA740393FB22B7
:1004AB00F8E0FBA3A3E0F925F0F0E58215827002DA
:0704BB001583E0FA38F0227E
:0904C200EBF0A3EAF0A3E9F0223B
:1004CB00D083D082F8E4937012740193700DA3A3C0
:1004DB0093F8740193F5828883E4737402936860D4
:0604EB00EFA3A3A380DFD4
:00000001FF
