:020003002706CE
:020005003BF7C7
:020007003C5368
:02000900000EE7
:1037F8007461736B300D0A00733D25640A00696EAD
:103808002D6366672D4F4B0D00756172742D6366CD
:10381800672D4F4B0A00677072732D6366672D4FD3
:103828004B0A00717569742D4F4B0A0071756974E4
:093838002D6366672D4F4B0D0056
:103BB7009002D674FFF0E49002D5F07B017A027987
:103BC700D5FF121F9A7B017A0279D57F03021F9ACC
:1036B4009002D57440F0A37401F0A312040C00002E
:1036C40025809002DC7401F0E4A3F0A304F0E4A3E9
:1036D400F0A3F0A3F07B017A0279D57F011208AC44
:1036E4009002D57440F09002D712040C000025809B
:1036F4009002DC7401F09002DEF0E4A3F0A3F07B0E
:0A370400017A0279D57F020208ACB9
:103B4B009003057440F090030712040090030C746B
:103B5B0001F090030EF0E4A3F0A3F07B017A03795C
:063B6B00057F020208AC18
:09003900123BB71236B4D2AF221B
:102706001200399002D07401F0E4900002F09000BB
:1027160001F0C280FBFA7DF47F801215297BFF7AD7
:102726003779F8120C927F011214177D017F03127C
:10273600152912001E9002D1EEF0A3EFF09002D000
:10274600E0607212001E9002D3EEF0A3EFF07C0060
:102756007D641201D6ED4C70209002D3E0FEA3E01A
:10276600FF7C007D641201D6900308EEF0A3EFF023
:102776007BFF7A387900120C929002D1E0FEA3E03A
:10278600FFC39002D4E09FFF9002D3E09EFED3EFFA
:1027960094F4EE94014003022822900002E0B40172
:1027A600127BFF7A3879067D0B123AF1E49002D05B
:1027B600F08002805D900002E024FD600F1460232B
:1027C60014603D2403704B122EF680467BFF7A3848
:1027D60079117D0D123AF17D147F031215291235F8
:1027E6009280157D1E7F03121529123A527BFF7ABD
:1027F60038791E7D0D123AF19000027401F08012B4
:102806007BFF7A38792B7D09123AF1E4900002F0C9
:10281600800A7D017F031215290227437BFF7A3840
:1028260079347D0D123AF1D280E4900009F09000DF
:1028360010F090000AF0900011F090000104F07F73
:0E284600021214177F03121417E4FF0214A0ED
:103BF700050FE50F7002050E7D017F031215298061
:013C0700EFCD
:0C3C5300121DAF7D017F0312152980F4C3
:0D000E00C280C2B57DE87F0312152980F77E
:103C0800EFB40A0675990D3099FD8F993099FD2208
:103A17003B006B65793D25302E32780A0069763D8B
:103A270025302E32780A0069643D25302E32780A17
:103A370000626175643D25640A007365727665727C
:0B3A47003D25302E32780A006F6B0026
:102E2F006029036900010203040506072B7E1516AE
:102E3F0028AED2A6ABF7158809CF4F3C000102038D
:0D2E4F000405060708090A0B0C0D0E0F0004
:101DAF00E4900304F0900002F07B017A00799390A5
:101DBF00030AF0A37429F0E4FFFE12395B7F067E5D
:101DCF00001239D978717C037D017B017A007993F8
:101DDF007E007F1012013678817C037D017B017AB2
:101DEF000079A37E007F1012013678697C037D0194
:101DFF007B017A0079B37E007F081201369000BB19
:101E0F00E0900391F07B017A00799390030AE4F05C
:101E1F00A37420F07F017E0212395B7F067E0012D1
:101E2F0039D97E007F047D00900363E0FBA3E0FAC5
:101E3F00A3E0F912046F90030874FFF0A3743AF053
:101E4F00A37417F07B017A007993122BA8900301EA
:101E5F00EB8030900301E0FBA3E0FAA3E0F94A60C6
:101E6F002BA3E0FF700B900363EBF0A3EAF0A3E961
:101E7F00F0EFB401DE900301E0F9A3E0FAA3E090E4
:101E8F000366C9F0A3EAF0A3E9F080C7900363E00B
:101E9F00FBA3E0FAA3E0F99000021201757E00782F
:101EAF0010C333CE33CED8F97C00FD90000312015E
:101EBF00757E007820C333CE33CED8F9FFEF4DFDBA
:101ECF00900001120175ECFEEDFF12015CFDEF4D6C
:101EDF00FFE4FCFD9002FD1204009002FDE0FCA364
:101EEF00E0FDA3E0FEA3E0FF123B4B90030874015B
:101EFF00F0A37403F0A37471F07BFF7A3A7919128F
:101F0F000C929003087401F0A37403F0A37481F092
:101F1F007BFF7A3A7924120C929003087401F0A394
:101F2F007403F0A37469F07BFF7A3A792E120C9246
:101F3F007BFF7A3A79389002FDE0FCA3E0FDA3E045
:101F4F00FEA3E0FF900308120400120C92900366A8
:101F5F00E0F9A3E0FAA3E0900308C9F0A3EAF0A325
:101F6F00E9F07BFF7A3A7941120C92900391E0B439
:101F7F000206122AAB123ABF900391E0B40103128A
:0B1F8F002EF67D017F0312152980E073
:103B7100900354EEF0A3EFF012001E90035DEEF0FF
:103B8100A3EFF0900354E0FFA3E090035BCFF0A319
:033B9100EFF02230
:103B9400900356EEF0A3EFF012001E900361EEF0D6
:103BA400A3EFF0900356E0FFA3E090035FCFF0A3F0
:033BB400EFF0220D
:102AAB0090000AE0D394005003022BA712001E9053
:102ABB00035DE0FCA3E0FDC3EF9DFFEE9CFEC39026
:102ACB00035CE09F90035BE09E4003022BA7900307
:102ADB00207401F0A37403F0A37481F0A37401F0CC
:102AEB00A37400F0A37413F090000AE01490032673
:102AFB00F0A37401F0A37401F0A37493F07B017A3B
:102B0B0003797112285490031BEEF0A3EFF07807B2
:102B1B007C037D017B017A0379697E007F081201BA
:102B2B003690031BE0FCA3E0FDEC90030FF0EDA34C
:102B3B00F09003227401F0A37401F0A37493F0904E
:102B4B00031BE0FFA3E0900325CFF0A3EFF07B0185
:102B5B007A0379057D0C7C00122D65900319EEF03C
:102B6B00A3EFF07B017A0379057D0C123B1E7B01F1
:102B7B007A01799390031BA3E0FD123B1E9003197E
:102B8B00E0FF123C36900319A3E0FF123C367FE7BF
:0C2B9B00123C36E490000AF0900009F0B3
:012BA700220B
:103ABF00900011E0D39400402812001E900361E0A3
:103ACF00FCA3E0FDC3EF9DFFEE9CFEC3900360E0FF
:103ADF009F90035FE09E5009E4900011F09000105A
:013AEF00F0E6
:013AF00022B3
:103592007B017A007913120C9278697C037D017B9E
:1035A200017A0079147E007F0812013678717C035B
:1035B2007D017B017A00791C7E007F101201367832
:1035C200817C037D017B017A00792C7E007F1012C1
:1035D20001367F067E001239D97BFF7A3A794F7D18
:1035E20002123AF17E007F807D007B017A0079131E
:0935F20012046FE4900009F022BC
:103A52007F017E02123BD77F067E001239D97B019D
:103A62007A007913900009E0FF9002DAE4F0A3EF04
:103A7200F07F017E0212399A7F067E001239D97BCD
:0A3A8200FF7A3A794F7D02023AF113
:0834B60090042AEEF0A3EFF0F0
:1034BE0090035AE0700F12001E900358EEF0A3EF27
:1034CE00F0A37401F012001E900358E0FCA3E0FD7F
:1034DE00C3EF9DFFEE9CFEC390042BE09F90042A49
:1034EE00E09E5032E490035AF02091033092067E13
:1034FE00007F0180047E007F00EF64014E700CD2CD
:10350E00937F107E271239D9C29322D2947FD07E18
:06351E00071239D9C29426
:013524002284
:102EF60090000AE0D394004056900011E070509084
:102F0600000AE014F07048900009E0D39400403ABB
:102F1600E4900305F0A3F0900009E0FF900305E0BC
:102F2600FCA3E0FDC39FEC9400501F74132DF582A3
:102F3600E43400F583E0FF123C36900306E004F02B
:102F460070D5900305E004F080CDE4900009F09080
:102F56000011E0D39400405690000AE070509000B3
:102F660011E014F07048900010E0D39400403AE469
:102F7600900305F0A3F0900010E0FF900305E0FC3D
:102F8600A3E0FDC39FEC9400501F74932DF582E4DB
:102F96003400F583E0FF123C27900306E004F0704E
:0E2FA600D5900305E004F080CDE4900010F01B
:012FB40022FA
:07005900252E3278000A0099
:0B384100900420EBF0A3EAF0A3E9F0F4
:10384C00E4A3F0900423E0FFC394105028900420CC
:10385C00E0FBA3E0FAA3E0F98F82758300120175F7
:10386C00900308F07BFF7A007959120C9290042394
:0E387C00E004F080CE7BFF7A00795E020C92B1
:0B2C8C009003DFEBF0A3EAF0A3E9F0F7
:102C97009003EBE4F0A37403F09003EBE0C4F85463
:102CA700F0C868FFA3E0C4540F48A3CFF0A3EFF028
:102CB700E4A3F07403540FA3F07D037C009003EEAC
:102CC700E02401FF9003EDE03400FEEFC4F8540F59
:102CD700C868FFEEC454F048FEC3ED9FEC9E502039
:102CE7009003EFA3E0FF9003E5E0FBA3E0FAA3E086
:102CF700F98D828C83EF1201B40DBD00010C80BDEC
:102D07009003E5E0F9A3E0FAA3E09003CFC9F0A3AD
:102D1700EAF0A3E9F0A312040C000000409003DFDF
:102D2700E0F9A3E0FAA3E09003D6C9F0A3EAF0A381
:102D3700E9F09003E2E0F9A3E0FAA3E09003D9C930
:102D4700F0A3EAF0A3E9F09003E8E0FBA3E0FAA31D
:0D2D5700E0F91222F99003EBE0FEA3E0FF8B
:012D6400224C
:0B28540090031DEBF0A3EAF0A3E9F0F5
:10285F00900326E0FFC4540FFD90032CE4F0A3ED8A
:10286F00F0EF540FFF7E00A3EEF0A3EFF0605C904B
:10287F000326E0FF90032AEEF0A3EFF0900326E08B
:10288F002410FFE433FE90032EE0FAA3E0FBC3EF26
:10289F009BFFEE9AFE90032AE0FCA3E0FDC39FECA2
:1028AF009E5028C374109BFF900323E0FBA3E0FA14
:1028BF00A3E0F98D828C83EF1201B490032BE00417
:1028CF00F070B990032AE004F080B1900323E0F98F
:1028DF00A3E0FAA3E0900333C9F0A3EAF0A3E9F071
:1028EF0090032DE02401FF90032CE03400FEEFC491
:1028FF00F8540FC868FFEEC454F048FEE4FCFD9096
:10290F00033612040090031DE0F9A3E0FAA3E09050
:10291F00033AC9F0A3EAF0A3E9F0900320E0F9A38A
:10292F00E0FAA3E090033DC9F0A3EAF0A3E9F09029
:10293F000327E0FBA3E0FAA3E0F912298190032714
:10294F00E0FBA3E0FAA3E0F990032CA3E004C45446
:10295F00F0FD123AF190032DE02401FF90032CE0DB
:10296F003400FEEFC4F8540FC868FFEEC454F048AB
:01297F00FE59
:012980002234
:100F8C00637C777BF26B6FC53001672BFED7AB763A
:100F9C00CA82C97DFA5947F0ADD4A2AF9CA472C0E5
:100FAC00B7FD9326363FF7CC34A5E5F171D8311552
:100FBC0004C723C31896059A071280E2EB27B27573
:100FCC0009832C1A1B6E5AA0523BD6B329E32F84EB
:100FDC0053D100ED20FCB15B6ACBBE394A4C58CFE3
:100FEC00D0EFAAFB434D338545F9027F503C9FA8B7
:100FFC0051A3408F929D38F5BCB6DA2110FFF3D285
:10100C00CD0C13EC5F974417C4A77E3D645D197338
:10101C0060814FDC222A908846EEB814DE5E0BDB32
:10102C00E0323A0A4906245CC2D3AC629195E47969
:10103C00E7C8376D8DD54EA96C56F4EA657AAE08C3
:10104C00BA78252E1CA6B4C6E8DD741F4BBD8B8A5E
:10105C00703EB5664803F60E613557B986C11D9EC4
:10106C00E1F8981169D98E949B1E87E9CE5528DF3B
:10107C008CA1890DBFE6426841992D0FB054BB1667
:10108C0052096AD53036A538BF40A39E81F3D7FBF1
:10109C007CE339829B2FFF87348E4344C4DEE9CB3B
:1010AC00547B9432A6C2233DEE4C950B42FAC34EB0
:1010BC00082EA16628D924B2765BA2496D8BD12566
:1010CC0072F8F66486689816D4A45CCC5D65B6920A
:1010DC006C704850FDEDB9DA5E154657A78D9D84AE
:1010EC0090D8AB008CBCD30AF7E45805B8B34506CE
:1010FC00D02C1E8FCA3F0F02C1AFBD0301138A6BE8
:10110C003A9111414F67DCEA97F2CFCEF0B4E67317
:10111C0096AC7422E7AD3585E2F937E81C75DF6EC5
:10112C0047F11A711D29C5896FB7620EAA18BE1B2B
:10113C00FC563E4BC6D279209ADBC0FE78CD5AF4D1
:10114C001FDDA8338807C731B11210592780EC5F17
:10115C0060517FA919B54A0D2DE57A9F93C99CEF73
:10116C00A0E03B4DAE2AF5B0C8EBBB3C8353996174
:10117C00172B047EBA77D626E169146355210C7DB2
:10118C008D01020408102040801B366CD8AB4D9AA0
:10119C002F5EBC63C697356AD4B37DFAEFC591391F
:1011AC0072E4D3BD61C29F254A943366CC831D3A49
:1011BC0074E8CB8D01020408102040801B366CD8DB
:1011CC00AB4D9A2F5EBC63C697356AD4B37DFAEFEC
:1011DC00C5913972E4D3BD61C29F254A943366CC64
:1011EC00831D3A74E8CB8D01020408102040801B4B
:1011FC00366CD8AB4D9A2F5EBC63C697356AD4B3A8
:10120C007DFAEFC5913972E4D3BD61C29F254A9432
:10121C003366CC831D3A74E8CB8D01020408102090
:10122C0040801B366CD8AB4D9A2F5EBC63C697358D
:10123C006AD4B37DFAEFC5913972E4D3BD61C29F14
:10124C00254A943366CC831D3A74E8CB8D01020495
:10125C0008102040801B366CD8AB4D9A2F5EBC63B7
:10126C00C697356AD4B37DFAEFC5913972E4D3BD14
:0F127C0061C29F254A943366CC831D3A74E8CB38
:053C5F00EFF0A3E0FFFF
:073C6400EF900F8C93FF228B
:073C7700EF90108C93FF2277
:1004F100E0F9A3E0FAA3E0C990021AF0A3EAF0A39D
:02050100E9F01F
:1005030090034312040C00000000E47F04FEFDFC92
:10051300900343E0F8A3E0F9A3E0FAA3E0FBC312DE
:1005230003AC400302064AE47F04FEFDFC90034350
:10053300E0F8A3A3A3E012028F90021AE0FBA3E06A
:10054300FAA3E0F98F828E83120175FD900343A312
:10055300A3E0FAA3E090021D75F00412043DEA251E
:10056300E025E02583F583EDF0EF2401FFE43EFE73
:1005730090021AE0FBA3E0FAA3E0F98F828E8312C4
:100583000175FF900343A3A3E0FAA3E090021E7555
:10059300F00412043DEA25E025E02583F583EFF01E
:1005A300E47F04FEFDFC900343E0F8A3E0F9A3E03D
:1005B300FAA3E0FB12028FEF2402FDE43EFC90025B
:1005C3001AE0FBA3E0FAA3E0F98D828C8312017594
:1005D300FD900343A3A3E0FAA3E090021F75F00488
:1005E30012043DEA25E025E02583F583EDF0EF24B1
:1005F30003FFE43EFE90021AE0FBA3E0FAA3E0F956
:100603008F828E83120175FF900343A3A3E0FAA3A5
:10061300E090022075F00412043DEA25E025E02570
:1006230083F583EFF0900343E0FCA3E0FDA3E0FE3A
:10063300A3E02401FFE43EFEE43DFDE43CFC900323
:100643004312040002050DE47F2CFEFDFC900343DE
:10065300E0F8A3E0F9A3E0FAA3E0FBC31203AC4084
:10066300030208AB90034712040C00000000E47F70
:1006730004FEFDFC900347E0F8A3E0F9A3E0FAA32E
:10068300E0FBC31203AC505AE47F04FEFDFC90036D
:1006930043E0F8A3E0F9A3E0FAA3E0FB12028FAB77
:1006A30007900347A3A3A3E0FF2B2419F582E434A7
:1006B30002F583E0FE744F2FF582E43403F583EEF5
:1006C300F0900347E0FCA3E0FDA3E0FEA3E02401D8
:1006D300FFE43EFEE43DFDE43CFC900347120400CE
:1006E300808C900343A3A3A3E05403FFE4FEFDFC2B
:1006F300FBFAF9F8C31203AC600302078190034FBE
:10070300E0FFE4FCFDFE90034B120400900350E075
:1007130090034FF0900351E0900350F0900352E0A8
:10072300900351F090034BA3A3A3E0900352F090E6
:10073300034FE0FF123C6490034F123C5F90035061
:10074300123C5F900351123C5F900352EFF0900311
:100753004FE0FFC007E47B04F8900343E0FCA3E011
:10076300FDA3E0FEA3E0FF12031A748C2FF582743D
:10077300113EF583E493FED0E06E90034FF09003B7
:1007830043A3A3E0FEA3E090020D75F00412043D21
:10079300EE25E025E02583F583E0FF90034FE0FE9F
:1007A300EF6EFF900343A3A3E0FAA3E090021D754D
:1007B300F00412043DEA25E025E02583F583EFF0FC
:1007C300900343A3A3E0FEA3E090020E75F004128E
:1007D300043DEE25E025E02583F583E0FF900350FB
:1007E300E0FEEF6EFF900343A3A3E0FAA3E09002C1
:1007F3001E75F00412043DEA25E025E02583F58308
:10080300EFF0900343A3A3E0FEA3E090020F75F083
:100813000412043DEE25E025E02583F583E0FF90F7
:100823000351E0FEEF6EFF900343A3A3E0FAA3E0BE
:1008330090021F75F00412043DEA25E025E02583AC
:10084300F583EFF0900343A3A3E0FEA3E09002102F
:1008530075F00412043DEE25E025E02583F583E0E1
:10086300FF900352E0FEEF6EFF900343A3A3E0FA71
:10087300A3E090022075F00412043DEA25E025E090
:100883002583F583EFF0900343E0FCA3E0FDA3E0B1
:10089300FEA3E02401FFE43EFEE43DFDE43CFC90C6
:0808A300034312040002064A9F
:0108AB00222A
:05352500900344EFF0EB
:10352A00E4A3F0E4900346F0900345E075F004A4A8
:10353A00FF900217E0FBA3E0FAA3E02FF9EA35F0C7
:10354A00FA900346E0FF7C0029F9EC3AFA12015C92
:10355A00FE900345E025E025E0FD900344E0C454D5
:10356A00F02DFDEF2D241DF582E43402F583E06E83
:10357A001201A2900346E004F0E0B404AB900345C4
:07358A00E004F0E0B4049C32
:013591002217
:10334B00E4900344F0E4900345F0900345E0FFC3A1
:10335B009404505AEF75F004A4FF900217E0FBA3FE
:10336B00E0FAA3E02FF9EA35F0FA900344E07E008F
:10337B0029F9EE3AFA12015CFF123C64AD07900397
:10338B0045E075F004A4FF900217E0FBA3E0FAA35D
:10339B00E02FF9EA35F0FA900344E07E0029F9EECC
:1033AB003AFAED1201A2900345E004F0809C9003E1
:0A33BB0044E004F0E0C39404408BEA
:0133C50022E5
:10307400900217E0FBA3E0FAA3E0F990000112012B
:1030840075FF9000051201759000011201B49000C3
:10309400091201759000051201B490000D1201751A
:1030A4009000091201B490000DEF1201B4900002D7
:1030B400120175FF90000A1201759000021201B40A
:1030C40090000AEF1201B4900006120175FF9000FF
:1030D4000E1201759000061201B490000EEF120159
:1030E400B4900003120175FF90000F120175900057
:1030F400031201B490000B12017590000F1201B479
:1031040090000712017590000B1201B4900007EFB4
:033114000201B401
:103A8C00FDE0FF123AAD123AAD123AADAC07E0FFD1
:103A9C00123AADE06F6C6DA3FDE0FF123AAD123A35
:013AAC00AD6C
:103AAD00EFC4131313540175F01BA4FEEF25E06E44
:023ABD00FF22E6
:101BB600E4900344F0900217E0FBA3E0FAA3E0F9F7
:101BC600900344E0FF75F004A4F58285F0831201CA
:101BD60075900347F0EF75F004A4FFE92FF9EA3595
:101BE600F0FA900001120175FF900217A3E0FAA324
:101BF600E0F9900344E0FE75F004A4F58285F083D5
:101C06001201756FFDEE75F004A4FFE92FF9EA35B0
:101C1600F0FA9000021201756DFF90000312017533
:101C26006F900345F0900001120175FF900217A313
:101C3600E0FAA3E0F9900344E075F004A4F5828588
:101C4600F0831201756FFF900346F0123AADEFF084
:101C5600900217E0FBA3E0FAA3E0F9900344E0FE4C
:101C660075F004A4F582E92582F9EA35F0FA120145
:101C76005CFD900345E06F6D1201A2EE75F004A4C1
:101C8600FF900217E0FBA3E0FAA3E02FF9EA35F094
:101C9600FA900002120175FF9000011201756FFFA4
:101CA600900346F0123AADEFF0900344E075F0046D
:101CB600A4FF900217E0FBA3E0FAA3E02FF9EA35B0
:101CC600F0FAE92401F9E43AFA12015CFF900345BF
:101CD600E0FEA3E06E6F1201A2900344E075F004EB
:101CE600A4FF900217E0FBA3E0FAA3E02FF9EA3580
:101CF600F0FA900003120175FF9000021201756F51
:101D0600FF900346F0123AADEFF0900344E075F011
:101D160004A4FF900217E0FBA3E0FAA3E02FF9EA80
:101D260035F0FAE92402F9E43AFA12015CFF90036D
:101D360045E0FEA3E06E6F1201A2900344E075F049
:101D460004A4FF900217E0FBA3E0FAA3E02FF9EA50
:101D560035F0FA900003120175FF900347E06FFF1C
:101D6600900346F0123AADEFF0900344E075F004AC
:101D7600A4FF900217E0FBA3E0FAA3E02FF9EA35EF
:101D8600F0FAE92403F9E43AFA12015CFF900345FC
:101D9600E0FEA3E06E6F1201A2900344E004F0E0BF
:081DA600C394045003021BBBAF
:011DAE002212
:1019BC00E490041AF0A3F090041AE0FEA3E0FFC335
:1019CC009404EE648094804003021BB5EF7802C34C
:1019DC0033CE33CED8F9FF900217E0FBA3E0FAA385
:1019EC00E0F98F828E8312017590041CF0E92FF9B7
:1019FC00EA3EFA90000112017590041DF09000026D
:101A0C0012017590041EF090000312017590041FD2
:101A1C00F090041CE0FF123AAD123AADAD07E0FFB6
:101A2C00123AADEF6D123AA4EF6DA3123A8CAC07DB
:101A3C00E0FF123AAD123A9CE06F6DFD90041AE093
:101A4C00FEA3E07802C333CE33CED8F9FF90021751
:101A5C00E0FBA3E0FAA3E0F98F828E83ED1201B4D0
:101A6C0090041DE0FF123AAD123AADAD07E0FF1243
:101A7C003AADEF6D123AA4EF6D90041C123AA4E04B
:101A8C006F6D90041E123A8CAC07E0FF123AAD1247
:101A9C003AADE06F6C6DFD90041AE0FEA3E07802A5
:101AAC00C333CE33CED8F9FF900217E0FBA3E0FA94
:101ABC00A3E02FF9EA3EFA900001ED1201B4900474
:101ACC001C123AA5AD07E0FF123AAD123AADE06F29
:101ADC00123AA2E06F6DFDA3E0FF123AAD123AADDF
:101AEC00AC07E0FF123AADEF6CFC123AA5EF123ADC
:101AFC00A1AC07E0FF123AADE06F6C6DFD90041ADB
:101B0C00E0FEA3E07802C333CE33CED8F9FF9002C7
:101B1C0017E0FBA3E0FAA3E02FF9EA3EFA900002EB
:101B2C00ED1201B490041D123AA5AD07E0FF123A74
:101B3C00AD123AADE06F6DFD90041C123AA5AC07E6
:101B4C00E0FF123AADE06F6C6DFD90041E123AA5E9
:101B5C00E06F6DFDA3E0FF123AAD123AADAC07E0B9
:101B6C00FF123AADEF6CFC123AA5EF6C6DFD9004D0
:101B7C001AE0FEA3E07802C333CE33CED8F9FF903F
:101B8C000217E0FBA3E0FAA3E02FF9EA3EFA90007B
:101B9C0003ED1201B490041BE004F060030219C3BE
:091BAC0090041AE004F00219C3D0
:011BB500220D
:1033C600E490042CF0E490042DF090042DE0FFC36B
:1033D6009404505AEF75F004A4FF900217E0FBA383
:1033E600E0FAA3E02FF9EA35F0FA90042CE07E002B
:1033F60029F9EE3AFA12015CFF123C77AD07900408
:103406002DE075F004A4FF900217E0FBA3E0FAA3F9
:10341600E02FF9EA35F0FA90042CE07E0029F9EE67
:103426003AFAED1201A290042DE004F0809C90047B
:0A3436002CE004F0E0C39404408B86
:013440002269
:10311700900217E0FBA3E0FAA3E0F990000D12017B
:1031270075FF90000912017590000D1201B490000F
:10313700051201759000091201B490000112017582
:103147009000051201B4900001EF1201B490000243
:10315700120175FF90000A1201759000021201B466
:1031670090000AEF1201B4900006120175FF90005B
:103177000E1201759000061201B490000EEF1201B5
:10318700B4900003120175FF9000071201759000BB
:10319700031201B490000B1201759000071201B4DD
:1031A70090000F12017590000B1201B490000FEF01
:0331B7000201B45E
:1037AC00900330E0F9A3E0FAA3E0900217C9F0A36C
:0537BC00EAF0A3E9F0B2
:1037C100E4900343F0FF1235259003437401F01296
:1037D100334B123074121BB6900343E0FF123525B0
:1037E100900343E004F0E0C3940A40E312334B1228
:0737F10030747F0A02352548
:10375F009003CCE0F9A3E0FAA3E0900217C9F0A31D
:05376F00EAF0A3E9F0FF
:10377400E490042EF07F0A12352590042E7409F08B
:103784001231171233C690042EE0FF123525121998
:10379400BC90042EE014F0E0D3940050E3123117EF
:0837A4001233C6E4FF023525D3
:10365900900333E0F9A3E0FAA3E0900346C9F0A38D
:10366900EAF0A3E9F0900330E0FBA3E0FAA3E0F964
:0B367900900343EBF0A3EAF0A3E9F09C
:10368400E4FF900346E0FBA3E0FAA3E0F98F827520
:103694008300120175FE900343E0FBA3E0FAA3E06C
:0F36A400F98F82758300EE1201B40FEFB410D3CB
:0136B30022F4
:1038D300900408EBF0A3EAF0A3E9F0900408E0F900
:1038E300A3E0FAA3E0900346C9F0A3EAF0A3E9F04A
:1038F30090040E12367190040EE0F9A3E0FAA3E0EF
:10390300900217C9F0A3EAF0A3E9F090040B1204A4
:04391300F10237C1C5
:10391700900411EBF0A3EAF0A3E9F0900411E0F9A9
:10392700A3E0FAA3E0900346C9F0A3EAF0A3E9F005
:10393700900417123671900417E0F9A3E0FAA3E098
:10394700900217C9F0A3EAF0A3E9F0900414120457
:04395700F1023774CE
:08370E00E0FBA3E0FAA3E0F9DF
:0B371600900343EBF0A3EAF0A3E9F0FE
:10372100E4FF900343E0FBA3E0FAA3E02FF9E43ABE
:10373100FAC003C002C00112015CFE9002CDE0FBA1
:10374100A3E0FAA3E0F98F827583001201756ED0B0
:0D37510001D002D0031201A20FEFB410C589
:01375E002248
:0B298100900330EBF0A3EAF0A3E9F0B4
:10298C00900336E0FCA3E0FDA3E0FEA3E0540FFFB0
:10299C00900342EFF0C002C001900333E0F9A3E0D2
:1029AC00FAA3E0900346C9F0A3EAF0A3E9F0D00142
:1029BC00D002123679900330E0F9A3E0FAA3E0904C
:1029CC000217C9F0A3EAF0A3E9F090033AE0FBA3E5
:1029DC00E0FAA3E0F94A6004EB1204F990033DE03D
:1029EC00FBA3E0FAA3E0F94A600B9002CDEBF0A355
:1029FC00EAF0A3E9F0E4900340F0A3F0900340E088
:102A0C00FEA3E0FFE4FCFD900336E0F8A3E0F9A39D
:102A1C00E0FAA3E0FBD31203AC4046900333123729
:102A2C000E1236591237AC900330E0F9A3E0FAA33A
:102A3C00E09002CDC9F0A3EAF0A3E9F0900334E4EE
:102A4C0075F01012022B900331E475F01012022B6A
:102A5C00900341E02410F0900340E03400F0022A8F
:102A6C0008900342E06037123659900342E0FFFDB4
:102A7C00C374109DFDE49400FCC004C005900330A9
:102A8C00E0FBA3E0FAA3E0F9EFFD7C00E92DF9EC03
:0E2A9C003AFA7D00D007D00612046F1237AC54
:012AAA002209
:0B22F9009003CCEBF0A3EAF0A3E9F0A7
:102304009003D2E0FCA3E0FDA3E0FEA3E0540FFFA2
:102314009003DEEFF0C002C0019003CFE0F9A3E028
:10232400FAA3E0900346C9F0A3EAF0A3E9F0D001D0
:10233400D0021236799003CCE0F9A3E0FAA3E0903E
:102344000217C9F0A3EAF0A3E9F09003D6E0FBA3D7
:10235400E0FAA3E0F94A600790021AEB1204FC9039
:1023640003D9E0FBA3E0FAA3E0F94A600B9002CDA5
:10237400EBF0A3EAF0A3E9F0E49003DCF0A3F0901F
:1023840003DCE0FEA3E0FFE4FCFD9003D2E0F8A34D
:10239400E0F9A3E0FAA3E0FBD31203AC405E9003A0
:1023A400CFE0F9A3E0FAA3E0900346C9F0A3EAF072
:1023B400A3E9F09003CC12367112375F9003CC126C
:1023C400370E9003CFE0F9A3E0FAA3E09002CDC961
:1023D400F0A3EAF0A3E9F09003D0E475F010120240
:1023E4002B9003CDE475F01012022B9003DDE02452
:1023F40010F09003DCE03400F00223839003DEE06D
:10240400604F9003CFE0F9A3E0FAA3E0900346C93C
:10241400F0A3EAF0A3E9F09003CC1236719003DE46
:10242400E0FFFDC374109DFDE49400FCC004C005EE
:102434009003CCE0FBA3E0FAA3E0F9EFFD7C00E914
:102444002DF9EC3AFA7D00D007D00612046F12374A
:012454005F28
:012455002264
:1017BC0000C1814001C0804101C0804100C1814015
:1017CC0001C0804100C1814000C1814001C0804105
:1017DC0001C0804100C1814000C1814001C08041F5
:1017EC0000C1814001C0804101C0804100C18140E5
:1017FC0001C0804100C1814000C1814001C08041D5
:10180C0000C1814001C0804101C0804100C18140C4
:10181C0000C1814001C0804101C0804100C18140B4
:10182C0001C0804100C1814000C1814001C08041A4
:10183C0001C0804100C1814000C1814001C0804194
:10184C0000C1814001C0804101C0804100C1814084
:10185C0000C1814001C0804101C0804100C1814074
:10186C0001C0804100C1814000C1814001C0804164
:10187C0000C1814001C0804101C0804100C1814054
:10188C0001C0804100C1814000C1814001C0804144
:10189C0001C0804100C1814000C1814001C0804134
:1018AC0000C1814001C0804101C0804100C1814024
:1018BC0000C0C101C30302C2C60607C705C5C404E4
:1018CC00CC0C0DCD0FCFCE0E0ACACB0BC90908C854
:1018DC00D81819D91BDBDA1A1EDEDF1FDD1D1CDC44
:1018EC0014D4D515D71716D6D21213D311D1D010B4
:1018FC00F03031F133F3F23236F6F737F53534F4A4
:10190C003CFCFD3DFF3F3EFEFA3A3BFB39F9F83813
:10191C0028E8E929EB2B2AEAEE2E2FEF2DEDEC2C03
:10192C00E42425E527E7E62622E2E323E12120E073
:10193C00A06061A163A3A26266A6A767A56564A463
:10194C006CACAD6DAF6F6EAEAA6A6BAB69A9A868D3
:10195C0078B8B979BB7B7ABABE7E7FBF7DBDBC7CC3
:10196C00B47475B577B7B67672B2B373B17170B033
:10197C005090915193535292965657975595945423
:10198C009C5C5D9D5F9F9E5E5A9A9B5B9959589893
:10199C00884849894B8B8A4A4E8E8F4F8D4D4C8C83
:1019AC0044848545874746868242438341818040F3
:103441009003FDEBF0A3EAF0A3E9F0A3ECF0A3ED08
:01345100F08A
:10345200A374FFF0A3F090040074FFF5F012024190
:1034620045F060459003FDE0FBA3E475F001120214
:1034720041A9F0FA12015CFF900402E06FFFE4FC44
:10348200FDFE900404120400900404A3A3A3E0FC34
:103492009017BC93FE900403E06E900402F0EC904F
:1034A20018BC93900403F080AD900402E0FEA3E008
:0334B200FDEDFF2E
:0134B50022F4
:102D650090031DEBF0A3EAF0A3E9F0A3ECF0A3EDCB
:012D7500F06D
:102D760090032774FFF0A3F090032074FFF5F01280
:102D8600024145F0604590031DE0FBA3E475F001A8
:102D9600120241A9F0FA12015CFF900327E06FFFCF
:102DA600E4FCFDFE900329120400900329A3A3A3CB
:102DB600E0FC9017BC93FE900328E06E900327F08A
:102DC600EC9018BC93900328F080AD90032574FF17
:102DD600F5F012024145F06045900322E0FBA3E4C2
:102DE60075F001120241A9F0FA12015CFF90032767
:102DF600E06FFFE4FCFDFE90032912040090032916
:102E0600A3A3A3E0FC9017BC93FE900328E06E906A
:102E16000327F0EC9018BC93900328F080AD900344
:082E260027E0FEA3E0FDEDFF33
:012E2E002281
:042E5C00020E000062
:04001E00AE0EAF0F64
:0100220022BB
:1024560041540041542B474D4D0041542B434753A3
:102466004E004154264600415426570041542B4302
:1024760046554E3D310041542B4943463D332C30A1
:102486000041542B4950523D3131353230300041F4
:10249600542B434C434B3D53432C320041542B4366
:1024A6004F50533F0041542B435245473D31004165
:1024B600542B435245473F0041542B43535100414F
:1024C600542B43474154543D310041542B435354FC
:1024D600543D22636D6E6574220041542B43535460
:1024E600543D33676E65740041542B434741555440
:1024F6004F3D310041542B43494653520041542B22
:102506004349504D55583D300041542B4349504D99
:1025160055583D310041542B43475245473F0041F2
:10252600542B43495053544152543D225544502252
:102536002C223133392E3135392E3134312E313981
:1025460034222C323234390041542B4349505345FE
:102556004E440041542B434950534855540041546E
:102566002B43494943520041542B4349505354414C
:102576005455530041542B43444E534749503D0054
:10258600382E382E382E380041542B4349504D4FA3
:1025960044453D31000D0A002573004F4B0034368B
:0A25A60030303000343630303100A0
:102E60004203A224564203BA24594203A8246042D2
:102E700003B824684203C4246D4203AA24724203A7
:102E8000B2247C4203C224874203A424954203ACAB
:102E900024A24203B424AB4203B624B54203BC24AB
:102EA000BE4203C824C542039424D04203A024E0B8
:102EB0004203B024EE4203CA24FA42039A25034295
:102EC000039C250F4203BE251B4203C62525420352
:102ED00098254E4203A625594203C025644203AEFD
:102EE000256D42039E257A4203922586420396254C
:012EF0008E53
:0300600002004655
:0C388A00900396E0FEA3E0AA06F97BFF85
:10389600900424EBF0A3EAF0A3E9F07E007F807D9C
:1038A600007B017A00799312046FE4900010F09087
:1038B6000424E0FBA3E0FAA3E0F91200607BFF7AA0
:0D38C60025799B1200607FF47E010239D944
:101588009003A212388D9003087401F0A37400F040
:10159800A37493F07BFF7A25799E120C929003F442
:1015A80074FFF0A37425F0A374A1F07B017A00798D
:1015B80093122FB5EA494B60C79003BA12388D9041
:1015C80003087401F0A37400F0A37493F07BFF7A0E
:1015D80025799E120C929003F474FFF0A37425F001
:1015E800A374A1F07B017A007993122FB5EA494BD5
:1015F80060C79003A412388D9003087401F0A37497
:1016080000F0A37493F07BFF7A25799E120C9290D8
:1016180003F474FFF0A37425F0A374A1F07B017A9E
:10162800007993122FB5EA494B60C79003AC123882
:101638008D9003087401F0A37400F0A37493F07BF9
:10164800FF7A25799E120C929003F474FFF0A3742C
:1016580025F0A374A1F07B017A007993122FB5EAE3
:10166800494B60C79003F474FFF0A37425F0A3748A
:10167800A4F07B017A007993122FB5EA494B7039AF
:1016880090039412388D9003087401F0A37400F04D
:10169800A37493F07BFF7A25799E120C929003F441
:1016A80074FFF0A37425F0A374A1F07B017A00798C
:1016B80093122FB5EA494B60C79003F474FFF0A367
:1016C8007425F0A374AAF07B017A007993122FB5E0
:1016D800EA494B70399003A012388D9003087401C1
:1016E800F0A37400F0A37493F07BFF7A25799E121F
:1016F8000C929003F474FFF0A37425F0A374A1F086
:101708007B017A007993122FB5EA494B60C79003A1
:10171800C012388D9003087401F0A37400F0A3740C
:1017280093F07BFF7A25799E120C929003F474FF54
:10173800F0A37425F0A374A1F07B017A00799312C9
:101748002FB5EA494B60C712388A9003087401F034
:10175800A37400F0A37493F07BFF7A25799E120C92
:10176800929003F474FFF0A37425F0A374A1F07BA6
:10177800017A007993122FB5EA494B60CA12388A68
:101788009003087401F0A37400F0A37493F07BFF36
:101798007A25799E120C929003F474FFF0A37425B5
:1017A800F0A374A1F07B017A007993122FB5EA496E
:0417B8004B60CA2296
:0C3C6B00D2807DC87F81121529C2802202
:03000B000212904E
:10128B00C2AF80FE32C0E0E5D0541864087003D0C2
:10129B00E032D0E012128F85D00B75D008FAC28CD9
:1012AB00E58A24F7F58AE58C34D8F58CD28CEC24BE
:1012BB0036F8E6BC030274FFC39581B4140040C03A
:1012CB007904782D16E608700BC2AFE630E10344C3
:1012DB0018F6D2AF08D9EDEA8BD0301203D2132215
:1012EB00D50DFAC0E0C0D0C0F0C083C082C000C032
:1012FB0001C002C003C004C005C006C007E50C2333
:10130B00242EF87440C2AF46F6D2AFD212E50CFFD2
:10131B0023242EF80F0808EFB50C06101303438790
:10132B0001BF04047F00782EE630E4E800E50CC32F
:10133B009F5020050C7435250CF8E6FDA68108E6B8
:10134B00AE0CBE030274FFCDF8E86D60E008E6C09A
:10135B00E080F6E50CD39F4027E50C2436F8E6AE8B
:10136B000CBE030274FFFD18E6CDF8E5816D600637
:10137B00D0E0F61880F5E50C2435C8F6150C80D3B3
:03138B00750D05D8
:10138E00E50C23242EF87F04C2AFE610E61E30E0F3
:10139E000310E20C7F0030E10730E3047F0854F4C1
:1013AE00C2E7C6D2AF54804207C21222F6D2AFD0E5
:1013BE0007D006D005D004D003D002D001D000D083
:1013CE0082D083D0F0D0D0D0E0C212227835A68160
:1013DE0074036006FF0876FFDFFB7F04E4782DF6CA
:1013EE0008F608DFFA782E7630900003740193C069
:1013FE00E0E493C0E0750D05438901758AF0758CA4
:09140E00D8D28CD2AFD2A922037E
:0839D900900305EEF0A3EFF0EE
:1039E10012001E900307EEF0A3EFF012001EAB07CA
:1039F100AA06900305E0FEA3E0FF7C007D0A120108
:103A0100D6A3E0FCA3E0FDC3EB9DFDEA9CFCC3ED66
:053A11009FEC9E40D671
:013A1600228D
:0E3C180000007F2B7E067DCBDDFEDEFCDFFA9A
:013C2600227B
:101F9A00EFD3940540037F012212015CFED3940320
:101FAA0040037F0222EF7041EE700B900001120194
:101FBA0075F45293529412015CB4010B9000011211
:101FCA0001754293F4529412015CFEB4020A900025
:101FDA000112017542934294EEB4030D900001126E
:101FEA000175FEF45293EE4294EF640170431201BC
:101FFA005CFE700B900001120175F452915292EE40
:10200A00B4010B9000011201754291F4529212012F
:10201A005CB4020A900001120175429142921201C7
:10202A005CB4030D900001120175FEF45291EE4268
:10203A0092EF6402704312015CFE700B9000011271
:10204A000175F452955296EEB4010B9000011201FB
:10205A00754295F4529612015CB4020A900001127C
:10206A0001754295429612015CB4030D900001126B
:10207A000175FEF45295EE4296EF64037043120125
:10208A005CFE700B900001120175F452B152B2EE6F
:10209A00B4010B90000112017542B1F452B212015F
:1020AA005CB4020A90000112017542B142B21201F7
:1020BA005CB4030D900001120175FEF452B1EE42B8
:1020CA00B2EF6404704312015CFE700B90000112BF
:1020DA000175F452B352B4EEB4010B90000112012F
:1020EA007542B3F452B412015CB4020A90000112B0
:1020FA00017542B342B412015CB4030D900001129F
:10210A000175FEF452B3EE42B4EF64057043120156
:10211A005CFF700B900001120175F452C952CAEFAC
:10212A00B4010B90000112017542C9F452CA12019E
:10213A005CB4020A90000112017542C942CA120136
:10214A005CB4030D900001120175FFF452C9EF420D
:04215A00CA7F002216
:042EF100410000009C
:1008AC00900313EBF0A3EAF0A3E9F0900312EFF03E
:1008BC0064016003020AC290000504F0E4A3F0A3F3
:1008CC00F0A3F0A3F0A3F0A3F0900002F0900316B5
:1008DC00F0900316E0FFC39480501474132FF5822C
:1008EC00E43401F583E4F0900316E004F080E2E4D4
:1008FC00900316F0900316E0FFC394805014741309
:10090C002FF582E43400F583E4F0900316E004F054
:10091C0080E2900313E0FBA3E0FAA3E0F912015C80
:10092C00D394C040037F022290000A120175B401D7
:10093C0004D2BC8002C2BC12015CFFE598543F4F4C
:10094C00F598EF64C06008EF64406003020A3C90C5
:10095C0000021203D07F007E307D2A7C0012031A25
:10096C00900317120400E4FFFE7D01FC900317E0D6
:10097C00F8A3E0F9A3E0FAA3E0FBC31203AC400335
:10098C007F0222900317E0F8A3E0F9A3E0FAA3E0BA
:10099C00FBC3E49BFFE49AFE740199FDE498FC9080
:1009AC000317120400900313E0FBA3E0FAA3E0F991
:1009BC00900001120175FB64017038C28E538EFEDB
:1009CC005389BF5389CF438E40900317E0FCA3E0BB
:1009DC00FDA3E0FEA3E0FF78081203BD8F8D90030A
:1009EC0017A3A3A3E0F58BC2AB5389BF538FFDD2E2
:1009FC008E8076EB64027035538EEF438E01538EEE
:100A0C00F7438E04900317E0FCA3E0FDA3E0FEA3E4
:100A1C00E0FF78081203BD8FD6900317A3A3A3E0C1
:100A2C00F5D753AFFB538EF7438E10803C7F0222D9
:100A3C00900313E0FBA3E0FAA3E0F912015CFF7052
:100A4C0013900008120175B40105438E20801A53CF
:100A5C008EDF8015EFB48011900008120175B4017F
:100A6C0005438780800353877F900313E0FBA3E04B
:100A7C00FAA3E0F9900009120175B40104D2AC801C
:100A8C0002C2AC900007120175B40104D29C800222
:100A9C00C29C90000B12017554C0FFE5A2543F4F4D
:100AAC00F5A290000C120175B40105439710800358
:100ABC005397EF7F0022900312E064026003020C54
:100ACC002490000C7402F0E4A3F0A3F0A3F0A3F0C4
:100ADC00A3F0A3F0900316F0900316E0FFC39480EC
:100AEC00501474932FF582E43401F583E4F09003F1
:100AFC0016E004F080E2E4900316F0900316E0FF99
:100B0C00C39480501474932FF582E43400F583E47D
:100B1C00F0900316E004F080E2900313E0FBA3E0F6
:100B2C00FAA3E0F912015CFF64C06008EF64406056
:100B3C0003020BE490000A120175B4010543B501E0
:100B4C00800353B5FE12015CB4C005439A80800348
:100B5C00539A7F9000021203D07F007E307D2A7C56
:100B6C000012031A900317120400E4FFFE7D01FC2F
:100B7C00900317E0F8A3E0F9A3E0FAA3E0FBC3129B
:100B8C0003AC40037F0222900317E0F8A3E0F9A323
:100B9C00E0FAA3E0FBC3E49BFFE49AFE740199FD29
:100BAC00E498FC900317120400538EEF538EF74316
:100BBC008E04900317E0FCA3E0FDA3E0FEA3E0FF8E
:100BCC0078081203BD8FD6900317A3A3A3E0F5D723
:100BDC0053AFFB438E1080037F0222900313E0FB84
:100BEC00A3E0FAA3E0F9900009120175B4010543E2
:100BFC00AF01800353AFFE900007120175B40105DD
:100C0C00439A108003539AEF90000B120175540114
:0A0C1C00FFE5BA54FE4FF5BA7F035E
:010C260022AB
:030023000225B003
:0D25B000C0E0C0F0C083C082C0D075D01064
:1025BD002098030226D3C29890000BE060030226F8
:0125CD00D33A
:1025CE00900353E599F0900002E070067F14FE121E
:1025DE003B71900009E0C394804002E4F0900353F5
:1025EE00E0FF900009E0FE04F074132EF582E4344F
:1025FE0000F583EFF090000A7405F0900001E060A2
:10260E00030226D3EF12044926B62126572326921B
:10261E002A26742B26383F265043268B4726504DAC
:10262E0026A951266D53000026D3900000E06401C8
:10263E0060030226D3900009E0640160030226D3F2
:10264E00801790000074018057900000E0640170C4
:10265E0074900009E06401706C90000204805C903C
:10266E0000007402803A900000E0640270579000FF
:10267E0009E06401704F9000027403803E900000E8
:10268E007403801C900000E064037039900009E030
:10269E006401703190000274048020900000740474
:1026AE00F0900009E4F0801D900000E0B404169054
:1026BE000009E0B4010F9000027405F0900000E4F0
:0526CE00F0900009F08E
:1026D300900353E0B4AF06900214E004F0900214A8
:1026E300E0B4050AE599B47F0575C760E4F0309955
:0826F30007C299900008E4F011
:0B26FB00D0D0D082D083D0F0D0E032ED
:030043000235FB88
:1035FB00C0E0C0F0C083C082C0D075D018E59A304F
:10360B00E034539AFE900012E0702B7FC8FE123B01
:10361B0094900010E0C394804002E4F0900010E01E
:10362B00FF04F074932FF582E43400F583E59BF0EF
:10363B009000117405F0E59A30E108539AFD900063
:0E364B000FE4F0D0D0D082D083D0F0D0E032A7
:0F3C2700900008E070FA9000087401F08F992265
:1000260012015CFF600C123C27740129F9E43AFACC
:0300360080EE2237
:0B3AF100900330EBF0A3EAF0A3E9F033
:103AFC00E4FEEEC39D501A900330E0FBA3E0FAA362
:103B0C00E0F98E82758300120175FF123C270E803E
:013B1C00E1C7
:013B1D002285
:0F3C360090000FE070FA90000F7401F08F9B2246
:1000460012015CFF600C123C36740129F9E43AFA9D
:0300560080EE2217
:0B3B1E0090031DEBF0A3EAF0A3E9F018
:103B2900E4FEEEC39D501A90031DE0FBA3E0FAA347
:103B3900E0F98E82758300120175FF123C360E8002
:013B4900E19A
:013B4A002258
:03001B000200429E
:01004200328B
:03006300023C7EDE
:013C7E003213
:10215E00AD07EDD3940240037F0122ED600302210F
:10216E00F2C28C900002120175B40104D2A9800251
:10217E00C2A9900001120175B40104D2B98002C245
:10218E00B912015CFED3940340037F0222E5895409
:10219E00FC4EF589900003120175FFB40103538EB6
:1021AE007FEF7003438E80EFB402054389048003F2
:1021BE005389FB900004120175B40105438F018011
:1021CE0003538FFE900005120257E5F0F58C900038
:1021DE0005120257F58A900007120175B40102D25A
:1021EE008C7F0022ED6401600302227DC28E90007E
:1021FE0002120175B40104D2AB8002C2AB90000191
:10220E00120175B40104D2BB8002C2BB12015CFE86
:10221E00C3940340037F0222E58954CF4EF5899083
:10222E000003120175FFB40103538EBFEF70034319
:10223E008E40EFB4020543894080035389BF90005E
:10224E0004120175B40105438F028003538FFD9074
:10225E000005120257E5F0F58D900005120257F5B4
:10226E008B900007120175B40102D28E7F0022ED11
:10227E0064027074538EEF900002120175B4010562
:10228E0043AF04800353AFFB900003120175FED3DE
:10229E00940240037F0222EEB40103538EFB9000A2
:1022AE00031201757003438E04900003120175B47E
:1022BE000205438E088003538EF7900004120175B9
:1022CE00B40105438F048003538FFB900005120267
:1022DE0057FDACF0ECF5D68DD7900007120175B412
:0B22EE000103438E107F00227F0222BC
:0E3C4500E4F5C7F5C5F5C675C3FF75C4FF22CB
:10395B00AD07AC06C2AF75C78375C501ECF5C3AF38
:10396B00058FC475C65A75C6A500E5C21201A20D16
:10397B00BD00010C740129F9E43AFA90030A74FFB3
:0F398B00F5F012022B45F070D3123C45D2AF225B
:103BD700AD07AC06C2AFECF5C3AF058FC475C7839D
:103BE70075C50375C65A75C6A500123C45D2AF22E6
:10399A00AD07AC06C2AF75C78375C502ECF5C3AFF8
:1039AA00058FC412015CF5C275C65A75C6A5000D0D
:1039BA00BD00010C740129F9E43AFA9002DA74FFA5
:0F39CA00F5F012022B45F070D3123C45D2AF221C
:10141700EFD3940340037FFF22742E2F2FF8E6208B
:10142700E5F4C2AFE64430F6D2AFAE0CEEC39F5040
:10143700210E74352EF8E6F908E618BE030274FF8C
:10144700FDED69600909E71919F7090980F316160F
:1014570080DAEED39F400405810581EED39F4022B9
:1014670074352EF808E6F9EEB50C02A981180606C0
:10147700E6FDED6960091919E70909F71980F31EF7
:1014870080D9EF2435F8E604F8EF2F049000039392
:09149700F608EF2F93F67F002206
:1014A000EFD3940340037FFF22EF23242EF8E6308E
:1014B000E5F4C2AFE6548CF6D2AFE50CB5070A747A
:1014C000352FF8E6F581021316502E74362FF8E604
:1014D000BF030274FFFD18E6F974352FF8FBE6FC34
:1014E000E96C6008A805E7F61D1980F4A803A605B5
:1014F0001FE50CB507E37F002274362FF8E6FD18D0
:1015000086010F74352FF8A601088604E50CB5078F
:1015100002AC81ED6C60080D09A805E6F780F4E5E2
:091520000CB507DE89817F002271
:101529008FF0E4FFFEE50C23242DF8C2A930F70D56
:101539007F08E6600B2DF660325030800730F106E7
:10154900EDF660277E020830F010C2AFE610E725FD
:101559000E30E20CD2AF7F048014C2AFE610E7155B
:1015690054EC4EF6D2AFD2A90213167F0808EF4405
:0F15790083F4C2AF56C6D2AFD2A954804FFF221F
:030000000231BA10
:0C31BA00787FE4F6D8FD75813802320100
:10006600E709F608DFFA8046E709F208DFFA803E7C
:1000760088828C83E709F0A3DFFA8032E309F60869
:10008600DFFA8078E309F208DFFA807088828C83D1
:10009600E309F0A3DFFA806489828A83E0A3F60885
:1000A600DFFA805889828A83E0A3F208DFFA804C5F
:1000B60080D280FA80C680D4806980F28033801036
:1000C60080A680EA809A80A880DA80E280CA80339F
:1000D60089828A83ECFAE493A3C8C582C8CCC58317
:1000E600CCF0A3C8C582C8CCC583CCDFE9DEE780E7
:1000F6000D89828A83E493A3F608DFF9ECFAA9F066
:10010600EDFB2289828A83ECFAE0A3C8C582C8CCBB
:10011600C583CCF0A3C8C582C8CCC583CCDFEADED4
:10012600E880DB89828A83E493A3F208DFF980CC36
:1001360088F0EF60010E4E60C388F0ED2402B4042F
:100146000050B9F582EB2402B4040050AF232345D6
:0601560082239000B67345
:10015C00BB010689828A83E0225002E722BBFE02A1
:09016C00E32289828A83E49322D4
:10017500BB010CE58229F582E5833AF583E022503F
:1001850006E92582F8E622BBFE06E92582F8E22289
:0D019500E58229F582E5833AF583E49322A3
:1001A200BB010689828A83F0225002F722BBFE013C
:0201B200F32236
:1001B400F8BB010DE58229F582E5833AF583E8F081
:1001C400225006E92582C8F622BBFE05E92582C82D
:0201D400F22215
:1001D600BC000BBE0029EF8DF084FFADF022E4CC0D
:1001E600F875F008EF2FFFEE33FEEC33FCEE9DECD6
:1001F600984005FCEE9DFE0FD5F0E9E4CEFD22ED1C
:10020600F8F5F0EE8420D21CFEADF075F008EF2F65
:10021600FFED33FD4007985006D5F0F222C398FD56
:050226000FD5F0EA22F3
:10022B00C5F0F8A3E028F0C5F0F8E582158270025E
:06023B001583E038F022FB
:10024100A3F8E0C5F025F0F0E58215827002158370
:06025100E0C838F0E822CD
:10025700BB0110E58229F582E5833AF583E0F5F0E5
:10026700A3E0225009E92582F886F008E622BBFEC2
:100277000AE92582F8E2F5F008E222E5832AF58308
:08028700E993F5F0A3E99322CD
:10028F00E88FF0A4CC8BF0A42CFCE98EF0A42CFC0E
:10029F008AF0EDA42CFCEA8EF0A4CDA8F08BF0A48C
:1002AF002DCC3825F0FDE98FF0A42CCD35F0FCEBEB
:1002BF008EF0A4FEA9F0EB8FF0A4CFC5F02ECD39B0
:0F02CF00FEE43CFCEAA42DCE35F0FDE43CFC221D
:1002DE0075F008758200EF2FFFEE33FECD33CDCCD7
:1002EE0033CCC58233C5829BED9AEC99E58298405A
:1002FE000CF582EE9BFEED9AFDEC99FC0FD5F0D637
:10030E00E4CEFBE4CDFAE4CCF9A88222B800C1B960
:10031E000059BA002DEC8BF084CFCECDFCE5F0CB9E
:10032E00F97818EF2FFFEE33FEED33FDEC33FCEBD7
:10033E0033FB10D703994004EB99FB0FD8E5E4F992
:10034E00FA227818EF2FFFEE33FEED33FDEC33FC7F
:10035E00C933C910D7059BE99A4007EC9BFCE99A73
:10036E00F90FD8E0E4C9FAE4CCFB2275F010EF2FB8
:10037E00FFEE33FEED33FDCC33CCC833C810D707B8
:10038E009BEC9AE899400AED9BFDEC9AFCE899F8F3
:0E039E000FD5F0DAE4CDFBE4CCFAE4C8F92286
:1003AC00EB9FF5F0EA9E42F0E99D42F0E89C45F0A7
:0103BC00221E
:1003BD00E8600FECC313FCED13FDEE13FEEF13FF1E
:0303CD00D8F12242
:1003D000BB010DE58229F582E5833AF5830204A885
:1003E0005007E92582F802049BBBFE07E92582F845
:1003F0000204B4E58229F582E5833AF5830204C15B
:0C040000ECF0A3EDF0A3EEF0A3EFF0226F
:10040C00A8828583F0D083D0821204231204231295
:10041C000423120423E473E493A3C583C5F0C583BA
:10042C00C8C582C8F0A3C583C5F0C583C8C582C83A
:01043C00229D
:0C043D00A42582F582E5F03583F58322CA
:10044900D083D082F8E4937012740193700DA3A342
:1004590093F8740193F5828883E473740293686056
:06046900EFA3A3A380DF56
:100C2700E5282408F582E43403F583E005282290BB
:100C37000305301003900308E475F0011204D10294
:100C4700015C2009E97F2ED2098018EF540F249008
:100C5700D43440D4FF300D0BEF24BFB41A00500337
:100C67002461FFE52960021529052CE52C70020592
:100C77002B30100E900305E475F0011204D1EF023A
:100C870001A2023C087403D2108003E4C210F528C5
:100C97009003051204E8E4F529F52BF52CE5296006
:100CA700077F20120C6A80F5752AFFC20AC209C2A3
:100CB7000BC20CC20EC20FC211120C36FF700D30E0
:100CC70010057F00120C7BAF2CAE2B22B4255FC220
:100CD700D5C20D120C36FF24D0B40A00501A75F095
:100CE7000A782930D50508B6FF0106C6A426F620DE
:100CF700D5047002D20C80D924CFB41A00EF500467
:100D0700C2E5D20D020E7CD20A80C6D20980C0D2BB
:100D17000B80BCD2D580BAD20E80B47F20120C6A69
:100D2700200B077401B5290040F1120C27FF120CA4
:100D37006A020CA4D211D20F8095120C27FB120C59
:100D470027FA120C27F94A4B7006794D7A0F7BFF69
:100D5700200B2EE529602A7E008E82758300120102
:100D67007560060EEE652A70F0C2D5EBC0E0EAC0EA
:100D7700E0E9C0E0EE120EC3D0E0F9D0E0FAD0E02F
:100D8700FB12015CFF60AAEBC0E0EAC0E0E9C0E04B
:100D9700120C6AD0E02401F9D0E03400FAD0E0FB6D
:100DA700E52A0460DCD52AD980877BFF7A0E79BFD4
:100DB700D20B809C791080027908C20FC21180087B
:100DC700D2D5790A8004790AC2D5E52A047002F5DA
:100DD7002AE4FAFDFEFF120C27FC7B08200A1312F7
:100DE7000C27FD7B1030090A120C27FE120C27FF77
:100DF7007B20EC3382D592D55013C3E43009069F8C
:100E0700FFE49EFEE4200A039DFDE49CFCE4CBF88E
:100E1700C20AEC700CCFCECDCCE824F8F870F38082
:100E270017C3EF33FFEE33FEED33FDEC33FCEB334B
:100E3700FB994002FB0FD8E9EB300A05F8D0E0C474
:100E470048B20AC0E00AEC4D4E4F78207B0070C2D2
:100E5700EAB52A0040BCC0E0120EC5D0F0D0E020B1
:100E67000A04C4C0E0C4B20AC0F0120C53D0F0D5D3
:100E7700F0EB020CA41204490D41530DBB580D129F
:100E87004C0D0E420DBF4F0DC7440DC7490D2743EB
:080E97000DCD550DB1460DB162
:100E9F00450DB1470F6D500D162D0D1A2E0D3D2B13
:100EAF000D1E230D3B200F562A0CD64800000D3582
:100EBF003F3F3F00790AA2D5200C14300E09B9101C
:100ECF00020404B9080104A2D5200F025001042026
:100EDF000B68920BB529005034C0E07F20300C19FD
:100EEF007F30A20B720F720E500F120F1CC20BC26B
:100EFF000FC20EC2117F30800F300E03E9C0E01217
:100F0F000C6A300E03D0E0F9D0E0B529CC300E17C3
:100F1F007F30B9100C120C6A7F58300D077F788024
:100F2F0003B90803120C6A300B057F2D020C6A7F80
:100F3F00202011F87F2B200FF322920B80CF286EE9
:100F4F00756C6C2900D20A120C27300AF8C20A7885
:100F5F002930D50108F6020CD62D50434958120CF2
:100F6F00272403B405004001E4900F6893120C5B33
:0D0F7F00743A120C5BD20C752904020DBBF4
:102FB5009003F1EBF0A3EAF0A3E9F0A3E0FBA3E0B3
:102FC500FAA3E0F912015C70030230619003F1E0AD
:102FD500FBA3E0FAA3E0F912015C700302306D90E7
:102FE50003F4E0F9A3E0FAA3E0A3C9F0A3EAF0A390
:102FF500E9F09003F1A3E0FAA3E0F99003FAEBF00E
:10300500A3EAF0A3E9F09003F7E0FBA3E0FAA3E05D
:10301500F912015CFF60269003FAE0FBA3E0FAA336
:10302500E0F912015C6F70159003F875F00112025A
:103035002B9003FBE475F00112022B80C99003F776
:10304500E0FBA3E0FAA3E0F912015C7002800D90A9
:1030550003F2E475F00112022B022FD19003F1E087
:0F306500FBA3E0FAA3E0F9227B007A00790022B6
:102BA800900305EBF0A3EAF0A3E9F0900305E0FB3E
:102BB800A3E0FAA3E04A4B7015900427E0F9A3E0DC
:102BC800FAA3E0900305C9F0A3EAF0A3E9F09003A3
:102BD80005E0FBA3E0FAA3E04A4B7004FBFAF922F4
:102BE800900308E0F9A3E0FAA3E090030EC9F0A36C
:102BF800EAF0A3E9F0900305E0FBA3E0FAA3E0F90B
:102C0800123246900306EE8FF012022B900305E075
:102C1800FBA3E0FAA3E0F912015C7012F990042713
:102C2800C9F0A3F0A3E9F07B007A007900229003B1
:102C380008E0F9A3E0FAA3E090030EC9F0A3EAF0D4
:102C4800A3E9F0900305E0FBA3E0FAA3E0F9123250
:102C5800CA900427EBF0A3EAF0A3E9F04A4B601806
:102C6800900427E0FBA3E0FAA3E0F9E41201A290A4
:102C7800042875F00112022B900305E0FBA3E0FA8B
:042C8800A3E0F922AA
:10046F00EF4E6012EF60010EEDBB010B89828A83A4
:10047F00F0A3DFFCDEFA2289F05007F709DFFCA9B1
:0C048F00F022BBFEFCF309DFFCA9F02208
:1031C6000213DAE493A3F8E493A34003F68001F232
:1031D60008DFF48029E493A3F85407240CC8C3330A
:1031E600C4540F4420C8834004F456800146F6DFD9
:1031F600E4800B0102040810204080902E2FE47E0C
:10320600019360BCA3FF543F30E509541FFEE493CD
:10321600A360010ECF54C025E060A840B8E493A394
:10322600FAE493A3F8E493A3C8C582C8CAC583CABF
:10323600F0A3C8C582C8CAC583CADFE9DEE780BE77
:012EF50000DC
:0D049B00E6FB08E6F908E6FA08E6CBF822D1
:0C04A800E0F8A3E0F9A3E0FAA3E0FB22D7
:0D04B400E2FB08E2F908E2FA08E2CBF822C8
:1004C100E493F8740193F9740293FA740393FB2291
:1004D100F8E0FBA3A3E0F925F0F0E58215827002B4
:0704E1001583E0FA38F02258
:0904E800EBF0A3EAF0A3E9F02215
:1032460090030BEBF0A3EAF0A3E9F0E4900311F08E
:10325600A3F0E4FEFF90030EE0FBA3E0FAA3E0F97F
:103266008F828E83120175FD601890030BE0FBA31D
:10327600E0FAA3E0F912015C6D60070FBF00010ED2
:1032860080D390030EE0FBA3E0FAA3E0F98F828ED1
:103296008312017570028023900312E004F0700619
:1032A600900311E004F090030BE0FBA3E475F0013A
:1032B60012022BA9F0FA12015C7097900311E0FE3E
:0432C600A3E0FF2260
:1032CA0090030BEBF0A3EAF0A3E9F090030EE0F908
:1032DA00A3E0FAA3E0A3C9F0A3EAF0A3E9F09003FC
:1032EA0011E0FBA3E0FAA3E0F912015CFF601D9074
:1032FA00030BE0FBA3E0FAA3E0F912015C6F600C98
:10330A00900312E475F00112022B80D2900311E0AF
:10331A00FBA3E0FAA3E0F912015C600C90030BE056
:10332A00FBA3E0FAA3E0F92290030BE0FBA3E47508
:10333A00F001120241A9F0FA12015C708EFBFAF94F
:01334A002260
:00000001FF
